:100000009AC100000C9410100C94E50F0C94BA0FD8
:100010000C948F0F0C94640F0C94390F0C940E0FEA
:100020000C94E30EB9C10000B7C10000B5C10000D7
:10003000B3C100000C942911AFC10000ADC1000094
:10004000ABC10000A9C10000A7C10000A5C100000C
:10005000A3C10000A1C100009FC100000C94990E33
:100060009BC100001FC20000F3C1000095C1000049
:1000700093C1000091C100008FC100008DC100003C
:100080008BC1000089C1000087C1000085C100004C
:1000900083C1000081C100007FC100007DC100005C
:1000A0007BC1000079C1000077C1000075C100006C
:1000B00073C1000071C100006FC100006DC100007C
:1000C0006BC1000069C1000067C1000065C100008C
:1000D00063C1000061C100005FC100005DC100009C
:1000E0005BC100007A0A7D0A6C0A700A760AB40ABB
:1000F000810A850A8B0A8F0A930A990A9D0AA10A26
:10010000B40AA70AAB0AAF0A00407A10F35A00A05B
:10011000724E18090010A5D4E80000E876481700D0
:1001200000E40B54020000CA9A3B000000E1F50510
:10013000000080969800000040420F000000A0865A
:1001400001000000102700000000E803000000008C
:100150006400000000000A00000000000100000030
:1001600000002C76D888DC674F0823DFC1DFAE594A
:10017000E1B1B796E5E3E453C63AE651997696E8DD
:10018000E6C28426EB898C9B62ED407C6FFCEFBC61
:100190009C9F40F2BAA56FA5F490055A2AF75C938C
:1001A0006B6CF9676DC11BFCE0E40D47FEF520E6C2
:1001B000B500D0ED902E0300943577050080841EA5
:1001C000080000204E0A000000C80C333333330F00
:1001D000986E12831141EF8D2114893BE65516CF9D
:1001E000FEE6DB18D1844B381BF77C1D901DA4BBA9
:1001F000E424203284725E228100C9F124ECA1E55E
:100200003D271112131415160A0B0C0D0E0F0000CA
:100210000A0B02090C0D0E08070304010000000080
:1002200000000000000000000000000000000000CE
:10023000000000000000000000001211100000008B
:1002400000000000000000000000000000000000AE
:10025000000000000001020304050000210024004A
:1002600027002A002D0030003300010100000401A6
:1002700007010A01000020002300260029002C00AD
:100280002F003200000100000301060109010000F7
:100290002200250028002B002E003100340002012E
:1002A0000000050108010B01050505050705080803
:1002B0000808020202020A0A0808040404040101F0
:1002C0000101010101010303030303030303040705
:1002D00007070C0C0C0C0C0C0C0C0202020206069C
:1002E0000606060606060B0B0B0B0B0B0B0B01028F
:1002F0001020200808102040102040800201020138
:1003000008040201010204081020408080402010EF
:100310000804020180040201804020100804020148
:1003200008040201010204081020408001020408B0
:1003300010204080EF1611241FBECFEFD1E2DEBFA8
:10034000CDBF00E00CBF13E0A0E0B2E0EEE7FEE3BB
:1003500000E00BBF02C007900D92A831B107D9F79A
:100360002EE0A8E1B3E001C01D92A135B207E1F78C
:1003700011E0CBE9D1E000E006C021970109802F10
:10038000FE010E94051DCA39D10780E00807A9F7C0
:100390000E94CA130C943D1F33CE089580E090E074
:1003A000089582ED93E00E941A0A21E0892B09F456
:1003B00020E0822F0895EF92FF920F931F93CF9327
:1003C000DF93EC0181E0888F9B8D8C8D981305C0A5
:1003D000E889F989808185FD26C0F62E0B8D10E015
:1003E0000F5F1F4F0F731127E02E8C8DE8120CC08A
:1003F0000FB607FCFACFE889F989808185FFF5CF30
:10040000CE010E94310DF1CF8B8DFE01E80FF11D61
:10041000E35AFF4FF0829FB7F8940B8FEA89FB896C
:10042000808180620AC09FB7F894EE89FF8960835B
:10043000E889F98980818370806480839FBF81E02F
:1004400090E0DF91CF911F910F91FF90EF90089571
:100450001F920F920FB60F9211240BB60F922F938B
:100460003F934F935F936F937F938F939F93AF933C
:10047000BF93EF93FF9382ED93E00E94310DFF91C4
:10048000EF91BF91AF919F918F917F916F915F910C
:100490004F913F912F910F900BBE0F900FBE0F9079
:1004A0001F9018951F920F920FB60F9211240BB642
:1004B0000F922F938F939F93EF93FF93E091E2031B
:1004C000F091E3038081E091E803F091E90382FD7C
:1004D00012C090818091EB038F5F8F732091EC03AA
:1004E000821751F0E091EB03F0E0EE52FC4F958F54
:1004F0008093EB0301C08081FF91EF919F918F91D9
:100500002F910F900BBE0F900FBE0F901F9018955C
:100510008091B3038093B5031092B3030895809143
:10052000B2038093B6031092B20308957F928F9224
:100530009F92AF92BF92CF92DF92EF92FF920F9372
:100540001F93CF93DF9370903C0380903D03909076
:100550003E03D0913F03C0914003B0914103F0911D
:100560004203E0914303272D382D492D5D2F6C2F39
:100570007B2F8F2F9E2FA090AA03B090AB03C0902B
:10058000AC03D090AD03E090AE03F090AF030091C8
:10059000B0031091B1030E94131DA2E00E941C1D24
:1005A000B1F0A8F07092AA038092AB039092AC03D2
:1005B000D093AD03C093AE03B093AF03F093B003F9
:1005C000E093B1038091B3038F5F8093B303DF9116
:1005D000CF911F910F91FF90EF90DF90CF90BF9040
:1005E000AF909F908F907F9008957F928F929F926F
:1005F000AF92BF92CF92DF92EF92FF920F931F9331
:10060000CF93DF9370903C0380903D0390903E0326
:10061000D0913F03C0914003B0914103F091420358
:10062000E0914303272D382D492D5D2F6C2F7B2F13
:100630008F2F9E2FA090C103B090C203C090C30320
:10064000D090C403E090C503F090C6030091C703A7
:100650001091C8030E94131DA2E00E941C1DB1F05E
:10066000A8F07092C1038092C2039092C303D0930A
:10067000C403C093C503B093C603F093C703E093CC
:10068000C8038091B2038F5F8093B203DF91CF9153
:100690001F910F91FF90EF90DF90CF90BF90AF90A0
:1006A0009F908F907F9008952F923F924F925F92EC
:1006B0006F927F928F929F92AF92BF92CF92DF9272
:1006C000EF92FF920F931F93CF93DF93CDB7DEB7D7
:1006D00062970FB6F894DEBF0FBECDBF60913803AE
:1006E0007091390380913A0390913B030E94D01C92
:1006F0002091B60330E01B01221A330A30927004B5
:1007000020926F0460913403709135038091360319
:10071000909137030E94D01C2091B50330E0AB01CB
:10072000421B530B5A8B498B5093740440937304B0
:10073000B101032C000C880B990B0E94A31A2B010A
:100740003C0180917104909172049A838983BC0169
:10075000990F880B990B0E94A31AA30192010E9482
:10076000041C20E030E040E05FE30E94021B20E038
:1007700030E046E153E40E94021B20E030E04AE70B
:1007800054E40E94681C20917704309178044091D1
:10079000790450917A040E94041C6093770470934A
:1007A00078048093790490937A04A989BA89BD0169
:1007B000BB0F880B990B0E94A31A6D837E838F83D6
:1007C00098870091750410917604B801012E000CF1
:1007D000880B990B0E94A31A2D813E814F81588569
:1007E0000E94041C20E030E040E05FE30E94021B16
:1007F00020E030E046E153E40E94021B20E030E0BC
:100800004AE754E40E94681C20917B0430917C04E8
:1008100040917D0450917E040E94041C60937B04EF
:1008200070937C0480937D0490937E04C090230396
:10083000D0902403E0902503F090260320E030E0E0
:10084000A901C701B6010E94011D18165CF420E041
:1008500030E040E85FE3C701B6010E949D1A87FFC0
:100860001BC00AC020E030E040E85FEBC701B601E2
:100870000E94011D181684F41092770410927804D7
:100880001092790410927A0410927B0410927C04E6
:1008900010927D0410927E04C0909304D090940432
:1008A000E0909504F0909604A7019601609177047A
:1008B000709178048091790490917A040E94011DCE
:1008C000181644F4C0927704D0927804E092790428
:1008D000F0927A0446015701B7FAB094B7F8B09491
:1008E000A501940160917704709178048091790456
:1008F00090917A040E949D1A87FF08C08092770425
:1009000090927804A0927904B0927A0420917B04AA
:1009100030917C0440917D0450917E04C701B60162
:100920000E949D1A87FF08C0C0927B04D0927C046D
:10093000E0927D04F0927E0420917B0430917C044F
:1009400040917D0450917E04C501B4010E94011DB7
:10095000181644F480927B0490927C04A0927D044B
:10096000B0927E04B10129813A81621B730B072E7C
:10097000000C880B990B0E94A31A4B015C01609339
:100980007F0470938004809381049093820469892A
:100990007A89601B710B072E000C880B990B0E9443
:1009A000A31A69837A838B839C83609383047093F7
:1009B00084048093850490938604809187049091A9
:1009C0008804A0918904B0918A0489879A87AB87AB
:1009D000BC8720918B0430918C0440918D04509100
:1009E0008E0460E070E080E89FE30E94681C6B0169
:1009F0007C0120918F04309190044091910450919A
:100A000092042D873E874F87588B20917704309131
:100A100078044091790450917A040E94021BA3014A
:100A200092010E94041C2B013C012D853E854F85BF
:100A30005889C501B4010E94021B20E030E046E164
:100A400053E40E94681C9B01AC01C301B2010E94E7
:100A5000041C29853A854B855C850E94021B4B014D
:100A60005C0160931E0370931F0380932003909397
:100A7000210320917B0430917C0440917D045091AE
:100A80007E04C701B6010E94021B2D813E814F8169
:100A900058850E94041C6B017C012D853E854F8585
:100AA000588969817A818B819C810E94021B20E098
:100AB00030E046E153E40E94681C9B01AC01C70191
:100AC000B6010E94041C29853A854B855C850E94ED
:100AD000021B6B017C0160931A0370931B038093CC
:100AE0001C0390931D0320E030E04FE753E4C50161
:100AF000B4010E94011D181664F480E090E0AFE795
:100B0000B3E480931E0390931F03A0932003B0933C
:100B1000210320E030E0A90160911E0370911F03C2
:100B200080912003909121030E949D1A87FF08C0A5
:100B300010921E0310921F031092200310922103A3
:100B400020E030E04FE753E4C701B6010E94011DE9
:100B5000181664F480E090E0AFE7B3E480931A03E2
:100B600090931B03A0931C03B0931D0320E030E07F
:100B7000A90160911A0370911B0380911C0390914D
:100B80001D030E949D1A87FF08C010921A0310923D
:100B90001B0310921C0310921D03309272042092CA
:100BA000710449895A89509376044093750462967A
:100BB0000FB6F894DEBF0FBECDBFDF91CF911F916E
:100BC0000F91FF90EF90DF90CF90BF90AF909F90EC
:100BD0008F907F906F905F904F903F902F900895EF
:100BE0000F931F93CF93DF930091B60310E06091B2
:100BF00038037091390380913A0390913B030E942E
:100C0000D01C061B170B1093700400936F04C09147
:100C1000B503D0E0609134037091350380913603C1
:100C2000909137030E94D01CC61BD70BD09374043D
:100C3000C09373040F3F8FEF18071CF50B3F8FEF26
:100C400018070CF055C0033E8FEF180794F40F3CC3
:100C50008FEF18070CF042C009318CEF18070CF425
:100C60006CC00D391F4F5CF520E030E040EA51E4E4
:100C70002AC0023F1F4FBCF520E030E040E051E4C5
:100C800022C00E3111057CF40F301105DCF5023065
:100C900011050CF452C0063011057CF520E030E05F
:100CA00040E85FE338C0023311058CF1083E134081
:100CB0000CF043C020E030E040E751E42CC020E0DD
:100CC00030E040E751E460911E0370911F03809172
:100CD0002003909121030E94041C27C020E030E0F3
:100CE00040E451E4F0CF20E030E040EA50E4EBCFC4
:100CF00020E030E040E85FE3E6CF20E030E040EA8B
:100D000050E409C020E030E040E051E404C020E0BD
:100D100030E040E451E460911E0370911F03809124
:100D20002003909121030E94031C60931E03709383
:100D30001F03809320039093210320E030E04FE7CE
:100D400053E460911E0370911F03809120039091E2
:100D500021030E94011D181664F480E090E0AFE7C3
:100D6000B3E480931E0390931F03A0932003B093DA
:100D7000210320E030E0A90160911E0370911F0360
:100D800080912003909121030E949D1A87FF08C043
:100D900010921E0310921F03109220031092210341
:100DA000CF3F8FEFD8071CF5CB3F8FEFD8070CF064
:100DB00054C0C33E8FEFD80794F4CF3C8FEFD807D1
:100DC0000CF041C0C9318CEFD8070CF46BC0CD39A1
:100DD000DF4F54F520E030E040EA51E429C0C23F43
:100DE000DF4FB4F520E030E040E051E421C0CE31E7
:100DF000D10574F4CF30D105D4F5C230D1050CF44F
:100E000051C026977CF520E030E040E85FE338C031
:100E1000C233D1058CF1C83ED3400CF043C020E072
:100E200030E048EC51E42CC020E030E040E751E4F1
:100E300060911A0370911B0380911C0390911D0314
:100E40000E94041C27C020E030E040E451E4F0CFD1
:100E500020E030E040EA50E4EBCF20E030E040E832
:100E60005FE3E6CF20E030E040EA50E409C020E054
:100E700030E040E051E404C020E030E040E451E4E0
:100E800060911A0370911B0380911C0390911D03C4
:100E90000E94031C60931A0370931B0380931C032E
:100EA00090931D0320E030E04FE753E460911A0374
:100EB00070911B0380911C0390911D030E94011DE2
:100EC000181664F480E090E0AFE7B3E480931A036F
:100ED00090931B03A0931C03B0931D0320E030E00C
:100EE000A90160911A0370911B0380911C039091DA
:100EF0001D030E949D1A87FF08C010921A031092CA
:100F00001B0310921C0310921D03DF91CF911F91C0
:100F10000F9108950F931F93CF93DF938091B603A2
:100F20008093B7038091B5038093B8038091190330
:100F30008093B903809133038093BA0380E00E94C9
:100F40003D128091B3049091B4047FD68DE10E944C
:100F5000FE1181FF07C08091B3049091B40475D64F
:100F60000E94F51180E00E94FE11682F6E7F80E0E4
:100F70000E940B1282E00E94FE11E4E5F2E0E4918F
:100F800061E070E001C0660FEA95EAF7682B82E045
:100F90000E940B12C091AA04DC2FCB3008F0DAE0DB
:100FA0008091AB04811102C0CD1B01C0C0E00E9442
:100FB000F31180EA0E943B1007EB13E0D15030F0B0
:100FC000F80181918F010E943B10F8CFCC2329F0CA
:100FD00080E00E943B10C150F9CF0E94F11181E0E6
:100FE0000E943D120E94F3118FEF0E943B10C82F08
:100FF0000E94F111C073B1F380E00E943D1260E7DE
:1010000087E00E940B1284FD0E94F5110E945A1283
:101010008091C0038F5F8093C003DF91CF911F91B8
:101020000F9108950F931F93E091C504F091C604AA
:1010300090818091BF04892B8083E091C104F0915D
:10104000C20490818091BF048095892380838BE0C6
:1010500090E00197F1F7E091C104F091C204908112
:101060008091BF04892B808383E290E00197F1F7A0
:10107000E091C104F091C20490818091BF048095F9
:1010800089238083E091C504F091C604908180910A
:10109000BF04809589238083E091C304F091C40448
:1010A00090818091C004892309F079C0D9D520911D
:1010B000C7043091C804890120E030E00855194E7A
:1010C0002F4F3F4FDC01CB01800F911FA21FB31F99
:1010D0008093C9049093CA04A093CB04B093CC042A
:1010E000E091C304F091C40490818091C0048923ED
:1010F00079F4B6D50091C9041091CA042091CB04AB
:101100003091CC04061717072807390748F747C05E
:10111000A7D52091C7043091C804DC01CB01820F10
:10112000931FA11DB11D8093C9049093CA04A0937D
:10113000CB04B093CC04E091C304F091C40490813B
:101140008091C004892379F08BD50091C904109156
:10115000CA042091CB043091CC0406171707280746
:10116000390748F71CC07CD52091C7043091C804CA
:10117000255031094091C9045091CA04241B350BF4
:10118000620F731F80E090E029E330E040E050E020
:101190000E94D21B209319031F910F91089560E0C4
:1011A00070E0F0CF8091450E9FD421E0892B09F4A7
:1011B00020E02093490E8091460E96D421E0892BA1
:1011C00009F420E020934A0E8091470E8DD421E04F
:1011D000892B09F420E020934B0E8091480E84D493
:1011E00021E0892B09F420E020934C0E0895CF9341
:1011F0008091A3049091A4042091A5043091A604A9
:101200008217930711F061E0C5D48091A5049091F5
:10121000A6042091A3043091A4042817390711F0E3
:1012200061E0B8D4CFB7F8948091B403811123C0A2
:10123000EDEDF2E08491E3E2F3E09491E82FF0E049
:10124000EE0FFF1FE65AFD4FA591B491EC91E923F3
:1012500019F461E085E370D461E085E39BD48CB53B
:1012600080618CBD8CB580648CBD61E084E392D4D8
:1012700061E083E38FD48091B4038F5F8093B403E4
:10128000CFBF80E00E943D1281E00E94D91165E04D
:1012900070E080E090E009D56CE080E00E940B12E5
:1012A0006FE584E00E940B1282E090E00E94081338
:1012B000882319F081E08093A90486E00E94FE1142
:1012C00080E090E00E9408130E94F31180E5D3D6DD
:1012D00083E7D1D60E94F11160E08DE10E940B12EC
:1012E00060E08CE10E940B121092AB0460E787E093
:1012F0000E940B126CE485E00E940B120E94F31115
:1013000082EEB9D60E94F1110E94F5110E944C1292
:1013100080E00E94FE11682F6E7F80E00E940B1219
:1013200080E090E00E94081360E085E00E940B12CC
:101330004091B10450E06CE172E08CEA94E00E94CC
:101340002D1FE8E0F2E084914091B1046CE172E07D
:101350000E941C12E2E0F2E084916091AA040E94D3
:101360000B1282E00E94FE11E4E5F2E0E49161E0FC
:1013700070E001C0660FEA95EAF7682B82E00E94F0
:101380000B124091B10466E172E08AE00E941C12E7
:101390004091B10466E172E080E10E941C1260910C
:1013A000AA0481E10E940B12CF910C945A12CF93A0
:1013B000DF93EC0160E08881BFD360E08A81BCD319
:1013C000CC8161E08C2FE6D360E08C2FDF91CF9150
:1013D000B3C3FC01538D448D252F30E0842F90E062
:1013E000821B930B541710F0CF9608950197089520
:1013F000FC01918D828D981761F0828DDF01A80F1D
:10140000B11D5D968C91928D9F5F9F73928F90E03E
:1014100008958FEF9FEF0895FC01918D828D9817AD
:1014200031F0828DE80FF11D858D90E008958FEFEA
:101430009FEF0895FC01918D228D892F90E0805CB3
:101440009F4F821B91098F739927089580E090E048
:10145000892B21F00E94D101811125C080E090E00C
:10146000892B41F080E090E0892B21F00E94000060
:1014700081111CC080E090E0892B41F080E090E079
:10148000892B21F00E940000811113C080E090E0C0
:10149000892BA1F080E090E0892B81F00E94000070
:1014A00081110AC008950E940000D8CF0E94000058
:1014B000E1CF0E940000EACF0C940000089590E074
:1014C000FC013197E231F10508F04EC08827EE5853
:1014D000FF4F8F4F0C94051D809180008F7703C0C4
:1014E000809180008F7D809380000895809180009E
:1014F000877FF9CF84B58F7702C084B58F7D84BD97
:1015000008958091B0008F7703C08091B0008F7DE7
:101510008093B0000895809190008F7707C08091EC
:1015200090008F7D03C080919000877F8093900012
:1015300008958091A0008F7707C08091A0008F7DD3
:1015400003C08091A000877F8093A00008958091C0
:1015500020018F7707C0809120018F7D03C080918B
:101560002001877F80932001089508950F931F9392
:10157000CF93DF9300D000D0CDB7DEB766E173E044
:10158000CE0101960E94B6136AE772E0CE01019681
:101590000E947E1360911903CE0101960E9455139B
:1015A00060E572E0CE0101960E947E1360913803DF
:1015B0007091390380913A0390913B030E94D01CB3
:1015C000CE010196B4D76EE572E0CE0101960E947D
:1015D0007E136091340370913503809136039091AE
:1015E00037030E94D01CCE010196A1D761E672E0BC
:1015F000CE0101960E947E1363E672E0CE01019651
:101600000E947E1301EC13E0F80160817181CE012C
:1016100001968DD76EE572E0CE0101960E947E1391
:10162000F80160817181CE01019681D761E672E097
:10163000CE0101960E947E13CE01019667D7898163
:101640009A810E94C01D26960FB6F894DEBF0FBE89
:10165000CDBFDF91CF911F910F9108950F931F93ED
:10166000CF93DF9300D000D0CDB7DEB766E173E053
:10167000CE0101960E94B61362E772E0CE01019698
:101680000E947E1307EB13E0F8016185CE010196FD
:101690000E94551368E772E0CE0101960E947E1306
:1016A000F8016281CE0101960E94551362E872E052
:1016B000CE0101960E947E13F8016381CE0101964E
:1016C000F4D76CE872E0CE0101960E947E13F80117
:1016D0006081CE010196E9D76EE572E0CE010196F8
:1016E0000E947E13F8016181CE010196DED761E68A
:1016F00072E0CE0101960E947E13CE01019606D7BC
:1017000089819A810E94C01D26960FB6F894DEBF8B
:101710000FBECDBFDF91CF911F910F9108950F9311
:101720001F93CF93DF9300D000D0CDB7DEB766E133
:1017300073E0CE0101960E94B6136EE872E0CE010E
:101740000196DCD7609123037091240380912503D7
:10175000909126030E94D51CCE010196A6D76EE576
:1017600072E0CE010196CAD76091B603CE01019610
:101770009CD76EE572E0CE010196C0D76091B503AB
:10178000CE01019692D767E972E0CE010196B6D7F5
:101790000FE614E0F80160817181CE010196C7D691
:1017A0006EE572E0CE010196A9D7F80164817581DA
:1017B000CE010196BCD663EA72E0CE0101969ED7B7
:1017C000F80160857185828593850E94D51CCE01C4
:1017D00001966BD76EE572E0CE0101968FD7F801C6
:1017E00064857585868597850E94D51CCE010196F6
:1017F0005CD76AEA72E0CE01019680D7F801608971
:101800007189828993890E94D51CCE0101964DD79A
:101810006EE572E0CE01019671D7F8016489758991
:10182000868997890E94D51CCE0101963ED762EB2E
:1018300072E0CE01019662D760911E0370911F0382
:1018400080912003909121030E94D51CCE01019626
:101850002CD76EE572E0CE01019650D760911A0345
:1018600070911B0380911C0390911D030E94D51C55
:10187000CE0101961AD761E672E0CE0101963ED7FD
:10188000CE01019643D689819A810E94C01D269679
:101890000FB6F894DEBF0FBECDBFDF91CF911F9181
:1018A0000F910895CF93DF9300D000D0CDB7DEB76E
:1018B00066E173E0CE01019659D744E050E06CEB4D
:1018C00072E0CE01019628D760912803CE010196DF
:1018D000ECD661EC72E0CE01019610D7609129033D
:1018E000CE010196E2D680912203811103C067ECFC
:1018F00072E002C06CEC72E0CE010196FFD661EDA1
:1019000072E0CE010196FAD6409123035091240350
:101910006091250370912603CE0101964AD667EDAA
:1019200072E0CE010196EAD6409138035091390316
:1019300060913A0370913B03CE0101963AD66DED6A
:1019400072E0CE010196DAD663EE72E0CE01019626
:10195000D5D66091B603CE010196A7D66BEE72E0A4
:10196000CE010196CBD660916F0470917004CE01C8
:101970000196DDD561EF72E0CE010196BFD64091B0
:101980001E0350911F036091200370912103CE012B
:1019900001960FD6CE010196B9D589819A810E9410
:1019A000C01D26960FB6F894DEBF0FBECDBFDF91E7
:1019B000CF9108950F931F93CF93DF9300D000D062
:1019C000CDB7DEB768EF72E0CE010196CFD607E261
:1019D00013E0F8016081CE01019667D6CE01019631
:1019E000D4D5F8016181CE0101965FD6CE01019672
:1019F000CCD5F8016281CE01019657D6CE01019671
:101A0000C4D5F8016381CE0101964FD6CE0101966F
:101A1000BCD5F8016385CE01019647D6CE0101966B
:101A2000B4D5F8016185CE0101963FD6CE0101966D
:101A3000ACD56091180370E0CE01019678D5CE0147
:101A4000019664D589819A810E94C01D26960FB6A1
:101A5000F894DEBF0FBECDBFDF91CF911F910F91E4
:101A60000895FC01848DDF01A80FB11DA35ABF4F5B
:101A70002C91848D90E001968F739927848FA6898D
:101A8000B7892C93A089B1898C91837080648C93E1
:101A9000938D848D981306C00288F389E02D808190
:101AA0008F7D80830895CF93DF93EC01888D882309
:101AB000C1F0EA89FB89808185FD05C0A889B989C3
:101AC0008C9186FD0EC00FB607FCF5CF808185FF97
:101AD000F2CFA889B9898C9185FFEDCFCE01C1DF06
:101AE000E8CFDF91CF910895CF93DF93282F30E097
:101AF000F901E25FFD4F8491F901E251FD4FD4916C
:101B0000F901E855FD4FC491CC2389F08111D7DC50
:101B1000EC2FF0E0EE0FFF1FEC58FD4FA591B491B4
:101B2000EC91ED2381E090E021F480E002C080E0C0
:101B300090E0DF91CF9108951F93CF93DF93282FEB
:101B400030E0F901E25FFD4F8491F901E251FD4F70
:101B5000D491F901E855FD4FC491CC23B9F0162F6B
:101B60008111ADDCEC2FF0E0EE0FFF1FE257FD4FCF
:101B7000A591B4919FB7F894111104C08C91D095A0
:101B8000D82302C0EC91DE2BDC939FBFDF91CF9175
:101B90001F910895CF93DF9390E0FC01E251FD4F38
:101BA0002491FC01E855FD4F8491882361F190E078
:101BB000880F991FFC01E65AFD4FC591D491FC0195
:101BC000E257FD4FA591B491611109C09FB7F894F8
:101BD0008881209582238883EC912E230BC062306C
:101BE00061F49FB7F8948881322F309583238883DE
:101BF000EC912E2B2C939FBF06C08FB7F894E881F1
:101C00002E2B28838FBFDF91CF910895863308F064
:101C1000865390917B00282F2870977F922B90936A
:101C20007B008770806480937C0080917A00806460
:101C300080937A0080917A0086FDFCCF80917800B5
:101C40002091790090E0922B08958230910538F030
:101C5000880F991F880F991F05970197F1F708952D
:101C60003FB7F8948091CE039091CF03A091D00319
:101C7000B091D10326B5A89B05C02F3F19F001965E
:101C8000A11DB11D3FBFBA2FA92F982F8827820F02
:101C9000911DA11DB11DBC01CD0142E0660F771F52
:101CA000881F991F4A95D1F708958F929F92AF92FE
:101CB000BF92CF92DF92EF92FF926B017C01D0DF57
:101CC0004B015C01C114D104E104F104E9F0C8DF67
:101CD000DC01CB0188199909AA09BB09883E934008
:101CE000A105B10578F321E0C21AD108E108F10895
:101CF00088EE880E83E0981EA11CB11CC114D1048B
:101D0000E104F10421F7DECFFF90EF90DF90CF9058
:101D1000BF90AF909F908F9008952FB7F8946091E7
:101D2000CA037091CB038091CC039091CD032FBF58
:101D300008951F920F920FB60F9211242F933F9385
:101D40008F939F93AF93BF938091CA039091CB03DE
:101D5000A091CC03B091CD033091C90323E0230FB0
:101D60002D3720F40196A11DB11D05C026E8230FD3
:101D70000296A11DB11D2093C9038093CA039093BD
:101D8000CB03A093CC03B093CD038091CE0390916D
:101D9000CF03A091D003B091D1030196A11DB11D35
:101DA0008093CE039093CF03A093D003B093D1033D
:101DB000BF91AF919F918F913F912F910F900FBE47
:101DC0000F901F9018951F920F920FB60F9211242B
:101DD0000BB60F922F933F934F935F936F937F9325
:101DE0008F939F93AF93BF93EF93FF93E0910E0276
:101DF000F0910F021995FF91EF91BF91AF919F91D3
:101E00008F917F916F915F914F913F912F910F90A3
:101E10000BBE0F900FBE0F901F9018951F920F9240
:101E20000FB60F9211240BB60F922F933F934F933F
:101E30005F936F937F938F939F93AF93BF93EF9332
:101E4000FF93E0910C02F0910D021995FF91EF9133
:101E5000BF91AF919F918F917F916F915F914F91C2
:101E60003F912F910F900BBE0F900FBE0F901F90C0
:101E700018951F920F920FB60F9211240BB60F9266
:101E80002F933F934F935F936F937F938F939F9382
:101E9000AF93BF93EF93FF93E0910202F09103029F
:101EA0001995FF91EF91BF91AF919F918F917F9184
:101EB0006F915F914F913F912F910F900BBE0F90BB
:101EC0000FBE0F901F9018951F920F920FB60F9292
:101ED00011240BB60F922F933F934F935F936F9301
:101EE0007F938F939F93AF93BF93EF93FF93E09173
:101EF0000002F09101021995FF91EF91BF91AF910E
:101F00009F918F917F916F915F914F913F912F9111
:101F10000F900BBE0F900FBE0F901F9018951F9241
:101F20000F920FB60F9211240BB60F922F933F937F
:101F30004F935F936F937F938F939F93AF93BF93D1
:101F4000EF93FF93E0910A02F0910B021995FF9134
:101F5000EF91BF91AF919F918F917F916F915F9121
:101F60004F913F912F910F900BBE0F900FBE0F908E
:101F70001F9018951F920F920FB60F9211240BB657
:101F80000F922F933F934F935F936F937F938F9312
:101F90009F93AF93BF93EF93FF93E0910802F0916B
:101FA00009021995FF91EF91BF91AF919F918F9188
:101FB0007F916F915F914F913F912F910F900BBE49
:101FC0000F900FBE0F901F9018951F920F920FB693
:101FD0000F9211240BB60F922F933F934F935F9361
:101FE0006F937F938F939F93AF93BF93EF93FF93E1
:101FF000E0910602F09107021995FF91EF91BF91D0
:10200000AF919F918F917F916F915F914F913F9190
:102010002F910F900BBE0F900FBE0F901F90189531
:102020001F920F920FB60F9211240BB60F922F939F
:102030003F934F935F936F937F938F939F93AF9350
:10204000BF93EF93FF93E0910402F091050219957D
:10205000FF91EF91BF91AF919F918F917F916F9180
:102060005F914F913F912F910F900BBE0F900FBE3C
:102070000F901F9018958EBD00000DB407FEFDCF88
:102080008EB50895EF92FF920F931F93CF93DF9336
:102090007C01A8ECEA0EF11CD701ED91FC913A9776
:1020A00068F4FC0100E010E0A481B581AB2B49F09D
:1020B0000F5F1F4F74960A301105B1F78FEF9FEF36
:1020C00025C021153105D1F3A4E1A09FF001A19F06
:1020D000F00D1124EC01CE0FDF1F49875A876B8763
:1020E0007C873D832C831F821E8218861E861D8658
:1020F00081E0898B12DE688379838A839B83F70171
:1021000080819181019691838083C801DF91CF9175
:102110001F910F91FF90EF9008954F925F926F92F1
:102120007F928F929F92AF92BF92CF92DF92EF9267
:10213000FF920F931F93CF93DF938C01EEDD6B0122
:102140007C01E80108531F4FFE0121E030E042E02E
:1021500050E0138A128A84819581892BA1F18080B5
:102160009180A280B38081859285A385B485260164
:102170003701481859086A087B08481659066A0644
:102180007B0608F1880D991DAA1DBB1D80839183D4
:10219000A283B38381898823B1F0A585B685109782
:1021A00019F4338B228B0FC0878590898A179B0780
:1021B00050F4338B228B0196908B87878A179B076D
:1021C00010F0538B428B7496E017F10711F684E1FF
:1021D000F82E8A899B89892B39F18885EC81FD81CC
:1021E000882321F08E819F81199501C019958A89D4
:1021F0009B890297C9F4F80180819181892BA1F014
:102200008C819D81892B81F0FE018F2D11928A9501
:10221000E9F783DD688379838A839B83F801808172
:1022200091810197918380836496C017D10789F6C5
:10223000DF91CF911F910F91FF90EF90DF90CF90A2
:10224000BF90AF909F908F907F906F905F904F90D6
:1022500008951F920F920FB60F9211240BB60F9292
:102260002F933F934F935F936F937F938F939F939E
:10227000AF93BF93EF93FF93E0E0F0E01995FF91E8
:10228000EF91BF91AF919F918F917F916F915F91EE
:102290004F913F912F910F900BBE0F900FBE0F905B
:1022A0001F901895CF92DF92EF92FF920F931F939A
:1022B000CF93DF936C017A018B01C0E0D0E0CE15A3
:1022C000DF0581F0D8016D918D01D601ED91FC9172
:1022D0000190F081E02DC6011995892B11F021960E
:1022E000EECF7E01C701DF91CF911F910F91FF903B
:1022F000EF90DF90CF90089542E050E064E173E00A
:1023000082ED93E0CFCF0E94291F0F931F93CF93AD
:10231000DF93EC0188819981009729F02A813B8124
:102320002617370788F48B016F5F7F4F0E94491E85
:10233000009761F0998388831B830A832C813D81F8
:10234000232B11F4FC01108281E001C080E0DF91B9
:10235000CF911F910F910895EF92FF920F931F93CA
:10236000CF93DF936115710511F480E01BC0411517
:102370005105B9F07B01EC018C819D818A01080F28
:10238000191FB801CE01C1DF882379F32881398173
:102390008C819D81B701820F931F0E94361F1D8380
:1023A0000C8381E0DF91CF911F910F91FF90EF900F
:1023B0000895CF93DF939CB59F7D9CBD9CB5937F83
:1023C0009CBD9CB59C7F9CBD9DB591609DBDC3EAA5
:1023D000D4E0682F8A81B0DB8C899D89DF91CF9111
:1023E00034CC81E0E6CF80E0E4CFCF93FCDF81EE18
:1023F00042DEC82FF6DF8C2FCF910895CF93C82FE0
:10240000F2DF8C2F8F7137DE8FEF35DEC82FE9DFDB
:102410008C2FCF910895CF93DF93C82FD62FE3DF72
:102420008C2F8F71806227DEC82F8D2F24DED9DF9D
:102430008C2FDF91CF910895EF92FF920F931F930E
:10244000CF93DF93182F7B01C42FCDDF812F8F71A6
:10245000806211DED82F8701CC2331F0F801819101
:102460008F0109DEC150F8CFBCDF8D2FDF91CF91F6
:102470001F910F91FF90EF9008952091A304309148
:10248000A4044091A5045091A6042417350719F01F
:10249000682F822F51CB089580E0B0DF81FD09C005
:1024A000682F626080E0B7DF65E070E080E090E078
:1024B000FCCB0895F1DF80E0A1DF682F616080E050
:1024C000AADF60E787E0A7DF81E0D7DF8091AC0477
:1024D000882339F04091B1046CEA74E08AE0ACDF03
:1024E00010C082E08BDFE4E5F2E0E49121E030E02F
:1024F00001C0220FEA95EAF72095622F682382E057
:102500008ADF8DE17BDF81FD70CF0895CF93DF936C
:10251000FC01448155816081718182ED93E0C2DECE
:10252000EC01EADE8C0F9D1FDF91CF910895EF92B1
:10253000FF920F931F93CF93DF93CDB7DEB728970A
:102540000FB6F894DEBF0FBECDBF7C01CB014AE0D1
:102550008E010F5F1F4FB8016FD5F8010190002069
:10256000E9F73197AF01401B510BB801C701F4DE09
:1025700028960FB6F894DEBF0FBECDBFDF91CF9186
:102580001F910F91FF90EF900895CF93DF931F92CB
:102590001F92CDB7DEB720E229831A8241E050E0D6
:1025A000BE016F5F7F4FD8DE0F900F90DF91CF910C
:1025B0000895EF92FF920F931F93CF93DF93CDB7C0
:1025C000DEB764970FB6F894DEBF0FBECDBF7C01B7
:1025D000CB01BA018E010F5F1F4F22E044E00DD501
:1025E000FC0101900020E9F73197AF01481B590B1E
:1025F000BC01C701B1DE64960FB6F894DEBF0FBE12
:10260000CDBFDF91CF911F910F91FF90EF90089573
:102610000F931F93CF938C0186E0F0DEC82FC77D08
:102620000230110531F4C0628BE990E0A0E0B0E027
:102630000DC00130110529F085E590E0A0E0B0E083
:1026400005C0C86081E490E0A0E0B0E08093B304EE
:102650009093B404A093B504B093B6046C2F86E0B5
:10266000DADE86E0CBDE91E0C81390E0892FCF91CF
:102670001F910F910895CF93DF93009771F0FC01A4
:1026800001900020E9F73197AF01481B590BBC01BD
:1026900082ED93E007DEEC0102C0C0E0D0E02CDE6A
:1026A0008C0F9D1FDF91CF910895EF92FF920F93B2
:1026B0001F93CF93DF9300D01F92CDB7DEB77C017D
:1026C000862F4AE08E010F5F1F4FB80190E0B4D40F
:1026D000F80101900020E9F73197AF01401B510B41
:1026E000B801C70139DE0F900F900F900F90DF9166
:1026F000CF911F910F91FF90EF9008956115710593
:1027000049F0FB0101900020E9F73197AF01461B2A
:10271000570B22CE80E00895EF92FF920F931F9304
:10272000CF93DF93EC017B018A01BA01EEDD2881B2
:10273000398181110DC02115310519F0C9010E949F
:10274000C01D198218821D821C821B821A8206C03B
:102750001D830C83B701C9010E94361FCE01DF9192
:10276000CF911F910F91FF90EF900895FC0111827E
:10277000108213821282158214826115710549F04C
:10278000FB0101900020E9F73197AF01461B570B81
:10279000C3CF0895789484B5826084BD84B5816088
:1027A00084BD85B5826085BD85B5816085BD80911C
:1027B0006E00816080936E00109281008091810094
:1027C000826080938100809181008160809381008C
:1027D000809180008160809380008091B10084604E
:1027E0008093B1008091B00081608093B0008091AF
:1027F000910082608093910080919100816080932C
:102800009100809190008160809390008091A10060
:1028100082608093A1008091A10081608093A100DB
:102820008091A00081608093A0008091210182604E
:102830008093210180912101816080932101809109
:10284000200181608093200180917A0084608093D0
:102850007A0080917A00826080937A0080917A0079
:10286000816080937A0080917A00806880937A00FA
:102870001092C10061E082E28DD961E081E28AD9E3
:1028800061E080E287D961E080E384D961E081E39F
:1028900081D962E083E07ED962E082E07BD962E0A8
:1028A0008091450E77D962E08091460E73D962E03F
:1028B0008091470E6FD962E08091480E6BD9E0910C
:1028C000E203F091E30382E08083E091DE03F09184
:1028D000DF031082E091E003F091E1038FEC80834D
:1028E0001092EA03E091E603F091E70386E080832B
:1028F000E091E403F091E503808180618083E091C1
:10290000E403F091E503808188608083E091E40333
:10291000F091E503808180688083E091E403F09189
:10292000E50380818F7D808384E392E0A4DE0E94B2
:10293000F70880E492E09FDE64E670E080E090E0DB
:10294000B4D985EF92E090930302809302028091C4
:102950006A008C6080936A00ED9A86E992E0909319
:1029600001028093000280916A00836080936A0074
:10297000EC9A22E53CE044EF51E060E070E08BE748
:102980009DE080DB2AED3CE044EF51E060E070E048
:1029900081EB9CE077DB2FE83BE044EF51E060E027
:1029A00070E087EE9BE06EDB2FE832E044EF51E011
:1029B00060E070E083E59AE065DB28E832E044EF10
:1029C00051E060E070E089E899E05CDB22ED38E0FE
:1029D00048EE53E060E070E08FEB98E053DB20EFCF
:1029E00035E046E950E060E070E085EF97E04ADBD3
:1029F00024E533E046E950E060E070E08BE297E0E8
:102A000041DB2AE837E044EF51E060E070E081E626
:102A100096E038DB22E138E04AEF50E060E070E019
:102A200087E995E02FDB2EE23BE044EF51E060E0E8
:102A300070E08DE19BE026DB26EB3AE044EF51E0CD
:102A400060E070E08DEC94E01DDB412C512C80EABD
:102A5000682E81E4782E61D9DC01CB0180933C03A0
:102A600090933D03A0933E03B0933F031092400325
:102A70001092410310924203109243038FEB98E0AF
:102A80004CDB83E59AE049DB89E899E046DB87E99E
:102A900095E043DB83E0B2DC8150833030F48091F9
:102AA000A503811102C00E94F7086091A40380E38E
:102AB00043D86091A30381E33FD88091A203882388
:102AC00011F061E001C060E082E236D887E196DC77
:102AD00080FF3DC122C085DC60E787E09CDC8091FF
:102AE000320390E090934703809346038819990935
:102AF00001979093A1038093A00380913103982FB5
:102B000091709093180381FB992790F99093A403F7
:102B100082FB882780F98093A30380912803811189
:102B200010C080912703882361F0809129038111CF
:102B300008C080912A03811104C081E08093A20320
:102B400002C01092A20330903C0380903D0390900D
:102B50003E03D0913F03C0914003B0914103F091F7
:102B60004203E0914303232D382D492D5D2F6C2F17
:102B70007B2F8F2F9E2FA0909803B0909903C09029
:102B80009A03D0909B03E0909C03F0909D030091EA
:102B90009E0310919F0347D7AAE04ED709F028F46F
:102BA0008091320381113DC082C03092980380929F
:102BB000990390929A03D0939B03C0939C03B09384
:102BC0009D03F0939E03E0939F0387E31FD8EC01DE
:102BD00088E31CD8DE01A81BB90B20E533EC1DD718
:102BE0002FEF33E040E050E0C1D5CA01B901ABD4CA
:102BF000E8E9F3E0DF0118970D911D912D913C91CB
:102C00003293229312930293B3E0E834FB0791F7D7
:102C1000609348037093490380934A0390934B0356
:102C2000BFCF8091A203811142C083E08093330320
:102C3000809119038D3380F040923803509239030C
:102C400060923A0370923B034092340350923503F2
:102C500060923603709237039BEE980F9832A8F477
:102C600080E090E0A0E2B1E48093380390933903D0
:102C7000A0933A03B0933B038093340390933503BE
:102C8000A0933603B093370312C0853180F41092BD
:102C900038031092390310923A0310923B031092BA
:102CA00034031092350310923603109237038BE2EF
:102CB00097E033DA8091A0039091A103039724F465
:102CC0008091A203882341F087E994E00E94D7090C
:102CD0008DE994E00E94D70920E030E0A9016091DD
:102CE00038037091390380913A0390913B0389D660
:102CF000181674F020E030E0A9016091340370915F
:102D0000350380913603909137037BD6181684F4EF
:102D100080913303813031F028F0823031F08330FC
:102D200039F009C081EB9CE005C087EE9BE002C052
:102D30008DEC94E0F2D983E061DB815091E0833047
:102D400008F090E09093A5030E94260A84CE80901C
:102D50004603909047039092450380924403C091AC
:102D6000AA04CC30E0F0DCE08091AB04811102C019
:102D7000CD1B01C0C0E037DB81E67DD907E213E05F
:102D8000D15030F08FEF77D9D8018D938D01F8CFE6
:102D9000CC2309F4A0CE8FEF6ED9C150F9CFDC2F30
:102DA000E3CFCF93DF93D82FC92F0E948D0EED2F45
:102DB000FC2FAF0148535F4F24E1DF01322F1D92FA
:102DC0003A95E9F760837183828393837496E4175D
:102DD000F50799F711821082DF91CF910895CF9373
:102DE000DF93E2EDF3E01382128288EE93E0A0E03D
:102DF000B0E084839583A683B78386E292E09183D3
:102E0000808385EC90E09587848784EC90E09787B9
:102E1000868780EC90E0918B808B81EC90E0938BA7
:102E2000828B82EC90E0958B848B86EC90E0978B84
:102E3000868B118E128E138E148EE5E4FEE08AE1ED
:102E400080838BE181838CE182838DE183838BE7B7
:102E50009DE0A7DF81EB9CE0A4DF87EE9BE0A1DF94
:102E60008DE19BE09EDF83E59AE09BDF89E899E0B6
:102E700098DF8FEB98E095DF85EF97E092DF8BE2AC
:102E800097E08FDF81E696E08CDF87E995E089DFC8
:102E90008DEC94E086DFECEFF2E0E491ABEBB4E094
:102EA0001496EC931497EDEFF2E0E4911596EC9301
:102EB000159786EB92E0FC012491E22FF0E0EE0FF3
:102EC000FF1FE257FD4F2591349117963C932E93A7
:102ED0001697E7EBF2E0E491F0E0EE0FFF1FEC58FD
:102EE000FD4F2591349119963C932E931897FC0130
:102EF0008491E82FF0E0EE0FFF1FE65AFD4F859119
:102F000094911B969C938E931A9781EC9CE21D964C
:102F10009C938E931C97E3EAF4E087E090E0918322
:102F2000808388E090E093838283168280E28783A7
:102F3000108685E0868785E090E0A0E0B0E0848B95
:102F4000958BA68BB78B1186CDE9D4E089E290E012
:102F50009983888388E290E09B838A838DE290E066
:102F60009D838C8361E089E20E94CA0D61E08A81C1
:102F70000E94CA0D61E08C810E94CA0DC7E9D4E0AD
:102F80008BE290E0998388838AE290E09B838A8336
:102F90008CE290E09D838C8361E08BE20E94CA0DFD
:102FA00061E08A810E94CA0D61E08C810E94CA0D95
:102FB000EFE6F4E08AE999E9A9E9BFE3808F918F10
:102FC000A28FB38F8AE999E9A9E9BEE3848F958F2F
:102FD000A68FB78F80E090E0A8ECB2E480A391A325
:102FE000A2A3B3A380E090E0AFE2B3E484A395A3EF
:102FF000A6A3B7A3DF91CF910895EF920F931F93EC
:10300000CF93DF93E80147FD02C034E001C034E113
:10301000042E000C550B57FF03C0519541955109E3
:10302000E32E022F242FAE012AD0CE01DF91CF91C3
:103030001F910F91EF900895BB274A3031F49923E7
:1030400022F4BDE2909581959F4F01C0BB27FB0103
:103050005527AA27880F991FAA1FA41710F0A41B91
:1030600083955051B9F7A05DAA3308F0A95DA193EB
:10307000009779F7B111B1931192CB014EC28F92A3
:103080009F92AF92BF92CF92DF92EF92FF920F93F7
:103090001F93CF93DF93CDB7DEB729970FB6F89480
:1030A000DEBF0FBECDBF6A01122FB02E2BE320175B
:1030B00020F0FF24F394F00E02C02CE3F22E0F2D2B
:1030C00027E0AE014F5F5F4F50D1BC014981842F93
:1030D0008970813031F0E1FC06C0E0FE06C090E26C
:1030E00005C09DE203C09BE201C090E05E2D5071DF
:1030F00043FF3CC0911102C083E001C084E081170E
:1031000018F4212F281B01C020E051110BC0F6013B
:10311000822F30E2882319F031938150FBCFC20E09
:10312000D11C20E0992329F0D6019C93F601319619
:103130006F01C6010396E2FE0AC03EE4D6013C934D
:1031400041E411964C93119712963C9306C03EE6CB
:10315000F601308341E641833283FC01322F40E2A5
:10316000332309F442C041933150FACF42FF44C0A7
:10317000911102C083E001C084E0811718F4212F6F
:10318000281B01C020E051110BC0F601822F30E254
:10319000882319F031938150FBCFC20ED11C20E05F
:1031A000992329F0D6019C93F60131966F01C6014F
:1031B0000396E2FE0BC039E4D6013C933EE411963F
:1031C0003C93119736E412963C9307C039E6F6011A
:1031D00030833EE6318336E63283FC01322F40E213
:1031E000332319F041933150FBCFFC01E20FF11D65
:1031F00010828EEF9FEFA6C021E030E0911102C057
:1032000020E030E0161617061CF4FB01319602C0D0
:10321000E1E0F0E02E0F3F1FBB2021F0EB2DF0E0AE
:10322000319602C0E0E0F0E02E0F3F1FE12FF0E00A
:103230002E173F071CF4121B212F01C020E08E2DFA
:10324000887159F4F601822F30E2882319F0319306
:103250008150FBCFC20ED11C20E0992329F0D6016A
:103260009C93F60131966F0151110BC0F601822F2C
:1032700090E3882319F091938150FBCFC20ED11CAB
:1032800020E00F2D060F9A81342F307144FF03C0C8
:10329000913309F40150101624F4093018F008E0B5
:1032A00001C001E0AB0177FF02C040E050E0FB014C
:1032B000E41BF50BA1E0B0E0AC0FBD1FEA0FFB1F54
:1032C0008EE2A82E4B01801A91080B2D10E011956B
:1032D000019511094F3FBFEF5B0721F4D601AC9276
:1032E00011966D01641775072CF08416950614F479
:1032F000818101C080E3415051093196D601119678
:103300007D014017510724F0D6018C936701E2CF6D
:103310006417750739F4963320F4953319F4311195
:1033200001C081E3F6018083F701822F90E28823B8
:1033300019F091938150FBCFF701E20FF11D10823C
:1033400080E090E029960FB6F894DEBF0FBECDBFA7
:10335000DF91CF911F910F91FF90EF90DF90CF9071
:10336000BF90AF909F908F900895283008F027E08D
:103370003327DA01990F311D87FD916000966105B1
:10338000710539F432602E5F3D9330E32A95E1F701
:1033900008959F3F30F080387105610509F03C5F6A
:1033A0003C5F3D93913008F08068911DDF93CF938F
:1033B0001F930F93FF92EF92192F987F9695E92F05
:1033C00096959695E90FFF27EE59FE4F99273327DB
:1033D000EE24FF24A701E70105900894079428F440
:1033E000360FE71EF81E491F511D660F771F881FF5
:1033F000991F0694A1F70590079428F4E70EF81E8C
:10340000491F561FC11D770F881F991F661F0694FD
:10341000A1F70590079428F4F80E491F561FC71FFF
:10342000D11D880F991F661F771F0694A1F705907D
:10343000079420F4490F561FC71FD81F990F661F06
:10344000771F881F0694A9F784911095177041F093
:10345000D695C79557954795F794E7941A95C1F770
:10346000E8E0F1E06894159015913591659195919A
:1034700005907FE27395E118F10A430B560BC90BD7
:10348000D009C0F7E10CF11E431F561FC91FD01D04
:103490007EF4703311F48A95E6CFE894015030F051
:1034A000080F0AF40027021708F4202F2395022F93
:1034B0007A3328F079E37D932A95E9F710C07D935C
:1034C0002A9589F6069497956795379517951794D9
:1034D000E118F10A430B560BC90BD00998F023955C
:1034E0007E9173957A3308F070E37C932013B8F7DC
:1034F0007E9170617D9330F0839571E37D9370E3ED
:103500002A95E1F71124EF90FF900F911F91CF9131
:10351000DF91992787FD90950895DC01FC01672FC5
:1035200071917723E1F7329704C07C916D9370839A
:103530006291AE17BF07C8F3089540D008F481E048
:103540000895E89409C097FB3EF490958095709596
:1035500061957F4F8F4F9F4F9923A9F0F92F96E9DF
:10356000BB279395F695879577956795B795F11154
:10357000F8CFFAF4BB0F11F460FF1BC06F5F7F4FF1
:103580008F4F9F4F16C0882311F096E911C0772303
:1035900021F09EE8872F762F05C0662371F096E80C
:1035A000862F70E060E02AF09A95660F771F881FDB
:1035B000DAF7880F9695879597F90895990F00087F
:1035C000550FAA0BE0E8FEEF16161706E807F907F5
:1035D000C0F012161306E407F50798F0621B730B90
:1035E000840B950B39F40A2661F0232B242B252B11
:1035F00021F408950A2609F4A140A6958FEF811DB4
:10360000811D08950BD078C069D028F06ED018F0D5
:10361000952309F05AC05FC01124A2C07ED0A0F348
:10362000959FD1F3950F50E0551F629FF001729F57
:10363000BB27F00DB11D639FAA27F00DB11DAA1F76
:10364000649F6627B00DA11D661F829F2227B00DC3
:10365000A11D621F739FB00DA11D621F839FA00D4E
:10366000611D221F749F3327A00D611D231F849F9E
:10367000600D211D822F762F6A2F11249F575040F5
:103680008AF0E1F088234AF0EE0FFF1FBB1F661F90
:10369000771F881F91505040A9F79E3F510570F049
:1036A00014C05EC05F3FECF3983EDCF386957795DF
:1036B0006795B795F795E7959F5FC1F7FE2B880F44
:1036C000911D9695879597F9089597F99F6780E8DA
:1036D00070E060E008959FEF80EC089500240A9464
:1036E0001616170618060906089500240A941216DD
:1036F0001306140605060895092E0394000C11F410
:10370000882352F0BB0F40F4BF2B11F460FF04C0BC
:103710006F5F7F4F8F4F9F4F089557FD9058440F15
:10372000551F59F05F3F71F04795880F97FB991F20
:1037300061F09F3F79F087950895121613061406DD
:10374000551FF2CF4695F1DF08C01616170618066A
:10375000991FF1CF86957105610508940895E89445
:10376000BB2766277727CB0197F90895052E97FB8E
:1037700016F400940FD057FD05D014D007FC02D0EA
:1037800046F408C050954095309521953F4F4F4FD6
:103790005F4F089590958095709561957F4F8F4FFD
:1037A0009F4F0895A1E21A2EAA1BBB1BFD010DC05D
:1037B000AA1FBB1FEE1FFF1FA217B307E407F507E1
:1037C00020F0A21BB30BE40BF50B661F771F881FBD
:1037D000991F1A9469F760957095809590959B0153
:1037E000AC01BD01CF010895A29FB001B39FC001FC
:1037F000A39F700D811D1124911DB29F700D811D1D
:103800001124911D08955058BB27AA270ED074CFBC
:1038100065DF30F06ADF20F031F49F3F11F41EF4D1
:103820005ACF0EF4E095E7FB50CFE92F76DF80F317
:10383000BA17620773078407950718F071F49EF5AD
:103840008ECF0EF4E0950B2EBA2FA02D0B01B901EF
:1038500090010C01CA01A0011124FF27591B99F006
:10386000593F50F4503E68F11A16F040A22F232F12
:10387000342F4427585FF3CF469537952795A79562
:10388000F0405395C9F77EF41F16BA0B620B730B09
:10389000840BBAF09150A1F0FF0FBB1F661F771F7A
:1038A000881FC2F70EC0BA0F621F731F841F48F42F
:1038B000879577956795B795F7959E3F08F0B3CFB5
:1038C0009395880F08F09927EE0F9795879508959F
:1038D0000CD012CF0ADF40F001DF30F021F45F3F5F
:1038E00019F0F3CE51113CCFF6CE17DF98F39923A0
:1038F000C9F35523B1F3951B550BBB27AA276217B4
:103900007307840738F09F5F5F4F220F331F441FF8
:10391000AA1FA9F333D00E2E3AF0E0E830D0915030
:103920005040E695001CCAF729D0FE2F27D0660F1D
:10393000771F881FBB1F261737074807AB07B0E85C
:1039400009F0BB0B802DBF01FF2793585F4F2AF072
:103950009E3F510568F0B9CE03CF5F3FECF3983E30
:10396000DCF3869577956795B795F7959F5FC9F7CF
:10397000880F911D9695879597F90895E1E0660F58
:10398000771F881FBB1F621773078407BA0720F0D1
:10399000621B730B840BBA0BEE1F88F7E09508953A
:1039A00004D06894B111DCCE0895BFDE88F09F5733
:1039B00090F0B92F9927B751A0F0D1F0660F771F7B
:1039C000881F991F1AF0BA95C9F712C0B13081F05B
:1039D000C6DEB1E00895C3CE672F782F8827B85F81
:1039E00039F0B93FCCF3869577956795B395D9F7BC
:1039F0003EF490958095709561957F4F8F4F9F4FC6
:103A00000895DCDD08F48FEF0895EE0FFF1F881F87
:103A10008BBF0790F691E02D1994E6DEB7FF08956D
:103A2000821B930B08952A193B094C095D096E0905
:103A30007F09800B910B08950024A7FD00942A179D
:103A40003005400550056005700580059005089516
:103A50000F931F93CF93DF938230910510F482E090
:103A600090E0E0914F0EF091500E20E030E0A0E0A9
:103A7000B0E0309719F140815181028113814817DC
:103A80005907C8F08417950769F4109731F012961A
:103A90000C93129713961C9327C000934F0E10930C
:103AA000500E22C02115310519F04217530718F4A2
:103AB0009A01BD01EF01DF01F801DBCF21153105CE
:103AC000F9F0281B390B2430310580F48A819B8161
:103AD0006115710521F0FB019383828304C09093EB
:103AE000500E80934F0EFE01329644C0FE01E20F4D
:103AF000F31F8193919322503109398328833AC06F
:103B000020914D0E30914E0E232B41F42091120244
:103B10003091130230934E0E20934D0E20911002DF
:103B2000309111022115310541F42DB73EB7409176
:103B3000140250911502241B350BE0914D0EF091AB
:103B40004E0EE217F307A0F42E1B3F0B2817390780
:103B500078F0AC014E5F5F4F2417350748F04E0FE9
:103B60005F1F50934E0E40934D0E8193919302C070
:103B7000E0E0F0E0CF01DF91CF911F910F91089528
:103B8000CF93DF93009709F481C0FC013297138231
:103B90001282A0914F0EB091500E109781F42081A7
:103BA0003181820F931F20914D0E30914E0E2817B8
:103BB000390751F5F0934E0EE0934D0E67C0ED01BD
:103BC00020E030E0CE17DF0740F44A815B819E01A0
:103BD00041155105F1F0EA01F5CFD383C28340814D
:103BE0005181840F951FC817D90759F4888199818D
:103BF000840F951F0296918380838A819B81938392
:103C000082832115310529F4F093500EE0934F0E75
:103C10003DC0E901FB83EA8349915991C40FD51F47
:103C2000EC17FD0761F480819181840F951F029646
:103C3000E90199838883828193819B838A83E0E071
:103C4000F0E012968D919C911397009719F0FD0169
:103C5000DC01F7CF8D919C9111979D012E5F3F4F15
:103C6000820F931F20914D0E30914E0E2817390769
:103C700069F4309729F41092500E10924F0E02C042
:103C800013821282B0934E0EA0934D0EDF91CF910E
:103C900008956F927F928F929F92AF92BF92CF9230
:103CA000DF92EF92FF920F931F93CF93DF930097D2
:103CB00081F4CB01DF91CF911F910F91FF90EF9095
:103CC000DF90CF90BF90AF909F908F907F906F903C
:103CD000BFCEFC01E60FF71F9C0122503109E2170D
:103CE000F30708F4A5C0EC01D9010D911C911197BF
:103CF00006171707A8F00530110508F497C0C8018A
:103D000004978617970708F491C002501109061B03
:103D1000170B019311936D937C93CF0131DF86C014
:103D20005B01A01AB10A4C01800E911EA0914F0EAA
:103D3000B091500E612C712CE12CF12C109709F4EC
:103D400046C08D919C911197A815B905B1F56C01EC
:103D500042E0C40ED11CCA14DB0478F14C018A186D
:103D60009B08640142E0C40ED11C1296BC901297CD
:103D70001396AC91B5E0CB16D10440F0B282A38388
:103D800091828082D9016D937C9309C00E5F1F4F91
:103D9000800F911FF90191838083EB2DFA2FE1149D
:103DA000F10431F0D7011396FC93EE9312973EC0C5
:103DB000F093500EE0934F0E39C06816790608F460
:103DC0003C017D0112960D90BC91A02DB7CF809142
:103DD0004D0E90914E0E88169906E1F46616770600
:103DE000C8F48091100290911102009741F48DB7B0
:103DF0009EB74091140250911502841B950BE81751
:103E0000F907B0F4F0934E0EE0934D0EF901718373
:103E100060830CC0CB011CDE7C01009749F0A80137
:103E2000BE011BD0CE01ACDEC70104C0CE0102C072
:103E300080E090E0DF91CF911F910F91FF90EF9084
:103E4000DF90CF90BF90AF909F908F907F906F90BA
:103E5000089581E090E0F89410C0FB01DC0102C0FD
:103E600001900D9241505040D8F70895FB01DC01BC
:0E3E700001900D920020E1F70895F894FFCF25
:103E7E00B50AB50AB50AB50AB50AB50AB50AB50A3C
:103E8E000000510E8000314E6F646532314E6F640A
:103E9E00653100000000DB015211E909530D1A0AC9
:103EAE00F8090C0A5374617274696E672E2E2E0017
:103EBE00536574757020636F6D706C657465640006
:103ECE002C2076656C6F5F696E203D205B002C2088
:103EDE00005D002C2076656C6F5F6F7574203D2041
:103EEE005B004E6F203A20002C2044697374203AF8
:103EFE0020002C204D6F6465203A20002C20766522
:103F0E006C6F203D205B005D096572726F72203D03
:103F1E00205B005D0949203D5B005D0964203D206A
:103F2E005B005D0950574D203D205B004C5F593AB8
:103F3E000020525F583A0020465744002042574412
:103F4E000020535F473A0020535F4C3A0020535FE6
:103F5E00523A0020535F4C5F4D3A0020455F4C3A79
:103F6E00002050574D5F4C005B584C20594C205848
:103F7E0052205952204D534720524F542053535DD7
:083F8E00203D20000D0A000097
:020000023000CC
:10E000000D9489F10D94B2F10D94B2F10D94B2F129
:10E010000D94B2F10D94B2F10D94B2F10D94B2F1F0
:10E020000D94B2F10D94B2F10D94B2F10D94B2F1E0
:10E030000D94B2F10D94B2F10D94B2F10D94B2F1D0
:10E040000D94B2F10D94B2F10D94B2F10D94B2F1C0
:10E050000D94B2F10D94B2F10D94B2F10D94B2F1B0
:10E060000D94B2F10D94B2F10D94B2F10D94B2F1A0
:10E070000D94B2F10D94B2F10D94B2F10D94B2F190
:10E080000D94B2F10D94B2F10D94B2F10D94B2F180
:10E090000D94B2F10D94B2F10D94B2F10D94B2F170
:10E0A0000D94B2F10D94B2F10D94B2F10D94B2F160
:10E0B0000D94B2F10D94B2F10D94B2F10D94B2F150
:10E0C0000D94B2F10D94B2F10D94B2F10D94B2F140
:10E0D0000D94B2F10D94B2F10D94B2F10D94B2F130
:10E0E0000D94B2F141546D656761323536300041AF
:10E0F000726475696E6F206578706C6F72657220DE
:10E1000073746B3530305632206279204D4C530099
:10E11000426F6F746C6F616465723E004875683F52
:10E1200000436F6D70696C6564206F6E203D200048
:10E130004350552054797065202020203D20005FF9
:10E140005F4156525F415243485F5F3D2000415658
:10E1500052204C696243205665723D20004743437C
:10E160002056657273696F6E203D20004350552024
:10E1700049442020202020203D20004C6F7720663D
:10E18000757365202020203D20004869676820665F
:10E190007573652020203D200045787420667573D6
:10E1A00065202020203D20004C6F636B2066757336
:10E1B000652020203D20004D617220203720323024
:10E1C000313300312E362E3800342E332E350056A2
:10E1D00023202020414444522020206F7020636F70
:10E1E00064652020202020696E73747275637469E1
:10E1F0006F6E2061646472202020496E74657272B3
:10E20000757074006E6F20766563746F7200726A49
:10E210006D702020006A6D70200057686174207056
:10E220006F72743A00506F7274206E6F7420737541
:10E2300070706F72746564004D7573742062652030
:10E2400061206C6574746572002000577269747483
:10E25000696E672045450052656164696E672045B7
:10E26000450045452065727220636E743D00504F35
:10E27000525400303D5A65726F2061646472003FF1
:10E280003D43505520737461747300403D454550C3
:10E29000524F4D207465737400423D426C696E6B41
:10E2A000204C454400453D44756D70204545505215
:10E2B0004F4D00463D44756D7020464C415348001B
:10E2C000483D48656C70004C3D4C69737420492F83
:10E2D0004F20506F72747300513D51756974005234
:10E2E0003D44756D702052414D00563D73686F7707
:10E2F00020696E7465727275707420566563746FF0
:10E30000727300593D506F727420626C696E6B00BD
:10E310002A0011241FBECFEFD1E2DEBFCDBF01E046
:10E320000CBF12E0A0E0B2E0EEE1FDEF03E00BBFB6
:10E3300002C007900D92A030B107D9F712E0A0E01B
:10E34000B2E001C01D92AE30B107E1F70F9460F367
:10E350000D948DFE01E20EBF0FEF0DBF11241FBE05
:10E360000D9460F30D9400F020E030E040ED57E0B4
:10E3700005C0FA013197F1F72F5F3F4F2817390792
:10E38000C0F308959C01260F311DC901A0E0B0E043
:10E390002F5F3F4FABBFFC018791882361F08093D3
:10E3A000C6008091C00086FFFCCF8091C0008064D1
:10E3B0008093C000EACF08958DE08093C6008091DD
:10E3C000C00086FFFCCF8091C00080648093C000B5
:10E3D0008AE08093C6008091C00086FFFCCF8091C8
:10E3E000C00080648093C00008950F94C2F10F9420
:10E3F000DCF10895FC019081992359F09093C600B7
:10E400008091C00086FFFCCF8091C0008064809323
:10E41000C0003196992379F70895282F982F929567
:10E420009F70892F805D8A3308F0895F8093C600D2
:10E430008091C00086FFFCCF8091C00080648093F3
:10E44000C000822F8F70982F905D9A3308F0995FEB
:10E450009093C6008091C00086FFFCCF8091C000E1
:10E4600080648093C00008959C01FB01853691056E
:10E470001CF46330710594F0C90164E670E00F94F8
:10E480002EFE605D7F4F6093C6008091C00086FFC6
:10E49000FCCF8091C00080648093C0002B30310598
:10E4A00014F43297B4F0C90164E670E00F942EFEC4
:10E4B0006AE070E00F942EFE605D7F4F6093C600AF
:10E4C0008091C00086FFFCCF8091C0008064809363
:10E4D000C000C9016AE070E00F942EFEC0968093E0
:10E4E000C6008091C00086FFFCCF8091C000806490
:10E4F0008093C00008951F93182F8EE692EE60E07F
:10E500000F94C2F11093C6008091C00086FFFCCF2B
:10E510008091C00080648093C0000F94DCF11F9153
:10E5200008952F923F924F925F926F927F928F92B7
:10E530009F92AF92BF92CF92DF92EF92FF920F9392
:10E540001F93DF93CF93CDB7DEB762970FB6F894E2
:10E55000DEBF0FBECDBF382E622ECA01DB015C01CB
:10E560006D01772420E2222E2E010894411C511CBB
:10E570008BC081E0A81680E0B80681E0C80680E084
:10E58000D80628F0C601AA27BB270F940DF2BB2797
:10E59000AD2D9C2D8B2D0F940DF28A2D0F940DF225
:10E5A0002092C6008091C00086FFFCCF8091C00001
:10E5B00080648093C0009DE29093C6008091C0006B
:10E5C00086FFFCCF8091C00080648093C0002092C1
:10E5D000C6008091C00086FFFCCF8091C00080649F
:10E5E0008093C00019828601750188249924A1E0D6
:10E5F0003A1651F03A1620F0B2E03B1661F409C029
:10E600000BBFF701779007C0C7010F9477FE782EF4
:10E6100002C0F7017080872D0F940DF22092C60082
:10E620008091C00086FFFCCF8091C0008064809301
:10E63000C000872D8052F401EF70F0708F3520F408
:10E64000E40DF51D708204C0E40DF51D8EE280839B
:10E650000894E11CF11C011D111D0894811C911CE2
:10E6600090E18916910409F0C2CF80E190E0A0E02A
:10E67000B0E0A80EB91ECA1EDB1E198AC2010F9493
:10E68000FAF10F94DCF16A94662009F072CF629679
:10E690000FB6F894DEBF0FBECDBFCF91DF911F91B3
:10E6A0000F91FF90EF90DF90CF90BF90AF909F9031
:10E6B0008F907F906F905F904F903F902F90089534
:10E6C0002F923F924F925F926F927F928F929F9282
:10E6D000AF92BF92CF92DF92EF92FF920F931F9370
:10E6E000DF93CF93CDB7DEB7CD53D1400FB6F894BB
:10E6F000DEBF0FBECDBF01E20EBF0FEF0DBF94B75F
:10E70000F894A89514BE80916000886180936000A1
:10E7100010926000789493FF05C0E0910002F091A0
:10E7200001021995279A2F9A8091C00082608093E8
:10E73000C00080E18093C40088E18093C1000000A4
:10E74000EE24FF24870144E0A42EB12CCC24DD2448
:10E7500024C0C5010197F1F70894E11CF11C011DCB
:10E76000111D21E2E2162EE4F20620E0020720E06D
:10E77000120718F031E0C32ED12CC801B70127ECE5
:10E780003BE140E050E00F9441FE611571058105C9
:10E79000910519F485B1805885B98091C00087FD35
:10E7A00003C0C114D104A9F2A6014F5F5F4FC25E3E
:10E7B000DE4F59834883CE51D140C25EDE4F8881FF
:10E7C0009981CE51D140019711F00D9410FEC05D9A
:10E7D000DE4F19821882C053D14060E0C15DDE4F28
:10E7E0001882CF52D14088249924C35DDE4F19820C
:10E7F0001882CD52D140C05EDE4F188219821A8233
:10E800001B82C052D140CE5CDE4F188219821A8220
:10E810001B82C253D140EE24FF2487010BBFF701B6
:10E8200007911691C45CDE4F19830883CC53D14005
:10E830000D940BFEC25EDE4F28813981CE51D1404E
:10E840002130310509F52091C600C25EDE4F1982E4
:10E850001882CE51D14022C02F5F3F4F4F4F5F4FA4
:10E86000213082E138078AE7480780E0580780F0C6
:10E87000C45CDE4FE881F981CC53D140EF5FFF4F9C
:10E8800019F0EE27FF27099420E030E040E050E047
:10E890008091C00087FFE0CF2091C600C35DDE4FAE
:10E8A00048815981CD52D1404F5F5F4FC35DDE4FEC
:10E8B00059834883CD52D140213209F063C64A3092
:10E8C000510508F05FC60894811C911C53E0851621
:10E8D000910409F059C600E010E018C081E280936D
:10E8E000C6008091C00086FFFCCF8091C00080648C
:10E8F0008093C0002F5F3F4F2931310579F70F9486
:10E90000DCF10F5F1F4F0530110519F020E030E0FA
:10E91000E5CF10920A0210920B0210920C02109294
:10E920000D02109206021092070210920802109235
:10E930000902109202021092030210920402109235
:10E9400005028FEE90EE60E00F94F5F180E191EE1C
:10E9500060E00F94C2F18091C00087FFFCCF9091DE
:10E96000C600903608F09F759032B8F09093C600BC
:10E970008091C00086FFFCCF8091C00080648093AE
:10E98000C000A0E2A093C6008091C00086FFFCCF2B
:10E990008091C00080648093C000983409F4D7C18E
:10E9A0009934B8F4923409F459C1933458F490333B
:10E9B00019F1903308F4E3C59F33A1F1903409F0C5
:10E9C000DEC5BDC0953409F470C1963409F0D7C5D1
:10E9D00098C1923509F42BC2933538F49C3409F46C
:10E9E000F5C1913509F0CBC518C2963509F445C279
:10E9F000993509F0C4C567C483E792EE62E00F94CD
:10EA0000F5F110920602109207021092080210927D
:10EA1000090210920A0210920B0210920C0210923C
:10EA20000D0213C18FE792EE62E00F94F5F18FEEC5
:10EA300090EE60E00F94F5F181E291EE60E00F94CA
:10EA4000C2F187EB91EE60E00F94F5F180E391EE77
:10EA500060E00F94C2F184EE90EE60E00F94F5F167
:10EA60008FE391EE60E00F94C2F186E090E061E008
:10EA700070E00F9434F20F94DCF18DE591EE60E0DC
:10EA80000F94C2F189EC91EE60E00F94F5F18EE401
:10EA900091EE60E00F94C2F183EC91EE60E00F9490
:10EAA000F5F18CE691EE60E00F94C2F18EE10F94E7
:10EAB0000DF288E90F940DF281E00F940DF20F949E
:10EAC000DCF18BE791EE60E00F94C2F119E0E0E039
:10EAD000F0E010935700E4918E2F0F940DF20F94F5
:10EAE000DCF18AE891EE60E00F94C2F1E3E0F0E03F
:10EAF00010935700E4918E2F0F940DF20F94DCF1D8
:10EB000089E991EE60E00F94C2F1E2E0F0E0109349
:10EB10005700E4918E2F0F940DF20F94DCF188EAE8
:10EB200091EE60E00F94C2F1E1E0F0E01093570045
:10EB30001491812F0F940DF20F94DCF107CF8BE825
:10EB400092EE62E00F94F5F18BE492EE60E00F94A8
:10EB5000F5F10F94DCF100E010E019C0C8016F2D51
:10EB60000F947FFEFF2031F489E492EE60E00F9471
:10EB7000C2F10BC0F092C6008091C00086FFFCCFAE
:10EB80008091C00080648093C0000F5F1F4FC80158
:10EB900081519F41A0E0B0E0ABBFFC01F790BAE229
:10EBA000FB1621F0E2E000301E07C1F60F94DCF105
:10EBB0000F94DCF187E592EE60E00F94F5F10F948D
:10EBC000DCF1CC24DD2400E010E01EC0C8010F946D
:10EBD00077FEF82E882331F489E492EE60E00F94FA
:10EBE000C2F10BC08093C6008091C00086FFFCCFAD
:10EBF0008091C00080648093C000FE1419F00894D6
:10EC0000C11CD11C0F5F1F4FC80181519F41A0E063
:10EC1000B0E0ABBFFC01E790FAE2EF1621F022E092
:10EC20000030120799F60F94DCF10F94DCF182E6C4
:10EC300092EE60E00F94C2F1C60161E070E00F94C3
:10EC400034F20F94DCF10F94DCF110920202109276
:10EC50000302109204021092050278CE89E992EE26
:10EC600062E00F94F5F1279A2F9A16C02F9880E052
:10EC700090E0E0EDF7E03197F1F7019684369105E9
:10EC8000C1F72F9A80E090E0E0EDF7E03197F1F7DF
:10EC9000019684369105C1F78091C00087FFE6CFC9
:10ECA0008091C00087FFFCCF64C485EA92EE62E0E9
:10ECB0000F94F5F140910202509103026091040219
:10ECC0007091050281E020E10F9491F2809102029F
:10ECD00090910302A0910402B091050280509F4FD1
:10ECE000AF4FBF4F8093020290930302A0930402A0
:10ECF000B093050280509041A040B04008F426CE69
:10ED0000A4CF83EB92EE62E00F94F5F140910602FE
:10ED100050910702609108027091090280E020E1A1
:10ED20000F9491F28091060290910702A09108023F
:10ED3000B091090280509F4FAF4FBF4F80930602A2
:10ED400090930702A0930802B0930902FFCD80ECD4
:10ED500092EE62E00F94F5F183E792EE60E00F949B
:10ED6000F5F18FE792EE60E00F94F5F18BE892EE0B
:10ED700060E00F94F5F189E992EE60E00F94F5F10F
:10ED800085EA92EE60E00F94F5F183EB92EE60E09D
:10ED90000F94F5F180EC92EE60E00F94F5F187ECC2
:10EDA00092EE60E00F94F5F188ED92EE60E00F9442
:10EDB000F5F18FED92EE60E00F94F5F18AEE92EEB0
:10EDC00060E00F94F5F183E093EEBDCD87EC92EE19
:10EDD00062E00F94F5F181E40F947BF282E40F94EA
:10EDE0007BF283E40F947BF284E40F947BF285E45E
:10EDF0000F947BF286E40F947BF287E40F947BF20E
:10EE000088E40F947BF28AE40F947BF28BE40F94F6
:10EE10007BF28CE40F947BF299CD88ED92EE62E068
:10EE20000F94F5F1772473948824992409C48FED05
:10EE300092EE62E00F94F5F140910A0250910B02BC
:10EE400060910C0270910D0282E020E10F9491F22A
:10EE500080910A0290910B02A0910C02B0910D02D8
:10EE600080509F4FAF4FBF4F80930A0290930B0289
:10EE7000A0930C02B0930D0269CD8AEE92EE62E08F
:10EE80000F94F5F184EE90EE60E00F94F5F18FECC5
:10EE900091EE60E00F94F5F1662477244301CC5D98
:10EEA000DE4F19821882C452D140D401C301B695F5
:10EEB000A79597958795CA5DDE4F88839983AA8326
:10EEC000BB83C652D140CC5DDE4FA881B981C4520C
:10EED000D1401196CC5DDE4FB983A883C452D14096
:10EEE000CD0162E070E00F9434F2B0E2B093C6005E
:10EEF0008091C00086FFFCCF8091C0008064809329
:10EF0000C000EDE2E093C6008091C00086FFFCCF18
:10EF10008091C00080648093C000F0E2F093C6004E
:10EF20008091C00086FFFCCF8091C00080648093F8
:10EF3000C000CA5DDE4FE880F9800A811B81C6529D
:10EF4000D140BB27A12F902F8F2D0F940DF2CA5DBA
:10EF5000DE4F8881C652D1400F940DF2B0E2FB2EF5
:10EF6000F092C6008091C00086FFFCCF8091C00067
:10EF700080648093C0000DE30093C6008091C000C0
:10EF800086FFFCCF8091C00080648093C00010E2B7
:10EF90001093C6008091C00086FFFCCF8091C00016
:10EFA00080648093C0008BBEF3012791C65DDE4F65
:10EFB0002883CA52D140A22EBB24CC24DD2408943D
:10EFC000611C711C811C911C8BBEF3018791282E42
:10EFD0003324442455240894611C711C811C911C09
:10EFE0008BBEF3013791C55DDE4F3883CB52D140E4
:10EFF0000894611C711C811C911C8BBEF30147910C
:10F00000C45DDE4F4883CC52D140ADEFEA2EAFEF66
:10F01000FA2EAFEF0A2FAFEF1A2F6E0C7F1C801E57
:10F02000911E142D032DF22CEE24EA0CFB1C0C1D5A
:10F030001D1D0F940DF220E22093C6008091C000A8
:10F0400086FFFCCF8091C00080648093C000C65DC5
:10F05000DE4F8881CA52D1400F940DF230E23093D6
:10F06000C6008091C00086FFFCCF8091C000806404
:10F070008093C000C45DDE4F8881CC52D1400F9494
:10F080000DF240E24093C6008091C00086FFFCCFA5
:10F090008091C00080648093C000C55DDE4F888190
:10F0A000CB52D1400F940DF250E25093C6008091A4
:10F0B000C00086FFFCCF8091C00080648093C000B8
:10F0C0008FEFE8168FEFF80680E0080780E018075A
:10F0D00031F484E092EE60E00F94C2F1DFC0D80119
:10F0E000C7018070907CA070B0708050904CA040A0
:10F0F000B040D1F52FEF3FE340E050E0E222F322B1
:10F1000004231523CA5DDE4FA880B980CA80DB8046
:10F11000C652D140AE0CBF1CC01ED11EAA0CBB1CD7
:10F12000CC1CDD1C8EE092EE60E00F94C2F1BB2798
:10F13000A12F902F8F2D0F940DF28E2D0F940DF285
:10F1400030E23093C6008091C00086FFFCCF8091F2
:10F15000C00080648093C0004EE34093C60080915D
:10F16000C00086FFFCCF87C08EE09EEFA0E0B0E03D
:10F17000E822F9220A231B239CE0E91694E9F90608
:10F1800090E0090790E0190709F088C0C45DDE4FE0
:10F19000A881CC52D140EA2EFF2400E010E0102FCD
:10F1A0000F2DFE2CEE24C55DDE4FB881CB52D14031
:10F1B000EB0EF11C011D111DD601C501817090706F
:10F1C000A070B070DC0199278827E80EF91E0A1F8D
:10F1D0001B1F20EF30E040E050E0A222B322C42207
:10F1E000D52241E1AA0CBB1CCC1CDD1C4A95D1F7F1
:10F1F000EA0CFB1C0C1D1D1D81E090E0A0E0B0E0BE
:10F20000282239224A225B2235E1220C331C441C7D
:10F21000551C3A95D1F7E20CF31C041D151D57013E
:10F220006801AA0CBB1CCC1CDD1C85E192EE60E0E1
:10F230000F94C2F1C801AA27BB270F940DF2BB2778
:10F24000A12F902F8F2D0F940DF28E2D0F940DF274
:10F2500090E29093C6008091C00086FFFCCF809121
:10F26000C00080648093C000AEE3A093C60080918C
:10F27000C00086FFFCCF8091C00080648093C000F6
:10F28000C601AA27BB270F940DF2BB27AD2D9C2DDD
:10F290008B2D0F940DF28A2D0F940DF20F94DCF14B
:10F2A000CC5DDE4FE881F981C452D140F99709F471
:10F2B0004DCBF4E0EF2EF12C012D112D6E0C7F1CA7
:10F2C000801E911EF2CD83E093EE62E00F94F5F183
:10F2D0008AE192EE60E00F94C2F18091C00087FF56
:10F2E000FCCF1091C6001F751093C6008091C0001E
:10F2F00086FFFCCF8091C00080648093C0000F9493
:10F30000DCF1812F81548A3108F036C1163409F4BA
:10F3100095C0173490F4133409F44EC0143430F40B
:10F320001134F1F0123409F01DC130C0143409F465
:10F3300059C0153409F016C16BC01A3409F4C4C0A1
:10F340001B3438F4173409F48FC0183409F00AC19B
:10F35000A1C01B3409F4D2C01C3409F003C1E8C0B9
:10F360008FEF81B90DC082B1809582B980E090E0C5
:10F37000E0EDF7E03197F1F70196883C9105C1F790
:10F380008091C00087FFEFCF12B8EFC08FEF84B934
:10F390000DC085B1809585B980E090E0E0EDF7E0A3
:10F3A0003197F1F70196883C9105C1F78091C00033
:10F3B00087FFEFCF15B8D9C08FEF87B90DC088B1DF
:10F3C000809588B980E090E0E0EDF7E03197F1F7C3
:10F3D0000196883C9105C1F78091C00087FFEFCF6F
:10F3E00018B8C3C08FEF8AB90DC08BB180958BB9A7
:10F3F00080E090E0E0EDF7E03197F1F70196883C8E
:10F400009105C1F78091C00087FFEFCF1BB8ADC059
:10F410008FEF8DB90DC08EB180958EB980E090E0F0
:10F42000E0EDF7E03197F1F70196883C9105C1F7DF
:10F430008091C00087FFEFCF1EB897C08FEF80BBD1
:10F440000DC081B3809581BB80E090E0E0EDF7E0F6
:10F450003197F1F70196883C9105C1F78091C00082
:10F4600087FFEFCF11BA81C08FEF83BB0DC084B38C
:10F47000809584BB80E090E0E0EDF7E03197F1F714
:10F480000196883C9105C1F78091C00087FFEFCFBE
:10F4900014BA6BC08FEF809301010FC080910201FD
:10F4A00080958093020180E090E0E0EDF7E03197F5
:10F4B000F1F70196883C9105C1F78091C00087FF64
:10F4C000EDCF1092020151C08FEF809304010FC065
:10F4D0008091050180958093050180E090E0E0ED4A
:10F4E000F7E03197F1F70196883C9105C1F78091DB
:10F4F000C00087FFEDCF1092050137C08FEF8093DA
:10F5000007010FC08091080180958093080180E079
:10F5100090E0E0EDF7E03197F1F70196883C910536
:10F52000C1F78091C00087FFEDCF109208011DC088
:10F530008FEF80930A010FC080910B01809580931B
:10F540000B0180E090E0E0EDF7E03197F1F70196F4
:10F55000883C9105C1F78091C00087FFEDCF1092E4
:10F560000B0103C085E292EEEEC98091C00087FFD7
:10F57000FCCF8091C600EAC988E392EEE4C98CE131
:10F5800091EEE1C988249924933011F1943028F444
:10F59000913089F09230B8F408C0953061F195301F
:10F5A000F0F0963009F048C043C02B3109F042C951
:10F5B00091E06BE13FC96227C15DDE4F2883CF52E6
:10F5C000D14092E037C9B22FA0E0622793E032C960
:10F5D000822F90E0A82BB92B622794E02BC92E3004
:10F5E00009F039C3622795E0C05DDE4F19821882A9
:10F5F000C053D1401FC9E1E0F0E0EC0FFD1FC05D3A
:10F60000DE4F08811981C053D140E00FF11F2083E4
:10F610000F5F1F4FC05DDE4F19830883C053D14079
:10F6200062270A171B0709F005C9D80196E002C92D
:10F63000261709F010C303C0973009F0FBC87724E0
:10F640009981933109F412C19431C8F4963009F4C8
:10F65000D8C0973050F4923009F406C1933009F4C1
:10F660006DC0913009F059C253C0913109F477C08F
:10F67000923108F0BBC0903109F04FC2F5C098310B
:10F6800009F487C0993150F4953109F4EFC09531F0
:10F6900008F4C6C1963109F040C2C2C19A3109F4DA
:10F6A0006CC09A3108F491C09B3109F45BC09D3164
:10F6B00009F033C29D81903359F48F81882311F46E
:10F6C0009EE11CC0813011F091E018C098E916C08D
:10F6D000892F807591F0903539F4E0E0F0E089E011
:10F6E0008093570094910AC0983539F4E3E0F0E034
:10F6F00089E080935700949101C090E01A821B82A8
:10F700008D818C831D829E831F8227E030E009C299
:10F710001A8288E08B8381E48C8386E58D8382E581
:10F720008E8389E48F8383E5888780E589878FE5E9
:10F730008A8782E38B872BE030E0F3C18A818139AD
:10F7400041F0823941F0803911F48FE005C080E04A
:10F7500003C082E001C08AE01A828B8344C0772410
:10F76000739482C08D81882311F48EE12CC0813086
:10F7700011F081E028C088E926C01A82E1E0F0E0BB
:10F7800089E08093570084918B831C8224E030E0D1
:10F79000C8C18B81803589F48C81883039F4E2E0EE
:10F7A000F0E089E08093570084910DC0E0E0F0E044
:10F7B00089E080935700849106C0E3E0F0E089E09F
:10F7C0008093570084911A82DFCF8D81836C99E0FA
:10F7D000E1E0F0E0082E90935700E89507B600FCB2
:10F7E000FDCF1A821B8223E030E09BC180EC8A832C
:10F7F000CE5CDE4F188219821A821B82C253D1401E
:10F800008EC18A8190E0A0E0B0E0582F44273327D2
:10F8100022278B8190E0A0E0B0E0DC0199278827C7
:10F82000282B392B4A2B5B2B8D8190E0A0E0B0E098
:10F83000282B392B4A2B5B2B8C8190E0A0E0B0E089
:10F84000BA2FA92F982F8827282B392B4A2B5B2BCF
:10F85000220F331F441F551FC05EDE4F288339839C
:10F860004A835B83C052D1401A8259C13A81C95C34
:10F87000DE4F3883C753D140CA5CDE4F1882C6536F
:10F88000D1408B81C82EDD24CA5CDE4F488159816E
:10F89000C653D140C42AD52A933109F082C0CE5C28
:10F8A000DE4F88819981AA81BB81C253D1408050AB
:10F8B000904CA340B04030F583E0CE5CDE4FE88052
:10F8C000F9800A811B81C253D140F70100935B008C
:10F8D00080935700E89507B600FCFDCFCE5CDE4F65
:10F8E000088119812A813B81C253D14000501F4FAA
:10F8F0002F4F3F4FCE5CDE4F088319832A833B8313
:10F90000C253D140C05EDE4F488159816A817B81FC
:10F91000C052D140DE011B9631E08C9111962C91A2
:10F9200011971296C75CDE4F2883C953D140C85C3B
:10F93000DE4F1882C853D14090E0C85CDE4FE881AA
:10F94000F981C853D1408E2B9F2B0C01FA01609393
:10F950005B0030935700E89511244E5F5F4F6F4F67
:10F960007F4F0EEFE02E0FEFF02ECE0CDF1CC114F8
:10F97000D10499F685E0C05EDE4F088119812A81A5
:10F980003B81C052D140F80120935B008093570027
:10F99000E89507B600FCFDCF81E180935700E8951C
:10F9A00035C0C05EDE4F88819981AA81BB81C0527B
:10F9B000D140B695A795979587957C018601ABE0D8
:10F9C000AA2EB12CAC0EBD1E0BC0D5016D915D01F0
:10F9D000C7010F947FFE0894E11CF11C01501040F8
:10F9E0000115110591F7A60160E070E0440F551F65
:10F9F000661F771FC05EDE4FE880F9800A811B8199
:10FA0000C052D1404E0D5F1D601F711F1A82C05E33
:10FA1000DE4F488359836A837B83C052D1407FC0C5
:10FA2000FA80C55CDE4FF882CB53D140C65CDE4F16
:10FA30001882CA53D1408B81C82EDD24C65CDE4FAC
:10FA400008811981CA53D140C02AD12A1A828981DA
:10FA5000BE016D5F7F4F843121F59601C05EDE4FA0
:10FA6000E880F9800A811B81C052D1400BBFF701A9
:10FA700087919691DB018C9311969C936E5F7F4FDB
:10FA8000D801C7010296A11DB11DC05EDE4F88835B
:10FA90009983AA83BB83C052D14022503040F1F6F3
:10FAA00036C0C05EDE4F288139814A815B81C052F9
:10FAB000D1400894C108D108760100E010E0089414
:10FAC000C11CD11C0894E11CF11C011D111DE20E8A
:10FAD000F31E041F151F21BDBB27A52F942F832FB5
:10FAE00082BD2F5F3F4F4F4F5F4FF89A80B5DB01CC
:10FAF0008D93BD012E153F054007510761F7C05E8C
:10FB0000DE4F288339834A835B83C052D1409601FC
:10FB10002D5F3F4FFB01108204C080EC8A8322E0FE
:10FB200030E08BE18093C6008091C00086FFFCCF5F
:10FB30008091C00080648093C000C15DDE4FF88179
