:1000000022C1000050C100004EC100004CC10000E0
:100010004AC1000048C1000046C1000044C10000C0
:1000200042C1000040C100003EC100003CC10000D0
:100030003AC1000038C1000036C1000034C10000E0
:1000400032C1000030C100002EC100002CC10000F0
:100050002AC1000028C1000026C100002CC40000F5
:1000600022C100007AC200004FC200001CC1000083
:100070001AC1000018C1000016C1000014C1000020
:1000800012C1000010C100000EC100000CC1000030
:100090000AC1000008C1000006C1000004C1000040
:1000A00002C1000000C10000FEC00000FCC0000052
:1000B000FAC00000F8C00000F6C00000F4C0000064
:1000C000F2C00000F0C00000EEC00000ECC0000074
:1000D000EAC00000E8C00000E6C00000E4C0000084
:1000E000E2C0000012031503040308030C034C03D1
:1000F00019031D03230327032B033103350339039E
:100100004C033F034303470387038C0391039B0383
:10011000A5031E04AF03B703BF03C903D303DD0365
:10012000EC03F6031E0400040A04140400000A0B86
:1001300002090C0D0E080703040100000000000076
:1001400000000000000000000000000000000000AF
:10015000000000000000000012111000000000006C
:10016000000000000000000000000000000000008F
:1001700000001112131415160A0B0C0D0E0F0001BE
:100180000203040500002200250028002B002E0099
:100190003100340002010000050108010B010000DC
:1001A0002100240027002A002D0030003300010127
:1001B0000000040107010A010505050507050808F7
:1001C0000808020202020A0A0808040404040101E1
:1001D00001010101010103030303030303030407F6
:1001E00007070C0C0C0C0C0C0C0C0202020206068D
:1001F0000606060606060B0B0B0B0B0B0B0B010280
:100200001020200808102040102040800201020128
:1002100008040201010204081020408080402010E0
:100220000804020180040201804020100804020139
:1002300008040201010204081020408001020408A1
:10024000102040800F0B11241FBECFEFD1E2DEBF84
:10025000CDBF00E00CBF12E0A0E0B2E0E2E3FCE1C1
:1002600000E00BBF02C007900D92A436B107D9F78A
:1002700023E0A4E6B2E001C01D92A83BB207E1F77B
:1002800011E0C3E2D1E000E006C021970109802F10
:10029000FE010E94E70DC232D10780E00807A9F7EE
:1002A000F9D40C94170EACCE089580E090E0089538
:1002B000FC01538D448D252F30E0842F90E0821B6C
:1002C000930B541710F0CF96089501970895FC01F1
:1002D000918D828D981761F0828DDF01A80FB11D7D
:1002E0005D968C91928D9F5F9F73928F90E00895A1
:1002F0008FEF9FEF0895FC01918D828D981731F05B
:10030000828DE80FF11D858D90E008958FEF9FEFAE
:100310000895FC01918D228D892F90E0805C9F4F84
:10032000821B91098F739927089587EF92E0F1DF7F
:1003300021E0892B09F420E0822F0895FC01848DAF
:10034000DF01A80FB11DA35ABF4F2C91848D90E0FF
:1003500001968F739927848FA689B7892C93A089DA
:10036000B1898C91837080648C93938D848D981364
:1003700006C00288F389E02D80818F7D80830895F7
:10038000EF92FF920F931F93CF93DF93EC0181E0E5
:10039000888F9B8D8C8D981305C0E889F9898081A1
:1003A00085FD25C0F62E0B8D10E00F5F1F4F0F73DC
:1003B0001127E02E8C8DE8120BC00FB607FCFACF88
:1003C000E889F989808185FFF5CFCE01B7DFF2CFCB
:1003D0008B8DFE01E80FF11DE35AFF4FF0829FB7AE
:1003E000F8940B8FEA89FB89808180620AC09FB7ED
:1003F000F894EE89FF896083E889F98980818370A8
:10040000806480839FBF81E090E0DF91CF911F9156
:100410000F91FF90EF900895CF93DF93EC01888DBB
:100420008823C1F0EA89FB89808185FD05C0A88900
:10043000B9898C9186FD0EC00FB607FCF5CF80817F
:1004400085FFF2CFA889B9898C9185FFEDCFCE01C8
:1004500075DFE8CFDF91CF91089580E090E0892BA0
:1004600019F063DF811125C080E090E0892B41F015
:1004700080E090E0892B21F00E94000081111CC0D7
:1004800080E090E0892B41F080E090E0892B21F022
:100490000E940000811113C080E090E0892BA1F040
:1004A00080E090E0892B81F00E94000081110AC059
:1004B00008950E940000D8CF0E940000E1CF0E9462
:1004C0000000EACF0C9400000895863308F08653AC
:1004D00090917B00282F2870977F922B90937B0020
:1004E0008770806480937C0080917A008064809320
:1004F0007A0080917A0086FDFCCF8091780020916F
:10050000790090E0922B08951F920F920FB60F92F0
:1005100011240BB60F922F933F934F935F936F93DA
:100520007F938F939F93AF93BF93EF93FF9387EF47
:1005300092E004DFFF91EF91BF91AF919F918F9176
:100540007F916F915F914F913F912F910F900BBED3
:100550000F900FBE0F901F9018951F920F920FB61D
:100560000F9211240BB60F922F938F939F93EF93BB
:10057000FF93E0910703F09108038081E0910D0360
:10058000F0910E0382FD12C09081809110038F5F65
:100590008F7320911103821751F0E0911003F0E066
:1005A000E950FD4F958F8093100301C08081FF912A
:1005B000EF919F918F912F910F900BBE0F900FBED7
:1005C0000F901F901895362F90E0FC01E45DFE4FD0
:1005D0004491FC01E250FE4F2491FC01E854FE4F8F
:1005E0009491992309F46CC0442309F455C050E058
:1005F000FA013197E231F10508F04EC08827EE5834
:10060000FF4F8F4F0C94E70D809180008F7707C0CC
:10061000809180008F7D03C080918000877F8093D0
:1006200080003AC084B58F7702C084B58F7D84BDC9
:1006300033C08091B0008F7703C08091B0008F7D70
:100640008093B00029C0809190008F7707C080917F
:1006500090008F7D03C080919000877F80939000F1
:100660001BC08091A0008F7707C08091A0008F7D74
:1006700003C08091A000877F8093A0000DC080916F
:1006800020018F7707C0809120018F7D03C080916A
:100690002001877F80932001E92FF0E0EE0FFF1FFC
:1006A000EC57FE4FA591B4919FB7F894311104C057
:1006B0008C912095282302C0EC912E2B2C939FBF68
:1006C00008951F93CF93DF93182FEB0173D22097D8
:1006D00011F460E004C0CF3FD10531F461E0812F17
:1006E000DF91CF911F916FCFE12FF0E0E45DFE4FDE
:1006F000E4918E2F90E0FC013197E231F10508F092
:100700009DC08827EC57FF4F8F4F0C94E70D84B5A1
:10071000806884BDC7BD97C084B5806284BDC8BDF4
:1007200092C080918000806880938000D09389007F
:10073000C093880088C08091800080628093800090
:10074000D0938B00C0938A007EC080918000886027
:1007500080938000D0938D00C0938C0074C08091F2
:10076000B00080688093B000C093B3006CC08091EB
:10077000B00080628093B000C093B40064C08091E8
:100780009000806880939000D0939900C093980067
:100790005AC080919000806280939000D0939B001B
:1007A000C0939A0050C08091900088608093900020
:1007B000D0939D00C0939C0046C08091A0008068AB
:1007C0008093A0008091A0008F7B8093A000D093A5
:1007D000A900C093A80037C08091A00080628093D8
:1007E000A000D093AB00C093AA002DC08091A000C0
:1007F00088608093A000D093AD00C093AC0023C06C
:1008000080912001806880932001D0932901C093BA
:10081000280119C080912001806280932001D0932B
:100820002B01C0932A010FC0809120018860809322
:100830002001D0932D01C0932C0105C0C038D105F3
:100840000CF04CCF46CFDF91CF911F910895CF93FD
:10085000DF93EC0160E08881B6DE60E08A81B3DE80
:1008600060E070E08C81DF91CF912BCF3FB7F8949F
:100870008091650290916602A0916702B091680232
:1008800026B5A89B05C02F3F19F00196A11DB11DEB
:100890003FBFBA2FA92F982F8827820F911DA11D26
:1008A000B11DBC01CD0142E0660F771F881F991F63
:1008B0004A95D1F708951F920F920FB60F92112407
:1008C0002F933F938F939F93AF93BF9380916A022F
:1008D00090916B02A0916C02B0916D023091640214
:1008E00023E0230F2D3720F40196A11DB11D05C073
:1008F00026E8230F0296A11DB11D20936402809368
:100900006A0290936B02A0936C02B0936D02809187
:10091000650290916602A0916702B091680201960B
:10092000A11DB11D8093650290936602A09367029A
:10093000B0936802BF91AF919F918F913F912F919A
:100940000F900FBE0F901F9018958EBD00000DB434
:1009500007FEFDCF8EB50895CF92DF92EF92FF9202
:100960000F931F93CF93DF936C017A018B01C0E04B
:10097000D0E0CE15DF0581F0D8016D918D01D60153
:10098000ED91FC910190F081E02DC6011995892B24
:1009900011F02196EECF7E01C701DF91CF911F911B
:1009A0000F91FF90EF90DF90CF9008950E940A0E74
:1009B000009761F0FC0101900020E9F73197AF0149
:1009C000481B590BBC0187EF92E0C6CF80E090E056
:1009D00008958F929F92AF92BF920F931F93CF93E0
:1009E000DF93CDB7DEB7A1970FB6F894DEBF0FBE89
:1009F000CDBF19A2423008F44AE08E010F5D1F4FAF
:100A0000842E912CA12CB12CA501940195D6E62F12
:100A1000B901CA0101501109EA3014F4E05D01C0C6
:100A2000E95CD801EC93232B242B252B69F7C80113
:100A3000BFDFA1960FB6F894DEBF0FBECDBFDF912A
:100A4000CF911F910F91BF90AF909F908F9008957D
:100A5000682F87EF92E094CC9CB59F7D9CBD9CB5A0
:100A6000937F9CBD9CB59C7F9CBD9DB591609DBDB9
:100A7000682F8091A203A7DD8091B4039091B50304
:100A80008230910538F0880F991F880F991F0597BC
:100A90000197F1F70895CF93DF93C82FD62F80E009
:100AA000DBDF8C2F8F71806250DFC82F8D2F4DDFE1
:100AB00081E0D2DF8C2FDF91CF910895CF9380E03A
:100AC000CBDF81EE42DFC82F81E0C6DF8C2FCF91D4
:100AD0000895CF93C82F80E0BFDF8C2F8F7135DF53
:100AE0008FEF33DFC82F81E0B7DF8C2FCF910895D0
:100AF000EF92FF920F931F93CF93DF93182F7B01F9
:100B0000C42F80E0A9DF812F8F7180621EDFD82F74
:100B10008701CC2331F0F80181918F0116DFC1509C
:100B2000F8CF81E099DF8D2FDF91CF911F910F9149
:100B3000FF90EF9008958F929F92AF92BF92CF92C5
:100B4000DF92EF92FF9292DE4B015C0185E0C82EAE
:100B5000D12CE12CF12C8ADEDC01CB01881999091A
:100B6000AA09BB09883E9340A105B105A0F321E085
:100B7000C21AD108E108F10888EE880E83E0981EB9
:100B8000A11CB11CC114D104E104F10421F7FF90B0
:100B9000EF90DF90CF90BF90AF909F908F9008958F
:100BA00080E097DF81FD05C0682F626080E073DF21
:100BB000C2CF089590E0FC01E250FE4F2491FC0169
:100BC000E854FE4F8491882399F090E0880F991F94
:100BD000FC01E256FE4FA591B491FC01EC57FE4F8B
:100BE000859194918FB7F894EC91E22BEC938FBFA1
:100BF0000895FC0180819181938382837183608356
:100C00000895CF92DF92EF92FF92CF93DF936C0122
:100C1000990FEE08FF08F7FE15C08DE219DFEC0111
:100C200066277727CB016C197D098E099F094AE059
:100C3000D0DE8C0F9D1FDF91CF91FF90EF90DF9062
:100C4000CF9008954AE0C701B601DF91CF91FF90A0
:100C5000EF90DF90CF90BDCECF93DF93EC0160E0BB
:100C60008881B1DC61E08A81AEDC62E370E08C8176
:100C7000DF91CF9126CDCF93DF93EC0161E08881A6
:100C8000A2DC60E08A819FDC62E370E08C81DF910E
:100C9000CF9117CDCF93DF93CDB7DEB72C970FB69B
:100CA000F894DEBF0FBECDBF789484B5826084BD5A
:100CB00084B5816084BD85B5826085BD85B5816060
:100CC00085BD80916E00816080936E0010928100DE
:100CD0008091810082608093810080918100816099
:100CE000809381008091800081608093800080915A
:100CF000B10084608093B1008091B00081608093E6
:100D0000B000809191008260809391008091910069
:100D10008160809391008091900081608093900029
:100D20008091A10082608093A1008091A1008160E8
:100D30008093A1008091A00081608093A0008091A9
:100D40002101826080932101809121018160809343
:100D500021018091200181608093200180917A009F
:100D6000846080937A0080917A00826080937A0018
:100D700080917A00816080937A0080917A00806807
:100D800080937A001092C100E0910703F09108036C
:100D900082E08083E0910303F09104031082E091EC
:100DA0000503F09106038FEC808310920F03E0910E
:100DB0000B03F0910C0386E08083E0910903F0912E
:100DC0000A03808180618083E0910903F0910A0326
:100DD000808188608083E0910903F0910A0380811B
:100DE00080688083E0910903F0910A0380818F7D00
:100DF00080838091A0039091A1032091A203309160
:100E0000A3038217930709F0D5DE8091A203909186
:100E1000A3032091A0033091A1032817390709F0FB
:100E2000C9DE0FB70983F89480916902811120C04F
:100E3000EDEEF1E08491E3E3F2E09491E82FF0E04D
:100E4000EE0FFF1FE256FE4FA591B491EC91E923FE
:100E500019F461E085E3B7DB85E3ACDE8CB5806136
:100E60008CBD8CB580648CBD84E3A4DE83E3A2DEFC
:100E7000809169028F5F8093690219811FBF809101
:100E8000A0039091A1032091A2033091A3038217A4
:100E9000930711F060E097DB81E0DEDD4CDE6CE073
:100EA00080E0F9DD6FE584E0F6DD86E012DE877D27
:100EB000806289838BE990E0A0E0B0E08093B0038A
:100EC0009093B103A093B203B093B303698186E01A
:100ED000E2DD86E0FEDD0981081709F438C386E00B
:100EE000F8DD86E0F6DD45E550E060E070E0409337
:100EF000B0035093B1036093B2037093B303682FB0
:100F0000677D86E0C8DD86E0E4DD80E0A5DD80E584
:100F10001CDD83E71ADD81E09FDD60E08DE1BBDD54
:100F200060E08CE1B8DD1092A80360E787E0B3DDF4
:100F30006CE485E0B0DD80E08FDD82EE06DD81E0EF
:100F40008BDDBCDD2DDE80E0C4DD682F6E7F80E0B0
:100F5000A2DD62E085E09FDD4091AE0350E061E0FC
:100F600072E089EA93E05AD6E8E7F1E08491409193
:100F7000AE0361E072E0BCDDE2E7F1E084916091F4
:100F8000A70389DD82E0A5DDEEE7F1E0949161E061
:100F900070E001C0660F9A95EAF7682B82E07BDD6E
:100FA000FFDD80E096DD682F616080E074DD60E742
:100FB00087E071DD8091A0039091A1032091A203AD
:100FC0003091A3038217930711F061E0FCDA80915E
:100FD000A903882339F04091AE0369EA73E08AE0FF
:100FE00087DD11C082E075DDEEE7F1E0F491F98371
:100FF00021E030E001C0220FFA95EAF72095622F38
:10100000682382E048DD8DE164DD81FD57DD442405
:101010004A94E3E05E2E612C712C2FB7F8948091F6
:101020006A0290916B02A0916C02B0916D022FBF89
:101030008C019D0140E050E0BA018D831E832F8317
:10104000388749875A876B877C878093EF02109394
:10105000F0022093F1023093F2021092F302109208
:10106000F4021092F5021092F60287E132DD80FF61
:1010700072C281E0809300028090EF029090F002B3
:10108000F091F102FD830091F2020B833090F302A4
:101090002090F4021091F50219832091F6022A8320
:1010A00094014F2F502F632D722D812F9A81A09084
:1010B000C002B090C102C090C202D090C302E090C2
:1010C000C402F090C5020091C6021091C7028DD5EE
:1010D000A2E394D509F008F469C08092C00290920E
:1010E000C102F093C2023B813093C3023092C4022A
:1010F0002092C50249814093C6025A815093C7028B
:1011000087E3E3D98C0188E3E0D9D801A81BB90BA8
:1011100020E533EC64D5A3019201F2D2CA01B901F2
:101120003BD4E0ECF2E000E712E0DF011897CD904D
:10113000DD90ED90FC90F292E292D292C2920E1764
:101140001F0799F760937002709371028093720287
:101150009093730294014D815B81632D722D89817F
:101160009A81273E3340410551056105710581058E
:101170009105E1F0D8F060E070E0CB01F801219139
:101180003191419151918F0109D3F2E00C3B1F073E
:10119000A9F720E030E040EA51E468D36093CA0246
:1011A0007093CB028093CC029093CD0294014D8139
:1011B0005B81632D722D89819A81A090CE02B090BF
:1011C000CF02C090D002D090D102E090D202F09035
:1011D000D3020091D4021091D50207D5283E3340A6
:1011E00041055105610571058105910509F008F476
:1011F000D8C08092CE029092CF021D811093D0026F
:101200002B812093D1023092D2022092D3023981D5
:101210003093D4024A814093D50220E030E041E689
:1012200054E46091CA027091CB028091CC029091FB
:10123000CD0262D418160CF094C08CE192E0B8DBB9
:101240008090CA029090CB02A090CC02B090CD02C8
:10125000A5019401C501B401B6D4882319F080E238
:1012600092E018C075016401E894F7F82FEF3FEFA2
:101270004FE75FE7C701B601A6D481110DC02FEF7C
:101280003FEF4FE75FE7C701B601ECD2181624F431
:1012900084E292E08DDB60C02FEF3FEF4FE75FE429
:1012A000C501B40129D418161CF488E292E0F2CFEB
:1012B0002FEF3FEF4FE75FECC501B401D3D287FDBD
:1012C000F4CF20E030E0A901C501B401CBD287FF03
:1012D00006C08DE2BDDBB7FAB094B7F8B0942AE04F
:1012E00037ED43EA5BE3C501B40158D24B015C0121
:1012F00025D36B017C014ED39B01AC01C501B40128
:101300004CD24B015C014AE0C701B60162DB8EE2C0
:101310009FDB20E030E040E251E4C501B401F0D3AE
:101320006B017C010BD34B01A12CB12C4AE0C50110
:10133000B4014FDBC501B4012DD39B01AC01C70142
:10134000B6012BD220E030E040E251E4D9D3F6D20E
:1013500080E090E04AE03DDB8CE292E029DB81E036
:1013600001C080E02091C8023091C90222303105CD
:101370004CF080E392E01CDB8091C8029091C9029E
:1013800040DC02C0882319F089E192E011DB8091F2
:101390000002882331F08DE392E00ADB89E192E0DC
:1013A00007DB0091EF021091F002F090F102E09063
:1013B000F202B091F302A091F402F091F502D09004
:1013C000F60298014F2D5E2D6B2F7A2F8F2F9D2DBA
:1013D0002B3D35404105510561057105810591059C
:1013E00009F0C8F46091E00270E08CED92E001DC5D
:1013F0006091E10270E08AED92E0FBDB6091E20235
:1014000070E088ED92E0F5DB6091E30270E086ED3C
:1014100092E0EFDB5FC098014F2D5E2D6B2F7A2F8E
:101420008F2F9D2D2C3D35404105510561057105DE
:101430008105910509F44EC08091E60281114AC0F0
:101440008091DC029091DD02969587959093EE0253
:101450008093ED028091DA029091DB029695879558
:101460009093EC028093EB028091D8029091D90284
:10147000969587959093EA028093E9028091D6022F
:101480009091D702969587959093E8028093E70212
:1014900081E592E08DDA8091ED029091EE02B1DB70
:1014A00080E2D6DA8091EB029091EC02AADB80E236
:1014B000CFDA8091E9029091EA02A3DB80E2C8DAF8
:1014C0008091E7029091E8029CDB8AE0C1DA81E03A
:1014D0008093E6028091E002813A50F08091DE0232
:1014E0009091DF02892B81F084E993E0B5DB0FC096
:1014F000843650F48091DE029091DF02892B21F036
:1015000084E993E0B8DB03C084E993E0A0D980913B
:10151000E202813A50F08091DE029091DF02892B45
:1015200081F08AE993E098DB0FC0843650F4809113
:10153000DE029091DF02892B21F08AE993E09BDBA8
:1015400003C08AE993E083D90E942D0266CD81E031
:101550008093A603C4CC0091DE021091DF021093A9
:101560006F0200936E022091A7032983263008F4AE
:1015700054C076E0B72E8091A803811103C0398052
:101580003B1801C0312C80E067DA81E6DED960EEDD
:10159000862E62E0962E9C828B82BA943FEFB31225
:1015A00002C0398208C08FEFD0D9EB81FC818193D2
:1015B000FC83EB83F2CFF981FF2331F08FEFC5D9A4
:1015C000298121502983F7CF81E046DA60E787E05F
:1015D00062DA8091E50290E09093DF028093DE0270
:1015E000801B910B01979093C9028093C80236EE3D
:1015F000831632E0930659F0F40161914F0170E0D7
:1016000080E090E04AE0E5D980E222DAF0CF89E19B
:1016100092E0CED9109200022FCDB22EACCFCF9354
:10162000DF93E7EFF2E01382128288EE93E0A0E00E
:10163000B0E084839583A683B7838BE092E09183A7
:10164000808385EC90E09587848784EC90E0978791
:10165000868780EC90E0918B808B81EC90E0938B7F
:10166000828B82EC90E0958B848B86EC90E0978B5C
:10167000868B118E128E138E148EE0EAF3E08EE0CC
:1016800090E0918380838FE090E093838283168241
:1016900080E28783108685E0868785E090E0A0E081
:1016A000B0E0848B958BA68BB78B1186CAE9D3E00B
:1016B00089E290E09983888388E290E09B838A8323
:1016C0008DE290E09D838C8389E274DA8A8172DAFC
:1016D0008C8170DAC4E9D3E08BE290E0998388834F
:1016E0008AE290E09B838A838CE290E09D838C83E6
:1016F0008BE260DA8A815EDA8C81DF91CF915ACAFF
:10170000052E97FB16F400940FD057FD05D014D08A
:1017100007FC02D046F408C05095409530952195BD
:101720003F4F4F4F5F4F089590958095709561950D
:101730007F4F8F4F9F4F0895A1E21A2EAA1BBB1B0C
:10174000FD010DC0AA1FBB1FEE1FFF1FA217B3078D
:10175000E407F50720F0A21BB30BE40BF50B661FA3
:10176000771F881F991F1A9469F760957095809567
:1017700090959B01AC01BD01CF010895A29FB001DE
:10178000B39FC001A39F700D811D1124911DB29FB5
:10179000700D811D1124911D08955058BB27AA2753
:1017A0000ED070C161D130F066D120F031F49F3F8E
:1017B00011F41EF456C10EF4E095E7FB4CC1E92F7D
:1017C00072D180F3BA17620773078407950718F080
:1017D00071F49EF58AC10EF4E0950B2EBA2FA02D60
:1017E0000B01B90190010C01CA01A0011124FF27CE
:1017F000591B99F0593F50F4503E68F11A16F040C9
:10180000A22F232F342F4427585FF3CF46953795C7
:101810002795A795F0405395C9F77EF41F16BA0B8C
:10182000620B730B840BBAF09150A1F0FF0FBB1F3A
:10183000661F771F881FC2F70EC0BA0F621F731F83
:10184000841F48F4879577956795B795F7959E3FE0
:1018500008F0B3CF9395880F08F09927EE0F97956E
:1018600087950895D4D008F481E008950CD00AC17A
:1018700002D140F0F9D030F021F45F3F19F0EBC015
:10188000511134C1EEC00FD198F39923C9F35523F8
:10189000B1F3951B550BBB27AA2762177307840763
:1018A00038F09F5F5F4F220F331F441FAA1FA9F319
:1018B00033D00E2E3AF0E0E830D091505040E6950B
:1018C000001CCAF729D0FE2F27D0660F771F881F6C
:1018D000BB1F261737074807AB07B0E809F0BB0B5B
:1018E000802DBF01FF2793585F4F2AF09E3F51057F
:1018F00068F0B1C0FBC05F3FECF3983EDCF3869527
:1019000077956795B795F7959F5FC9F7880F911DF4
:101910009695879597F90895E1E0660F771F881FE0
:10192000BB1F621773078407BA0720F0621B730B93
:10193000840BBA0BEE1F88F7E0950895BCD088F0B1
:101940009F5790F0B92F9927B751A0F0D1F0660FAB
:10195000771F881F991F1AF0BA95C9F712C0B130C6
:1019600081F0C3D0B1E00895C0C0672F782F8827D9
:10197000B85F39F0B93FCCF3869577956795B39505
:10198000D9F73EF490958095709561957F4F8F4F74
:101990009F4F0895E89409C097FB3EF49095809579
:1019A000709561957F4F8F4F9F4F9923A9F0F92F25
:1019B00096E9BB279395F695879577956795B795A3
:1019C000F111F8CFFAF4BB0F11F460FF1BC06F5F89
:1019D0007F4F8F4F9F4F16C0882311F096E911C09B
:1019E000772321F09EE8872F762F05C0662371F0BC
:1019F00096E8862F70E060E02AF09A95660F771FD0
:101A0000881FDAF7880F9695879597F90895990FAB
:101A10000008550FAA0BE0E8FEEF16161706E807B8
:101A2000F907C0F012161306E407F50798F0621BD9
:101A3000730B840B950B39F40A2661F0232B242BAE
:101A4000252B21F408950A2609F4A140A6958FEFCD
:101A5000811D811D089597F99F6780E870E060E01F
:101A600008959FEF80EC089500240A941616170637
:101A700018060906089500240A941216130614067F
:101A800005060895092E0394000C11F4882352F0E2
:101A9000BB0F40F4BF2B11F460FF04C06F5F7F4F9A
:101AA0008F4F9F4F089557FD9058440F551F59F081
:101AB0005F3F71F04795880F97FB991F61F09F3F3B
:101AC00079F087950895121613061406551FF2CF64
:101AD0004695F1DF08C0161617061806991FF1CFB4
:101AE00086957105610508940895E894BB276627DB
:101AF0007727CB0197F908958ADF08F48FEF0895CF
:101B00000BD0C0CFB1DF28F0B6DF18F0952309F075
:101B1000A2CFA7CF1124EACFC6DFA0F3959FD1F3C0
:101B2000950F50E0551F629FF001729FBB27F00D8B
:101B3000B11D639FAA27F00DB11DAA1F649F6627E0
:101B4000B00DA11D661F829F2227B00DA11D621F2F
:101B5000739FB00DA11D621F839FA00D611D221FE9
:101B6000749F3327A00D611D231F849F600D211DCD
:101B7000822F762F6A2F11249F5750408AF0E1F070
:101B800088234AF0EE0FFF1FBB1F661F771F881FB9
:101B900091505040A9F79E3F510570F05CCFA6CF01
:101BA0005F3FECF3983EDCF3869577956795B795A4
:101BB000F795E7959F5FC1F7FE2B880F911D9695CE
:101BC000879597F9089523DF880B990B0895EE0FF9
:101BD000FF1F881F8BBF0790F691E02D1994CEDD73
:101BE000B7FF0895821B930B08952A193B094C09EE
:101BF0005D096E097F09800B910B08950024A7FDF4
:101C000000942A17300540055005600570058005D1
:101C10009005089581E090E0F89409C0FB01DC0193
:101C200002C001900D9241505040D8F70895F894A9
:021C3000FFCFE4
:101C320001314E6F64653000000000C001AC0458F1
:101C4200010C02890167017B010D0A00493A20005B
:101C52006E616E00696E66006F766600206D4100EF
:101C62000944617461206C6F73733A20005261649D
:101C7200696F206E6F7420617661696C61626C6558
:101C82000043616C6962726174696F6E20646F6E89
:041C9200653A20008F
:00000001FF
