:10000000ACC100000C94D3080C94A8080C947D0893
:100010000C9452080C942708EFC70000C2C70000D8
:1000200095C70000CBC10000C9C10000C7C10000D6
:10003000C5C100000C94EC09C1C10000BFC10000A3
:10004000BDC10000BBC10000B9C10000B7C10000C4
:10005000B5C10000B3C10000B1C100002DC7000050
:10006000ADC1000007C50000DCC40000A7C100004E
:10007000A5C10000A3C10000A1C100009FC10000F4
:100080009DC100009BC1000099C1000097C1000004
:1000900095C1000093C1000091C100008FC1000014
:1000A0008DC100008BC1000089C1000087C1000024
:1000B00085C1000083C1000081C100007FC1000034
:1000C0007DC100007BC1000079C1000077C1000044
:1000D00075C1000073C1000071C100006FC1000054
:1000E0006DC100000B030E03FD020103070345036E
:1000F000120316031C03200324032A032E033203D6
:10010000450338033C03400329062E0633063D060B
:100110004706C0065106590661066B0675067F063E
:100120008E069806C006A206AC06B60600407A10F7
:10013000F35A00A0724E18090010A5D4E80000E898
:100140007648170000E40B54020000CA9A3B0000F6
:1001500000E1F505000080969800000040420F0085
:100160000000A08601000000102700000000E80346
:10017000000000006400000000000A000000000011
:100180000100000000002C76D888DC674F0823DFD0
:10019000C1DFAE59E1B1B796E5E3E453C63AE651A3
:1001A000997696E8E6C28426EB898C9B62ED407CCA
:1001B0006FFCEFBC9C9F40F2BAA56FA5F490055A66
:1001C0002AF75C936B6CF9676DC11BFCE0E40D478B
:1001D000FEF520E6B500D0ED902E030094357705AE
:1001E0000080841E080000204E0A000000C80C3366
:1001F0003333330F986E12831141EF8D2114893BF5
:10020000E65516CFFEE6DB18D1844B381BF77C1D74
:10021000901DA4BBE424203284725E228100C9F1C7
:1002200024ECA1E53D2700000A0B02090C0D0E0885
:1002300007030401000000000000000000000000AF
:1002400000000000000000000000000000000000AE
:10025000000012111000000000000000000000006B
:100260000000000000000000000000001112131444
:1002700015160A0B0C0D0E0F0001020304050000F9
:100280002100240027002A002D0030003300010146
:100290000000040107010A010000200023002600DD
:1002A00029002C002F00320000010000030106018C
:1002B000090100002200250028002B002E0031003B
:1002C000340002010000050108010B0105050505C8
:1002D000070508080808020202020A0A08080404BE
:1002E00004040101010101010101030303030303EC
:1002F0000303040707070C0C0C0C0C0C0C0C02027B
:10030000020206060606060606060B0B0B0B0B0B77
:100310000B0B010210202008081020401020408004
:1003200002010201080402010102040810204080B9
:100330008040201008040201800402018040201047
:100340000804020108040201010204081020408090
:100350000102040810204080201911241FBECFEF95
:10036000D1E2DEBFCDBF00E00CBF12E0A0E0B2E002
:10037000E4EFF2E400E00BBF02C007900D92A23C54
:10038000B107D9F72CE0A2ECB2E001C01D92AE3665
:10039000B207E1F711E0CDEAD1E000E006C0219715
:1003A0000109802FFE010E94401FCC3AD10780E056
:1003B0000807A9F70E9403140C94782121CE089510
:1003C00080E090E00895FC01538D448D252F30E0AE
:1003D000842F90E0821B930B541710F0CF96089552
:1003E00001970895FC01918D828D981761F0828D9F
:1003F000DF01A80FB11D5D968C91928D9F5F9F7359
:10040000928F90E008958FEF9FEF0895FC01918DFA
:10041000828D981731F0828DE80FF11D858D90E067
:1004200008958FEF9FEF0895FC01918D228D892F04
:1004300090E0805C9F4F821B91098F7399270895EC
:1004400083E893E0F1DF21E0892B09F420E0822F9B
:100450000895FC01848DDF01A80FB11DA35ABF4F81
:100460002C91848D90E001968F739927848FA689B3
:10047000B7892C93A089B1898C91837080648C9307
:10048000938D848D981306C00288F389E02D8081B6
:100490008F7D80830895EF92FF920F931F93CF93E8
:1004A000DF93EC0181E0888F9B8D8C8D981305C0C4
:1004B000E889F989808185FD25C0F62E0B8D10E035
:1004C0000F5F1F4F0F731127E02E8C8DE8120BC0AA
:1004D0000FB607FCFACFE889F989808185FFF5CF4F
:1004E000CE01B7DFF2CF8B8DFE01E80FF11DE35A8D
:1004F000FF4FF0829FB7F8940B8FEA89FB898081C8
:1005000080620AC09FB7F894EE89FF896083E8890A
:10051000F98980818370806480839FBF81E090E04F
:10052000DF91CF911F910F91FF90EF900895CF939E
:10053000DF93EC01888D8823C1F0EA89FB898081F3
:1005400085FD05C0A889B9898C9186FD0EC00FB6BE
:1005500007FCF5CF808185FFF2CFA889B9898C91FE
:1005600085FFEDCFCE0175DFE8CFDF91CF91089504
:1005700080E090E0892B19F063DF811125C080E0D5
:1005800090E0892B41F080E090E0892B21F00E94DF
:10059000000081111CC080E090E0892B41F080E0D8
:1005A00090E0892B21F00E940000811113C080E0AF
:1005B00090E0892BA1F080E090E0892B81F00E94EF
:1005C000000081110AC008950E940000D8CF0E9447
:1005D0000000E1CF0E940000EACF0C9400000895D3
:1005E00090E0FC013197E231F10508F04EC0882718
:1005F000EE58FF4F8F4F0C94401F809180008F77F3
:1006000003C0809180008F7D809380000895809149
:100610008000877FF9CF84B58F7702C084B58F7D46
:1006200084BD08958091B0008F7703C08091B000A1
:100630008F7D8093B0000895809190008F7707C0E0
:10064000809190008F7D03C080919000877F809380
:10065000900008958091A0008F7707C08091A0003E
:100660008F7D03C08091A000877F8093A0000895B4
:10067000809120018F7707C0809120018F7D03C07A
:1006800080912001877F80932001089508950F9322
:100690001F93CF93DF9300D000D0CDB7DEB7CE014C
:1006A00001960E94F71360E572E0CE0101960E9468
:1006B000BF136091D3027091D4028091D5029091C2
:1006C000D6020E94101FCE0101960E94961369E582
:1006D00072E0CE0101960E94BF1360915703CE01D4
:1006E00001960E94961369E572E0CE0101960E9480
:1006F000BF1360915603CE0101960E9496136CE5DC
:1007000072E0CE0101960E94BF1300E214E0F801EE
:1007100060817181CE0101960E94E31269E572E069
:10072000CE0101960E94BF13F80164817581CE014C
:1007300001960E94E31268E672E0CE0101960E94E3
:10074000BF13F80160857185828593850E94101F13
:10075000CE0101960E94961369E572E0CE010196E2
:100760000E94BF13F80164857585868597850E9470
:10077000101FCE0101960E9496136FE672E0CE0123
:1007800001960E94BF13F80160897189828993895B
:100790000E94101FCE0101960E94961369E572E037
:1007A000CE0101960E94BF13F8016489758986897C
:1007B00097890E94101FCE0101960E94961367E749
:1007C00072E0CE0101960E94BF136091C602709143
:1007D000C7028091C8029091C9020E94101FCE01E9
:1007E00001960E94961369E572E0CE0101960E947F
:1007F000BF136091C2027091C3028091C4029091B4
:10080000C5020E94101FCE0101960E94961361E856
:1008100072E0CE0101960E94BF13CE0101960E94A4
:10082000BE1289819A810E94FB1F26960FB6F8940A
:10083000DEBF0FBECDBFDF91CF911F910F91089505
:10084000CF93DF9300D000D0CDB7DEB7CE010196B5
:100850000E94F71344E050E063E872E0CE01019695
:100860000E94CD136091D802CE0101960E9496138A
:1008700068E872E0CE0101960E94BF136091D90230
:10088000CE0101960E9496138091D202811103C07D
:100890006EE872E002C063E972E0CE0101960E9448
:1008A000BF1368E972E0CE0101960E94BF13409128
:1008B000D3025091D4026091D5027091D602CE013C
:1008C00001960E9411136EE972E0CE0101960E941A
:1008D000BF134091CE025091CF026091D00270912F
:1008E000D102CE0101960E94111364EA72E0CE019A
:1008F00001960E94BF136AEA72E0CE0101960E943F
:10090000BF1360915703CE0101960E94961362EBCC
:1009100072E0CE0101960E94BF1360912004709195
:100920002104CE0101960E94E31268EB72E0CE0131
:1009300001960E94BF134091C6025091C702609178
:10094000C8027091C902CE0101960E941113CE0116
:1009500001960E94BE1289819A810E94FB1F2696F1
:100960000FB6F894DEBF0FBECDBFDF91CF910895D3
:100970000F931F93CF93DF9300D000D0CDB7DEB796
:10098000CE0101960E94F71307ED12E0F801608195
:10099000CE0101960E949613CE0101960E94CF12BD
:1009A000F8016181CE0101960E949613CE01019655
:1009B0000E94CF12F8016281CE0101960E94961327
:1009C000CE0101960E94CF12F8016381CE010196FB
:1009D0000E949613CE0101960E94CF12F801638502
:1009E000CE0101960E949613CE0101960E94CF126D
:1009F000F8016185CE0101960E949613CE01019601
:100A00000E94BE1289819A810E94FB1F26960FB612
:100A1000F894DEBF0FBECDBFDF91CF911F910F9134
:100A200008951F920F920FB60F9211240BB60F92DA
:100A30002F933F934F935F936F937F938F939F93E6
:100A4000AF93BF93EF93FF9383E893E002DDFF91B1
:100A5000EF91BF91AF919F918F917F916F915F9136
:100A60004F913F912F910F900BBE0F900FBE0F90A3
:100A70001F9018951F920F920FB60F9211240BB66C
:100A80000F922F938F939F93EF93FF93E091930394
:100A9000F09194038081E0919903F0919A0382FD93
:100AA00012C0908180919C038F5F8F7320919D0372
:100AB000821751F0E0919C03F0E0ED57FC4F958FC9
:100AC00080939C0301C08081FF91EF919F918F9152
:100AD0002F910F900BBE0F900FBE0F901F90189587
:100AE000CF93DF93282F30E0F901EA5DFD4F849129
:100AF000F901EE5EFC4FD491F901E453FD4FC4912E
:100B0000CC2389F081116CDDEC2FF0E0EE0FFF1F9C
:100B1000E856FD4FA591B491EC91ED2381E090E072
:100B200021F480E002C080E090E0DF91CF91089551
:100B30001F93CF93DF93282F30E0F901EA5DFD4F3B
:100B40008491F901EE5EFC4FD491F901E453FD4F1D
:100B5000C491CC23B9F0162F811142DDEC2FF0E0C7
:100B6000EE0FFF1FEE54FD4FA591B4919FB7F8947F
:100B7000111104C08C91D095D82302C0EC91DE2BCA
:100B8000DC939FBFDF91CF911F910895CF93DF93A7
:100B900090E0FC01EE5EFC4F2491FC01E453FD4F1C
:100BA0008491882361F190E0880F991FFC01E2583D
:100BB000FD4FC591D491FC01EE54FD4FA591B49128
:100BC000611109C09FB7F89488812095822388839A
:100BD000EC912E230BC0623061F49FB7F8948881AA
:100BE000322F309583238883EC912E2B2C939FBF3B
:100BF00006C08FB7F894E8812E2B28838FBFDF9132
:100C0000CF9108951F93CF93DF93182FEB0161E0ED
:100C1000BDDF209711F460E004C0CF3FD10531F46F
:100C200061E0812FDF91CF911F9182CFE12FF0E022
:100C3000EA5DFD4FE4918E2F90E0FC013197E231A7
:100C4000F10508F09DC08827EC57FF4F8F4F0C949B
:100C5000401F84B5806884BDC7BD97C084B58062DD
:100C600084BDC8BD92C08091800080688093800060
:100C7000D0938900C093880088C0809180008062F2
:100C800080938000D0938B00C0938A007EC08091B7
:100C90008000886080938000D0938D00C0938C008A
:100CA00074C08091B00080688093B000C093B3009E
:100CB0006CC08091B00080628093B000C093B4009B
:100CC00064C080919000806880939000D0939900D8
:100CD000C09398005AC080919000806280939000E9
:100CE000D0939B00C0939A0050C080919000886080
:100CF00080939000D0939D00C0939C0046C080914B
:100D0000A00080688093A0008091A0008F7B8093DA
:100D1000A000D093A900C093A80037C08091A00084
:100D200080628093A000D093AB00C093AA002DC036
:100D30008091A00088608093A000D093AD00C09304
:100D4000AC0023C080912001806880932001D09363
:100D50002901C093280119C08091200180628093ED
:100D60002001D0932B01C0932A010FC08091200154
:100D7000886080932001D0932D01C0932C0105C081
:100D8000C038D1050CF04CCF46CFDF91CF911F91E9
:100D90000895863308F0865390917B00282F2870A1
:100DA000977F922B90937B008770806480937C0068
:100DB00080917A00806480937A0080917A0086FD29
:100DC000FCCF809178002091790090E0922B0895DB
:100DD0008230910538F0880F991F880F991F059769
:100DE0000197F1F708953FB7F89480915D039091D2
:100DF0005E03A0915F03B091600326B5A89B05C078
:100E00002F3F19F00196A11DB11D3FBFBA2FA92F89
:100E1000982F8827820F911DA11DB11DBC01CD0106
:100E200042E0660F771F881F991F4A95D1F70895F2
:100E30008F929F92AF92BF92CF92DF92EF92FF92EA
:100E40006B017C01D0DF4B015C01C114D104E104D2
:100E5000F104E9F0C8DFDC01CB0188199909AA097E
:100E6000BB09883E9340A105B10578F321E0C21A81
:100E7000D108E108F10888EE880E83E0981EA11CD5
:100E8000B11CC114D104E104F10421F7DECFFF90BD
:100E9000EF90DF90CF90BF90AF909F908F9008958C
:100EA0002FB7F8946091590370915A0380915B03B6
:100EB00090915C032FBF08951F920F920FB60F926F
:100EC00011242F933F938F939F93AF93BF93809160
:100ED000590390915A03A0915B03B0915C03309148
:100EE000580323E0230F2D3720F40196A11DB11DD7
:100EF00005C026E8230F0296A11DB11D20935803BB
:100F00008093590390935A03A0935B03B0935C03BF
:100F100080915D0390915E03A0915F03B0916003A7
:100F20000196A11DB11D80935D0390935E03A09374
:100F30005F03B0936003BF91AF919F918F913F91F9
:100F40002F910F900FBE0F901F9018951F920F9228
:100F50000FB60F9211240BB60F922F933F934F931E
:100F60005F936F937F938F939F93AF93BF93EF9311
:100F7000FF93E0910E02F0910F021995FF91EF910E
:100F8000BF91AF919F918F917F916F915F914F91A1
:100F90003F912F910F900BBE0F900FBE0F901F909F
:100FA00018951F920F920FB60F9211240BB60F9245
:100FB0002F933F934F935F936F937F938F939F9361
:100FC000AF93BF93EF93FF93E0910C02F0910D026A
:100FD0001995FF91EF91BF91AF919F918F917F9163
:100FE0006F915F914F913F912F910F900BBE0F909A
:100FF0000FBE0F901F9018951F920F920FB60F9271
:1010000011240BB60F922F933F934F935F936F93DF
:101010007F938F939F93AF93BF93EF93FF93E09151
:101020000202F09103021995FF91EF91BF91AF91E8
:101030009F918F917F916F915F914F913F912F91F0
:101040000F900BBE0F900FBE0F901F9018951F9220
:101050000F920FB60F9211240BB60F922F933F935E
:101060004F935F936F937F938F939F93AF93BF93B0
:10107000EF93FF93E0910002F09101021995FF9127
:10108000EF91BF91AF919F918F917F916F915F9100
:101090004F913F912F910F900BBE0F900FBE0F906D
:1010A0001F9018951F920F920FB60F9211240BB636
:1010B0000F922F933F934F935F936F937F938F93F1
:1010C0009F93AF93BF93EF93FF93E0910A02F09148
:1010D0000B021995FF91EF91BF91AF919F918F9165
:1010E0007F916F915F914F913F912F910F900BBE28
:1010F0000F900FBE0F901F9018951F920F920FB672
:101100000F9211240BB60F922F933F934F935F933F
:101110006F937F938F939F93AF93BF93EF93FF93BF
:10112000E0910802F09109021995FF91EF91BF91AA
:10113000AF919F918F917F916F915F914F913F916F
:101140002F910F900BBE0F900FBE0F901F90189510
:101150001F920F920FB60F9211240BB60F922F937E
:101160003F934F935F936F937F938F939F93AF932F
:10117000BF93EF93FF93E0910602F0910702199558
:10118000FF91EF91BF91AF919F918F917F916F915F
:101190005F914F913F912F910F900BBE0F900FBE1B
:1011A0000F901F9018951F920F920FB60F92112457
:1011B0000BB60F922F933F934F935F936F937F9351
:1011C0008F939F93AF93BF93EF93FF93E0910402AC
:1011D000F09105021995FF91EF91BF91AF919F9109
:1011E0008F917F916F915F914F913F912F910F90D0
:1011F0000BBE0F900FBE0F901F9018958EBD000074
:101200000DB407FEFDCF8EB50895EF92FF920F93B8
:101210001F93CF93DF937C01A8ECEA0EF11CD7015A
:10122000ED91FC913A9768F4FC0100E010E0A48194
:10123000B581AB2B49F00F5F1F4F74960A30110533
:10124000B1F78FEF9FEF25C021153105D1F3A4E150
:10125000A09FF001A19FF00D1124EC01CE0FDF1F24
:1012600049875A876B877C873D832C831F821E8228
:1012700018861E861D8681E0898B12DE688379833D
:101280008A839B83F701808191810196918380837A
:10129000C801DF91CF911F910F91FF90EF900895BA
:1012A0004F925F926F927F928F929F92AF92BF9276
:1012B000CF92DF92EF92FF920F931F93CF93DF9322
:1012C0008C01EEDD6B017C01E80108531F4FFE012C
:1012D00021E030E042E050E0138A128A8481958157
:1012E000892BA1F180809180A280B3808185928535
:1012F000A385B48526013701481859086A087B0878
:10130000481659066A067B0608F1880D991DAA1D24
:10131000BB1D80839183A283B38381898823B1F02D
:10132000A585B685109719F4338B228B0FC087855E
:1013300090898A179B0750F4338B228B0196908BF0
:1013400087878A179B0710F0538B428B7496E017A0
:10135000F10711F684E1F82E8A899B89892B39F1EE
:101360008885EC81FD81882321F08E819F811995EC
:1013700001C019958A899B890297C9F4F801808177
:101380009181892BA1F08C819D81892B81F0FE01B7
:101390008F2D11928A95E9F783DD688379838A839B
:1013A0009B83F8018081918101979183808364966A
:1013B000C017D10789F6DF91CF911F910F91FF9050
:1013C000EF90DF90CF90BF90AF909F908F907F90E5
:1013D0006F905F904F9008951F920F920FB60F92EB
:1013E00011240BB60F922F933F934F935F936F93FC
:1013F0007F938F939F93AF93BF93EF93FF93E0E01F
:10140000F0E01995FF91EF91BF91AF919F918F916E
:101410007F916F915F914F913F912F910F900BBEF4
:101420000F900FBE0F901F901895809176038093B8
:1014300056031092760308958091750380935703A5
:101440001092750308957F928F929F92AF92BF92F0
:10145000CF92DF92EF92FF920F931F93CF93DF9380
:101460007090E3028090E4029090E502D091E60251
:10147000C091E702B091E802F091E902E091EA023E
:10148000272D382D492D5D2F6C2F7B2F8F2F9E2FD1
:10149000A0906D03B0906E03C0906F03D090700366
:1014A000E0907103F0907203009173031091740344
:1014B0000E944E1FA2E00E94571FB1F0A8F0709248
:1014C0006D0380926E0390926F03D0937003C0936C
:1014D0007103B0937203F0937303E09374038091EC
:1014E00076038F5F80937603DF91CF911F910F91E9
:1014F000FF90EF90DF90CF90BF90AF909F908F9034
:101500007F9008957F928F929F92AF92BF92CF92D9
:10151000DF92EF92FF920F931F93CF93DF93709020
:10152000E3028090E4029090E502D091E602C0913F
:10153000E702B091E802F091E902E091EA02272D7A
:10154000382D492D5D2F6C2F7B2F8F2F9E2FA09034
:101550006503B0906603C0906703D0906803E09085
:101560006903F0906A0300916B0310916C030E9471
:101570004E1FA2E00E94571FB1F0A8F070926503C1
:101580008092660390926703D0936803C0936903C7
:10159000B0936A03F0936B03E0936C03809175033F
:1015A0008F5F80937503DF91CF911F910F91FF9013
:1015B000EF90DF90CF90BF90AF909F908F907F90F3
:1015C00008952F923F924F925F926F927F928F92E7
:1015D0009F92AF92BF92CF92DF92EF92FF920F93C2
:1015E0001F93CF93DF93CDB7DEB762970FB6F89412
:1015F000DEBF0FBECDBF6091CE027091CF02809151
:10160000D0029091D1020E940B1F2091570330E02D
:101610001B01221A330A3092210420922004609187
:10162000CA027091CB028091CC029091CD020E94AF
:101630000B1F2091560330E0AB01421B530B5A8B1A
:10164000498B5093250440932404B101032C000CD2
:10165000880B990B0E94CE1C2B013C018091220427
:10166000909123049A838983BC01990F880B990B6D
:101670000E94CE1CA30192010E943F1E20E030E098
:1016800040E05FE30E942D1D20E030E046E153E49E
:101690000E942D1D20E030E04AE754E40E94A31E82
:1016A000209128043091290440912A0450912B0460
:1016B0000E943F1E609328047093290480932A049B
:1016C00090932B04A989BA89BD01BB0F880B990B94
:1016D0000E94CE1C6D837E838F83988700912604A1
:1016E00010912704B801012E000C880B990B0E9461
:1016F000CE1C2D813E814F8158850E943F1E20E0E7
:1017000030E040E05FE30E942D1D20E030E046E144
:1017100053E40E942D1D20E030E04AE754E40E948B
:10172000A31E20912C0430912D0440912E04509141
:101730002F040E943F1E60932C0470932D0480930D
:101740002E0490932F04C090D302D090D402E09046
:10175000D502F090D60220E030E0A901C701B60121
:101760000E943C1F18165CF420E030E040E85FE384
:10177000C701B6010E94C81C87FF1BC00AC020E039
:1017800030E040E85FEBC701B6010E943C1F18162D
:1017900084F4109228041092290410922A041092C2
:1017A0002B0410922C0410922D0410922E041092EF
:1017B0002F04C0904404D0904504E0904604F0907B
:1017C0004704A70196016091280470912904809133
:1017D0002A0490912B040E943C1F181644F4C092D6
:1017E0002804D0922904E0922A04F0922B044601A6
:1017F0005701B7FAB094B7F8B094A501940160917D
:1018000028047091290480912A0490912B040E944D
:10181000C81C87FF08C08092280490922904A092D7
:101820002A04B0922B0420912C0430912D04409175
:101830002E0450912F04C701B6010E94C81C87FFD7
:1018400008C0C0922C04D0922D04E0922E04F09295
:101850002F0420912C0430912D0440912E0450919E
:101860002F04C501B4010E943C1F181644F4809255
:101870002C0490922D04A0922E04B0922F04B1015A
:1018800029813A81621B730B072E000C880B990B80
:101890000E94CE1C4B015C016093300470933104B4
:1018A000809332049093330469897A89601B710BA9
:1018B000072E000C880B990B0E94CE1C69837A833B
:1018C0008B839C8360933404709335048093360437
:1018D000909337048091380490913904A0913A0490
:1018E000B0913B0489879A87AB87BC8720913C04E1
:1018F00030913D0440913E0450913F0460E070E01F
:1019000080E89FE30E94A31E6B017C0120914004AC
:101910003091410440914204509143042D873E8709
:101920004F87588B209128043091290440912A0434
:1019300050912B040E942D1DA30192010E943F1E75
:101940002B013C012D853E854F855889C501B40189
:101950000E942D1D20E030E046E153E40E94A31ECA
:101960009B01AC01C301B2010E943F1E29853A854B
:101970004B855C850E942D1D4B015C016093C60266
:101980007093C7028093C8029093C90220912C04DF
:1019900030912D0440912E0450912F04C701B601BF
:1019A0000E942D1D2D813E814F8158850E943F1E32
:1019B0006B017C012D853E854F85588969817A812F
:1019C0008B819C810E942D1D20E030E046E153E494
:1019D0000E94A31E9B01AC01C701B6010E943F1EDD
:1019E00029853A854B855C850E942D1D6B017C0104
:1019F0006093C2027093C3028093C4029093C502A5
:101A000020E030E04FE753E4C501B4010E943C1FE1
:101A1000181664F480E090E0AFE7B3E48093C60268
:101A20009093C702A093C802B093C90220E030E0AF
:101A3000A9016091C6027091C7028091C80290917D
:101A4000C9020E94C81C87FF08C01092C6021092EB
:101A5000C7021092C8021092C90220E030E04FE79E
:101A600053E4C701B6010E943C1F181664F480E0DD
:101A700090E0AFE7B3E48093C2029093C302A093D7
:101A8000C402B093C50220E030E0A9016091C20217
:101A90007091C3028091C4029091C5020E94C81C3B
:101AA00087FF08C01092C2021092C3021092C402B3
:101AB0001092C502309223042092220449895A8947
:101AC000509327044093260462960FB6F894DEBF25
:101AD0000FBECDBFDF91CF911F910F91FF90EF907F
:101AE000DF90CF90BF90AF909F908F907F906F903E
:101AF0005F904F903F902F9008950F931F93CF9337
:101B0000DF930091570310E06091CE027091CF02F5
:101B10008091D0029091D1020E940B1F061B170BDF
:101B20001093210400932004C0915603D0E06091EB
:101B3000CA027091CB028091CC029091CD020E949A
:101B40000B1FC61BD70BD0932504C09324040F3F53
:101B50008FEF18071CF50B3F8FEF18070CF055C0DF
:101B6000033E8FEF180794F40F3C8FEF18070CF02B
:101B700042C009318CEF18070CF46CC00D391F4FAF
:101B80005CF520E030E040EA51E42AC0023F1F4FFC
:101B9000BCF520E030E040E051E422C00E311105F8
:101BA0007CF40F301105DCF5023011050CF452C045
:101BB000063011057CF520E030E040E85FE338C0F6
:101BC000023311058CF1083E13400CF043C020E0B5
:101BD00030E040E751E42CC020E030E040E751E441
:101BE0006091C6027091C7028091C8029091C902AB
:101BF0000E943F1E27C020E030E040E451E4F0CFD7
:101C000020E030E040EA50E4EBCF20E030E040E874
:101C10005FE3E6CF20E030E040EA50E409C020E096
:101C200030E040E051E404C020E030E040E451E422
:101C30006091C6027091C7028091C8029091C9025A
:101C40000E943E1E6093C6027093C7028093C80232
:101C50009093C90220E030E04FE753E46091C60260
:101C60007091C7028091C8029091C9020E943C1FE6
:101C7000181664F480E090E0AFE7B3E48093C60206
:101C80009093C702A093C802B093C90220E030E04D
:101C9000A9016091C6027091C7028091C80290911B
:101CA000C9020E94C81C87FF08C01092C602109289
:101CB000C7021092C8021092C902CF3F8FEFD80717
:101CC0001CF5CB3F8FEFD8070CF054C0C33E8FEF0D
:101CD000D80794F4CF3C8FEFD8070CF041C0C9313E
:101CE0008CEFD8070CF46BC0CD39DF4F54F520E0F2
:101CF00030E040EA51E429C0C23FDF4FB4F520E0B4
:101D000030E040E051E421C0CE31D10574F4CF3051
:101D1000D105D4F5C230D1050CF451C026977CF51D
:101D200020E030E040E85FE338C0C233D1058CF1F9
:101D3000C83ED3400CF043C020E030E048EC51E412
:101D40002CC020E030E040E751E46091C202709185
:101D5000C3028091C4029091C5020E943F1E27C019
:101D600020E030E040E451E4F0CF20E030E040EA11
:101D700050E4EBCF20E030E040E85FE3E6CF20E046
:101D800030E040EA50E409C020E030E040E051E4B7
:101D900004C020E030E040E451E46091C202709160
:101DA000C3028091C4029091C5020E943E1E6093BE
:101DB000C2027093C3028093C4029093C50220E0D4
:101DC00030E04FE753E46091C2027091C30280910A
:101DD000C4029091C5020E943C1F181664F480E072
:101DE00090E0AFE7B3E48093C2029093C302A09364
:101DF000C402B093C50220E030E0A9016091C202A4
:101E00007091C3028091C4029091C5020E94C81CC7
:101E100087FF08C01092C2021092C3021092C4023F
:101E20001092C502DF91CF911F910F9108950F93EA
:101E30001F93CF93DF938091570380937903809111
:101E4000560380937A038091780380937B0380E02C
:101E50004AD380916404909165040E94E8068DE164
:101E6000FDD281FF07C080916404909165040E94B7
:101E7000E806EAD280E0F2D2682F6E7F80E0FDD2E1
:101E800082E0ECD2E8E7F2E0E49161E070E001C0CA
:101E9000660FEA95EAF7682B82E0EFD2C0915B0407
:101EA000DC2FCB3008F0DAE080915C04811102C0B5
:101EB000CD1B01C0C0E0C6D280EAA0D909E713E07B
:101EC000D15028F0F80181918F0198D9F9CFCC2316
:101ED00021F080E093D9C150FACFB2D281E003D390
:101EE000B1D28FEF8BD9C82FABD2C073C9F380E0CA
:101EF000FAD260E787E0C1D284FDA6D213D38091E5
:101F00008203815080938203DF91CF911F910F91C3
:101F100008950F931F93E0917604F09177049081D8
:101F200080917004892B8083E0917204F091730496
:101F30009081809170048095892380838BE090E06C
:101F40000197F1F7E0917204F09173049081809110
:101F50007004892B808383E290E00197F1F7E09190
:101F60007204F091730490818091700480958923AC
:101F70008083E0917604F0917704908180917004E1
:101F8000809589238083E0917404F0917504908199
:101F900080917104892309F07EC00E94F30620918C
:101FA000780430917904890120E030E00855194E19
:101FB0002F4F3F4FDC01CB01800F911FA21FB31F9A
:101FC00080937A0490937B04A0937C04B0937D0467
:101FD000E0917404F09175049081809171048923DB
:101FE00081F40E94F30600917A0410917B04209101
:101FF0007C0430917D04061717072807390740F73E
:102000004AC00E94F3062091780430917904DC01E3
:10201000CB01820F931FA11DB11D80937A04909371
:102020007B04A0937C04B0937D04E0917404F09150
:102030007504908180917104892381F00E94F306D8
:1020400000917A0410917B0420917C0430917D04EE
:10205000061717072807390740F71DC00E94F30627
:1020600020917804309179042550310940917A0407
:1020700050917B04241B350B620F731F80E090E0AE
:1020800029E330E040E050E00E940D1E20937803E9
:102090001F910F91089560E070E0F0CF8091620C85
:1020A0000E94700521E0892B09F420E02093660C42
:1020B0008091630C0E94700521E0892B09F420E0D7
:1020C0002093670C8091640C0E94700521E0892B9D
:1020D00009F420E02093680C8091650C0E94700543
:1020E00021E0892B09F420E02093690C0895CF9317
:1020F00080915404909155042091560430915704D6
:102100008217930719F061E00E94C605809156047A
:1021100090915704209154043091550428173907A1
:1021200019F061E00E94C605CFB7F894809177035B
:10213000811127C0E1E0F3E08491E7E4F3E09491BA
:10214000E82FF0E0EE0FFF1FE258FD4FA591B4918C
:10215000EC91E92321F461E085E30E94980561E0B8
:1021600085E30E94C6058CB580618CBD8CB580640A
:102170008CBD61E084E30E94C60561E083E30E94B8
:10218000C605809177038F5F80937703CFBF80E090
:10219000AAD181E03BD165E070E080E090E00E9450
:1021A00018076CE080E069D16FE584E066D182E0D9
:1021B00090E066D2882319F081E080935A0486E08B
:1021C0004DD180E090E05CD23DD180E517D883E727
:1021D00015D836D160E08DE150D160E08CE14DD171
:1021E00010925C0460E787E048D16CE485E045D15B
:1021F00029D182EE03D824D127D185D180E02ED1F8
:10220000682F6E7F80E039D180E090E039D260E0C5
:1022100085E033D14091620450E06CE172E08DE5DD
:1022200094E00E946821E2E7F2E084914091620428
:102230006CE172E035D1ECE6F2E0849160915B04F0
:102240001CD182E00BD1E8E7F2E0E49161E070E0BC
:1022500001C0660FEA95EAF7682B82E00ED1409143
:10226000620466E172E08AE01BD14091620466E19B
:1022700072E080E115D160915B0481E1FED0CF91E5
:1022800051C1CF93DF93EC0160E088810E949805F3
:1022900060E08A810E94980560E070E08C81DF91A7
:1022A000CF910C9402060F931F93CF93DF93EC0111
:1022B0008B0161E088810E94980560E08A810E941C
:1022C0009805B8018C81DF91CF911F910F910C94EB
:1022D00002060F931F93CF93DF93EC018B0160E015
:1022E00088810E94980561E08A810E949805B80162
:1022F0008C81DF91CF911F910F910C940206CF92A8
:10230000DF92EF92FF920F931F93CF93DF936C01B5
:102310007A018B01C0E0D0E0CE15DF0581F0D80155
:102320006D918D01D601ED91FC910190F081E02D30
:10233000C6011995892B11F02196EECF7E01C701B8
:10234000DF91CF911F910F91FF90EF90DF90CF9091
:10235000089542E050E06FEB72E083E893E0CFCF66
:102360000E9464210F931F93CF93DF93EC01888128
:102370009981009729F02A813B812617370788F435
:102380008B016F5F7F4F0E948420009761F09983DB
:1023900088831B830A832C813D81232B11F4FC014C
:1023A000108281E001C080E0DF91CF911F910F91F9
:1023B0000895EF92FF920F931F93CF93DF936115D0
:1023C000710511F480E01BC041155105B9F07B0186
:1023D000EC018C819D818A01080F191FB801CE0183
:1023E000C1DF882379F3288139818C819D81B701F0
:1023F000820F931F0E9471211D830C8381E0DF9166
:10240000CF911F910F91FF90EF900895CF93DF939D
:102410009CB59F7D9CBD9CB5937F9CBD9CB59C7FCE
:102420009CBD9DB591609DBDC4E5D4E0682F8A81B7
:102430000E9498058C899D89DF91CF910C94E806C4
:1024400081E0E4CF80E0E2CFCF93FCDF81EE0E9419
:10245000FE08C82FF5DF8C2FCF910895CF93C82F9A
:10246000F1DF8C2F8F710E94FE088FEF0E94FE0813
:10247000C82FE6DF8C2FCF910895CF93DF93C82F1D
:10248000D62FE0DF8C2F8F7180620E94FE08C82F4C
:102490008D2F0E94FE08D4DF8C2FDF91CF910895FD
:1024A000EF92FF920F931F93CF93DF93182F7B012F
:1024B000C42FC8DF812F8F7180620E94FE08D82F41
:1024C0008701CC2339F0F80181918F010E94FE0829
:1024D000C150F7CFB5DF8D2FDF91CF911F910F91B5
:1024E000FF90EF900895209154043091550440914D
:1024F0005604509157042417350721F0682F822F76
:102500000C949805089580E0A9DF81FD0AC0682F2A
:10251000626080E0B2DF65E070E080E090E00C9403
:1025200018070895F0DF80E099DF682F616080E090
:10253000A4DF60E787E0A1DF81E0D5DF80915D0463
:10254000882339F0409162046DE574E08AE0A8DFE9
:1025500010C082E083DFE8E7F2E0E49121E030E0C0
:1025600001C0220FEA95EAF72095622F682382E0E6
:1025700084DF8DE173DF81FD67CF0895CF93DF9313
:10258000FC01448155816081718183E893E0B7DE6D
:10259000EC01DFDE8C0F9D1FDF91CF910895CF936B
:1025A000DF931F921F92CDB7DEB720E229831A82F4
:1025B00041E050E0BE016F5F7F4FFBDE0F900F9058
:1025C000DF91CF910895EF92FF920F931F93CF93D6
:1025D000DF93CDB7DEB728970FB6F894DEBF0FBEF6
:1025E000CDBF7C01CB014AE08E010F5F1F4FB801C8
:1025F0004ED7F80101900020E9F73197AF01401B59
:10260000510BB801C701D5DE28960FB6F894DEBF8E
:102610000FBECDBFDF91CF911F910F91FF90EF9033
:102620000895EF92FF920F931F93CF93DF93CDB74F
:10263000DEB764970FB6F894DEBF0FBECDBF7C0146
:10264000CB01BA018E010F5F1F4F22E044E000D79B
:10265000FC0101900020E9F73197AF01481B590BAD
:10266000BC01C701A6DE64960FB6F894DEBF0FBEAC
:10267000CDBFDF91CF911F910F91FF90EF90089503
:102680000F931F93CF938C0186E0E8DEC82FC77DA0
:102690000230110531F4C0628BE990E0A0E0B0E0B7
:1026A0000DC00130110529F085E590E0A0E0B0E013
:1026B00005C0C86081E490E0A0E0B0E080936404CD
:1026C00090936504A0936604B09367046C2F86E032
:1026D000D4DE86E0C3DE91E0C81390E0892FCF916D
:1026E0001F910F910895CF93DF93009771F0FC0134
:1026F00001900020E9F73197AF01481B590BBC014D
:1027000083E893E0FCDDEC0102C0C0E0D0E021DE14
:102710008C0F9D1FDF91CF91089583E09FDE9FEF87
:10272000980F81E0933008F080E00895EF92FF92D7
:102730000F931F93CF93DF9300D01F92CDB7DEB7D7
:102740007C01862F4AE08E010F5F1F4FB80190E099
:102750009ED6F80101900020E9F73197AF01401BA8
:10276000510BB801C70125DE0F900F900F900F900D
:10277000DF91CF911F910F91FF90EF900895611518
:10278000710549F0FB0101900020E9F73197AF0195
:10279000461B570B0ECE80E00895EF92FF920F93E9
:1027A0001F93CF93DF93EC017B018A01BA01DADD3D
:1027B0002881398181110DC02115310519F0C90118
:1027C0000E94FB1F198218821D821C821B821A82A2
:1027D00006C01D830C83B701C9010E947121CE017F
:1027E000DF91CF911F910F91FF90EF900895FC0121
:1027F00011821082138212821582148240E050E00E
:1028000061EC72E0CACF789484B5826084BD84B5EF
:10281000816084BD85B5826085BD85B5816085BDDB
:1028200080916E00816080936E0010928100809193
:10283000810082608093810080918100816080931B
:102840008100809180008160809380008091B10040
:1028500084608093B1008091B00081608093B0006B
:1028600080919100826080939100809191008160BD
:10287000809391008091900081608093900080917E
:10288000A10082608093A1008091A100816080936B
:10289000A1008091A00081608093A000809121011F
:1028A00082608093210180912101816080932101C8
:1028B0008091200181608093200180917A00846062
:1028C00080937A0080917A00826080937A00809170
:1028D0007A00816080937A0080917A00806880938A
:1028E0007A001092C10061E082E20E94C60561E0B8
:1028F00081E20E94C60561E080E20E94C60561E0B7
:1029000080E30E94C60561E081E30E94C60562E0A3
:1029100083E00E94C60562E082E00E94C60562E094
:102920008091620C0E94C60562E08091630C0E9457
:10293000C60562E08091640C0E94C60562E0809149
:10294000650C0E94C605E0919303F091940382E028
:102950008083E0918F03F09190031082E0919103C6
:10296000F09192038FEC808310929B03E091970388
:10297000F091980386E08083E0919503F0919603AF
:10298000808180618083E0919503F091960380813E
:1029900088608083E0919503F09196038081806840
:1029A0008083E0919503F091960380818F7D8083F1
:1029B00084E392E098DE9BDB80E492E094DE64E6C0
:1029C00070E080E090E00E94180782E89AE090931F
:1029D00003028093020280916A008C6080936A00F7
:1029E000ED9A83E29AE09093010280930002809135
:1029F0006A00836080936A00EC9A20E234E044EF3E
:102A000051E060E070E088E99BE00E94050928EB56
:102A100034E044EF51E060E070E08EEC9AE00E9418
:102A2000050927E433E044EF51E060E070E084E022
:102A30009AE00E9405092CE13AE044EF51E060E0A1
:102A400070E08AE399E00E94050925E13AE044EF4D
:102A500051E060E070E080E798E00E9405092EE414
:102A600030E148EE53E060E070E086EA97E00E94D3
:102A700005092DE73DE046E950E060E070E08CEDAF
:102A800096E00E94050921EE3AE046E950E060E058
:102A900070E082E196E00E94050927E13FE048EE00
:102AA00053E060E070E088E495E00E94050929E8C1
:102AB0003FE04AEF50E060E070E08EE794E00E9473
:102AC0000509C1E09EE6492E512C612C712C0E9413
:102AD00050078B019C016093E3021093E402209362
:102AE000E5023093E6021092E7021092E80210929B
:102AF000E9021092EA0286EA97E00E9450098AE30E
:102B000099E00E94500980E798E00E94500988E40B
:102B100095E00E9450098EE794E00E945009FDDD87
:102B2000882329F080915503882309F438C3F5DD03
:102B3000682F6C2782E20E9498056091540380E31D
:102B40000E9498056091530381E30E94980580914B
:102B50005203882311F061E001C060E082E20E942C
:102B6000980587E17BDC80FF1DC322C069DC60E73C
:102B700087E083DC8091E20290E09093EE02809304
:102B8000ED028E199F0901979093500380934F0394
:102B90008091E102982F91709093510381FB9927C6
:102BA00090F99093540382FB882780F98093530314
:102BB0008091D80281110FC08091D702882359F0EB
:102BC0008091D902811107C08091DA02811103C07E
:102BD000C093520302C0109252032090E30230903F
:102BE000E402D091E5028090E6029090E702B09175
:102BF000E802F091E902E091EA0291014D2F582D8F
:102C0000692D7B2F8F2F9E2FA0903F03B090400304
:102C1000C0904103D0904203E0904303F0904403FE
:102C200000914503109146030E944E1FAAE00E94A6
:102C3000571F09F030F480915103882309F459C1DA
:102C40003FC020923F0330924003D09341038092D3
:102C5000420390924303B0934403F0934503E093FF
:102C6000460387E30E94C9068C0188E30E94C906D7
:102C7000D801A81BB90B20E533EC0E94481F2FEFA9
:102C800033E040E050E09DD7CA01B90187D6EFE3B9
:102C9000F3E0DF0118970D911D912D913C91329336
:102CA00022931293029322E0EF3EF20791F7609392
:102CB000EF027093F0028093F1029093F202BBCF87
:102CC00060E081E30E9498058091E202882309F484
:102CD0000DC180915203811109C1D091D802DF3614
:102CE00018F58D2F90E0A0E0B0E09C01AD012150DF
:102CF000310941095109A1EBBFEF8BD724E530E041
:102D000040E050E05ED7CA01B901605B7F4F8F4F52
:102D10009F4F44D66093D3027093D4028093D50220
:102D20009093D602C093D20281E98D0F823248F48B
:102D30001092D3021092D4021092D5021092D602B1
:102D400029C0D13938F12D2F30E02B5A3109C90172
:102D5000330FAA0BBB0B9C01AD0121503109410976
:102D60005109AFE4B0E049D724E530E040E050E05D
:102D700028D7CA01B9016F5F7F4F8F4F9F4F0ED683
:102D80006093D3027093D4028093D5029093D602BD
:102D90001092D202D091DE02DF36A8F42D2F30E05F
:102DA000A4E6B0E05CD72FE630E040E050E009D781
:102DB000CA01B901F3D560934B0370934C03809320
:102DC0004D0390934E0381E98D0F8232A8F480E089
:102DD00090E0A8ECB2E480934B0390934C03A09353
:102DE0004D03B0934E038093470390934803A09301
:102DF0004903B0934A0321C0D139F8F08D2F90E0F8
:102E0000A0E0B0E09C01AD0121593109410951090F
:102E1000ACE9BFEFFED6A3019201D3D6CA01B90136
:102E20006C597F4F8F4F9F4FB9D560934703709375
:102E300048038093490390934A03C090D302D090F3
:102E4000D402E090D502F090D60220914B0330914D
:102E50004C0340914D0350914E03C701B601FDD57F
:102E600020E030E048EC52E46ED74B015C01609307
:102E7000CE027093CF028093D0029093D102209122
:102E80004703309148034091490350914A03C701D9
:102E9000B601E3D520E030E048EC52E454D76B01B2
:102EA0007C016093CA027093CB028093CC02909312
:102EB000CD028091D20281110DC0C501B401ABD702
:102EC00088E494E006DAC701B601A5D78EE494E061
:102ED00000DA0CC0C501B4019ED788E494E0E3D9C0
:102EE000C701B60198D78EE494E0DDD98EEC9AE064
:102EF0003EC161E081E30E9498058091E20288234F
:102F000009F42FC18091520381112BC1D091D802B5
:102F1000DF3608F58D2F90E0A0E0B0E09C01AD0118
:102F20002150310941095109A1EBBFEF72D6A3012C
:102F3000920147D6CA01B901605B7F4F8F4F9F4F07
:102F40002DD56093D3027093D4028093D5029093D1
:102F5000D602C093D20281E98D0F823248F41092DA
:102F6000D3021092D4021092D5021092D60227C03A
:102F7000D13928F12D2F30E021593109C901330F02
:102F8000AA0BBB0B9C01AD0121503109410951092C
:102F9000AFE4B0E032D6A301920113D6CA01B90161
:102FA0006F5F7F4F8F4F9F4FF9D46093D302709321
:102FB000D4028093D5029093D6021092D202D0917F
:102FC000D902DF3608F52D2F30E0A4E6B0E047D671
:102FD0002FE630E040E050E0F4D5CA01B901DED47C
:102FE00060934B0370934C0380934D0390934E0377
:102FF00080E090E0A8ECB2E480934703909348030C
:10300000A0934903B0934A0381E98D0F8232A8F45B
:1030100080E090E0A8ECB2E480934B0390934C03E3
:10302000A0934D03B0934E038093470390934803BE
:10303000A0934903B0934A0327C0D13928F12D2F1B
:1030400030E02159310946EF4203B001439F700D32
:1030500011246C597F4F072E000C880B990B9ED4BE
:1030600060934703709348038093490390934A0306
:1030700080E090E0A8ECB2E480934B0390934C0383
:10308000A0934D03B0934E03C090D302D090D402CE
:10309000E090D502F090D60220914B0330914C0382
:1030A00040914D0350914E03C701B601D6D420E0A4
:1030B00030E048EC52E447D66093CE027093CF02E2
:1030C0008093D0029093D10220914703309148031E
:1030D0004091490350914A03C701B601BED420E094
:1030E00030E048EC52E42FD66093CA027093CB02D2
:1030F0008093CC029093CD028091D202811119C0AD
:103100006091C6027091C7028091C8029091C90275
:1031100082D688E494E0DDD86091C2027091C30247
:103120008091C4029091C50276D68EE494E0D1D805
:1031300018C06091C6027091C7028091C802909138
:10314000C90269D688E494E0AED86091C202709159
:10315000C3028091C4029091C5025DD68EE494E0D2
:10316000A2D884E09AE00E94500982E196E00E9491
:10317000500980914F0390915003039724F480915C
:103180005203882331F088E494E07BD88EE494E005
:1031900078D8C3DA809355030E94B80298CC0E9475
:1031A0007710C5CCE090ED02F090EE02F092EC02C8
:1031B000E092EB02D0915B04DC3010F18CE0D82E71
:1031C00080915C04811102C0DD1901C0D0E03AD9C0
:1031D00081E60E94FE0807ED12E0DA942FEFD21686
:1031E00039F08FEF0E94FE08F80181938F01F5CF2F
:1031F000DD2309F4BBCC8FEF0E94FE08D150F8CF3D
:10320000DD2EDECFCF93DF93D82FC92F0E9450073A
:10321000ED2FFC2FAF0148535F4F24E1DF01322F28
:103220001D923A95E9F76083718382839383749644
:10323000E417F50799F711821082DF91CF91089575
:10324000CF93DF93E3E8F3E01382128288EE93E0FA
:10325000A0E0B0E084839583A683B78386E292E002
:103260009183808385EC90E09587848784EC90E05F
:103270009787868780EC90E0918B808B81EC90E043
:10328000938B828B82EC90E0958B848B86EC90E024
:10329000978B868B118E128E138E148EE2E6FCE0D5
:1032A0008CE180838DE181838EE182838FE1838352
:1032B00088E99BE0A7DF8EEC9AE0A4DF84E09AE047
:1032C000A1DF8AE399E09EDF80E798E09BDF86EA52
:1032D00097E098DF8CED96E095DF82E196E092DF53
:1032E00088E495E08FDF8EE794E08CDFE0E2F3E0A6
:1032F000E491ACE6B4E01496EC931497E1E2F3E0C9
:10330000E4911596EC9315978AED92E0FC012491D7
:10331000E22FF0E0EE0FFF1FEE54FD4F25913491A8
:1033200017963C932E931697EBEDF2E0E491F0E0C4
:10333000EE0FFF1FE856FD4F2591349119963C93EF
:103340002E931897FC018491E82FF0E0EE0FFF1FF9
:10335000E258FD4F859194911B969C938E931A97FA
:1033600081EC9CE21D969C938E931C97E4E5F4E01F
:1033700087E090E09183808388E090E0938382836C
:10338000168280E28783108685E0868785E090E05C
:10339000A0E0B0E0848B958BA68BB78B1186CEE432
:1033A000D4E089E290E09983888388E290E09B836F
:1033B0008A838DE290E09D838C8361E089E20E94A4
:1033C000C60561E08A810E94C60561E08C810E9489
:1033D000C605C8E4D4E08BE290E0998388838AE252
:1033E00090E09B838A838CE290E09D838C8361E0F4
:1033F0008BE20E94C60561E08A810E94C60561E0F9
:103400008C810E94C605E0E2F4E08AE999E9A9E925
:10341000BFE3808F918FA28FB38F8AE999E9A9E9E1
:10342000BEE3848F958FA68FB78F80E090E0A8ECE5
:10343000B2E480A391A3A2A3B3A380E090E0AFE2A3
:10344000B3E484A395A3A6A3B7A3DF91CF91089576
:10345000EF920F931F93CF93DF93E80147FD02C0D4
:1034600034E001C034E1042E000C550B57FF03C0BB
:10347000519541955109E32E022F242FAE012AD0F8
:10348000CE01DF91CF911F910F91EF900895BB274F
:103490004A3031F4992322F4BDE2909581959F4FF3
:1034A00001C0BB27FB015527AA27880F991FAA1F18
:1034B000A41710F0A41B83955051B9F7A05DAA334F
:1034C00008F0A95DA193009779F7B111B19311921A
:1034D000CB014EC28F929F92AF92BF92CF92DF925A
:1034E000EF92FF920F931F93CF93DF93CDB7DEB789
:1034F00029970FB6F894DEBF0FBECDBF6A01122F19
:10350000B02E2BE3201720F0FF24F394F00E02C01E
:103510002CE3F22E0F2D27E0AE014F5F5F4F50D10D
:10352000BC014981842F8970813031F0E1FC06C0F3
:10353000E0FE06C090E205C09DE203C09BE201C030
:1035400090E05E2D507143FF3CC0911102C083E0BA
:1035500001C084E0811718F4212F281B01C020E04E
:1035600051110BC0F601822F30E2882319F03193FC
:103570008150FBCFC20ED11C20E0992329F0D60147
:103580009C93F60131966F01C6010396E2FE0AC0D4
:103590003EE4D6013C9341E411964C931197129668
:1035A0003C9306C03EE6F601308341E64183328318
:1035B000FC01322F40E2332309F442C041933150E1
:1035C000FACF42FF44C0911102C083E001C084E001
:1035D000811718F4212F281B01C020E051110BC0C6
:1035E000F601822F30E2882319F031938150FBCF0E
:1035F000C20ED11C20E0992329F0D6019C93F6013C
:1036000031966F01C6010396E2FE0BC039E4D60184
:103610003C933EE411963C93119736E412963C930A
:1036200007C039E6F60130833EE6318336E6328361
:10363000FC01322F40E2332319F041933150FBCF8C
:10364000FC01E20FF11D10828EEF9FEFA6C021E07A
:1036500030E0911102C020E030E0161617061CF48D
:10366000FB01319602C0E1E0F0E02E0F3F1FBB20CE
:1036700021F0EB2DF0E0319602C0E0E0F0E02E0FFB
:103680003F1FE12FF0E02E173F071CF4121B212FE4
:1036900001C020E08E2D887159F4F601822F30E2AE
:1036A000882319F031938150FBCFC20ED11C20E04A
:1036B000992329F0D6019C93F60131966F0151119F
:1036C0000BC0F601822F90E3882319F0919381506B
:1036D000FBCFC20ED11C20E00F2D060F9A81342F94
:1036E000307144FF03C0913309F40150101624F4E3
:1036F000093018F008E001C001E0AB0177FF02C01B
:1037000040E050E0FB01E41BF50BA1E0B0E0AC0FA2
:10371000BD1FEA0FFB1F8EE2A82E4B01801A9108F5
:103720000B2D10E01195019511094F3FBFEF5B077D
:1037300021F4D601AC9211966D01641775072CF037
:103740008416950614F4818101C080E3415051092B
:103750003196D60111967D014017510724F0D6010C
:103760008C936701E2CF6417750739F4963320F420
:10377000953319F4311101C081E3F6018083F7011B
:10378000822F90E2882319F091938150FBCFF701AB
:10379000E20FF11D108280E090E029960FB6F894B8
:1037A000DEBF0FBECDBFDF91CF911F910F91FF9074
:1037B000EF90DF90CF90BF90AF909F908F90089543
:1037C000283008F027E03327DA01990F311D87FDF3
:1037D000916000966105710539F432602E5F3D936A
:1037E00030E32A95E1F708959F3F30F08038710566
:1037F000610509F03C5F3C5F3D93913008F08068C3
:10380000911DDF93CF931F930F93FF92EF92192F88
:10381000987F9695E92F96959695E90FFF27EA5799
:10382000FE4F99273327EE24FF24A701E7010590D7
:103830000894079428F4360FE71EF81E491F511DFF
:10384000660F771F881F991F0694A1F705900794AC
:1038500028F4E70EF81E491F561FC11D770F881F59
:10386000991F661F0694A1F70590079428F4F80E97
:10387000491F561FC71FD11D880F991F661F771F2D
:103880000694A1F70590079420F4490F561FC71F0F
:10389000D81F990F661F771F881F0694A9F7849178
:1038A0001095177041F0D695C79557954795F794A1
:1038B000E7941A95C1F7ECE2F1E068941590159140
:1038C00035916591959105907FE27395E118F10A24
:1038D000430B560BC90BD009C0F7E10CF11E431F77
:1038E000561FC91FD01D7EF4703311F48A95E6CFA0
:1038F000E894015030F0080F0AF40027021708F48A
:10390000202F2395022F7A3328F079E37D932A958F
:10391000E9F710C07D932A9589F6069497956795E7
:10392000379517951794E118F10A430B560BC90BFD
:10393000D00998F023957E9173957A3308F070E35F
:103940007C932013B8F77E9170617D9330F083955E
:1039500071E37D9370E32A95E1F71124EF90FF90D6
:103960000F911F91CF91DF91992787FD9095089531
:10397000DC01FC01672F71917723E1F7329704C0D6
:103980007C916D9370836291AE17BF07C8F3089561
:1039900040D008F481E00895E89409C097FB3EF414
:1039A00090958095709561957F4F8F4F9F4F99238C
:1039B000A9F0F92F96E9BB279395F695879577950A
:1039C0006795B795F111F8CFFAF4BB0F11F460FFCA
:1039D0001BC06F5F7F4F8F4F9F4F16C0882311F022
:1039E00096E911C0772321F09EE8872F762F05C036
:1039F000662371F096E8862F70E060E02AF09A95D1
:103A0000660F771F881FDAF7880F9695879597F9C5
:103A10000895990F0008550FAA0BE0E8FEEF16165F
:103A20001706E807F907C0F012161306E407F507B2
:103A300098F0621B730B840B950B39F40A2661F026
:103A4000232B242B252B21F408950A2609F4A140C9
:103A5000A6958FEF811D811D08950BD078C069D088
:103A600028F06ED018F0952309F05AC05FC01124D9
:103A7000A2C07ED0A0F3959FD1F3950F50E0551FC3
:103A8000629FF001729FBB27F00DB11D639FAA27B3
:103A9000F00DB11DAA1F649F6627B00DA11D661F02
:103AA000829F2227B00DA11D621F739FB00DA11D23
:103AB000621F839FA00D611D221F749F3327A00DDD
:103AC000611D231F849F600D211D822F762F6A2F79
:103AD00011249F5750408AF0E1F088234AF0EE0FFE
:103AE000FF1FBB1F661F771F881F91505040A9F70B
:103AF0009E3F510570F014C05EC05F3FECF3983EEE
:103B0000DCF3869577956795B795F795E7959F5F71
:103B1000C1F7FE2B880F911D9695879597F908950B
:103B200097F99F6780E870E060E008959FEF80EC70
:103B3000089500240A941616170618060906089513
:103B400000240A9412161306140605060895092E79
:103B50000394000C11F4882352F0BB0F40F4BF2BE8
:103B600011F460FF04C06F5F7F4F8F4F9F4F089528
:103B700057FD9058440F551F59F05F3F71F047951E
:103B8000880F97FB991F61F09F3F79F08795089503
:103B9000121613061406551FF2CF4695F1DF08C022
:103BA000161617061806991FF1CF8695710561053F
:103BB00008940895E894BB2766277727CB0197F9E7
:103BC0000895052E97FB16F400940FD057FD05D0ED
:103BD00024D007FC02D046F408C05095409530959B
:103BE00021953F4F4F4F5F4F089590958095709569
:103BF00061957F4F8F4F9F4F089531D0A59F900DB6
:103C0000B49F900DA49F800D911D11240895B7FFBE
:103C1000F4CFF3DF821B930B0895A1E21A2EAA1BA7
:103C2000BB1BFD010DC0AA1FBB1FEE1FFF1FA2176C
:103C3000B307E407F50720F0A21BB30BE40BF50B69
:103C4000661F771F881F991F1A9469F760957095F2
:103C5000809590959B01AC01BD01CF010895A29F75
:103C6000B001B39FC001A39F700D811D1124911D50
:103C7000B29F700D811D1124911D08955058BB27CE
:103C8000AA270ED064CF55DF30F05ADF20F031F490
:103C90009F3F11F41EF44ACF0EF4E095E7FB40CFAE
:103CA000E92F66DF80F3BA17620773078407950769
:103CB00018F071F49EF57ECF0EF4E0950B2EBA2F1E
:103CC000A02D0B01B90190010C01CA01A001112422
:103CD000FF27591B99F0593F50F4503E68F11A16CE
:103CE000F040A22F232F342F4427585FF3CF46955F
:103CF00037952795A795F0405395C9F77EF41F1681
:103D0000BA0B620B730B840BBAF09150A1F0FF0F4A
:103D1000BB1F661F771F881FC2F70EC0BA0F621F36
:103D2000731F841F48F4879577956795B795F79526
:103D30009E3F08F0B3CF9395880F08F09927EE0FB8
:103D40009795879508950CD002CFFADE40F0F1DE0A
:103D500030F021F45F3F19F0E3CE51112CCFE6CEC5
:103D600007DF98F39923C9F35523B1F3951B550B3E
:103D7000BB27AA2762177307840738F09F5F5F4F3E
:103D8000220F331F441FAA1FA9F333D00E2E3AF07F
:103D9000E0E830D091505040E695001CCAF729D099
:103DA000FE2F27D0660F771F881FBB1F26173707E8
:103DB0004807AB07B0E809F0BB0B802DBF01FF2718
:103DC00093585F4F2AF09E3F510568F0A9CEF3CE7D
:103DD0005F3FECF3983EDCF3869577956795B79552
:103DE000F7959F5FC9F7880F911D9695879597F96D
:103DF0000895E1E0660F771F881FBB1F62177307E6
:103E00008407BA0720F0621B730B840BBA0BEE1FFA
:103E100088F7E095089504D06894B111CCCE089548
:103E2000AFDE88F09F5790F0B92F9927B751A0F0D7
:103E3000D1F0660F771F881F991F1AF0BA95C9F73E
:103E400012C0B13081F0B6DEB1E00895B3CE672F75
:103E5000782F8827B85F39F0B93FCCF386957795EE
:103E60006795B395D9F73EF49095809570956195D7
:103E70007F4F8F4F9F4F0895CCDD08F48FEF08954B
:103E8000EE0FFF1F881F8BBF0790F691E02D19944E
:103E9000E6DEB7FF0895821B930B08952A193B09AC
:103EA0004C095D096E097F09800B910B0895002470
:103EB000A7FD00942A1730054005500560057005E0
:103EC0008005900508950F931F93CF93DF93823061
:103ED000910510F482E090E0E0916C0CF0916D0C93
:103EE00020E030E0A0E0B0E0309719F1408151814E
:103EF0000281138148175907C8F08417950769F4A0
:103F0000109731F012960C93129713961C9327C0BA
:103F100000936C0C10936D0C22C02115310519F023
:103F20004217530718F49A01BD01EF01DF01F801B0
:103F3000DBCF21153105F9F0281B390B2430310571
:103F400080F48A819B816115710521F0FB019383C7
:103F5000828304C090936D0C80936C0CFE013296AA
:103F600044C0FE01E20FF31F819391932250310967
:103F7000398328833AC020916A0C30916B0C232B33
:103F800041F4209112023091130230936B0C209374
:103F90006A0C20911002309111022115310541F473
:103FA0002DB73EB74091140250911502241B350BDA
:103FB000E0916A0CF0916B0CE217F307A0F42E1B52
:103FC0003F0B2817390778F0AC014E5F5F4F24177D
:103FD000350748F04E0F5F1F50936B0C40936A0CEF
:103FE0008193919302C0E0E0F0E0CF01DF91CF91A7
:103FF0001F910F910895CF93DF93009709F481C02B
:10400000FC01329713821282A0916C0CB0916D0C5E
:10401000109781F420813181820F931F20916A0CC7
:1040200030916B0C2817390751F5F0936B0CE09326
:104030006A0C67C0ED0120E030E0CE17DF0740F4E6
:104040004A815B819E0141155105F1F0EA01F5CFEE
:10405000D383C28340815181840F951FC817D9072C
:1040600059F488819981840F951F029691838083EA
:104070008A819B81938382832115310529F4F093F2
:104080006D0CE0936C0C3DC0E901FB83EA83499120
:104090005991C40FD51FEC17FD0761F48081918100
:1040A000840F951F0296E901998388838281938109
:1040B0009B838A83E0E0F0E012968D919C911397A8
:1040C000009719F0FD01DC01F7CF8D919C911197BC
:1040D0009D012E5F3F4F820F931F20916A0C3091FC
:1040E0006B0C2817390769F4309729F410926D0C7E
:1040F00010926C0C02C013821282B0936B0CA093CE
:104100006A0CDF91CF9108956F927F928F929F9268
:10411000AF92BF92CF92DF92EF92FF920F931F93D5
:10412000CF93DF93009781F4CB01DF91CF911F9163
:104130000F91FF90EF90DF90CF90BF90AF909F9046
:104140008F907F906F90BFCEFC01E60FF71F9C0110
:1041500022503109E217F30708F4A5C0EC01D90198
:104160000D911C91119706171707A8F0053011053E
:1041700008F497C0C80104978617970708F491C000
:1041800002501109061B170B019311936D937C9339
:10419000CF0131DF86C05B01A01AB10A4C01800E4D
:1041A000911EA0916C0CB0916D0C612C712CE12CC6
:1041B000F12C109709F446C08D919C911197A81588
:1041C000B905B1F56C0142E0C40ED11CCA14DB0480
:1041D00078F14C018A189B08640142E0C40ED11C9E
:1041E0001296BC9012971396AC91B5E0CB16D10401
:1041F00040F0B282A38391828082D9016D937C9337
:1042000009C00E5F1F4F800F911FF90191838083BA
:10421000EB2DFA2FE114F10431F0D7011396FC9342
:10422000EE9312973EC0F0936D0CE0936C0C39C086
:104230006816790608F43C017D0112960D90BC9138
:10424000A02DB7CF80916A0C90916B0C88169906BF
:10425000E1F466167706C8F480911002909111027D
:10426000009741F48DB79EB740911402509115020A
:10427000841B950BE817F907B0F4F0936B0CE093EF
:104280006A0CF901718360830CC0CB011CDE7C01D8
:10429000009749F0A801BE011BD0CE01ACDEC701DA
:1042A00004C0CE0102C080E090E0DF91CF911F9169
:1042B0000F91FF90EF90DF90CF90BF90AF909F90C5
:1042C0008F907F906F90089581E090E0F89410C0F7
:1042D000FB01DC0102C001900D9241505040D8F723
:1042E0000895FB01DC0101900D920020E1F7089593
:0442F000F894FFCF70
:1042F4004603460346034603460346034603460372
:1043040000006E0C8000314E6F646532314E6F6474
:104314006531000000004B027F11E3019702140293
:10432400F20106025374617274696E672E2E2E00B8
:10433400536574757020636F6D706C65746564008B
:1043440076656C6F203D205B002C20005D09657252
:10435400726F72203D205B005D0949203D5B005D6A
:104364000964203D205B005D0950574D203D205BD2
:10437400005D004C5F593A0020525F583A002046D5
:10438400574400204257440020535F473A002053CB
:104394005F4C3A0020535F523A0020535F4C5F4D0C
:1043A4003A0020455F4C3A002050574D5F4C000DB9
:0243B4000A00FD
:00000001FF
