:100000000BC100000C94840A0C94590A0C942E0A1B
:100010000C94030A0C94D8090C94AD090C94820931
:100020000C9457092AC1000028C1000026C1000015
:1000300024C100000C94AF0A20C100001EC10000C2
:100040001CC100001AC1000018C1000016C1000048
:1000500014C1000012C1000010C100000C940D0971
:100060000CC100000C94D7080C94AE0806C1000027
:1000700004C1000002C1000000C10000FEC0000079
:10008000FCC00000FAC00000F8C00000F6C000008C
:10009000F4C00000F2C00000F0C00000EEC000009C
:1000A000ECC00000EAC00000E8C00000E6C00000AC
:1000B000E4C00000E2C00000E0C00000DEC00000BC
:1000C000DCC00000DAC00000D8C00000D6C00000CC
:1000D000D4C00000D2C00000D0C00000CEC00000DC
:1000E000CCC000001112131415160A0B0C0D0E0FC4
:1000F00000000A0B02090C0D0E08070304010000A2
:1001000000000000000000000000000000000000EF
:1001100000000000000000000000000012111000AC
:1001200000000000000000000000000000000000CF
:10013000000000000000000102030405000021008F
:10014000240027002A002D003000330001010000A8
:10015000040107010A0100002000230026002900F5
:100160002C002F00320000010000030106010901EC
:1001700000002200250028002B002E003100340052
:1001800002010000050108010B0105050505070531
:1001900008080808020202020A0A08080404040403
:1001A000010101010101010103030303030303032F
:1001B000040707070C0C0C0C0C0C0C0C02020202BE
:1001C00006060606060606060B0B0B0B0B0B0B0BA7
:1001D0000102102020080810204010204080020159
:1001E000020108040201010204081020408080403E
:1001F000201008040201800402018040201008043D
:1002000002010804020101020408102040800102DA
:10021000040810204080D80A11241FBECFEFD1E27D
:10022000DEBFCDBF00E00CBF12E0A0E0B2E0E4E42E
:10023000F1E300E00BBF02C007900D92A03AB107B6
:10024000D9F724E0A0EAB2E001C01D92A032B207C3
:10025000E1F711E0CCE0D1E000E006C02197010910
:10026000802FFE010E947216CB30D10780E0080774
:10027000A9F70E94C40B0C94A018C2CEAF92BF92F3
:10028000CF92DF92EF92FF920F931F93CF93DF9362
:100290006C017B018B01040F151FEB015E01AE1891
:1002A000BF08C017D10759F06991D601ED91FC91B3
:1002B0000190F081E02DC6011995892B79F7C501D0
:1002C000DF91CF911F910F91FF90EF90DF90CF9032
:1002D000BF90AF9008958230910538F0880F991F34
:1002E000880F991F05970197F1F708957F928F92D4
:1002F0009F92AF92BF92CF92DF92EF92FF920F93B5
:100300001F93CF93DF937090090380900A0390901E
:100310000B03D0910C03C0910D03B0910E03F0912B
:100320000F03E0911003272D382D492D5D2F6C2FE1
:100330007B2F8F2F9E2FA090A402B090A502C0907B
:10034000A602D090A702E090A802F090A902009126
:10035000AA021091AB020E947A16A2E00E948316B4
:10036000B1F0A8F07092A4028092A5029092A60229
:10037000D093A702C093A802B093A902F093AA0257
:10038000E093AB028091BE028F5F8093BE02DF914B
:10039000CF911F910F91FF90EF90DF90CF90BF9082
:1003A000AF909F908F907F9008957F928F929F92B1
:1003B000AF92BF92CF92DF92EF92FF920F931F9373
:1003C000CF93DF937090090380900A0390900B0302
:1003D000D0910C03C0910D03B0910E03F0910F0367
:1003E000E0911003272D382D492D5D2F6C2F7B2F89
:1003F0008F2F9E2FA090AC02B090AD02C090AE02A5
:10040000D090AF02E090B002F090B1020091B20241
:100410001091B3020E947A16A2E00E948316B1F0F6
:10042000A8F07092AC028092AD029092AE02D0938E
:10043000AF02C093B002B093B102F093B202E09366
:10044000B3028091BF028F5F8093BF02DF91CF9193
:100450001F910F91FF90EF90DF90CF90BF90AF90E2
:100460009F908F907F900895FC01538D448D252F90
:1004700030E0842F90E0821B930B541710F0CF963E
:10048000089501970895FC01918D828D981761F070
:10049000A28DAE0FBF2FB11D5D968C91928D9F5F87
:1004A0009F73928F90E008958FEF9FEF0895FC0166
:1004B000918D828D981731F0828DE80FF11D858D19
:1004C00090E008958FEF9FEF0895FC01918D228DAC
:1004D000892F90E0805C9F4F821B91098F73992731
:1004E000089581E193E0F1DF21E0892B09F420E018
:1004F000822F0895FC01A48DA80FB92FB11DA35A16
:10050000BF4F2C91848D90E001968F739927848F33
:10051000A689B7892C93A089B1898C918370806456
:100520008C93938D848D981306C00288F389E02DF7
:1005300080818F7D80830895EF92FF920F931F93A8
:10054000CF93DF93EC0181E0888F9B8D8C8D981386
:100550001AC0E889F989808185FF15C09FB7F89492
:10056000EE89FF896083E889F989808183708064DE
:1005700080839FBF81E090E0DF91CF911F910F9129
:10058000FF90EF900895F62E0B8D10E00F5F1F4F38
:100590000F731127E02E8C8D8E110BC00FB607FC48
:1005A000FACFE889F989808185FFF5CFCE01A2DFF6
:1005B000F2CFEB8DEC0FFD2FF11DE35AFF4FF082D0
:1005C0009FB7F8940B8FEA89FB8980818062D0CF36
:1005D000CF93DF93EC01888D8823B1F0AA89BB8982
:1005E000E889F9898C9185FD03C0808186FD0CC066
:1005F0000FB607FCF7CF8C9185FFF2CF808185FF86
:10060000EDCFCE0177DFEACFDF91CF91089580E083
:1006100090E0892B21F065DF81110E94000080E0CD
:1006200090E0892B49F080E090E0892B29F00E942E
:10063000000081110E94000080E090E0892B49F0C9
:1006400080E090E0892B29F00E94000081110E9437
:10065000000080E090E0892B49F080E090E0892B59
:1006600029F00E94000081110C940000089581502F
:10067000823108F05AC0E82FF0E08827ED5BFC4F8C
:100680008F4F0C9472166303670355035B035F037C
:1006900095036A03700374037A037E03820388035D
:1006A0008C039503900396039A03809180008F77C3
:1006B000809380000895809180008F7DF9CF809194
:1006C0008000877FF5CF84B58F7784BD089584B58A
:1006D0008F7DFBCF8091B0008F778093B00008951D
:1006E0008091B0008F7DF9CF809190008F778093BB
:1006F00090000895809190008F7DF9CF80919000B7
:10070000877FF5CF8091A0008F778093A000089518
:100710008091A0008F7DF9CF8091A000877FF5CFD9
:10072000809120018F77809320010895809120018E
:100730008F7DF9CF80912001877FF5CFCF93DF9315
:10074000282F30E0F901E051FF4F8491F901E05387
:10075000FE4FD491F901E657FE4FC491CC2399F096
:10076000811185DFEC2FF0E0EE0FFF1FEA5AFE4FFC
:10077000A591B491EC91ED2381E090E009F480E043
:10078000DF91CF91089580E090E0FACF1F93CF934F
:10079000DF93282F30E0F901E051FF4F8491F901F8
:1007A000E053FE4FD491F901E657FE4FC491CC239C
:1007B000A1F0162F81115BDFEC2FF0E0EE0FFF1F91
:1007C000E059FE4FA591B4918FB7F894EC911111B7
:1007D00008C0D095DE23DC938FBFDF91CF911F91AE
:1007E0000895DE2BF8CFCF93DF939CB59F7D9CBD02
:1007F0009CB5937F9CBD9CB59C7F9CBD9DB5916035
:100800009DBDC2EED3E0682F8A81C0DF8C899D89AF
:10081000DF91CF9160CD81E0E6CF80E0E4CF209101
:10082000E2033091E3034091E4035091E503241780
:10083000350719F0682F822FA9CF0895CF93DF9342
:1008400090E0FC01E053FE4F249186579E4FFC013F
:1008500084918823D1F090E0880F991FFC01E45C1B
:10086000FE4FA591B491FC01E059FE4FC591D49182
:10087000623071F49FB7F8943C91822F8095832366
:100880008C93E8812E2B28839FBFDF91CF91089511
:100890008FB7F894EC912E2B2C938FBFF6CF1F932C
:1008A000CF93DF93182FEB0161E0C8DF209731F47D
:1008B00060E0812FDF91CF911F9168CFCF3FD105AD
:1008C00011F461E0F6CFE12FF0E0E051FF4FE49149
:1008D000E150E23108F0B3C0F0E08827ED58FB4F5B
:1008E0008F4F0C94721685048D0492049C04A60408
:1008F0001F05B004B804C004CA04D404DE04ED0427
:10090000F7041F0501050B05150584B5806884BD36
:10091000C7BDDF91CF911F91089584B5806284BDDA
:10092000C8BDF7CF80918000806880938000D0930D
:100930008900C0938800EDCF809180008062809311
:100940008000D0938B00C0938A00E3CF8091800019
:10095000886080938000D0938D00C0938C00D9CFA5
:100960008091B00080688093B000C093B300D1CF75
:100970008091B00080628093B000C093B400C9CF72
:1009800080919000806880939000D0939900C093EC
:100990009800BFCF80919000806280939000D093A8
:1009A0009B00C0939A00B5CF80919000886080939F
:1009B0009000D0939D00C0939C00ABCF8091A0008D
:1009C00080688093A0008091A0008F7B8093A0001E
:1009D000D093A900C093A8009CCF8091A000806212
:1009E0008093A000D093AB00C093AA0092CF8091D7
:1009F000A00088608093A000D093AD00C093AC00AD
:100A000088CF80912001806880932001D0932901B4
:100A1000C09328017ECF80912001806280932001C5
:100A2000D0932B01C0932A0174CF8091200188605C
:100A300080932001D0932D01C0932C016ACFC03840
:100A4000D1050CF03ECF34CF3FB7F8948091B60279
:100A50009091B702A091B802B091B90226B5A89BB7
:100A600005C02F3F19F00196A11DB11D3FBFBA2F40
:100A7000A92F982F8827BC01CD01620F711D811D00
:100A8000911D42E0660F771F881F991F4A95D1F785
:100A900008958F929F92AF92BF92CF92DF92EF9282
:100AA000FF92D2DF4B015C0185E0C82ED12CE12CF6
:100AB000F12CCADF681979098A099B09683E7340DD
:100AC00081059105B0F321E0C21AD108E108F108CF
:100AD00088EE880E83E0981EA11CB11CC114D104BD
:100AE000E104F10431F7FF90EF90DF90CF90BF90D9
:100AF000AF909F908F90089508958EBD00000DB423
:100B000007FEFDCF8EB50895CF9387DE81EEF5DF2A
:100B1000C82F81DE8C2FCF910895CF93C82F7DDE13
:100B20008C2FEBDF8FEFE9DFC82F75DE8C2FCF9195
:100B30000895CF93DF93C82FD62F6FDE8C2F8F7140
:100B40008062DBDFC82F8D2FD8DF65DE8C2FDF9131
:100B5000CF91089580E0E1DF81FD05C0682F6260DC
:100B600080E0E7DF96CF08950F931F93CF938C011A
:100B700086E0D3DFC82FC77D85E590E0A0E0B0E038
:100B80000230110529F4C0628BE990E0A0E0B0E0EA
:100B90008093F2039093F303A093F403B093F503CF
:100BA0006C2F86E0C6DF86E0B8DF91E0C81390E0E6
:100BB000892FCF911F910F910895EF92FF920F937C
:100BC0001F93CF93DF93C82F7B01142F26DE8C2F2A
:100BD0008F71806292DF082FE701115018F0899120
:100BE0008CDFFBCF18DE802FDF91CF911F910F910B
:100BF000FF90EF900895AEDF80E08FDF682F616097
:100C000080E097DF60E787E094DF81E008DE809195
:100C1000EB03882359F04091F0036BEE73E08AE018
:100C2000CCDF8DE17ADF81FF12C06ECF82E075DF0D
:100C3000E6E3F1E0E49121E030E001C0220FEA9523
:100C4000EAF72095622F682382E073DFEACF0895E8
:100C5000CF93DF93EC0160E0888198DD60E08A81CA
:100C600095DD70E060E08C81DF91CF9118CEFF922E
:100C70000F931F93CF93DF93EC018B01F42E60E071
:100C8000888184DD61E08A8181DDB801F11002C0D4
:100C900070E060E08C81DF91CF911F910F91FF9008
:100CA000FECD42E050E064E672E081E193E0E6CA06
:100CB000CF93DF93FC0101900020E9F73197AF015A
:100CC000481B590BBC0181E193E0D8DAEC01E9DF64
:100CD0008C0F9D1FDF91CF9108950F931F93CF939A
:100CE000DF93EC0188819981009759F02A813B813B
:100CF0002617370730F081E0DF91CF911F910F91D8
:100D000008958B016F5F7F4F0E94B417009759F0D1
:100D1000998388831B830A832C813D81232B59F778
:100D2000FC011082E8CF80E0E7CFEF92FF920F93B3
:100D30001F93CF93DF9341155105A9F07B01EC017F
:100D40000C811D81040F151FB801C7DF882361F0D6
:100D5000288139818C819D81B701820F931F0E9468
:100D600099181D830C8381E0DF91CF911F910F9122
:100D7000FF90EF900895CF93DF931F921F92CDB70E
:100D8000DEB720E229831A8241E050E0BE016F5FA6
:100D90007F4FCBDF0F900F90DF91CF910895EF92AF
:100DA000FF920F931F93CF93DF9300D01F92CDB785
:100DB000DEB77C01862F4AE08E010F5F1F4FB8011E
:100DC00090E00E94BE13F80101900020E9F73197EE
:100DD000AF01401B510BB801C701A7DF0F900F9067
:100DE0000F900F90DF91CF911F910F91FF90EF9097
:100DF0000895CF92DF92EF92FF92CF939091ED0200
:100E0000992341F09091DE02911104C0882341F0B2
:100E1000813049F0CF91FF90EF90DF90CF9008950F
:100E20001092E102F7CF8093E102C091E302C43453
:100E300000F1CC3B08F491C06091CB027091CC02E0
:100E40008091CD029091CE02C0911804C11109C0C9
:100E500020911904211106C0C1E02091CA022B3053
:100E600008F4C0E00E942E164C2F86ED93E0FFDEC2
:100E700031C06091CB027091CC028091CD029091F3
:100E8000CE020E942E169B01AC018C2F90E0B0E0A8
:100E9000A0E0BC01CD016A557109810991090E9448
:100EA000631626EA3FEF4FEF5FEF0E940A15CA0173
:100EB000B9010E94F7130E942E166B0161E0809128
:100EC000D60364DC60E08091D80360DCB6018091D9
:100ED000DA03E5DCC091E502C43408F442C0CC3B3F
:100EE00008F475C06091CB027091CC028091CD0264
:100EF0009091CE020E942E169B01AC018C2F90E0A7
:100F0000B0E0A0E0BC01CD01655B710981099109E8
:100F10000E9463162AE430E040E050E00E940A1587
:100F2000CA01B9010E94F713C0911804C11109C088
:100F300020911904211106C0C1E02091CA022B3072
:100F400008F4C0E00E942E164C2F8CED93E0CF9158
:100F5000FF90EF90DF90CF908ACE86ED93E078DE21
:100F6000B9CF6091CB027091CC028091CD0290916B
:100F7000CE020E942E169B01AC018C2F90E0B0E0B7
:100F8000A0E0BC01CD016A557109810991090E9457
:100F9000631626EA3FEF4FEF5FEF0E940A15CA0182
:100FA000B9010E94F7130E942E166B0161E0809137
:100FB000DC03ECDB60E08091DE03E8DBB6018091CE
:100FC000E003CF91FF90EF90DF90CF9068CC8CED55
:100FD00093E0CF91FF90EF90DF90CF9039CECF93F9
:100FE0008091E2039091E3032091E4033091E503C3
:100FF0008217930711F061E021DC8091E403909166
:10100000E5032091E2033091E3032817390711F03B
:1010100061E014DCCFB7F8948091B402811123C051
:10102000EFEBF1E08491E5E0F2E09491E82FF0E05D
:10103000EE0FFF1FE45CFE4FA591B491EC91E92304
:1010400019F461E085E3A2DB61E085E3F7DB8CB5B1
:1010500080618CBD8CB580648CBD61E084E3EEDB87
:1010600061E083E3EBDB8091B4028F5F8093B40295
:10107000CFBF80E0D4DB81E0B6DB0BDD6CE080E04D
:1010800058DD6FE584E055DD82E090E06DDD88237A
:1010900019F081E08093E80386E03FDD90E080E096
:1010A00063DDBBDB80E529DD83E727DDB4DB60E0C2
:1010B0008DE13FDD60E08CE13CDD1092EA0360E70A
:1010C00087E037DD6CE485E034DDA7DB82EE15DDFB
:1010D000A2DB1ADD3FDD80E020DD682F6E7F80E03F
:1010E00028DD90E080E040DD60E085E022DD409199
:1010F000F00350E06CE472E08BEE93E00E949018F5
:10110000EAEEF0E084914091F0036CE472E055DD8A
:10111000E4EEF0E084916091E9030BDD82E0FDDC18
:10112000E6E3F1E0E49161E070E001C0660FEA956A
:10113000EAF7682B82E0FDDC4091F00366E472E0A0
:101140008AE03BDD4091F00366E472E080E135DD4A
:101150006091E90381E1EDDCCF914DCD1F920F92BB
:101160000FB60F9211240BB60F922F933F934F930C
:101170005F936F937F938F939F93AF93BF93EF93FF
:10118000FF9381E193E0B6D9FF91EF91BF91AF91C9
:101190009F918F917F916F915F914F913F912F918F
:1011A0000F900BBE0F900FBE0F901F9018951F92BF
:1011B0000F920FB60F9211240BB60F922F938F93AD
:1011C0009F93EF93FF93E0912103F091220380819D
:1011D000E0912703F091280382FD1DC0908180914A
:1011E0002A038F5F8F7320912B03821741F0E091C8
:1011F0002A03F0E0EF5EFC4F958F80932A03FF9166
:10120000EF919F918F912F910F900BBE0F900FBE7A
:101210000F901F9018958081F2CF1F920F920FB6FA
:101220000F9211242F933F938F939F93AF93BF936C
:101230008091BA029091BB02A091BC02B091BD0214
:101240003091B50223E0230F2D3758F50196A11DEB
:10125000B11D2093B5028093BA029093BB02A09374
:10126000BC02B093BD028091B6029091B702A091EA
:10127000B802B091B9020196A11DB11D8093B602CA
:101280009093B702A093B802B093B902BF91AF9107
:101290009F918F913F912F910F900FBE0F901F90B4
:1012A000189526E8230F0296A11DB11DD2CF1F92DB
:1012B0000F920FB60F9211240BB60F922F933F93FC
:1012C0004F935F936F937F938F939F93AF93BF934E
:1012D000EF93FF93E0910E02F0910F021995FF91A9
:1012E000EF91BF91AF919F918F917F916F915F919E
:1012F0004F913F912F910F900BBE0F900FBE0F900B
:101300001F9018951F920F920FB60F9211240BB6D3
:101310000F922F933F934F935F936F937F938F938E
:101320009F93AF93BF93EF93FF93E0910C02F091E3
:101330000D021995FF91EF91BF91AF919F918F9100
:101340007F916F915F914F913F912F910F900BBEC5
:101350000F900FBE0F901F9018951F920F920FB60F
:101360000F9211240BB60F922F933F934F935F93DD
:101370006F937F938F939F93AF93BF93EF93FF935D
:10138000E0910202F09103021995FF91EF91BF9154
:10139000AF919F918F917F916F915F914F913F910D
:1013A0002F910F900BBE0F900FBE0F901F901895AE
:1013B0001F920F920FB60F9211240BB60F922F931C
:1013C0003F934F935F936F937F938F939F93AF93CD
:1013D000BF93EF93FF93E0910002F0910102199502
:1013E000FF91EF91BF91AF919F918F917F916F91FD
:1013F0005F914F913F912F910F900BBE0F900FBEB9
:101400000F901F9018951F920F920FB60F921124F4
:101410000BB60F922F933F934F935F936F937F93EE
:101420008F939F93AF93BF93EF93FF93E0910A0243
:10143000F0910B021995FF91EF91BF91AF919F91A0
:101440008F917F916F915F914F913F912F910F906D
:101450000BBE0F900FBE0F901F9018951F920F920A
:101460000FB60F9211240BB60F922F933F934F9309
:101470005F936F937F938F939F93AF93BF93EF93FC
:10148000FF93E0910802F09109021995FF91EF9105
:10149000BF91AF919F918F917F916F915F914F918C
:1014A0003F912F910F900BBE0F900FBE0F901F908A
:1014B00018951F920F920FB60F9211240BB60F9230
:1014C0002F933F934F935F936F937F938F939F934C
:1014D000AF93BF93EF93FF93E0910602F091070261
:1014E0001995FF91EF91BF91AF919F918F917F914E
:1014F0006F915F914F913F912F910F900BBE0F9085
:101500000FBE0F901F9018951F920F920FB60F925B
:1015100011240BB60F922F933F934F935F936F93CA
:101520007F938F939F93AF93BF93EF93FF93E0913C
:101530000402F09105021995FF91EF91BF91AF91CF
:101540009F918F917F916F915F914F913F912F91DB
:101550000F900BBE0F900FBE0F901F9018951F920B
:101560000F920FB60F9211240BB60F922F933F9349
:101570004F935F936F937F938F939F93AF93BF939B
:10158000EF93FF93F0E0E0E01995FF91EF91BF91A9
:10159000AF919F918F917F916F915F914F913F910B
:1015A0002F910F900BBE0F900FBE0F901F901895AC
:1015B000CF93DF93E1E1F3E01382128288EE93E0B0
:1015C000A0E0B0E084839583A683B78386E592E0AC
:1015D0009183808385EC90E09587848784EC90E00C
:1015E0009787868780EC90E0918B808B81EC90E0F0
:1015F000938B828B82EC90E0958B848B86EC90E0D1
:10160000978B868B118E128E138E148EE4E1F4E08C
:1016100081E1808380E1818312821382ECE0F4E037
:101620008AE180838BE181838CE182838DE18383F6
:10163000EEEDF1E0E491AAEFB3E01496EC93149789
:10164000EFEDF1E0E4911596EC93159788E991E0C0
:10165000FC012491E22FF0E0EE0FFF1FE059FE4F56
:101660002591349117963C932E931697E9E9F1E072
:10167000E491F0E0EE0FFF1FEA5AFE4F25913491FE
:1016800019963C932E931897FC018491E82FF0E073
:10169000EE0FFF1FE45CFE4F859194911B969C9387
:1016A0008E931A9781EC9CE21D969C938E931C97C7
:1016B000E2EEF3E087E090E09183808388E090E0C1
:1016C00093838283168280E28783108685E08687F3
:1016D00085E090E0A0E0B0E0848B958BA68BB78B83
:1016E0001186CCEDD3E089E290E09983888388E28B
:1016F00090E09B838A838DE290E09D838C8361E000
:1017000089E29CD861E08A8199D861E08C8196D881
:10171000C6EDD3E08BE290E0998388838AE290E083
:101720009B838A838CE290E09D838C8361E08BE2D3
:1017300085D861E08A8182D861E08C817FD8EEEA29
:10174000F3E086E696E6A6EABFE3808F918FA28F4C
:10175000B38F8DEC9CECACECBEE3848F958FA68FA1
:10176000B78F80E090E0A8ECB2E480A391A3A2A39D
:10177000B3A380E090E0AFE2B3E484A395A3A6A373
:10178000B7A3DF91CF910895CF93DF93CDB7DEB7A5
:10179000A4970FB6F894DEBF0FBECDBF789484B582
:1017A000826084BD84B5816084BD85B5826085BD5D
:1017B00085B5816085BD80916E00816080936E00EB
:1017C00010928100809181008260809381008091DD
:1017D000810081608093810080918000816080938E
:1017E00080008091B10084608093B1008091B0004E
:1017F00081608093B000809191008260809391001D
:10180000809191008160809391008091900081602F
:10181000809390008091A10082608093A1008091CC
:10182000A10081608093A1008091A00081608093DD
:10183000A00080912101826080932101809121018B
:10184000816080932101809120018160809320013B
:1018500080917A00846080937A0080917A0082601F
:1018600080937A0080917A00816080937A008091E1
:101870007A00806880937A001092C10061E082E271
:101880000E941E0461E081E20E941E0461E080E289
:101890000E941E0461E080E30E941E0461E081E377
:1018A0000E941E0462E083E00E941E0462E082E067
:1018B0000E941E0462E080910C040E941E0462E0FB
:1018C00080910D040E941E0462E080910E040E942B
:1018D0001E0462E080910F040E941E0462E0809169
:1018E00014040E941E0462E0809115040E941E04EC
:1018F00086E791E0909303028093020280916A0050
:101900008C6080936A00ED9A85ED91E090930102DE
:101910008093000280916A00836080936A00EC9A51
:10192000E0912103F091220382E08083E0911D0386
:10193000F0911E031082E0911F03F09120038FECC1
:10194000808310922903E0912503F091260386E01D
:101950008083E0912303F091240380818061808360
:10196000E0912303F0912403808188608083E091DB
:101970002303F0912403808180688083E091230316
:10198000F091240380818F7D808387E692E090D957
:1019900026DB83E792E08CD9CE0101969C8B8B8B62
:1019A0008FB7F8944091BA025091BB026091BC028B
:1019B0007091BD028FBF1A012B0140930903309231
:1019C0000A0360930B0350920C0310920D031092C4
:1019D0000E0310920F03109210039A01AB0160E006
:1019E00070E080E090E0A0900103B0900203C0900E
:1019F0000303D0900403E0900503F09006030091E8
:101A00000703109108030E947A16283E33404105CF
:101A100051056105710581059105B9F0B0F020927D
:101A20000103309202034092030350920403109288
:101A30000503109206031092070310920803809189
:101A40000003B1E08B27809300039101A20160E0C5
:101A500070E080E090E0A090F802B090F902C090B1
:101A6000FA02D090FB02E090FC02F090FD0200919F
:101A7000FE021091FF020E947A162A3F31054105AD
:101A80005105610571058105910509F008F483C0D0
:101A90002092F8023092F9024092FA025092FB0230
:101AA0001092FC021092FD021092FE021092FF02B0
:101AB0001E861D86188A1F861A8A198A6CE170E0B4
:101AC000CE010D960AD92D853E85811135C221158D
:101AD000310519F0C9010E942B171E861D861A8A2E
:101AE000198A188A1F866091E202CE010D9657D995
:101AF000CE010D9640D96091E302CE010D964FD9EB
:101B0000CE010D9638D96091E402CE010D9647D9E9
:101B1000CE010D9630D96091E502CE010D963FD9E8
:101B2000CE010D9628D96091ED02CE010D9637D9E0
:101B3000CE010D9620D96091EA02CE010D962FD9E3
:101B4000CE010D9618D98091CF024AE0BE016F5F99
:101B50007F4F90E013D6EB89FC8901900020E9F7D4
:101B60003197AF018B899C89481B590BBE016F5F70
:101B70007F4FCE010D96D9D849895A896D857E85CA
:101B800081E193E00E943E018CD88D859E8500976F
:101B900011F00E942B179090090320900A033090B7
:101BA0000B0340900C0350900D0360900E03709057
:101BB0000F0380901003292D322D432D542D652DB8
:101BC000762D872D982DA090F002B090F102C09054
:101BD000F202D090F302E090F402F090F50200914E
:101BE000F6021091F7020E947A1659016A017B01F0
:101BF0008C01283E33404105510561057105810581
:101C0000910509F008F4A2C161E082E20E94C603D6
:101C10009501A601B701C801283B3B40410551058C
:101C2000610571058105910511F008F094C1292D18
:101C3000322D432D542D652D762D872D982DA09076
:101C40003802B0903902C0903A02D0903B02E09046
:101C50003C02F0903D0200913E0210913F020E9432
:101C60007A16283E3340410551056105710581050D
:101C70009105C9F1C0F19092380220923902309258
:101C80003A0240923B0250923C0260923D027092B6
:101C90003E0280923F0280910C040E949E0321E04C
:101CA000892B09F420E02093100480910D040E94F8
:101CB0009E0321E0892B09F420E0209311048091F8
:101CC0000E040E949E0321E0892B09F420E020935A
:101CD000120480910F040E949E0321E0892B09F4D5
:101CE00020E020931304292D322D432D542D652DF2
:101CF000762D872D982DA0903002B0903102C090A3
:101D00003202D0903302E0903402F090350200911C
:101D1000360210913702EED7243F3140410551057C
:101D20006105710581059105B9F0B0F0909230021E
:101D300020923102309232024092330250923402A9
:101D40006092350270923602809237028091BE0214
:101D50008093DD021092BE02292D322D432D542D89
:101D6000652D762D872D982DA0902802B090290200
:101D7000C0902A02D0902B02E0902C02F0902D020D
:101D800000912E0210912F02B5D7243F314041051A
:101D900051056105710581059105B9F0B0F090928A
:101DA00028022092290230922A0240922B0250925D
:101DB0002C0260922D0270922E0280922F0280914E
:101DC000BF028093DC021092BF02292D322D432DD9
:101DD000542D652D762D872D982DA0902002B09042
:101DE0002102C0902202D0902302E0902402F090C1
:101DF000250200912602109127027CD7243F314012
:101E000041055105610571058105910509F008F449
:101E1000DCC0909220022092210230922202409255
:101E20002302509224026092250270922602809230
:101E300027028091DD028093C0028091DC028093B2
:101E4000C1028091CA028093C2028091E102809314
:101E5000C302E091F002B090F102C090F202D09083
:101E6000F302E090F402F090F5020091F602109176
:101E7000F702292D322D432D542D652D762D872DDA
:101E8000982DAE2E37D72E3F3105410551056105FE
:101E900071058105910511F008F06FC0892D8E1B29
:101EA0008093C40280E00E940F048091F20390911D
:101EB000F3030E946B018DE10E948D0581FF08C034
:101EC0008091F2039091F3030E946B010E948405BC
:101ED00080E00E948D05682F6E7F80E00E9499054A
:101EE00082E00E948D05E6E3F1E0949161E070E00C
:101EF00001C0660F9A95EAF7682B82E00E94990567
:101F00001091E903012F1B3008F00AE08091EA03E9
:101F1000101B811110E00E940D0480EA0E947D05D3
:101F200020ECE22E22E0F22E015048F1D7018D91F3
:101F30007D010E947D05F8CF8CE190E09A8B898B22
:101F400063E872E0C9010E949918CDCD60E082E299
:101F50000E94C6036CCE43D89092F0022092F10208
:101F60003092F2024092F3025092F4026092F50233
:101F70007092F6028092F7025ACE8FEF91CF1150F5
:101F800020F080E00E947D05FACF0E940B0481E0E2
:101F90000E940F040E940D048FEF0E947D05182FF0
:101FA0000E940B041073B1F380E00E940F0460E7FD
:101FB00087E00E94990584FD0E9484050E94FB052C
:101FC0008091C9028F5F8093C902292D322D432D44
:101FD000542D652D762D872D982DA0901802B09048
:101FE0001902C0901A02D0901B02E0901C02F090DF
:101FF0001D0200911E0210911F027CD6ABE483D615
:1020000009F008F461C090921802209219023092EF
:102010001A0240921B0250921C0260921D027092A2
:102020001E0280921F02E0910404F0910504808159
:102030009091FE03892B8083E0910004F0910104CC
:1020400090818091FE038095892380838BE090E0CE
:102050000197F1F7E0910004F091010480819091E3
:10206000FE03892B808383E290E00197F1F7E091F2
:102070000004F091010490818091FE0380958923F2
:102080008083E0910404F091050490818091FE0327
:10209000809589238083E0910204F091030480817C
:1020A0009091FF03892309F47AC090E080E0BC019D
:1020B00090E080E029E330E040E050E0D1D4C90175
:1020C000892B11F02093CA02809114040E949E0370
:1020D00021E0892B09F020E0209318048091150459
:1020E0000E949E0321E0892B09F020E0209319042F
:1020F0006091EF0280E30E94C6036091EE0281E3EB
:102100000E94C6036091000380E20E94C60387E13B
:102110000E948D0580FDFDC09092F0022092F10298
:102120003092F2024092F3025092F4026092F50271
:102130007092F6028092F7028CE0FE013196A2EED8
:10214000B2E001900D928A95E1F70091D2021091D0
:10215000D3021093D1020093D0028091E903E82EBC
:102160008C3010F09CE0E92E9091EA03F82EFE18D6
:102170009111F12C0E940D0481E60E947D0582EEF2
:10218000C82E82E0D82EEA94FFEFEF1609F479C04A
:102190008FEF0E947D05D6018D936D01F4CF0E94D3
:1021A0002405AB01BC018091060490910704B0E0C6
:1021B000A0E08855994EAF4FBF4F840F951FA61FC3
:1021C000B71F8093080490930904A0930A04B09366
:1021D0000B04E0910204F091030480819091FF03CD
:1021E000892381F40E9424050091080410910904B8
:1021F00020910A0430910B040617170728073907A6
:1022000040F753CF0E942405209106043091070423
:10221000620F731F811D911D609308047093090460
:1022200080930A0490930B04E0910204F09103045C
:1022300080819091FF03892381F00E942405009101
:1022400008041091090420910A0430910B04061728
:1022500017072807390740F728CF0E942405209147
:10226000060430910704A901455051092091080442
:1022700030910904FA01E21BF30BCF01860F971F7F
:1022800016CFFA94BFEFFB1621F08FEF0E947D0569
:10229000F8CF0E940B0460E787E00E9499058091C7
:1022A000ED0290E09093D3028093D202801B910BB9
:1022B00001979093E0028093DF028091EC02982FC7
:1022C00091709093CF0281FB992790F99093EF0240
:1022D00082FB882780F98093EE022091E90230E0AA
:1022E000A4E6B0E0DFD36B3EE4E17E078105910513
:1022F00044F12FEF30E040E050E08CD3CA01B90147
:1023000076D26093CB027093CC028093CD029093EF
:10231000CE028091E30281111DC08091E2028823E8
:10232000C9F08091E4029091E502892B99F4F1E0E3
:10233000F093DE028091EA0281110FC00E94F9063B
:1023400014C01092CB021092CC021092CD021092C7
:10235000CE02DFCF1092DE02EDCF813079F38230F2
:1023600069F3833059F3843049F38091E10283505B
:10237000823008F0EEC1292D322D432D542D652DCC
:10238000762D872D982DA0901002B0901102C0904C
:102390001202D0901302E0901402F0901502009106
:1023A000160210911702A6D42639310541055105B0
:1023B000610571058105910509F008F4CAC1909283
:1023C0001002209211023092120240921302509297
:1023D0001402609215027092160280921702809188
:1023E000DD0290E022243324281A390A3092AF0308
:1023F0002092AE038091DC0290E000271127081B99
:10240000190B1093B3030093B203B101032C000C1A
:10241000880B990BECD12B013C01E091B003F091BA
:10242000B103FE8BED8BB801012E000C880B990BCC
:10243000DED169A37AA38BA39CA38091B40390916E
:10244000B5039A8F898F1092B6031092B70310923A
:10245000B8031092B9031092BA031092BB03109202
:10246000BC031092BD03C090D203D090D303E09080
:10247000D403F090D50320E030E0A901C701B601F4
:10248000B0D187FF08C0C092B603D092B703E092E4
:10249000B803F092B90346015701B7FAB094B7F800
:1024A000B094A50194016091B6037091B703809137
:1024B000B8039091B90395D187FF08C08092B60305
:1024C0009092B703A092B803B092B90320E030E035
:1024D000A901C701B60185D187FF08C0C092BA0320
:1024E000D092BB03E092BC03F092BD032091BA03EB
:1024F0003091BB034091BC035091BD03C501B401B1
:10250000DED3181644F48092BA039092BB03A092D3
:10251000BC03B092BD03B101AD89BE896A1B7B0BC0
:10252000072E000C880B990B62D14B015C01809245
:10253000BE039092BF03A092C003B092C103B80142
:10254000E98DFA8D6E1B7F0B072E000C880B990B03
:102550004ED16D8B7E8B8F8B988F6093C20370935F
:10256000C3038093C4039093C5038091C6039091E5
:10257000C703A091C803B091C903898F9A8FAB8F0D
:10258000BC8F2091CA033091CB034091CC03509172
:10259000CD0360E070E080E89FE3F8D26B017C013E
:1025A0008091CE039091CF03A091D003B091D1033D
:1025B0008D8F9E8FAF8FB8A32091B6033091B70354
:1025C0004091B8035091B903C701B6016FD1A3017F
:1025D000920178D22B013C012D8D3E8D4F8D58A15B
:1025E000C501B40163D120E030E046E153E4CED22E
:1025F0009B01AC01C301B20165D24B015C012AE928
:1026000039E949E95FE3698D7A8D8B8D9C8D4ED1D7
:102610009B01AC01C501B40149D14B015C01809221
:10262000D8029092D902A092DA02B092DB022091F5
:10263000BA033091BB034091BC035091BD03C70165
:10264000B60134D129A13AA14BA15CA13BD26B01C7
:102650007C012D8D3E8D4F8D58A16D897E898F898E
:10266000988D24D120E030E046E153E48FD29B01E5
:10267000AC01C701B60126D2298D3A8D4B8D5C8DF8
:1026800015D16B017C01C092D402D092D502E092A8
:10269000D602F092D70220E030E04FE753E4C501C4
:1026A000B4010DD3181664F480E090E0AFE7B3E412
:1026B0008093D8029093D902A093DA02B093DB0200
:1026C00020E030E0A9016091D8027091D902809198
:1026D000DA029091DB0285D087FF08C01092D80201
:1026E0001092D9021092DA021092DB0220E030E060
:1026F0004FE753E4C701B601E2D2181664F480E054
:1027000090E0AFE7B3E48093D4029093D502A09316
:10271000D602B093D70220E030E0A9016091D40244
:102720007091D5028091D6029091D7025AD087FF3E
:1027300008C01092D4021092D5021092D6021092C4
:10274000D7023092B1032092B0031093B5030093E7
:10275000B4038091DF029091E002039724F480910A
:10276000DE02882341F086ED93E00E9428068CED7E
:1027700093E00E9428060E94070312C9BB274A3033
:1027800031F4992322F4BDE2909581959F4F01C0C9
:10279000BB27FB015527AA27880F991FAA1FA4173B
:1027A00010F0A41B83955051B9F7A05DAA3308F02F
:1027B000A95DA193009779F7B111B1931192CB0163
:1027C00000C0DC01FC01672F71917723E1F732979C
:1027D00004C07C916D9370836291AE17BF07C8F3FC
:1027E000089540D008F481E00895E89409C097FB6B
:1027F0003EF490958095709561957F4F8F4F9F4FD8
:102800009923A9F0F92F96E9BB279395F69587951B
:1028100077956795B795F111F8CFFAF4BB0F11F4DE
:1028200060FF1BC06F5F7F4F8F4F9F4F16C0882385
:1028300011F096E911C0772321F09EE8872F762FBB
:1028400005C0662371F096E8862F70E060E02AF0FC
:102850009A95660F771F881FDAF7880F96958795E8
:1028600097F90895990F0008550FAA0BE0E8FEEFBD
:1028700016161706E807F907C0F012161306E40744
:10288000F50798F0621B730B840B950B39F40A263D
:1028900061F0232B242B252B21F408950A2609F41B
:1028A000A140A6958FEF811D811D08950BD078C0A2
:1028B00069D028F06ED018F0952309F05AC05FC097
:1028C0001124A2C07ED0A0F3959FD1F3950F50E0C4
:1028D000551F629FF001729FBB27F00DB11D639FD2
:1028E000AA27F00DB11DAA1F649F6627B00DA11D78
:1028F000661F829F2227B00DA11D621F739FB00D1E
:10290000A11D621F839FA00D611D221F749F33278D
:10291000A00D611D231F849F600D211D822F762F26
:102920006A2F11249F5750408AF0E1F088234AF023
:10293000EE0FFF1FBB1F661F771F881F915050406F
:10294000A9F79E3F510570F014C05EC05F3FECF3E5
:10295000983EDCF3869577956795B795F795E7955B
:102960009F5FC1F7FE2B880F911D9695879597F96C
:10297000089597F99F6780E870E060E008959FEF01
:1029800080EC089500240A94161617061806090606
:10299000089500240A9412161306140605060895D5
:1029A000092E0394000C11F4882352F0BB0F40F45D
:1029B000BF2B11F460FF04C06F5F7F4F8F4F9F4F9D
:1029C000089557FD9058440F551F59F05F3F71F01F
:1029D0004795880F97FB991F61F09F3F79F0879586
:1029E0000895121613061406551FF2CF4695F1DF0F
:1029F00008C0161617061806991FF1CF869571059F
:102A0000610508940895E894BB2766277727CB01D2
:102A100097F90895052E97FB16F400940FD057FDF3
:102A200005D01ED007FC02D046F408C05095409552
:102A3000309521953F4F4F4F5F4F0895909580956A
:102A4000709561957F4F8F4F9F4F08952BD0A59F15
:102A5000900DB49F900DA49F800D911D1124089599
:102A6000A1E21A2EAA1BBB1BFD010DC0AA1FBB1F92
:102A7000EE1FFF1FA217B307E407F50720F0A21B04
:102A8000B30BE40BF50B661F771F881F991F1A9471
:102A900069F760957095809590959B01AC01BD019B
:102AA000CF010895A29FB001B39FC001A39F700DF5
:102AB000811D1124911DB29F700D811D1124911D46
:102AC00008955058BB27AA270ED06ACF5BDF30F09D
:102AD00060DF20F031F49F3F11F41EF450CF0EF46C
:102AE000E095E7FB46CFE92F6CDF80F3BA1762076A
:102AF00073078407950718F071F49EF584CF0EF4E0
:102B0000E0950B2EBA2FA02D0B01B90190010C01FD
:102B1000CA01A0011124FF27591B99F0593F50F415
:102B2000503E68F11A16F040A22F232F342F44276D
:102B3000585FF3CF469537952795A795F040539565
:102B4000C9F77EF41F16BA0B620B730B840BBAF035
:102B50009150A1F0FF0FBB1F661F771F881FC2F7A0
:102B60000EC0BA0F621F731F841F48F487957795B4
:102B70006795B795F7959E3F08F0B3CF9395880F6B
:102B800008F09927EE0F9795879508950CD008CFF8
:102B900000DF40F0F7DE30F021F45F3F19F0E9CEBE
:102BA000511132CFECCE0DDF98F39923C9F35523A1
:102BB000B1F3951B550BBB27AA2762177307840730
:102BC00038F09F5F5F4F220F331F441FAA1FA9F3E6
:102BD00033D00E2E3AF0E0E830D091505040E695D8
:102BE000001CCAF729D0FE2F27D0660F771F881F39
:102BF000BB1F261737074807AB07B0E809F0BB0B28
:102C0000802DBF01FF2793585F4F2AF09E3F51054B
:102C100068F0AFCEF9CE5F3FECF3983EDCF38695DB
:102C200077956795B795F7959F5FC9F7880F911DC1
:102C30009695879597F90895E1E0660F771F881FAD
:102C4000BB1F621773078407BA0720F0621B730B60
:102C5000840BBA0BEE1F88F7E095089504D06894B2
:102C6000B111D2CE0895B5DE88F09F5790F0B92FFC
:102C70009927B751A0F0D1F0660F771F881F991FD1
:102C80001AF0BA95C9F712C0B13081F0BCDEB1E0DC
:102C90000895B9CE672F782F8827B85F39F0B93FEC
:102CA000CCF3869577956795B395D9F73EF49095D3
:102CB0008095709561957F4F8F4F9F4F0895D2DD1E
:102CC00008F48FEF0895DB018F939F93BFDEBF91D0
:102CD000AF91A29F800D911DA39F900DB29F900D6B
:102CE00011240895EE0FFF1F881F8BBF0790F691E8
:102CF000E02D19942A193B094C095D096E097F09D9
:102D0000800B910B08950024A7FD00942A1730052D
:102D100040055005600570058005900508950F93E6
:102D20001F93CF93DF938230910510F482E090E0FF
:102D3000E0911E04F0911F0430E020E0B0E0A0E03C
:102D4000309799F42115310509F44AC0281B390B35
:102D500024303105D8F58A819B816115710589F18F
:102D6000FB0193838283FE0111C040815181028166
:102D7000138148175907E0F04817590799F410973D
:102D800061F012960C93129713961C933296CF0112
:102D9000DF91CF911F910F91089500931E0410931E
:102DA0001F04F4CF2115310551F04217530738F0B5
:102DB000A901DB019A01BD01DF01F801C1CFEF01DB
:102DC000F9CF90931F0480931E04CDCFFE01E20F34
:102DD000F31F819391932250310939832883D7CFF0
:102DE00020911C0430911D04232B41F420914202B8
:102DF0003091430230931D0420931C042091400223
:102E0000309141022115310541F42DB73EB7409173
:102E1000440250914502241B350BE0911C04F091B3
:102E20001D04E217F307A0F42E1B3F0B28173907E8
:102E300078F0AC014E5F5F4F2417350748F04E0F16
:102E40005F1F50931D0440931C04819391939FCF67
:102E5000F0E0E0E09CCFCF93DF930097E9F0FC0136
:102E6000329713821282A0911E04B0911F04ED01CB
:102E700030E020E01097A1F420813181820F931F70
:102E800020911C0430911D042817390709F061C0F6
:102E9000F0931D04E0931C04DF91CF910895EA01A3
:102EA000CE17DF07E8F54A815B819E014115510588
:102EB000B1F7E901FB83EA8349915991C40FD51F0A
:102EC000EC17FD0761F4808191810296840F951FB4
:102ED000E90199838883828193819B838A83F0E0CF
:102EE000E0E012968D919C9113970097B9F52D9182
:102EF0003C911197CD010296820F931F20911C04E3
:102F000030911D042817390739F6309751F5109282
:102F10001F0410921E04B0931D04A0931C04BCCF88
:102F2000D383C28340815181840F951FC817D9076D
:102F300061F44E5F5F4F88819981480F591F51831B
:102F400040838A819B81938382832115310509F017
:102F5000B0CFF0931F04E0931E049ECFFD01DC016F
:102F6000C0CF13821282D7CF4F925F926F927F921F
:102F70008F929F92AF92BF92CF92DF92EF92FF9289
:102F80000F931F93CF93DF938C01009791F4CB01A4
:102F9000DF91CF911F910F91FF90EF90DF90CF9035
:102FA000BF90AF909F908F907F906F905F904F9069
:102FB000B6CEFC01E60FF71F9C0122503109E21743
:102FC000F30708F4AAC0D901CD91DC911197C61777
:102FD000D70718F1C530D10570F0CE0104978617D8
:102FE000970748F0C61BD70B2297C193D1936D93D7
:102FF0007C93CF0130DFC801DF91CF911F910F91FA
:10300000FF90EF90DF90CF90BF90AF909F908F9008
:103010007F906F905F904F9008955B01AC1ABD0A4E
:103020004C018C0E9D1EA0911E04B0911F04512CCA
:10303000412CF12CE12C109731F580911C049091DA
:103040001D048815990509F05CC04616570608F05E
:1030500058C08091400290914102009741F48DB791
:103060009EB74091440250914502841B950BE8178E
:10307000F90708F052C0F0931D04E0931C04F90115
:1030800071836083B8CF8D919C91119712966C904B
:10309000129713967C901397A815B90559F56C01F2
:1030A00042E0C40ED11CCA14DB0420F1AC014A1961
:1030B0005B09DA011296159780F062827382518360
:1030C0004083D9016D937C93E114F10471F0D70131
:1030D0001396FC93EE9312978ECF22968C0F9D1F22
:1030E000F90191838083F301EFCFF0931F04E09304
:1030F0001E0481CF4816590608F42C017D01D30126
:103100009ACFCB010CDE7C01009739F0AE01B801FB
:1031100007D0C801A0DE87016ECF10E000E06BCFC2
:10312000FB01DC0102C001900D9241505040D8F7E4
:103130000895FB01DC0101900D920020E1F7089554
:04314000F894FFCF31
:103144007C057C057C057C057C057C057C057C0573
:103154002B0000000000000025000000000000001B
:103164000C0000000000000043000000000000000C
:103174003D000000000000001700000000000000F7
:10318400000020048000314E6F646532314E6F645C
:103194006531000000009C023E013402E802650231
:1031A400430257020D0A005374617274696E672EEC
:1031B4002E2E00536574757020636F6D706C65748A
:1031C4006564005B584C20594C20585220595220B9
:1031D4004D5347204354524C2053535D203D20000F
:020000023000CC
:10E000000D9489F10D94B2F10D94B2F10D94B2F129
:10E010000D94B2F10D94B2F10D94B2F10D94B2F1F0
:10E020000D94B2F10D94B2F10D94B2F10D94B2F1E0
:10E030000D94B2F10D94B2F10D94B2F10D94B2F1D0
:10E040000D94B2F10D94B2F10D94B2F10D94B2F1C0
:10E050000D94B2F10D94B2F10D94B2F10D94B2F1B0
:10E060000D94B2F10D94B2F10D94B2F10D94B2F1A0
:10E070000D94B2F10D94B2F10D94B2F10D94B2F190
:10E080000D94B2F10D94B2F10D94B2F10D94B2F180
:10E090000D94B2F10D94B2F10D94B2F10D94B2F170
:10E0A0000D94B2F10D94B2F10D94B2F10D94B2F160
:10E0B0000D94B2F10D94B2F10D94B2F10D94B2F150
:10E0C0000D94B2F10D94B2F10D94B2F10D94B2F140
:10E0D0000D94B2F10D94B2F10D94B2F10D94B2F130
:10E0E0000D94B2F141546D656761323536300041AF
:10E0F000726475696E6F206578706C6F72657220DE
:10E1000073746B3530305632206279204D4C530099
:10E11000426F6F746C6F616465723E004875683F52
:10E1200000436F6D70696C6564206F6E203D200048
:10E130004350552054797065202020203D20005FF9
:10E140005F4156525F415243485F5F3D2000415658
:10E1500052204C696243205665723D20004743437C
:10E160002056657273696F6E203D20004350552024
:10E1700049442020202020203D20004C6F7720663D
:10E18000757365202020203D20004869676820665F
:10E190007573652020203D200045787420667573D6
:10E1A00065202020203D20004C6F636B2066757336
:10E1B000652020203D20004D617220203720323024
:10E1C000313300312E362E3800342E332E350056A2
:10E1D00023202020414444522020206F7020636F70
:10E1E00064652020202020696E73747275637469E1
:10E1F0006F6E2061646472202020496E74657272B3
:10E20000757074006E6F20766563746F7200726A49
:10E210006D702020006A6D70200057686174207056
:10E220006F72743A00506F7274206E6F7420737541
:10E2300070706F72746564004D7573742062652030
:10E2400061206C6574746572002000577269747483
:10E25000696E672045450052656164696E672045B7
:10E26000450045452065727220636E743D00504F35
:10E27000525400303D5A65726F2061646472003FF1
:10E280003D43505520737461747300403D454550C3
:10E29000524F4D207465737400423D426C696E6B41
:10E2A000204C454400453D44756D70204545505215
:10E2B0004F4D00463D44756D7020464C415348001B
:10E2C000483D48656C70004C3D4C69737420492F83
:10E2D0004F20506F72747300513D51756974005234
:10E2E0003D44756D702052414D00563D73686F7707
:10E2F00020696E7465727275707420566563746FF0
:10E30000727300593D506F727420626C696E6B00BD
:10E310002A0011241FBECFEFD1E2DEBFCDBF01E046
:10E320000CBF12E0A0E0B2E0EEE1FDEF03E00BBFB6
:10E3300002C007900D92A030B107D9F712E0A0E01B
:10E34000B2E001C01D92AE30B107E1F70F9460F367
:10E350000D948DFE01E20EBF0FEF0DBF11241FBE05
:10E360000D9460F30D9400F020E030E040ED57E0B4
:10E3700005C0FA013197F1F72F5F3F4F2817390792
:10E38000C0F308959C01260F311DC901A0E0B0E043
:10E390002F5F3F4FABBFFC018791882361F08093D3
:10E3A000C6008091C00086FFFCCF8091C0008064D1
:10E3B0008093C000EACF08958DE08093C6008091DD
:10E3C000C00086FFFCCF8091C00080648093C000B5
:10E3D0008AE08093C6008091C00086FFFCCF8091C8
:10E3E000C00080648093C00008950F94C2F10F9420
:10E3F000DCF10895FC019081992359F09093C600B7
:10E400008091C00086FFFCCF8091C0008064809323
:10E41000C0003196992379F70895282F982F929567
:10E420009F70892F805D8A3308F0895F8093C600D2
:10E430008091C00086FFFCCF8091C00080648093F3
:10E44000C000822F8F70982F905D9A3308F0995FEB
:10E450009093C6008091C00086FFFCCF8091C000E1
:10E4600080648093C00008959C01FB01853691056E
:10E470001CF46330710594F0C90164E670E00F94F8
:10E480002EFE605D7F4F6093C6008091C00086FFC6
:10E49000FCCF8091C00080648093C0002B30310598
:10E4A00014F43297B4F0C90164E670E00F942EFEC4
:10E4B0006AE070E00F942EFE605D7F4F6093C600AF
:10E4C0008091C00086FFFCCF8091C0008064809363
:10E4D000C000C9016AE070E00F942EFEC0968093E0
:10E4E000C6008091C00086FFFCCF8091C000806490
:10E4F0008093C00008951F93182F8EE692EE60E07F
:10E500000F94C2F11093C6008091C00086FFFCCF2B
:10E510008091C00080648093C0000F94DCF11F9153
:10E5200008952F923F924F925F926F927F928F92B7
:10E530009F92AF92BF92CF92DF92EF92FF920F9392
:10E540001F93DF93CF93CDB7DEB762970FB6F894E2
:10E55000DEBF0FBECDBF382E622ECA01DB015C01CB
:10E560006D01772420E2222E2E010894411C511CBB
:10E570008BC081E0A81680E0B80681E0C80680E084
:10E58000D80628F0C601AA27BB270F940DF2BB2797
:10E59000AD2D9C2D8B2D0F940DF28A2D0F940DF225
:10E5A0002092C6008091C00086FFFCCF8091C00001
:10E5B00080648093C0009DE29093C6008091C0006B
:10E5C00086FFFCCF8091C00080648093C0002092C1
:10E5D000C6008091C00086FFFCCF8091C00080649F
:10E5E0008093C00019828601750188249924A1E0D6
:10E5F0003A1651F03A1620F0B2E03B1661F409C029
:10E600000BBFF701779007C0C7010F9477FE782EF4
:10E6100002C0F7017080872D0F940DF22092C60082
:10E620008091C00086FFFCCF8091C0008064809301
:10E63000C000872D8052F401EF70F0708F3520F408
:10E64000E40DF51D708204C0E40DF51D8EE280839B
:10E650000894E11CF11C011D111D0894811C911CE2
:10E6600090E18916910409F0C2CF80E190E0A0E02A
:10E67000B0E0A80EB91ECA1EDB1E198AC2010F9493
:10E68000FAF10F94DCF16A94662009F072CF629679
:10E690000FB6F894DEBF0FBECDBFCF91DF911F91B3
:10E6A0000F91FF90EF90DF90CF90BF90AF909F9031
:10E6B0008F907F906F905F904F903F902F90089534
:10E6C0002F923F924F925F926F927F928F929F9282
:10E6D000AF92BF92CF92DF92EF92FF920F931F9370
:10E6E000DF93CF93CDB7DEB7CD53D1400FB6F894BB
:10E6F000DEBF0FBECDBF01E20EBF0FEF0DBF94B75F
:10E70000F894A89514BE80916000886180936000A1
:10E7100010926000789493FF05C0E0910002F091A0
:10E7200001021995279A2F9A8091C00082608093E8
:10E73000C00080E18093C40088E18093C1000000A4
:10E74000EE24FF24870144E0A42EB12CCC24DD2448
:10E7500024C0C5010197F1F70894E11CF11C011DCB
:10E76000111D21E2E2162EE4F20620E0020720E06D
:10E77000120718F031E0C32ED12CC801B70127ECE5
:10E780003BE140E050E00F9441FE611571058105C9
:10E79000910519F485B1805885B98091C00087FD35
:10E7A00003C0C114D104A9F2A6014F5F5F4FC25E3E
:10E7B000DE4F59834883CE51D140C25EDE4F8881FF
:10E7C0009981CE51D140019711F00D9410FEC05D9A
:10E7D000DE4F19821882C053D14060E0C15DDE4F28
:10E7E0001882CF52D14088249924C35DDE4F19820C
:10E7F0001882CD52D140C05EDE4F188219821A8233
:10E800001B82C052D140CE5CDE4F188219821A8220
:10E810001B82C253D140EE24FF2487010BBFF701B6
:10E8200007911691C45CDE4F19830883CC53D14005
:10E830000D940BFEC25EDE4F28813981CE51D1404E
:10E840002130310509F52091C600C25EDE4F1982E4
:10E850001882CE51D14022C02F5F3F4F4F4F5F4FA4
:10E86000213082E138078AE7480780E0580780F0C6
:10E87000C45CDE4FE881F981CC53D140EF5FFF4F9C
:10E8800019F0EE27FF27099420E030E040E050E047
:10E890008091C00087FFE0CF2091C600C35DDE4FAE
:10E8A00048815981CD52D1404F5F5F4FC35DDE4FEC
:10E8B00059834883CD52D140213209F063C64A3092
:10E8C000510508F05FC60894811C911C53E0851621
:10E8D000910409F059C600E010E018C081E280936D
:10E8E000C6008091C00086FFFCCF8091C00080648C
:10E8F0008093C0002F5F3F4F2931310579F70F9486
:10E90000DCF10F5F1F4F0530110519F020E030E0FA
:10E91000E5CF10920A0210920B0210920C02109294
:10E920000D02109206021092070210920802109235
:10E930000902109202021092030210920402109235
:10E9400005028FEE90EE60E00F94F5F180E191EE1C
:10E9500060E00F94C2F18091C00087FFFCCF9091DE
:10E96000C600903608F09F759032B8F09093C600BC
:10E970008091C00086FFFCCF8091C00080648093AE
:10E98000C000A0E2A093C6008091C00086FFFCCF2B
:10E990008091C00080648093C000983409F4D7C18E
:10E9A0009934B8F4923409F459C1933458F490333B
:10E9B00019F1903308F4E3C59F33A1F1903409F0C5
:10E9C000DEC5BDC0953409F470C1963409F0D7C5D1
:10E9D00098C1923509F42BC2933538F49C3409F46C
:10E9E000F5C1913509F0CBC518C2963509F445C279
:10E9F000993509F0C4C567C483E792EE62E00F94CD
:10EA0000F5F110920602109207021092080210927D
:10EA1000090210920A0210920B0210920C0210923C
:10EA20000D0213C18FE792EE62E00F94F5F18FEEC5
:10EA300090EE60E00F94F5F181E291EE60E00F94CA
:10EA4000C2F187EB91EE60E00F94F5F180E391EE77
:10EA500060E00F94C2F184EE90EE60E00F94F5F167
:10EA60008FE391EE60E00F94C2F186E090E061E008
:10EA700070E00F9434F20F94DCF18DE591EE60E0DC
:10EA80000F94C2F189EC91EE60E00F94F5F18EE401
:10EA900091EE60E00F94C2F183EC91EE60E00F9490
:10EAA000F5F18CE691EE60E00F94C2F18EE10F94E7
:10EAB0000DF288E90F940DF281E00F940DF20F949E
:10EAC000DCF18BE791EE60E00F94C2F119E0E0E039
:10EAD000F0E010935700E4918E2F0F940DF20F94F5
:10EAE000DCF18AE891EE60E00F94C2F1E3E0F0E03F
:10EAF00010935700E4918E2F0F940DF20F94DCF1D8
:10EB000089E991EE60E00F94C2F1E2E0F0E0109349
:10EB10005700E4918E2F0F940DF20F94DCF188EAE8
:10EB200091EE60E00F94C2F1E1E0F0E01093570045
:10EB30001491812F0F940DF20F94DCF107CF8BE825
:10EB400092EE62E00F94F5F18BE492EE60E00F94A8
:10EB5000F5F10F94DCF100E010E019C0C8016F2D51
:10EB60000F947FFEFF2031F489E492EE60E00F9471
:10EB7000C2F10BC0F092C6008091C00086FFFCCFAE
:10EB80008091C00080648093C0000F5F1F4FC80158
:10EB900081519F41A0E0B0E0ABBFFC01F790BAE229
:10EBA000FB1621F0E2E000301E07C1F60F94DCF105
:10EBB0000F94DCF187E592EE60E00F94F5F10F948D
:10EBC000DCF1CC24DD2400E010E01EC0C8010F946D
:10EBD00077FEF82E882331F489E492EE60E00F94FA
:10EBE000C2F10BC08093C6008091C00086FFFCCFAD
:10EBF0008091C00080648093C000FE1419F00894D6
:10EC0000C11CD11C0F5F1F4FC80181519F41A0E063
:10EC1000B0E0ABBFFC01E790FAE2EF1621F022E092
:10EC20000030120799F60F94DCF10F94DCF182E6C4
:10EC300092EE60E00F94C2F1C60161E070E00F94C3
:10EC400034F20F94DCF10F94DCF110920202109276
:10EC50000302109204021092050278CE89E992EE26
:10EC600062E00F94F5F1279A2F9A16C02F9880E052
:10EC700090E0E0EDF7E03197F1F7019684369105E9
:10EC8000C1F72F9A80E090E0E0EDF7E03197F1F7DF
:10EC9000019684369105C1F78091C00087FFE6CFC9
:10ECA0008091C00087FFFCCF64C485EA92EE62E0E9
:10ECB0000F94F5F140910202509103026091040219
:10ECC0007091050281E020E10F9491F2809102029F
:10ECD00090910302A0910402B091050280509F4FD1
:10ECE000AF4FBF4F8093020290930302A0930402A0
:10ECF000B093050280509041A040B04008F426CE69
:10ED0000A4CF83EB92EE62E00F94F5F140910602FE
:10ED100050910702609108027091090280E020E1A1
:10ED20000F9491F28091060290910702A09108023F
:10ED3000B091090280509F4FAF4FBF4F80930602A2
:10ED400090930702A0930802B0930902FFCD80ECD4
:10ED500092EE62E00F94F5F183E792EE60E00F949B
:10ED6000F5F18FE792EE60E00F94F5F18BE892EE0B
:10ED700060E00F94F5F189E992EE60E00F94F5F10F
:10ED800085EA92EE60E00F94F5F183EB92EE60E09D
:10ED90000F94F5F180EC92EE60E00F94F5F187ECC2
:10EDA00092EE60E00F94F5F188ED92EE60E00F9442
:10EDB000F5F18FED92EE60E00F94F5F18AEE92EEB0
:10EDC00060E00F94F5F183E093EEBDCD87EC92EE19
:10EDD00062E00F94F5F181E40F947BF282E40F94EA
:10EDE0007BF283E40F947BF284E40F947BF285E45E
:10EDF0000F947BF286E40F947BF287E40F947BF20E
:10EE000088E40F947BF28AE40F947BF28BE40F94F6
:10EE10007BF28CE40F947BF299CD88ED92EE62E068
:10EE20000F94F5F1772473948824992409C48FED05
:10EE300092EE62E00F94F5F140910A0250910B02BC
:10EE400060910C0270910D0282E020E10F9491F22A
:10EE500080910A0290910B02A0910C02B0910D02D8
:10EE600080509F4FAF4FBF4F80930A0290930B0289
:10EE7000A0930C02B0930D0269CD8AEE92EE62E08F
:10EE80000F94F5F184EE90EE60E00F94F5F18FECC5
:10EE900091EE60E00F94F5F1662477244301CC5D98
:10EEA000DE4F19821882C452D140D401C301B695F5
:10EEB000A79597958795CA5DDE4F88839983AA8326
:10EEC000BB83C652D140CC5DDE4FA881B981C4520C
:10EED000D1401196CC5DDE4FB983A883C452D14096
:10EEE000CD0162E070E00F9434F2B0E2B093C6005E
:10EEF0008091C00086FFFCCF8091C0008064809329
:10EF0000C000EDE2E093C6008091C00086FFFCCF18
:10EF10008091C00080648093C000F0E2F093C6004E
:10EF20008091C00086FFFCCF8091C00080648093F8
:10EF3000C000CA5DDE4FE880F9800A811B81C6529D
:10EF4000D140BB27A12F902F8F2D0F940DF2CA5DBA
:10EF5000DE4F8881C652D1400F940DF2B0E2FB2EF5
:10EF6000F092C6008091C00086FFFCCF8091C00067
:10EF700080648093C0000DE30093C6008091C000C0
:10EF800086FFFCCF8091C00080648093C00010E2B7
:10EF90001093C6008091C00086FFFCCF8091C00016
:10EFA00080648093C0008BBEF3012791C65DDE4F65
:10EFB0002883CA52D140A22EBB24CC24DD2408943D
:10EFC000611C711C811C911C8BBEF3018791282E42
:10EFD0003324442455240894611C711C811C911C09
:10EFE0008BBEF3013791C55DDE4F3883CB52D140E4
:10EFF0000894611C711C811C911C8BBEF30147910C
:10F00000C45DDE4F4883CC52D140ADEFEA2EAFEF66
:10F01000FA2EAFEF0A2FAFEF1A2F6E0C7F1C801E57
:10F02000911E142D032DF22CEE24EA0CFB1C0C1D5A
:10F030001D1D0F940DF220E22093C6008091C000A8
:10F0400086FFFCCF8091C00080648093C000C65DC5
:10F05000DE4F8881CA52D1400F940DF230E23093D6
:10F06000C6008091C00086FFFCCF8091C000806404
:10F070008093C000C45DDE4F8881CC52D1400F9494
:10F080000DF240E24093C6008091C00086FFFCCFA5
:10F090008091C00080648093C000C55DDE4F888190
:10F0A000CB52D1400F940DF250E25093C6008091A4
:10F0B000C00086FFFCCF8091C00080648093C000B8
:10F0C0008FEFE8168FEFF80680E0080780E018075A
:10F0D00031F484E092EE60E00F94C2F1DFC0D80119
:10F0E000C7018070907CA070B0708050904CA040A0
:10F0F000B040D1F52FEF3FE340E050E0E222F322B1
:10F1000004231523CA5DDE4FA880B980CA80DB8046
:10F11000C652D140AE0CBF1CC01ED11EAA0CBB1CD7
:10F12000CC1CDD1C8EE092EE60E00F94C2F1BB2798
:10F13000A12F902F8F2D0F940DF28E2D0F940DF285
:10F1400030E23093C6008091C00086FFFCCF8091F2
:10F15000C00080648093C0004EE34093C60080915D
:10F16000C00086FFFCCF87C08EE09EEFA0E0B0E03D
:10F17000E822F9220A231B239CE0E91694E9F90608
:10F1800090E0090790E0190709F088C0C45DDE4FE0
:10F19000A881CC52D140EA2EFF2400E010E0102FCD
:10F1A0000F2DFE2CEE24C55DDE4FB881CB52D14031
:10F1B000EB0EF11C011D111DD601C501817090706F
:10F1C000A070B070DC0199278827E80EF91E0A1F8D
:10F1D0001B1F20EF30E040E050E0A222B322C42207
:10F1E000D52241E1AA0CBB1CCC1CDD1C4A95D1F7F1
:10F1F000EA0CFB1C0C1D1D1D81E090E0A0E0B0E0BE
:10F20000282239224A225B2235E1220C331C441C7D
:10F21000551C3A95D1F7E20CF31C041D151D57013E
:10F220006801AA0CBB1CCC1CDD1C85E192EE60E0E1
:10F230000F94C2F1C801AA27BB270F940DF2BB2778
:10F24000A12F902F8F2D0F940DF28E2D0F940DF274
:10F2500090E29093C6008091C00086FFFCCF809121
:10F26000C00080648093C000AEE3A093C60080918C
:10F27000C00086FFFCCF8091C00080648093C000F6
:10F28000C601AA27BB270F940DF2BB27AD2D9C2DDD
:10F290008B2D0F940DF28A2D0F940DF20F94DCF14B
:10F2A000CC5DDE4FE881F981C452D140F99709F471
:10F2B0004DCBF4E0EF2EF12C012D112D6E0C7F1CA7
:10F2C000801E911EF2CD83E093EE62E00F94F5F183
:10F2D0008AE192EE60E00F94C2F18091C00087FF56
:10F2E000FCCF1091C6001F751093C6008091C0001E
:10F2F00086FFFCCF8091C00080648093C0000F9493
:10F30000DCF1812F81548A3108F036C1163409F4BA
:10F3100095C0173490F4133409F44EC0143430F40B
:10F320001134F1F0123409F01DC130C0143409F465
:10F3300059C0153409F016C16BC01A3409F4C4C0A1
:10F340001B3438F4173409F48FC0183409F00AC19B
:10F35000A1C01B3409F4D2C01C3409F003C1E8C0B9
:10F360008FEF81B90DC082B1809582B980E090E0C5
:10F37000E0EDF7E03197F1F70196883C9105C1F790
:10F380008091C00087FFEFCF12B8EFC08FEF84B934
:10F390000DC085B1809585B980E090E0E0EDF7E0A3
:10F3A0003197F1F70196883C9105C1F78091C00033
:10F3B00087FFEFCF15B8D9C08FEF87B90DC088B1DF
:10F3C000809588B980E090E0E0EDF7E03197F1F7C3
:10F3D0000196883C9105C1F78091C00087FFEFCF6F
:10F3E00018B8C3C08FEF8AB90DC08BB180958BB9A7
:10F3F00080E090E0E0EDF7E03197F1F70196883C8E
:10F400009105C1F78091C00087FFEFCF1BB8ADC059
:10F410008FEF8DB90DC08EB180958EB980E090E0F0
:10F42000E0EDF7E03197F1F70196883C9105C1F7DF
:10F430008091C00087FFEFCF1EB897C08FEF80BBD1
:10F440000DC081B3809581BB80E090E0E0EDF7E0F6
:10F450003197F1F70196883C9105C1F78091C00082
:10F4600087FFEFCF11BA81C08FEF83BB0DC084B38C
:10F47000809584BB80E090E0E0EDF7E03197F1F714
:10F480000196883C9105C1F78091C00087FFEFCFBE
:10F4900014BA6BC08FEF809301010FC080910201FD
:10F4A00080958093020180E090E0E0EDF7E03197F5
:10F4B000F1F70196883C9105C1F78091C00087FF64
:10F4C000EDCF1092020151C08FEF809304010FC065
:10F4D0008091050180958093050180E090E0E0ED4A
:10F4E000F7E03197F1F70196883C9105C1F78091DB
:10F4F000C00087FFEDCF1092050137C08FEF8093DA
:10F5000007010FC08091080180958093080180E079
:10F5100090E0E0EDF7E03197F1F70196883C910536
:10F52000C1F78091C00087FFEDCF109208011DC088
:10F530008FEF80930A010FC080910B01809580931B
:10F540000B0180E090E0E0EDF7E03197F1F70196F4
:10F55000883C9105C1F78091C00087FFEDCF1092E4
:10F560000B0103C085E292EEEEC98091C00087FFD7
:10F57000FCCF8091C600EAC988E392EEE4C98CE131
:10F5800091EEE1C988249924933011F1943028F444
:10F59000913089F09230B8F408C0953061F195301F
:10F5A000F0F0963009F048C043C02B3109F042C951
:10F5B00091E06BE13FC96227C15DDE4F2883CF52E6
:10F5C000D14092E037C9B22FA0E0622793E032C960
:10F5D000822F90E0A82BB92B622794E02BC92E3004
:10F5E00009F039C3622795E0C05DDE4F19821882A9
:10F5F000C053D1401FC9E1E0F0E0EC0FFD1FC05D3A
:10F60000DE4F08811981C053D140E00FF11F2083E4
:10F610000F5F1F4FC05DDE4F19830883C053D14079
:10F6200062270A171B0709F005C9D80196E002C92D
:10F63000261709F010C303C0973009F0FBC87724E0
:10F640009981933109F412C19431C8F4963009F4C8
:10F65000D8C0973050F4923009F406C1933009F4C1
:10F660006DC0913009F059C253C0913109F477C08F
:10F67000923108F0BBC0903109F04FC2F5C098310B
:10F6800009F487C0993150F4953109F4EFC09531F0
:10F6900008F4C6C1963109F040C2C2C19A3109F4DA
:10F6A0006CC09A3108F491C09B3109F45BC09D3164
:10F6B00009F033C29D81903359F48F81882311F46E
:10F6C0009EE11CC0813011F091E018C098E916C08D
:10F6D000892F807591F0903539F4E0E0F0E089E011
:10F6E0008093570094910AC0983539F4E3E0F0E034
:10F6F00089E080935700949101C090E01A821B82A8
:10F700008D818C831D829E831F8227E030E009C299
:10F710001A8288E08B8381E48C8386E58D8382E581
:10F720008E8389E48F8383E5888780E589878FE5E9
:10F730008A8782E38B872BE030E0F3C18A818139AD
:10F7400041F0823941F0803911F48FE005C080E04A
:10F7500003C082E001C08AE01A828B8344C0772410
:10F76000739482C08D81882311F48EE12CC0813086
:10F7700011F081E028C088E926C01A82E1E0F0E0BB
:10F7800089E08093570084918B831C8224E030E0D1
:10F79000C8C18B81803589F48C81883039F4E2E0EE
:10F7A000F0E089E08093570084910DC0E0E0F0E044
:10F7B00089E080935700849106C0E3E0F0E089E09F
:10F7C0008093570084911A82DFCF8D81836C99E0FA
:10F7D000E1E0F0E0082E90935700E89507B600FCB2
:10F7E000FDCF1A821B8223E030E09BC180EC8A832C
:10F7F000CE5CDE4F188219821A821B82C253D1401E
:10F800008EC18A8190E0A0E0B0E0582F44273327D2
:10F8100022278B8190E0A0E0B0E0DC0199278827C7
:10F82000282B392B4A2B5B2B8D8190E0A0E0B0E098
:10F83000282B392B4A2B5B2B8C8190E0A0E0B0E089
:10F84000BA2FA92F982F8827282B392B4A2B5B2BCF
:10F85000220F331F441F551FC05EDE4F288339839C
:10F860004A835B83C052D1401A8259C13A81C95C34
:10F87000DE4F3883C753D140CA5CDE4F1882C6536F
:10F88000D1408B81C82EDD24CA5CDE4F488159816E
:10F89000C653D140C42AD52A933109F082C0CE5C28
:10F8A000DE4F88819981AA81BB81C253D1408050AB
:10F8B000904CA340B04030F583E0CE5CDE4FE88052
:10F8C000F9800A811B81C253D140F70100935B008C
:10F8D00080935700E89507B600FCFDCFCE5CDE4F65
:10F8E000088119812A813B81C253D14000501F4FAA
:10F8F0002F4F3F4FCE5CDE4F088319832A833B8313
:10F90000C253D140C05EDE4F488159816A817B81FC
:10F91000C052D140DE011B9631E08C9111962C91A2
:10F9200011971296C75CDE4F2883C953D140C85C3B
:10F93000DE4F1882C853D14090E0C85CDE4FE881AA
:10F94000F981C853D1408E2B9F2B0C01FA01609393
:10F950005B0030935700E89511244E5F5F4F6F4F67
:10F960007F4F0EEFE02E0FEFF02ECE0CDF1CC114F8
:10F97000D10499F685E0C05EDE4F088119812A81A5
:10F980003B81C052D140F80120935B008093570027
:10F99000E89507B600FCFDCF81E180935700E8951C
:10F9A00035C0C05EDE4F88819981AA81BB81C0527B
:10F9B000D140B695A795979587957C018601ABE0D8
:10F9C000AA2EB12CAC0EBD1E0BC0D5016D915D01F0
:10F9D000C7010F947FFE0894E11CF11C01501040F8
:10F9E0000115110591F7A60160E070E0440F551F65
:10F9F000661F771FC05EDE4FE880F9800A811B8199
:10FA0000C052D1404E0D5F1D601F711F1A82C05E33
:10FA1000DE4F488359836A837B83C052D1407FC0C5
:10FA2000FA80C55CDE4FF882CB53D140C65CDE4F16
:10FA30001882CA53D1408B81C82EDD24C65CDE4FAC
:10FA400008811981CA53D140C02AD12A1A828981DA
:10FA5000BE016D5F7F4F843121F59601C05EDE4FA0
:10FA6000E880F9800A811B81C052D1400BBFF701A9
:10FA700087919691DB018C9311969C936E5F7F4FDB
:10FA8000D801C7010296A11DB11DC05EDE4F88835B
:10FA90009983AA83BB83C052D14022503040F1F6F3
:10FAA00036C0C05EDE4F288139814A815B81C052F9
:10FAB000D1400894C108D108760100E010E0089414
:10FAC000C11CD11C0894E11CF11C011D111DE20E8A
:10FAD000F31E041F151F21BDBB27A52F942F832FB5
:10FAE00082BD2F5F3F4F4F4F5F4FF89A80B5DB01CC
:10FAF0008D93BD012E153F054007510761F7C05E8C
:10FB0000DE4F288339834A835B83C052D1409601FC
:10FB10002D5F3F4FFB01108204C080EC8A8322E0FE
:10FB200030E08BE18093C6008091C00086FFFCCF5F
:10FB30008091C00080648093C000C15DDE4FF88179
:10FB4000CF52D140F093C6008091C00086FFFCCF19
:10FB50008091C00080648093C000432F3093C60022
:10FB60008091C00086FFFCCF8091C00080648093AC
:10FB7000C000922F2093C6008091C00086FFFCCF6A
:10FB80008091C00080648093C0008EE08093C600A6
:10FB90008091C00086FFFCCF8091C000806480937C
:10FBA000C00065E1C15DDE4FE880CF52D1406E25D7
:10FBB00069276427FE01319610C090819093C6009A
:10FBC0008091C00086FFFCCF31968091C000806498
:10FBD0008093C0006927215030402115310569F715
:10FBE0006093C6008091C00086FFFCCF8091C0006A
:10FBF00080648093C00085B1805885B9772081F4F6
:10FC0000C15DDE4F0881CF52D1400F5FC15DDE4F35
:10FC10000883CF52D14090E0A0E0B0E00D941AF4F8
:10FC200027982F9880E090E020ED37E0F901319798
:10FC3000F1F7019684369105C9F700008091C00064
:10FC40008D7F8093C00081E180935700E895EE2777
:10FC5000FF270994FFCF90E00D941AF497FB092E2B
:10FC600007260AD077FD04D02ED006D000201AF443
:10FC7000709561957F4F0895F6F7909581959F4F08
:10FC80000895A1E21A2EAA1BBB1BFD010DC0AA1FDD
:10FC9000BB1FEE1FFF1FA217B307E407F50720F0F5
:10FCA000A21BB30BE40BF50B661F771F881F991F70
:10FCB0001A9469F760957095809590959B01AC01B9
:10FCC000BD01CF010895AA1BBB1B51E107C0AA1FAC
:10FCD000BB1FA617B70710F0A61BB70B881F991FED
:10FCE0005A95A9F780959095BC01CD010895F99991
:10FCF000FECF92BD81BDF89A992780B50895262F31
:10FD0000F999FECF1FBA92BD81BD20BD0FB6F89400
:0EFD1000FA9AF99A0FBE01960895F894FFCF63
:040000033000E000E9
:00000001FF