:100000009FC10000CDC10000CBC10000C9C10000EC
:10001000C7C10000C5C10000C3C10000C1C10000CC
:10002000BFC10000BDC10000BBC10000B9C10000DC
:10003000B7C10000B5C10000B3C10000B1C10000EC
:10004000AFC10000ADC10000ABC10000A9C10000FC
:10005000A7C10000A5C10000A3C10000ADC50000FC
:100060009FC10000B6C300008BC3000099C100000F
:1000700097C1000095C1000093C1000091C100002C
:100080008FC100008DC100008BC1000089C100003C
:1000900087C1000085C1000083C1000081C100004C
:1000A0007FC100007DC100007BC1000079C100005C
:1000B00077C1000075C1000073C1000071C100006C
:1000C0006FC100006DC100006BC1000069C100007C
:1000D00067C1000065C1000063C1000061C100008C
:1000E0005FC100004E0451044004440448048804E5
:1000F000550459045F04630467046D0471047504B6
:1001000088047B047F048304C304C804CD04D7049B
:10011000E1045A05EB04F304FB0405050F0519057A
:10012000280532055A053C054605500500407A1061
:10013000F35A00A0724E18090010A5D4E80000E898
:100140007648170000E40B54020000CA9A3B0000F6
:1001500000E1F505000080969800000040420F0085
:100160000000A08601000000102700000000E80346
:10017000000000006400000000000A000000000011
:100180000100000000002C76D888DC674F0823DFD0
:10019000C1DFAE59E1B1B796E5E3E453C63AE651A3
:1001A000997696E8E6C28426EB898C9B62ED407CCA
:1001B0006FFCEFBC9C9F40F2BAA56FA5F490055A66
:1001C0002AF75C936B6CF9676DC11BFCE0E40D478B
:1001D000FEF520E6B500D0ED902E030094357705AE
:1001E0000080841E080000204E0A000000C80C3366
:1001F0003333330F986E12831141EF8D2114893BF5
:10020000E65516CFFEE6DB18D1844B381BF77C1D74
:10021000901DA4BBE424203284725E228100C9F1C7
:1002200024ECA1E53D271112131415160A0B0C0D31
:100230000E0F00010203040500000A0B02090C0D59
:100240000E08070304010000000000000000000089
:10025000000000000000000000000000000000009E
:10026000000000001211100000000000000000005B
:10027000000000000000000000000000000000007E
:100280002200250028002B002E003100340002013E
:100290000000050108010B010000210024002700D7
:1002A0002A002D0030003300010100000401070185
:1002B0000A010505050507050808080802020202EB
:1002C0000A0A0808040404040101010101010101F2
:1002D0000303030303030303040707070C0C0C0CBD
:1002E0000C0C0C0C020202020606060606060606A6
:1002F0000B0B0B0B0B0B0B0B010210202008081033
:100300002040102040800201020108040201010285
:10031000040810204080804020100804020180045E
:1003200002018040201008040201080402010102B9
:100330000408102040800102040810204080EB0CCB
:1003400011241FBECFEFD1E2DEBFCDBF00E00CBF56
:1003500012E0A0E0B2E0E8EBF8E200E00BBF02C080
:1003600007900D92A237B107D9F724E0A2E7B2E0D7
:1003700001C01D92A439B207E1F711E0C0EAD1E053
:1003800000E006C021970109802FFE010E94221281
:10039000CF39D10780E00807A9F760D70C945A1429
:1003A0002FCE089580E090E00895FC01538D448D98
:1003B000252F30E0842F90E0821B930B541710F010
:1003C000CF96089501970895FC01918D828D98171D
:1003D00061F0828DDF01A80FB11D5D968C91928D29
:1003E0009F5F9F73928F90E008958FEF9FEF089526
:1003F000FC01918D828D981731F0828DE80FF11DEF
:10040000858D90E008958FEF9FEF0895FC01918D09
:10041000228D892F90E0805C9F4F821B91098F7302
:100420009927089585E093E0F1DF21E0892B09F415
:1004300020E0822F0895FC01848DDF01A80FB11DFB
:10044000A35ABF4F2C91848D90E001968F7399270A
:10045000848FA689B7892C93A089B1898C918370E8
:1004600080648C93938D848D981306C00288F389E1
:10047000E02D80818F7D80830895EF92FF920F930E
:100480001F93CF93DF93EC0181E0888F9B8D8C8D40
:10049000981305C0E889F989808185FD25C0F62E6D
:1004A0000B8D10E00F5F1F4F0F731127E02E8C8D07
:1004B000E8120BC00FB607FCFACFE889F9898081F2
:1004C00085FFF5CFCE01B7DFF2CF8B8DFE01E80FB0
:1004D000F11DE35AFF4FF0829FB7F8940B8FEA8922
:1004E000FB89808180620AC09FB7F894EE89FF89FA
:1004F0006083E889F98980818370806480839FBFED
:1005000081E090E0DF91CF911F910F91FF90EF90EC
:100510000895CF93DF93EC01888D8823C1F0EA8999
:10052000FB89808185FD05C0A889B9898C9186FDEC
:100530000EC00FB607FCF5CF808185FFF2CFA889EA
:10054000B9898C9185FFEDCFCE0175DFE8CFDF91C2
:10055000CF91089580E090E0892B19F063DF81113D
:1005600025C080E090E0892B41F080E090E0892B6D
:1005700021F00E94000081111CC080E090E0892BD6
:1005800041F080E090E0892B21F00E940000811171
:1005900013C080E090E0892BA1F080E090E0892BEF
:1005A00081F00E94000081110AC008950E9400009D
:1005B000D8CF0E940000E1CF0E940000EACF0C9447
:1005C00000000895863308F0865390917B00282F11
:1005D0002870977F922B90937B0087708064809324
:1005E0007C0080917A00806480937A0080917A0008
:1005F00086FDFCCF809178002091790090E0922BCD
:1006000008953FB7F8948091780290917902A09173
:100610007A02B0917B0226B5A89B05C02F3F19F046
:100620000196A11DB11D3FBFBA2FA92F982F882772
:10063000820F911DA11DB11DBC01CD0142E0660FCD
:10064000771F881F991F4A95D1F70895CF93DF939D
:1006500000D000D0CDB7DEB71A8219821C821B826F
:100660001E821D8240E050E061E772E0CE010196FB
:10067000CBD544E050E06EE172E0CE010196C4D5E6
:100680006091EF02CE010196A4D463E272E0CE0144
:10069000019691D46091F002CE0101969AD4809196
:1006A000E802811103C069E272E002C06EE272E00A
:1006B000CE01019680D463E372E0CE0101967BD433
:1006C0004091E9025091EA026091EB027091EC02D4
:1006D000CE01019641D469E372E0CE0101966BD45C
:1006E0004091DC025091DD026091DE027091DF02E8
:1006F000CE01019631D46FE372E0CE0101965BD456
:100700004091D8025091D9026091DA027091DB02D7
:10071000CE01019621D465E472E0CE0101964BD45E
:100720004091E4025091E5026091E6027091E70287
:10073000CE01019611D46CE472E0CE0101963BD457
:100740004091E0025091E1026091E2027091E30277
:10075000CE01019601D44D815E8169817A8185E067
:1007600093E073D3F2D389819A810E94DD12269699
:100770000FB6F894DEBF0FBECDBFDF91CF910895C5
:100780001F920F920FB60F9211240BB60F922F9358
:100790003F934F935F936F937F938F939F93AF9309
:1007A000BF93EF93FF9385E093E045DEFF91EF91D8
:1007B000BF91AF919F918F917F916F915F914F9179
:1007C0003F912F910F900BBE0F900FBE0F901F9077
:1007D00018951F920F920FB60F9211240BB60F921D
:1007E0002F938F939F93EF93FF93E0911503F091D5
:1007F00016038081E0911B03F0911C0382FD12C05F
:10080000908180911E038F5F8F7320911F03821749
:1008100051F0E0911E03F0E0EB5FFC4F958F809369
:100820001E0301C08081FF91EF919F918F912F91C5
:100830000F900BBE0F900FBE0F901F901895362F84
:1008400090E0FC01E85CFD4F4491FC01E850FD4F55
:100850002491FC01EE54FD4F9491992309F46CC04E
:10086000442309F455C050E0FA013197E231F10513
:1008700008F04EC08827EE58FF4F8F4F0C9422127D
:10088000809180008F7707C0809180008F7D03C0AA
:1008900080918000877F809380003AC084B58F77F5
:1008A00002C084B58F7D84BD33C08091B0008F7746
:1008B00003C08091B0008F7D8093B00029C08091EB
:1008C00090008F7707C0809190008F7D03C080914A
:1008D0009000877F809390001BC08091A0008F774D
:1008E00007C08091A0008F7D03C08091A000877F0A
:1008F0008093A0000DC0809120018F7707C0809168
:1009000020018F7D03C080912001877F809320018B
:10091000E92FF0E0EE0FFF1FE258FD4FA591B491D3
:100920009FB7F894311104C08C912095282302C000
:10093000EC912E2B2C939FBF08951F93CF93DF93A1
:10094000182FEB011FD4209711F460E004C0CF3FB3
:10095000D10531F461E0812FDF91CF911F916FCFED
:10096000E12FF0E0E85CFD4FE4918E2F90E0FC0178
:100970003197E231F10508F09DC08827EC57FF4F11
:100980008F4F0C94221284B5806884BDC7BD97C078
:1009900084B5806284BDC8BD92C0809180008068AB
:1009A00080938000D0938900C093880088C0809194
:1009B0008000806280938000D0938B00C0938A0077
:1009C0007EC080918000886080938000D0938D00ED
:1009D000C0938C0074C08091B00080688093B00098
:1009E000C093B3006CC08091B00080628093B0006F
:1009F000C093B40064C080919000806880939000A0
:100A0000D0939900C09398005AC080919000806262
:100A100080939000D0939B00C0939A0050C0809127
:100A20009000886080939000D0939D00C0939C00BC
:100A300046C08091A00080688093A0008091A000B3
:100A40008F7B8093A000D093A900C093A80037C0EB
:100A50008091A00080628093A000D093AB00C093EF
:100A6000AA002DC08091A00088608093A000D09340
:100A7000AD00C093AC0023C08091200180688093BA
:100A80002001D0932901C093280119C08091200131
:100A9000806280932001D0932B01C0932A010FC064
:100AA00080912001886080932001D0932D01C09314
:100AB0002C0105C0C038D1050CF04CCF46CFDF91DA
:100AC000CF911F910895CF93DF93EC0160E088816F
:100AD000B6DE60E08A81B3DE60E070E08C81DF9199
:100AE000CF912BCF0F931F93CF93DF93EC018B010B
:100AF00061E08881A4DE60E08A81A1DEB8018C819A
:100B0000DF91CF911F910F9118CF0F931F93CF9328
:100B1000DF93EC018B0160E0888191DE61E08A81E6
:100B20008EDEB8018C81DF91CF911F910F9105CF9F
:100B30008F929F92AF92BF92CF92DF92EF92FF92ED
:100B40006B017C015EDD4B015C01C114D104E10449
:100B5000F104E9F056DDDC01CB0188199909AA09F5
:100B6000BB09883E9340A105B10578F321E0C21A84
:100B7000D108E108F10888EE880E83E0981EA11CD8
:100B8000B11CC114D104E104F10421F7DECFFF90C0
:100B9000EF90DF90CF90BF90AF909F908F9008958F
:100BA0002FB7F8946091740270917502809176026B
:100BB000909177022FBF08951F920F920FB60F9258
:100BC00011242F933F938F939F93AF93BF93809163
:100BD000740290917502A0917602B09177023091E3
:100BE000730223E0230F2D3720F40196A11DB11DC0
:100BF00005C026E8230F0296A11DB11D20937302A4
:100C00008093740290937502A0937602B09377025A
:100C10008091780290917902A0917A02B0917B0242
:100C20000196A11DB11D8093780290937902A09343
:100C30007A02B0937B02BF91AF919F918F913F91C8
:100C40002F910F900FBE0F901F9018958EBD000032
:100C50000DB407FEFDCF8EB50895CF93DF9380913D
:100C6000AE039091AF032091B0033091B10382178E
:100C7000930709F087D28091B0039091B10320913E
:100C8000AE033091AF032817390709F07BD2CFB7F5
:100C9000F89480917202811120C0E7EEF2E0849115
:100CA000EDE2F3E09491E82FF0E0EE0FFF1FE8563D
:100CB000FD4FA591B491EC91E92319F461E085E32E
:100CC000BEDD85E35FD28CB580618CBD8CB5806460
:100CD0008CBD84E357D283E355D2809172028F5F3B
:100CE00080937202CFBF8091AE039091AF032091A9
:100CF000B0033091B1038217930711F060E09FDDDC
:100D000081E090D165E070E080E090E011DF6CE080
:100D100080E0A7D16FE584E0A4D182E090E0FFD12C
:100D2000882319F081E08093B40386E0B8D180E095
:100D300090E0F5D180E076D180E588DF83E786DF3B
:100D400081E070D160E08DE18CD160E08CE189D1EF
:100D50001092B60360E787E084D16CE485E081D12E
:100D600080E060D182EE72DF81E05CD18DD1C9D1AB
:100D700080E095D1682F6E7F80E073D180E090E0B5
:100D8000CED160E085E06DD14091BC0350E066E0DB
:100D900072E087EB93E00E944A14ECE2F2E0849167
:100DA0004091BC0366E072E089D1E6E2F2E0849112
:100DB0006091B50356D182E072D1C2E3D2E0FE0168
:100DC000949161E070E001C0660F9A95EAF7682B94
:100DD00082E047D196D180E062D1682F616080E0E7
:100DE00040D160E787E03DD18091AE039091AF03A1
:100DF0002091B0033091B1038217930711F061E0A5
:100E00001EDD8091B703882339F04091BC0367EB66
:100E100073E08AE053D10FC082E041D1FE01C4915A
:100E200021E030E001C0220FCA95EAF72095622F39
:100E3000682382E016D18DE132D181FF03C0DF91BA
:100E4000CF9122C1DF91CF910895CF92DF92EF929F
:100E5000FF920F931F93CF93DF936C017A018B0165
:100E6000C0E0D0E0CE15DF0581F0D8016D918D0195
:100E7000D601ED91FC910190F081E02DC60119950C
:100E8000892B11F02196EECF7E01C701DF91CF9122
:100E90001F910F91FF90EF90DF90CF9008950E94E7
:100EA00046140F931F93CF93DF93EC0188819981B0
:100EB000009729F02A813B812617370788F48B0198
:100EC0006F5F7F4F0E946613009761F0998388835C
:100ED0001B830A832C813D81232B11F4FC0110829A
:100EE00081E001C080E0DF91CF911F910F910895C3
:100EF000EF92FF920F931F93CF93DF9361157105CC
:100F000011F480E01BC041155105B9F07B01EC01E3
:100F10008C819D818A01080F191FB801CE01C1DFA4
:100F2000882379F3288139818C819D81B701820FD3
:100F3000931F0E9453141D830C8381E0DF91CF9196
:100F40001F910F91FF90EF90089542E050E06FE6FF
:100F500072E085E093E079CFEF92FF920F931F93B9
:100F6000CF93DF93CDB7DEB764970FB6F894DEBFAB
:100F70000FBECDBF7C01CB01BA018E010F5F1F4FA9
:100F800022E044E0D8D5FC0101900020E9F7319738
:100F9000AF01481B590BBC01C701AADF64960FB60D
:100FA000F894DEBF0FBECDBFDF91CF911F910F919F
:100FB000FF90EF9008956115710549F0FB010190D4
:100FC0000020E9F73197AF01461B570B91CF80E026
:100FD0000895EF92FF920F931F93CF93DF9300D06A
:100FE0001F92CDB7DEB77C01862F4AE08E010F5FDE
:100FF0001F4FB80190E0BED5F80101900020E9F73D
:101000003197AF01401B510BB801C70171DF0F9041
:101010000F900F900F90DF91CF911F910F91FF9044
:10102000EF9008959CB59F7D9CBD9CB5937F9CBD22
:101030009CB59C7F9CBD9DB591609DBD682F8091A6
:10104000B003FDDB8091C2039091C3038230910510
:1010500038F0880F991F880F991F05970197F1F7AE
:101060000895CF93DF93C82FD62F80E0DBDF8C2F3E
:101070008F718062EBDDC82F8D2FE8DD81E0D2DF3C
:101080008C2FDF91CF910895CF9380E0CBDF81EE5D
:10109000DDDDC82F81E0C6DF8C2FCF910895CF937F
:1010A000C82F80E0BFDF8C2F8F71D0DD8FEFCEDDBA
:1010B000C82F81E0B7DF8C2FCF910895EF92FF9278
:1010C0000F931F93CF93DF93182F7B01C42F80E0E2
:1010D000A9DF812F8F718062B9DDD82F8701CC23E2
:1010E00031F0F80181918F01B1DDC150F8CF81E07D
:1010F00099DF8D2FDF91CF911F910F91FF90EF908E
:10110000089580E0CCDF81FD09C0682F626080E037
:10111000A8DF65E070E080E090E00ACD08950F93CD
:101120001F93CF938C0186E0BADFC82FC77D0230B2
:10113000110531F4C0628BE990E0A0E0B0E00DC091
:101140000130110529F085E590E0A0E0B0E005C090
:10115000C86081E490E0A0E0B0E08093BE0390938B
:10116000BF03A093C003B093C1036C2F86E079DF67
:1011700086E095DF91E0C81390E0892FCF911F9111
:101180000F91089590E0FC01E850FD4F2491FC017F
:10119000EE54FD4F8491882399F090E0880F991FB9
:1011A000FC01E856FD4FA591B491FC01E258FD4FBA
:1011B000859194918FB7F894EC91E22BEC938FBFCB
:1011C0000895CF93DF93009771F0FC010190002008
:1011D000E9F73197AF01481B590BBC0185E093E05B
:1011E00034DEEC0102C0C0E0D0E0AFDE8C0F9D1F0A
:1011F000DF91CF91089583E052DF9FEF980F81E058
:10120000933008F080E00895EF92FF920F931F93C0
:10121000CF93DF93EC017B018A01BA0142DE288182
:10122000398181110DC02115310519F0C9010E94C4
:10123000DD12198218821D821C821B821A8206C04E
:101240001D830C83B701C9010E945314CE01DF91A5
:10125000CF911F910F91FF90EF900895CF93DF935F
:10126000CDB7DEB729970FB6F894DEBF0FBECDBF5E
:10127000789484B5826084BD84B5816084BD85B571
:10128000826085BD85B5816085BD80916E0081607D
:1012900080936E0010928100809181008260809323
:1012A0008100809181008160809381008091800025
:1012B0008160809380008091B10084608093B10050
:1012C0008091B00081608093B00080919100826035
:1012D0008093910080919100816080939100809132
:1012E00090008160809390008091A1008260809343
:1012F000A1008091A10081608093A1008091A00055
:1013000081608093A00080912101826080932101FF
:101310008091210181608093210180912001816071
:101320008093200180917A00846080937A0080917C
:101330007A00826080937A0080917A008160809345
:101340007A0080917A00806880937A001092C100C0
:1013500061E080E274DAE0911503F091160382E017
:101360008083E0911103F09112031082E091130346
:10137000F09114038FEC808310921D03E091190308
:10138000F0911A0386E08083E0911703F09118032F
:10139000808180618083E0911703F0911803808140
:1013A00088608083E0911703F09118038081806842
:1013B0008083E0911703F091180380818F7D8083F3
:1013C00083E592E0FEDE49DC82E2DCDE8FE592E03E
:1013D000F8DE64E670E080E090E0AADB60E080E2A6
:1013E0002EDA80918E0490918F040A9770F4E6ECC7
:1013F000F3E080E090E024813581232B09F482C260
:10140000019674968A309105B1F73EE8232E34E0B8
:10141000332E44E5442E512C612C712CC1DB6B0121
:101420007C0106EC13E01A830983F801138A128AFF
:1014300084819581892BD9F14081518162817381A9
:1014400081859285A385B48546015701841A950A42
:10145000A60AB70A88169906AA06BB0640F1840FA9
:10146000951FA61FB71F80839183A283B3838189B1
:101470008823E9F0258536852115310529F421E0F9
:1014800030E0338B228B13C08785908982179307B6
:1014900070F441E050E0538B428B0196908B87872C
:1014A0008217930720F082E090E0938B828B7496F2
:1014B0002E163F0609F0BACFA981BA8152968D91B6
:1014C0009C915397892BB1F118968C91189714968B
:1014D000ED91FC911597882331F016968D919C9192
:1014E0001797199501C01995E981FA818289938925
:1014F000029701F580918E0490918F04892BD1F091
:1015000084819581892BB1F024E1E22E1192EA9435
:10151000E9F746DBA981BA816D937D938D939C9306
:10152000139780918E0490918F04019790938F046C
:1015300080938E0409811A810C5E1F4F1A830983E0
:101540002016310609F0B8CF56DE882329F08091A5
:101550000403882309F407C24EDE61E0682782E2B3
:101560006ED91EDB7B018C0120E030E0A90169838C
:10157000FA820B831C832D833E834F8358876093AD
:10158000FC02F092FD020093FE021093FF02109203
:10159000000310920103109202031092030387E1EB
:1015A0007EDD80FFE2C113C081E03CDD60E787E0C3
:1015B00058DD8091F90290E090937F0280937E0243
:1015C000801B910B01979093FB028093FA02298173
:1015D0003A814B815C8160E070E080E090E0A09017
:1015E000D002B090D102C090D202D090D302E0904D
:1015F000D402F090D5020091D6021091D70230D7D4
:10160000A2E337D709F070F48091FA029091FB02BF
:1016100003970CF44AC082EA93E055DA88EA93E033
:1016200052DA43C039813093D0024A814093D102CB
:101630005B815093D2028C818093D3021092D402AA
:101640001092D5021092D6021092D70287E30E9420
:10165000E2028C0188E30E94E202D801A81BB90BC8
:1016600020E533ECF7D62FEF33E040E050E0F4D53F
:10167000CA01B90102D5E0EDF2E0DF0118970D9142
:101680001D912D913C913293229312930293A0E8E5
:10169000B2E0AE17BF0789F76093800270938102B2
:1016A0008093820290938302AFCF8091F9028823C6
:1016B00009F402C18091ED028111FEC02091EF0278
:1016C000263558F02B3A60F51092E9021092EA02A2
:1016D0001092EB021092EC0247C0822F90E0A0E043
:1016E000B0E09C01AD012150310941095109A9E83F
:1016F000BFEFDAD5A3019201AFD5CA01B90168588D
:101700007F4F8F4F9F4FB9D46093E9027093EA02E5
:101710008093EB029093EC02B1E0B093E80224C016
:1017200030E02B5A3109C901330FAA0BBB0B9C01C6
:10173000AD012150310941095109A7E7B0E0A8D511
:10174000A301920189D5CA01B9016F5F7F4F8F4F05
:101750009F4F93D46093E9027093EA028093EB0267
:101760009093EC021092E8022091F0022635B8F036
:101770002B3A50F580E090E0A8ECB2E48093E402CC
:101780009093E502A093E602B093E7028093E00213
:101790009093E102A093E202B093E30234C030E000
:1017A000A4E6B0E0A7D525E530E040E050E054D510
:1017B000CA01B90162D46093E4027093E502809398
:1017C000E6029093E7021FC0822F90E0A0E0B0E015
:1017D0009C01AD012B5A310941095109ACE9BFEF18
:1017E00063D5A301920138D5CA01B9016C597F4F65
:1017F0008F4F9F4F42D46093E0027093E102809339
:10180000E2029093E302C090E902D090EA02E090F5
:10181000EB02F090EC022091E4023091E50240915D
:10182000E6025091E702C701B60162D420E030E041
:1018300048EC52E46ED54B015C016093DC0270937E
:10184000DD028093DE029093DF022091E00230916E
:10185000E1024091E2025091E302C701B60148D48F
:1018600020E030E048EC52E454D56B017C016093F9
:10187000D8027093D9028093DA029093DB028091B0
:10188000E80281110DC0C501B401ABD582EA93E035
:101890003CD9C701B601A5D588EA93E036D90CC07A
:1018A000C501B4019ED582EA93E01CD9C701B601F7
:1018B00098D588EA93E016D98091EF02811110C083
:1018C0008091EE02882361F08091F002811108C0BE
:1018D0008091F102811104C0E1E0E093ED0202C0C9
:1018E0001092ED028091ED02882311F061E001C0B9
:1018F00060E082E20E941F047EDC809304030E9469
:10190000AA028CCD24E1289F7001299FF00C11249C
:1019100087010A531C4F1A83098384EF91E0A0E0EA
:10192000B0E0F80181879287A387B48786E293E0CD
:10193000958384831782168210861686158681E029
:10194000818B2ED9A981BA816D937D938D939C93C0
:10195000139780918E0490918F04019690938F0439
:1019600080938E0452CD79D9F7CD00917E021091EB
:101970007F0210937D0200937C02B091B503B9877A
:10198000BC3038F19CE0D92E8091B603811104C09F
:10199000F984FD18F98601C0198680E043DB81E6F1
:1019A00055D98EEEE82E82E0F82EDA942FEFD2167B
:1019B00031F08FEF4BD9D7018D937D01F6CFE984BC
:1019C000EE2009F4F1CD8FEF41D9298521502987E7
:1019D000F6CFDB2ED9CF109208031092070388EEC2
:1019E00093E0A0E0B0E08093090390930A03A093F2
:1019F0000B03B0930C0380E192E090930603809375
:101A0000050385EC90E0909312038093110384EC1E
:101A100090E0909314038093130380EC90E09093F4
:101A200016038093150381EC90E090931803809344
:101A3000170382EC90E090931A038093190386ECCD
:101A400090E090931C0380931B0310921E0310924E
:101A50001F031092200310922103A2D8E6ECF3E0BA
:101A600024E1DF01322F1D923A95E9F760837183FB
:101A7000828393837496A4E0EE38FA0791F710926C
:101A80008F0410928E0487E090E09093AF038093D0
:101A9000AE0388E090E09093B1038093B00310927E
:101AA000B40380E28093B5031092B60385E080937F
:101AB000BC0385E090E0A0E0B0E08093C203909387
:101AC000C303A093C403B093C5031092B70389E284
:101AD00090E09093A9038093A80388E290E090930C
:101AE000AB038093AA038DE290E09093AD038093C3
:101AF000AC0389E247DB8091AA0344DB8091AC030D
:101B000041DB8BE290E09093A3038093A2038AE2EF
:101B100090E09093A5038093A4038CE290E09093CF
:101B2000A7038093A6038BE22DDB8091A4032ADB1D
:101B30008091A60327CBEF920F931F93CF93DF9350
:101B4000E80147FD02C034E001C034E1042E000C7E
:101B5000550B57FF03C0519541955109E32E022FB4
:101B6000242FAE012AD0CE01DF91CF911F910F918A
:101B7000EF900895BB274A3031F4992322F4BDE257
:101B8000909581959F4F01C0BB27FB015527AA2740
:101B9000880F991FAA1FA41710F0A41B83955051FA
:101BA000B9F7A05DAA3308F0A95DA193009779F772
:101BB000B111B1931192CB014EC28F929F92AF920D
:101BC000BF92CF92DF92EF92FF920F931F93CF932A
:101BD000DF93CDB7DEB729970FB6F894DEBF0FBEFF
:101BE000CDBF6A01122FB02E2BE3201720F0FF2467
:101BF000F394F00E02C02CE3F22E0F2D27E0AE017D
:101C00004F5F5F4F50D1BC014981842F8970813073
:101C100031F0E1FC06C0E0FE06C090E205C09DE2A6
:101C200003C09BE201C090E05E2D507143FF3CC0B9
:101C3000911102C083E001C084E0811718F4212FC4
:101C4000281B01C020E051110BC0F601822F30E2A9
:101C5000882319F031938150FBCFC20ED11C20E0B4
:101C6000992329F0D6019C93F60131966F01C601A4
:101C70000396E2FE0AC03EE4D6013C9341E411968D
:101C80004C93119712963C9306C03EE6F6013083C2
:101C900041E641833283FC01322F40E2332309F4D1
:101CA00042C041933150FACF42FF44C0911102C06B
:101CB00083E001C084E0811718F4212F281B01C0A4
:101CC00020E051110BC0F601822F30E2882319F079
:101CD00031938150FBCFC20ED11C20E0992329F013
:101CE000D6019C93F60131966F01C6010396E2FE80
:101CF0000BC039E4D6013C933EE411963C93119716
:101D000036E412963C9307C039E6F60130833EE68E
:101D1000318336E63283FC01322F40E2332319F05F
:101D200041933150FBCFFC01E20FF11D10828EEF89
:101D30009FEFA6C021E030E0911102C020E030E02A
:101D4000161617061CF4FB01319602C0E1E0F0E024
:101D50002E0F3F1FBB2021F0EB2DF0E0319602C08B
:101D6000E0E0F0E02E0F3F1FE12FF0E02E173F07DD
:101D70001CF4121B212F01C020E08E2D887159F414
:101D8000F601822F30E2882319F031938150FBCF86
:101D9000C20ED11C20E0992329F0D6019C93F601B4
:101DA00031966F0151110BC0F601822F90E3882309
:101DB00019F091938150FBCFC20ED11C20E00F2D62
:101DC000060F9A81342F307144FF03C0913309F418
:101DD0000150101624F4093018F008E001C001E0A9
:101DE000AB0177FF02C040E050E0FB01E41BF50BC4
:101DF000A1E0B0E0AC0FBD1FEA0FFB1F8EE2A82EE2
:101E00004B01801A91080B2D10E0119501951109D5
:101E10004F3FBFEF5B0721F4D601AC9211966D01E5
:101E2000641775072CF08416950614F4818101C09F
:101E300080E3415051093196D60111967D0140173A
:101E4000510724F0D6018C936701E2CF6417750720
:101E500039F4963320F4953319F4311101C081E33C
:101E6000F6018083F701822F90E2882319F0919385
:101E70008150FBCFF701E20FF11D108280E090E06E
:101E800029960FB6F894DEBF0FBECDBFDF91CF917C
:101E90001F910F91FF90EF90DF90CF90BF90AF9088
:101EA0009F908F900895283008F027E03327DA01BB
:101EB000990F311D87FD916000966105710539F418
:101EC00032602E5F3D9330E32A95E1F708959F3FFE
:101ED00030F080387105610509F03C5F3C5F3D934F
:101EE000913008F08068911DDF93CF931F930F937B
:101EF000FF92EF92192F987F9695E92F96959695D8
:101F0000E90FFF27EA57FE4F99273327EE24FF24D6
:101F1000A701E70105900894079428F4360FE71EFF
:101F2000F81E491F511D660F771F881F991F0694C1
:101F3000A1F70590079428F4E70EF81E491F561FD5
:101F4000C11D770F881F991F661F0694A1F7059082
:101F5000079428F4F80E491F561FC71FD11D880F7C
:101F6000991F661F771F0694A1F70590079420F428
:101F7000490F561FC71FD81F990F661F771F881F4D
:101F80000694A9F784911095177041F0D695C795DE
:101F900057954795F794E7941A95C1F7ECE2F1E06D
:101FA00068941590159135916591959105907FE212
:101FB0007395E118F10A430B560BC90BD009C0F712
:101FC000E10CF11E431F561FC91FD01D7EF4703354
:101FD00011F48A95E6CFE894015030F0080F0AF426
:101FE0000027021708F4202F2395022F7A3328F0B8
:101FF00079E37D932A95E9F710C07D932A9589F6B8
:10200000069497956795379517951794E118F10AF7
:10201000430B560BC90BD00998F023957E9173950D
:102020007A3308F070E37C932013B8F77E917061E7
:102030007D9330F0839571E37D9370E32A95E1F70A
:102040001124EF90FF900F911F91CF91DF9199276D
:1020500087FD90950895DC01FC01672F719177232E
:10206000E1F7329704C07C916D9370836291AE1753
:10207000BF07C8F30895E89409C097FB3EF4909514
:102080008095709561957F4F8F4F9F4F9923A9F051
:10209000F92F96E9BB279395F695879577956795E0
:1020A000B795F111F8CFFAF4BB0F11F460FF1BC024
:1020B0006F5F7F4F8F4F9F4F16C0882311F096E9B7
:1020C00011C0772321F09EE8872F762F05C0662365
:1020D00071F096E8862F70E060E02AF09A95660F1E
:1020E000771F881FDAF7880F9695879597F90895D7
:1020F0000BD078C069D028F06ED018F0952309F085
:102100005AC05FC01124A2C07ED0A0F3959FD1F326
:10211000950F50E0551F629FF001729FBB27F00D95
:10212000B11D639FAA27F00DB11DAA1F649F6627EA
:10213000B00DA11D661F829F2227B00DA11D621F39
:10214000739FB00DA11D621F839FA00D611D221FF3
:10215000749F3327A00D611D231F849F600D211DD7
:10216000822F762F6A2F11249F5750408AF0E1F07A
:1021700088234AF0EE0FFF1FBB1F661F771F881FC3
:1021800091505040A9F79E3F510570F014C05EC0B9
:102190005F3FECF3983EDCF3869577956795B795AE
:1021A000F795E7959F5FC1F7FE2B880F911D9695D8
:1021B000879597F9089597F99F6780E870E060E048
:1021C00008959FEF80EC089500240A9416161706D0
:1021D00018060906089500240A9412161306140618
:1021E00005060895092E0394000C11F4882352F07B
:1021F000BB0F40F4BF2B11F460FF04C06F5F7F4F33
:102200008F4F9F4F089557FD9058440F551F59F019
:102210005F3F71F04795880F97FB991F61F09F3FD3
:1022200079F087950895121613061406551FF2CFFC
:102230004695F1DF08C0161617061806991FF1CF4C
:1022400086957105610508940895E894BB27662773
:102250007727CB0197F90895052E97FB16F4009484
:102260000FD057FD05D024D007FC02D046F408C09B
:1022700050954095309521953F4F4F4F5F4F0895B2
:1022800090958095709561957F4F8F4F9F4F0895E2
:1022900031D0A59F900DB49F900DA49F800D911DEE
:1022A00011240895B7FFF4CFF3DF821B930B089539
:1022B000A1E21A2EAA1BBB1BFD010DC0AA1FBB1F4A
:1022C000EE1FFF1FA217B307E407F50720F0A21BBC
:1022D000B30BE40BF50B661F771F881F991F1A9429
:1022E00069F760957095809590959B01AC01BD0153
:1022F000CF010895A29FB001B39FC001A39F700DAD
:10230000811D1124911DB29F700D811D1124911DFD
:1023100008950CD067CF5FDF40F056DF30F021F436
:102320005F3F19F048CF511191CF4BCF6CDF98F33D
:102330009923C9F35523B1F3951B550BBB27AA2746
:1023400062177307840738F09F5F5F4F220F331FB8
:10235000441FAA1FA9F333D00E2E3AF0E0E830D084
:1023600091505040E695001CCAF729D0FE2F27D087
:10237000660F771F881FBB1F261737074807AB0755
:10238000B0E809F0BB0B802DBF01FF2793585F4FCA
:102390002AF09E3F510568F00ECF58CF5F3FECF317
:1023A000983EDCF3869577956795B795F7959F5F8F
:1023B000C9F7880F911D9695879597F90895E1E0E3
:1023C000660F771F881FBB1F621773078407BA0742
:1023D00020F0621B730B840BBA0BEE1F88F7E0959D
:1023E000089504D06894B11131CF089514DF88F0B6
:1023F0009F5790F0B92F9927B751A0F0D1F0660FF1
:10240000771F881F991F1AF0BA95C9F712C0B1300B
:1024100081F01BDFB1E0089518CF672F782F882750
:10242000B85F39F0B93FCCF3869577956795B3954A
:10243000D9F73EF490958095709561957F4F8F4FB9
:102440009F4F0895EE0FFF1F881F8BBF0790F691D7
:10245000E02D19944FDFB7FF0895821B930B089569
:102460002A193B094C095D096E097F09800B910B04
:1024700008950024A7FD00942A1730054005500553
:10248000600570058005900508950F931F93CF9305
:10249000DF938230910510F482E090E0E0919204A5
:1024A000F091930420E030E0A0E0B0E0309719F123
:1024B000408151810281138148175907C8F0841760
:1024C000950769F4109731F012960C9312971396B2
:1024D0001C9327C0009392041093930422C02115EB
:1024E000310519F04217530718F49A01BD01EF01A5
:1024F000DF01F801DBCF21153105F9F0281B390B7D
:102500002430310580F48A819B816115710521F0A9
:10251000FB019383828304C090939304809392047D
:10252000FE01329644C0FE01E20FF31F81939193A6
:1025300022503109398328833AC020919004309188
:102540009104232B41F42091020230910302309335
:1025500091042093900420910002309101022115F2
:10256000310541F42DB73EB7409104025091050268
:10257000241B350BE0919004F0919104E217F307CE
:10258000A0F42E1B3F0B2817390778F0AC014E5FE3
:102590005F4F2417350748F04E0F5F1F509391048B
:1025A000409390048193919302C0E0E0F0E0CF016A
:1025B000DF91CF911F910F910895CF93DF930097F3
:1025C00009F481C0FC01329713821282A091920417
:1025D000B0919304109781F420813181820F931F71
:1025E00020919004309191042817390751F5F09308
:1025F0009104E093900467C0ED0120E030E0CE1735
:10260000DF0740F44A815B819E0141155105F1F0DD
:10261000EA01F5CFD383C28340815181840F951F96
:10262000C817D90759F488819981840F951F02969C
:10263000918380838A819B819383828321153105D5
:1026400029F4F0939304E09392043DC0E901FB83E5
:10265000EA8349915991C40FD51FEC17FD0761F426
:1026600080819181840F951F0296E9019983888367
:10267000828193819B838A83E0E0F0E012968D91C2
:102680009C911397009719F0FD01DC01F7CF8D9114
:102690009C9111979D012E5F3F4F820F931F2091B8
:1026A0009004309191042817390769F4309729F480
:1026B000109293041092920402C013821282B0937B
:1026C0009104A0939004DF91CF9108956F927F922F
:1026D0008F929F92AF92BF92CF92DF92EF92FF9232
:1026E0000F931F93CF93DF93009781F4CB01DF917A
:1026F000CF911F910F91FF90EF90DF90CF90BF90FF
:10270000AF909F908F907F906F90BFCEFC01E60FAF
:10271000F71F9C0122503109E217F30708F4A5C006
:10272000EC01D9010D911C91119706171707A8F01C
:102730000530110508F497C0C8010497861797075C
:1027400008F491C002501109061B170B0193119355
:102750006D937C93CF0131DF86C05B01A01AB10A73
:102760004C01800E911EA0919204B0919304612CB3
:10277000712CE12CF12C109709F446C08D919C919D
:102780001197A815B905B1F56C0142E0C40ED11C32
:10279000CA14DB0478F14C018A189B08640142E0FA
:1027A000C40ED11C1296BC9012971396AC91B5E052
:1027B000CB16D10440F0B282A38391828082D901EA
:1027C0006D937C9309C00E5F1F4F800F911FF9011D
:1027D00091838083EB2DFA2FE114F10431F0D701BE
:1027E0001396FC93EE9312973EC0F0939304E093FC
:1027F000920439C06816790608F43C017D011296EE
:102800000D90BC91A02DB7CF809190049091910430
:1028100088169906E1F466167706C8F480910002DE
:1028200090910102009741F48DB79EB74091040248
:1028300050910502841B950BE817F907B0F4F0934B
:102840009104E0939004F901718360830CC0CB0183
:102850001CDE7C01009749F0A801BE011BD0CE010F
:10286000ACDEC70104C0CE0102C080E090E0DF9181
:10287000CF911F910F91FF90EF90DF90CF90BF907D
:10288000AF909F908F907F906F90089581E090E03F
:10289000F89410C0FB01DC0102C001900D92415080
:1028A0005040D8F70895FB01DC0101900D92002003
:0828B000E1F70895F894FFCF51
:1028B800000094048000314E6F6465310000000010
:1028C8003D022507D50189020602E401F8014C5FA3
:1028D800593A0020525F583A002046574400204297
:1028E80057440020535F473A0020535F4C3A00207A
:1028F800535F523A002053745F4C3A002053745F80
:10290800523A005374617274696E672E2E2E00530A
:102918006574757020636F6D706C65746564000D07
:022928000A00A3
:00000001FF
