:1000000022C1000050C100004EC100004CC10000E0
:100010004AC1000048C1000046C1000044C10000C0
:1000200042C1000040C100003EC100003CC10000D0
:100030003AC1000038C1000036C1000034C10000E0
:1000400032C1000030C100002EC100002CC10000F0
:100050002AC1000028C1000026C100002CC40000F5
:1000600022C100007AC200004FC200001CC1000083
:100070001AC1000018C1000016C1000014C1000020
:1000800012C1000010C100000EC100000CC1000030
:100090000AC1000008C1000006C1000004C1000040
:1000A00002C1000000C10000FEC00000FCC0000052
:1000B000FAC00000F8C00000F6C00000F4C0000064
:1000C000F2C00000F0C00000EEC00000ECC0000074
:1000D000EAC00000E8C00000E6C00000E4C0000084
:1000E000E2C0000012031503040308030C034C03D1
:1000F00019031D03230327032B033103350339039E
:100100004C033F034303470387038C0391039B0383
:10011000A5031E04AF03B703BF03C903D303DD0365
:10012000EC03F6031E0400040A0414041112131451
:1001300015160A0B0C0D0E0F00010203040500003A
:100140000A0B02090C0D0E08070304010000000051
:10015000000000000000000000000000000000009F
:10016000000000000000000000001211100000005C
:10017000000000000000000000000000000000007F
:100180000000000000002200250028002B002E00A7
:100190003100340002010000050108010B010000DC
:1001A0002100240027002A002D0030003300010127
:1001B0000000040107010A010505050507050808F7
:1001C0000808020202020A0A0808040404040101E1
:1001D00001010101010103030303030303030407F6
:1001E00007070C0C0C0C0C0C0C0C0202020206068D
:1001F0000606060606060B0B0B0B0B0B0B0B010280
:100200001020200808102040102040800201020128
:1002100008040201010204081020408080402010E0
:100220000804020180040201804020100804020139
:1002300008040201010204081020408001020408A1
:1002400010204080C80A11241FBECFEFD1E2DEBFCC
:10025000CDBF00E00CBF12E0A0E0B2E0E4EAFBE1B9
:1002600000E00BBF02C007900D92AE37B107D9F77F
:1002700023E0AEE7B2E001C01D92A93CB207E1F76E
:1002800011E0C3E2D1E000E006C021970109802F10
:10029000FE010E94A00DC232D10780E00807A9F735
:1002A00007D60C94D00DACCE089580E090E0089570
:1002B000FC01538D448D252F30E0842F90E0821B6C
:1002C000930B541710F0CF96089501970895FC01F1
:1002D000918D828D981761F0828DDF01A80FB11D7D
:1002E0005D968C91928D9F5F9F73928F90E00895A1
:1002F0008FEF9FEF0895FC01918D828D981731F05B
:10030000828DE80FF11D858D90E008958FEF9FEFAE
:100310000895FC01918D228D892F90E0805C9F4F84
:10032000821B91098F739927089588E093E0F1DF8C
:1003300021E0892B09F420E0822F0895FC01848DAF
:10034000DF01A80FB11DA35ABF4F2C91848D90E0FF
:1003500001968F739927848FA689B7892C93A089DA
:10036000B1898C91837080648C93938D848D981364
:1003700006C00288F389E02D80818F7D80830895F7
:10038000EF92FF920F931F93CF93DF93EC0181E0E5
:10039000888F9B8D8C8D981305C0E889F9898081A1
:1003A00085FD25C0F62E0B8D10E00F5F1F4F0F73DC
:1003B0001127E02E8C8DE8120BC00FB607FCFACF88
:1003C000E889F989808185FFF5CFCE01B7DFF2CFCB
:1003D0008B8DFE01E80FF11DE35AFF4FF0829FB7AE
:1003E000F8940B8FEA89FB89808180620AC09FB7ED
:1003F000F894EE89FF896083E889F98980818370A8
:10040000806480839FBF81E090E0DF91CF911F9156
:100410000F91FF90EF900895CF93DF93EC01888DBB
:100420008823C1F0EA89FB89808185FD05C0A88900
:10043000B9898C9186FD0EC00FB607FCF5CF80817F
:1004400085FFF2CFA889B9898C9185FFEDCFCE01C8
:1004500075DFE8CFDF91CF91089580E090E0892BA0
:1004600019F063DF811125C080E090E0892B41F015
:1004700080E090E0892B21F00E94000081111CC0D7
:1004800080E090E0892B41F080E090E0892B21F022
:100490000E940000811113C080E090E0892BA1F040
:1004A00080E090E0892B81F00E94000081110AC059
:1004B00008950E940000D8CF0E940000E1CF0E9462
:1004C0000000EACF0C9400000895863308F08653AC
:1004D00090917B00282F2870977F922B90937B0020
:1004E0008770806480937C0080917A008064809320
:1004F0007A0080917A0086FDFCCF8091780020916F
:10050000790090E0922B08951F920F920FB60F92F0
:1005100011240BB60F922F933F934F935F936F93DA
:100520007F938F939F93AF93BF93EF93FF9388E055
:1005300093E004DFFF91EF91BF91AF919F918F9175
:100540007F916F915F914F913F912F910F900BBED3
:100550000F900FBE0F901F9018951F920F920FB61D
:100560000F9211240BB60F922F938F939F93EF93BB
:10057000FF93E0911803F09119038081E0911E032D
:10058000F0911F0382FD12C09081809121038F5F43
:100590008F7320912203821751F0E0912103F0E044
:1005A000E85FFC4F958F8093210301C08081FF910C
:1005B000EF919F918F912F910F900BBE0F900FBED7
:1005C0000F901F901895362F90E0FC01E25CFE4FD3
:1005D0004491FC01E250FE4F2491FC01E854FE4F8F
:1005E0009491992309F46CC0442309F455C050E058
:1005F000FA013197E231F10508F04EC08827EE5834
:10060000FF4F8F4F0C94A00D809180008F7707C013
:10061000809180008F7D03C080918000877F8093D0
:1006200080003AC084B58F7702C084B58F7D84BDC9
:1006300033C08091B0008F7703C08091B0008F7D70
:100640008093B00029C0809190008F7707C080917F
:1006500090008F7D03C080919000877F80939000F1
:100660001BC08091A0008F7707C08091A0008F7D74
:1006700003C08091A000877F8093A0000DC080916F
:1006800020018F7707C0809120018F7D03C080916A
:100690002001877F80932001E92FF0E0EE0FFF1FFC
:1006A000EC57FE4FA591B4919FB7F894311104C057
:1006B0008C912095282302C0EC912E2B2C939FBF68
:1006C00008951F93CF93DF93182FEB019FD32097AB
:1006D00011F460E004C0CF3FD10531F461E0812F17
:1006E000DF91CF911F916FCFE12FF0E0E25CFE4FE1
:1006F000E4918E2F90E0FC013197E231F10508F092
:100700009DC08827EC57FF4F8F4F0C94A00D84B5E8
:10071000806884BDC7BD97C084B5806284BDC8BDF4
:1007200092C080918000806880938000D09389007F
:10073000C093880088C08091800080628093800090
:10074000D0938B00C0938A007EC080918000886027
:1007500080938000D0938D00C0938C0074C08091F2
:10076000B00080688093B000C093B3006CC08091EB
:10077000B00080628093B000C093B40064C08091E8
:100780009000806880939000D0939900C093980067
:100790005AC080919000806280939000D0939B001B
:1007A000C0939A0050C08091900088608093900020
:1007B000D0939D00C0939C0046C08091A0008068AB
:1007C0008093A0008091A0008F7B8093A000D093A5
:1007D000A900C093A80037C08091A00080628093D8
:1007E000A000D093AB00C093AA002DC08091A000C0
:1007F00088608093A000D093AD00C093AC0023C06C
:1008000080912001806880932001D0932901C093BA
:10081000280119C080912001806280932001D0932B
:100820002B01C0932A010FC0809120018860809322
:100830002001D0932D01C0932C0105C0C038D105F3
:100840000CF04CCF46CFDF91CF911F910895CF93FD
:10085000DF93EC0160E08881B6DE60E08A81B3DE80
:1008600060E070E08C81DF91CF912BCF3FB7F8949F
:100870008091800290918102A0918202B0918302C6
:1008800026B5A89B05C02F3F19F00196A11DB11DEB
:100890003FBFBA2FA92F982F8827820F911DA11D26
:1008A000B11DBC01CD0142E0660F771F881F991F63
:1008B0004A95D1F708951F920F920FB60F92112407
:1008C0002F933F938F939F93AF93BF938091840215
:1008D00090918502A0918602B091870230917F02AB
:1008E00023E0230F2D3720F40196A11DB11D05C073
:1008F00026E8230F0296A11DB11D20937F0280934D
:10090000840290938502A0938602B093870280911F
:10091000800290918102A0918202B091830201969F
:10092000A11DB11D8093800290938102A093820249
:10093000B0938302BF91AF919F918F913F912F917F
:100940000F900FBE0F901F9018958EBD00000DB434
:1009500007FEFDCF8EB50895CF93DF938091B1034D
:100960009091B2032091B3033091B403821793079F
:1009700009F04CD28091B3039091B4032091B1035C
:100980003091B2032817390709F040D2CFB7F89455
:1009900080917E02811120C0EDEEF1E08491E3E3CD
:1009A000F2E09491E82FF0E0EE0FFF1FE256FE4FC9
:1009B000A591B491EC91E92319F461E085E303DE9C
:1009C00085E324D28CB580618CBD8CB580648CBDF0
:1009D00084E31CD283E31AD280917E028F5F8093DE
:1009E0007E02CFBF8091B1039091B2032091B303F7
:1009F0003091B4038217930711F060E0E4DD81E0E9
:100A000024D192D16CE080E03FD16FE584E03CD10D
:100A100082E090E0C8D1882319F081E08093B70389
:100A200086E050D180E090E0BED180E00ED180E53C
:100A30008CDF83E78ADF81E008D160E08DE124D19B
:100A400060E08CE121D11092B90360E787E01CD10E
:100A50006CE485E019D180E0F8D082EE76DF81E0A9
:100A6000F4D025D196D180E02DD1682F6E7F80E023
:100A70000BD180E090E097D160E085E005D1409116
:100A8000BF0350E060E072E08AEB93E00E94C70D84
:100A9000E2E3F1E084914091BF0360E072E021D194
:100AA000ECE2F1E084916091B803EED082E00AD1EB
:100AB000C8E3D1E0FE01949161E070E001C0660FEF
:100AC0009A95EAF7682B82E0DFD063D180E0FAD014
:100AD000682F616080E0D8D060E787E0D5D0809152
:100AE000B1039091B2032091B3033091B403821704
:100AF000930711F061E067DD8091BA03882339F034
:100B00004091BF036AEB73E08AE0EBD00FC082E054
:100B1000D9D0FE01C49121E030E001C0220FCA9576
:100B2000EAF72095622F682382E0AED08DE1CAD02B
:100B300081FF03C0DF91CF91BAC0DF91CF910895BB
:100B4000CF92DF92EF92FF920F931F93CF93DF9399
:100B50006C017A018B01C0E0D0E0CE15DF0581F099
:100B6000D8016D918D01D601ED91FC910190F0813C
:100B7000E02DC6011995892B11F02196EECF7E014B
:100B8000C701DF91CF911F910F91FF90EF90DF9000
:100B9000CF900895F8D7009761F0FC0101900020F4
:100BA000E9F73197AF01481B590BBC0188E093E08E
:100BB000C7CF80E090E008958F929F92AF92BF924E
:100BC0000F931F93CF93DF93CDB7DEB7A1970FB6E7
:100BD000F894DEBF0FBECDBF19A2423008F44AE040
:100BE0008E010F5D1F4F842E912CA12CB12CA501DD
:100BF00094015BD5E62FB901CA0101501109EA3011
:100C000014F4E05D01C0E95CD801EC93232B242BA4
:100C1000252B69F7C801BFDFA1960FB6F894DEBF98
:100C20000FBECDBFDF91CF911F910F91BF90AF90BD
:100C30009F908F900895682F70E080E090E04AE0E8
:100C4000BBCF682F88E093E09BCB9CB59F7D9CBD7C
:100C50009CB5937F9CBD9CB59C7F9CBD9DB59160D0
:100C60009DBD682F8091B303AEDC8091C503909148
:100C7000C6038230910538F0880F991F880F991F9D
:100C800005970197F1F70895CF93DF93C82FD62FDB
:100C900080E0DBDF8C2F8F71806257DEC82F8D2FB5
:100CA00054DE81E0D2DF8C2FDF91CF910895CF9376
:100CB00080E0CBDF81EE49DEC82F81E0C6DF8C2FDC
:100CC000CF910895CF93C82F80E0BFDF8C2F8F7115
:100CD0003CDE8FEF3ADEC82F81E0B7DF8C2FCF915B
:100CE0000895EF92FF920F931F93CF93DF93182FE6
:100CF0007B01C42F80E0A9DF812F8F71806225DE08
:100D0000D82F8701CC2331F0F80181918F011DDEAE
:100D1000C150F8CF81E099DF8D2FDF91CF911F91E6
:100D20000F91FF90EF9008958F929F92AF92BF9294
:100D3000CF92DF92EF92FF9299DD4B015C0185E04B
:100D4000C82ED12CE12CF12C91DDDC01CB018819CE
:100D50009909AA09BB09883E9340A105B105A0F3F2
:100D600021E0C21AD108E108F10888EE880E83E07C
:100D7000981EA11CB11CC114D104E104F10421F797
:100D8000FF90EF90DF90CF90BF90AF909F908F90AB
:100D9000089580E097DF81FD05C0682F626080E0E4
:100DA00073DFC2CF08950F931F93CF938C0186E01A
:100DB00089DFC82FC77D0230110531F4C0628BE98D
:100DC00090E0A0E0B0E00DC00130110529F085E50C
:100DD00090E0A0E0B0E005C0C86081E490E0A0E051
:100DE000B0E08093C1039093C203A093C303B09378
:100DF000C4036C2F86E048DF86E064DF91E0C8130F
:100E000090E0892FCF911F910F91089590E0FC0100
:100E1000E250FE4F2491FC01E854FE4F8491882358
:100E200099F090E0880F991FFC01E256FE4FA591C2
:100E3000B491FC01EC57FE4F859194918FB7F894D3
:100E4000EC91E22BEC938FBF0895CF93DF93A3DE59
:100E5000EC0184E392E09FDE8C0F9D1FDF91CF9128
:100E60000895CF93DF93EC0160E08881ACDB61E013
:100E70008A81A9DB60E570E08C81DF91CF9121CC84
:100E8000CF93DF93EC0161E088819DDB60E08A8194
:100E90009ADB60E570E08C81DF91CF9112CC83E02A
:100EA00011DF9FEF980F81E0933008F080E0089504
:100EB000CF93DF93CDB7DEB72B970FB6F894DEBF95
:100EC0000FBECDBF789484B5826084BD84B5816047
:100ED00084BD85B5826085BD85B5816085BD809105
:100EE0006E00816080936E0010928100809181007D
:100EF0008260809381008091810081608093810075
:100F0000809180008160809380008091B100846036
:100F10008093B1008091B00081608093B000809197
:100F20009100826080939100809191008160809314
:100F30009100809190008160809390008091A10049
:100F400082608093A1008091A10081608093A100C4
:100F50008091A00081608093A00080912101826037
:100F600080932101809121018160809321018091F2
:100F7000200181608093200180917A0084608093B9
:100F80007A0080917A00826080937A0080917A0062
:100F9000816080937A0080917A00806880937A00E3
:100FA0001092C100E0911803F091190382E0808350
:100FB000E0911403F09115031082E0911603F09173
:100FC00017038FEC808310922003E0911C03F091B3
:100FD0001D0386E08083E0911A03F0911B0380815A
:100FE00080618083E0911A03F0911B038081886007
:100FF0008083E0911A03F0911B03808180688083D5
:10100000E0911A03F0911B0380818F7D808388E13A
:1010100092E01BDFA1DC82E2F9DE84E292E015DFE0
:1010200044244A9493E0592E612C712C38DF882394
:1010300029F080910703882309F468C22FB7F89438
:101040008091840290918502A0918602B0918702DE
:101050002FBF8C019D0140E050E0BA011C832D831D
:101060003E834F83588769877A878093FF02109366
:1010700000032093010330930203109203031092A4
:101080000403109205031092060387E11BDE80FF24
:101090003FC22DC081E0D9DD60E787E0F5DD8091BA
:1010A000FC0290E090938B0280938A02801B910B4C
:1010B00001979093FE028093FD028091F102BBDDC7
:1010C00080E2BFDD8091F202B6DD80E2BADD809180
:1010D000F302B1DD80E2B5DD8091F402ACDD80E2A7
:1010E000B0DD8091FC02A7DD84E392E054DD8090C6
:1010F000FF0290900003309101033B87409102036F
:101100004B833090030320900403509105035983CF
:10111000609106036A8394014B855B81632D722D78
:1011200089819A81A090DC02B090DD02C090DE023D
:10113000D090DF02E090E002F090E1020091E20244
:101140001091E3020BD5A2E312D509F008F46BC0AD
:101150008092DC029092DD027B857093DE028B81AF
:101160008093DF023092E0022092E1029981909315
:10117000E202EA81E093E30287E3A7D98C0188E3E6
:10118000A4D9D801A81BB90B20E533ECE1D4A30105
:1011900092016FD2CA01B901B8D3ECEDF2E00CE8CC
:1011A00012E0DF011897CD90DD90ED90FC90F29267
:1011B000E292D292C29222E0EC38F20791F7609369
:1011C0008C0270938D0280938E0290938F02940113
:1011D0004B855B81632D722D89819A81273E334037
:1011E000410551056105710581059105E1F0D8F0D2
:1011F00060E070E0CB01F801219131914191519172
:101200008F0185D2F2E0083D1F07A9F720E030E00A
:1012100040EA51E4E4D26093E4027093E5028093E3
:10122000E6029093E70294014B855B81632D722D5A
:1012300089819A81A090E802B090E902C090EA0208
:10124000D090EB02E090EC02F090ED020091EE0203
:101250001091EF0283D4283E3340410551056105CA
:1012600071058105910509F008F4F5C08092E80246
:101270009092E9021B851093EA022B812093EB02E6
:101280003092EC022092ED0239813093EE024A81D5
:101290004093EF0220E030E041E654E46091E40244
:1012A0007091E5028091E6029091E702DED3181674
:1012B0000CF094C087E392E06EDC8090E4029090A2
:1012C000E502A090E602B090E702A5019401C501F5
:1012D000B40132D4882319F08BE392E018C0750171
:1012E0006401E894F7F82FEF3FEF4FE75FE7C7019E
:1012F000B60122D481110DC02FEF3FEF4FE75FE71A
:10130000C701B60168D2181624F48FE392E043DCDB
:1013100060C02FEF3FEF4FE75FE4C501B401A5D3F5
:1013200018161CF483E492E0F2CF2FEF3FEF4FE763
:101330005FECC501B4014FD287FDF4CF20E030E06F
:10134000A901C501B40147D287FF06C08DE279DC4F
:10135000B7FAB094B7F8B0942AE037ED43EA5BE30C
:10136000C501B401D4D14B015C01A1D26B017C0158
:10137000CAD29B01AC01C501B401C8D14B015C01CB
:101380004AE0C701B60118DC8EE25BDC20E030E009
:1013900040E251E4C501B4016CD36B017C0187D2FA
:1013A0004B01A12CB12C4AE0C501B40105DCC501FB
:1013B000B401A9D29B01AC01C701B601A7D120E0BD
:1013C00030E040E251E455D372D280E090E04AE050
:1013D000F3DB87E492E0DFDB81E001C080E0209175
:1013E000FD023091FE0222303105ECF08BE492E0F8
:1013F000D2DB8090FD029090FE02092C000CAA081E
:10140000BB08B7FE0BC08DE21CDC66277727CB013B
:10141000681979098A099B094AE003C04AE0C501B5
:10142000B401CADBADC08111ABC039DD811103C08D
:1014300088E592E00ADD8091B1039091B2038F3F7D
:10144000910509F4A1C08091B3039091B4038F3F3B
:10145000910509F499C08091FD029091FE020397D5
:1014600034F085EA93E0F3D98BEA93E0F0D98091E8
:10147000FC02882331F18091F002811122C0809119
:10148000F2028B3530F0853B40F485EA93E0DFD9FA
:1014900007C085EA93E0F4DC03C085EA93E0E1DC71
:1014A0008091F4028B3530F0853B40F48BEA93E079
:1014B000CED907C08BEA93E0E3DC03C08BEA93E06C
:1014C000D0DC8091F202811110C08091F10288235A
:1014D00061F08091F302811108C08091F4028111C2
:1014E00004C081E08093F00202C01092F00280916B
:1014F000F002882311F061E001C060E082E263D86D
:10150000CEDC809307030E942D0290CD25DA96CD84
:1015100000918A0210918B02109389020093880235
:101520005091B80359835C3048F12CE02A838091B4
:10153000B903811105C039814A81341B398301C047
:10154000198280E082DB81E600DA81EFE82E82E01A
:10155000F82E5A8151505A835F3F31F08FEFF5D901
:10156000F70181937F01F5CFF981FF2309F492CD33
:101570008FEFEBD9298121502983F6CF5A83D7CF1A
:1015800084E392E008DB51CF8CE692E05EDC63CF2F
:10159000CF93DF93E8E0F3E01382128288EE93E0CA
:1015A000A0E0B0E084839583A683B7838AE092E0CD
:1015B0009183808385EC90E09587848784EC90E02C
:1015C0009787868780EC90E0918B808B81EC90E010
:1015D000938B828B82EC90E0958B848B86EC90E0F1
:1015E000978B868B118E128E138E148EE1EBF3E0A7
:1015F00087E090E09183808388E090E0938382830A
:10160000168280E28783108685E0868785E090E0F9
:10161000A0E0B0E0848B958BA68BB78B1186CBEACC
:10162000D3E089E290E09983888388E290E09B830D
:101630008A838DE290E09D838C8389E2E7DB8A8157
:10164000E5DB8C81E3DBC5EAD3E08BE290E09983B4
:1016500088838AE290E09B838A838CE290E09D837A
:101660008C838BE2D3DB8A81D1DB8C81DF91CF91BC
:10167000CDCB052E97FB16F400940FD057FD05D067
:1016800014D007FC02D046F408C050954095309520
:1016900021953F4F4F4F5F4F0895909580957095DE
:1016A00061957F4F8F4F9F4F0895A1E21A2EAA1B7D
:1016B000BB1BFD010DC0AA1FBB1FEE1FFF1FA21702
:1016C000B307E407F50720F0A21BB30BE40BF50BFF
:1016D000661F771F881F991F1A9469F76095709588
:1016E000809590959B01AC01BD01CF010895A29F0B
:1016F000B001B39FC001A39F700D811D1124911DE6
:10170000B29F700D811D1124911D08955058BB2763
:10171000AA270ED070C161D130F066D120F031F42B
:101720009F3F11F41EF456C10EF4E095E7FB4CC147
:10173000E92F72D180F3BA17620773078407950700
:1017400018F071F49EF58AC10EF4E0950B2EBA2FB5
:10175000A02D0B01B90190010C01CA01A0011124B7
:10176000FF27591B99F0593F50F4503E68F11A1663
:10177000F040A22F232F342F4427585FF3CF4695F4
:1017800037952795A795F0405395C9F77EF41F1616
:10179000BA0B620B730B840BBAF09150A1F0FF0FE0
:1017A000BB1F661F771F881FC2F70EC0BA0F621FCC
:1017B000731F841F48F4879577956795B795F795BC
:1017C0009E3F08F0B3CF9395880F08F09927EE0F4E
:1017D000979587950895D4D008F481E008950CD0AA
:1017E0000AC102D140F0F9D030F021F45F3F19F086
:1017F000EBC0511134C1EEC00FD198F39923C9F356
:101800005523B1F3951B550BBB27AA276217730706
:10181000840738F09F5F5F4F220F331F441FAA1FBA
:10182000A9F333D00E2E3AF0E0E830D0915050407A
:10183000E695001CCAF729D0FE2F27D0660F771F28
:10184000881FBB1F261737074807AB07B0E809F00A
:10185000BB0B802DBF01FF2793585F4F2AF09E3F9F
:10186000510568F0B1C0FBC05F3FECF3983EDCF37C
:10187000869577956795B795F7959F5FC9F7880F18
:10188000911D9695879597F90895E1E0660F771F6A
:10189000881FBB1F621773078407BA0720F0621BFB
:1018A000730B840BBA0BEE1F88F7E0950895BCD03C
:1018B00088F09F5790F0B92F9927B751A0F0D1F039
:1018C000660F771F881F991F1AF0BA95C9F712C0C3
:1018D000B13081F0C3D0B1E00895C0C0672F782F38
:1018E0008827B85F39F0B93FCCF38695779567952F
:1018F000B395D9F73EF490958095709561957F4F9B
:101900008F4F9F4F0895E89409C097FB3EF4909540
:101910008095709561957F4F8F4F9F4F9923A9F0C8
:10192000F92F96E9BB279395F69587957795679557
:10193000B795F111F8CFFAF4BB0F11F460FF1BC09B
:101940006F5F7F4F8F4F9F4F16C0882311F096E92E
:1019500011C0772321F09EE8872F762F05C06623DC
:1019600071F096E8862F70E060E02AF09A95660F95
:10197000771F881FDAF7880F9695879597F908954E
:10198000990F0008550FAA0BE0E8FEEF1616170690
:10199000E807F907C0F012161306E407F50798F0F8
:1019A000621B730B840B950B39F40A2661F0232B11
:1019B000242B252B21F408950A2609F4A140A6958D
:1019C0008FEF811D811D089597F99F6780E870E072
:1019D00060E008959FEF80EC089500240A941616A5
:1019E000170618060906089500240A94121613060D
:1019F000140605060895092E0394000C11F488239B
:101A000052F0BB0F40F4BF2B11F460FF04C06F5FB6
:101A10007F4F8F4F9F4F089557FD9058440F551F8C
:101A200059F05F3F71F04795880F97FB991F61F060
:101A30009F3F79F087950895121613061406551FD7
:101A4000F2CF4695F1DF08C0161617061806991F43
:101A5000F1CF86957105610508940895E894BB2738
:101A600066277727CB0197F908958ADF08F48FEF6F
:101A700008950BD0C0CFB1DF28F0B6DF18F0952362
:101A800009F0A2CFA7CF1124EACFC6DFA0F3959F1C
:101A9000D1F3950F50E0551F629FF001729FBB2755
:101AA000F00DB11D639FAA27F00DB11DAA1F649F01
:101AB0006627B00DA11D661F829F2227B00DA11DB4
:101AC000621F739FB00DA11D621F839FA00D611D3A
:101AD000221F749F3327A00D611D231F849F600D5B
:101AE000211D822F762F6A2F11249F5750408AF094
:101AF000E1F088234AF0EE0FFF1FBB1F661F771F20
:101B0000881F91505040A9F79E3F510570F05CCF5F
:101B1000A6CF5F3FECF3983EDCF38695779567950B
:101B2000B795F795E7959F5FC1F7FE2B880F911D3D
:101B30009695879597F9089523DF880B990B08955B
:101B4000EE0FFF1F881F8BBF0790F691E02D1994B1
:101B5000CEDDB7FF0895821B930B08952A193B0928
:101B60004C095D096E097F09800B910B08950024D3
:101B7000A7FD00942A173005400550056005700543
:101B800080059005089581E090E0F89409C0FB017C
:101B9000DC0102C001900D9241505040D8F70895E9
:041BA000F894FFCFE7
:101BA400314E6F64653100000000C001A00558018A
:101BB4000C02890167017B015374617274696E6759
:101BC4002E2E2E00536574757020636F6D706C65D6
:101BD400746564000D0A00493A20006E616E006964
:101BE4006E66006F766600206D4100094461746181
:101BF400206C6F73733A20000A526164696F206429
:101C04006973636F6E6E6563746564000A52616420
:0E1C1400696F206E6F742076616C6964000049
:00000001FF
