:10000000ACC100000C94D20D0C94A70D0C947C0D87
:100010000C94510D0C94260D0C94FB0C0C94D00CEC
:100020000C94A50CCBC10000C9C10000C7C10000E1
:10003000C5C10000C3C10000C1C10000BFC10000B4
:10004000BDC10000BBC10000B9C10000B7C10000C4
:10005000B5C10000B3C10000B1C100000C945B0C3D
:10006000ADC100000C948F0A0C94650AA7C1000072
:10007000A5C10000A3C10000A1C100009FC10000F4
:100080009DC100009BC1000099C1000097C1000004
:1000900095C1000093C1000091C100008FC1000014
:1000A0008DC100008BC1000089C1000087C1000024
:1000B00085C1000083C1000081C100007FC1000034
:1000C0007DC100007BC1000079C1000077C1000044
:1000D00075C1000073C1000071C100006FC1000054
:1000E0006DC100000B030E03FD020103070345036E
:1000F000120316031C03200324032A032E033203D6
:10010000450338033C034003560B5B0B600B6A0B43
:10011000740BED0B7E0B860B8E0B980BA20BAC0BAE
:10012000BB0BC50BED0BCF0BD90BE30B00407A10CB
:10013000F35A00A0724E18090010A5D4E80000E898
:100140007648170000E40B54020000CA9A3B0000F6
:1001500000E1F505000080969800000040420F0085
:100160000000A08601000000102700000000E80346
:10017000000000006400000000000A000000000011
:100180000100000000002C76D888DC674F0823DFD0
:10019000C1DFAE59E1B1B796E5E3E453C63AE651A3
:1001A000997696E8E6C28426EB898C9B62ED407CCA
:1001B0006FFCEFBC9C9F40F2BAA56FA5F490055A66
:1001C0002AF75C936B6CF9676DC11BFCE0E40D478B
:1001D000FEF520E6B500D0ED902E030094357705AE
:1001E0000080841E080000204E0A000000C80C3366
:1001F0003333330F986E12831141EF8D2114893BF5
:10020000E65516CFFEE6DB18D1844B381BF77C1D74
:10021000901DA4BBE424203284725E228100C9F1C7
:1002200024ECA1E53D271112131415160A0B0C0D31
:100230000E0F000102030405000021002400270026
:100240002A002D00300033000101000004010701E5
:100250000A0100002200250028002B002E0031009A
:10026000340002010000050108010B01000020001C
:100270002300260029002C002F003200000100007E
:100280000301060109010505050507050808080819
:10029000020202020A0A080804040404010101011E
:1002A0000101010103030303030303030407070719
:1002B0000C0C0C0C0C0C0C0C0202020206060606BE
:1002C000060606060B0B0B0B0B0B0B0B010210208B
:1002D000200808102040102040800201020108047C
:1002E0000201010204081020408080402010080410
:1002F0000201800402018040201008040201080469
:1003000002010102040810204080010204081020AC
:10031000408000000A0B02090C0D0E0807030401BF
:1003200000000000000000000000000000000000CD
:10033000000000000000000000000000000012119A
:10034000100000000000000000000000000000009D
:100350000000000000000000531711241FBECFEF63
:10036000D1E2DEBFCDBF00E00CBF12E0A0E0B2E002
:10037000E8E8FEE300E00BBF02C007900D92A43C4A
:10038000B107D9F72AE0A4ECB2E001C01D92A93A66
:10039000B207E1F711E0CDEAD1E000E006C0219715
:1003A0000109802FFE010E940A1DCC3AD10780E08E
:1003B0000807A9F70E9483120C94421F21CE0895CA
:1003C00080E090E00895FC01538D448D252F30E0AE
:1003D000842F90E0821B930B541710F0CF96089552
:1003E00001970895FC01918D828D981761F0828D9F
:1003F000DF01A80FB11D5D968C91928D9F5F9F7359
:10040000928F90E008958FEF9FEF0895FC01918DFA
:10041000828D981731F0828DE80FF11D858D90E067
:1004200008958FEF9FEF0895FC01918D228D892F04
:1004300090E0805C9F4F821B91098F7399270895EC
:100440008CE893E0F1DF21E0892B09F420E0822F92
:100450000895FC01848DDF01A80FB11DA35ABF4F81
:100460002C91848D90E001968F739927848FA689B3
:10047000B7892C93A089B1898C91837080648C9307
:10048000938D848D981306C00288F389E02D8081B6
:100490008F7D80830895EF92FF920F931F93CF93E8
:1004A000DF93EC0181E0888F9B8D8C8D981305C0C4
:1004B000E889F989808185FD25C0F62E0B8D10E035
:1004C0000F5F1F4F0F731127E02E8C8DE8120BC0AA
:1004D0000FB607FCFACFE889F989808185FFF5CF4F
:1004E000CE01B7DFF2CF8B8DFE01E80FF11DE35A8D
:1004F000FF4FF0829FB7F8940B8FEA89FB898081C8
:1005000080620AC09FB7F894EE89FF896083E8890A
:10051000F98980818370806480839FBF81E090E04F
:10052000DF91CF911F910F91FF90EF900895CF939E
:10053000DF93EC01888D8823C1F0EA89FB898081F3
:1005400085FD05C0A889B9898C9186FD0EC00FB6BE
:1005500007FCF5CF808185FFF2CFA889B9898C91FE
:1005600085FFEDCFCE0175DFE8CFDF91CF91089504
:1005700080E090E0892B19F063DF811125C080E0D5
:1005800090E0892B41F080E090E0892B21F00E94DF
:10059000000081111CC080E090E0892B41F080E0D8
:1005A00090E0892B21F00E940000811113C080E0AF
:1005B00090E0892BA1F080E090E0892B81F00E94EF
:1005C000000081110AC008950E940000D8CF0E9447
:1005D0000000E1CF0E940000EACF0C9400000895D3
:1005E00090E0FC013197E231F10508F04EC0882718
:1005F000EE58FF4F8F4F0C940A1D809180008F772B
:1006000003C0809180008F7D809380000895809149
:100610008000877FF9CF84B58F7702C084B58F7D46
:1006200084BD08958091B0008F7703C08091B000A1
:100630008F7D8093B0000895809190008F7707C0E0
:10064000809190008F7D03C080919000877F809380
:10065000900008958091A0008F7707C08091A0003E
:100660008F7D03C08091A000877F8093A0000895B4
:10067000809120018F7707C0809120018F7D03C07A
:1006800080912001877F809320010895CF93DF938D
:10069000282F30E0F901EE5EFC4F8491F901E4531C
:1006A000FD4FD491F901EA57FD4FC491CC2389F055
:1006B000811196DFEC2FF0E0EE0FFF1FE459FD4FA4
:1006C000A591B491EC91ED2381E090E021F480E0DC
:1006D00002C080E090E0DF91CF9108953FB7F89499
:1006E0008091F6029091F702A091F802B091F90280
:1006F00026B5A89B05C02F3F19F00196A11DB11D7D
:100700003FBFBA2FA92F982F8827820F911DA11DB7
:10071000B11DBC01CD0142E0660F771F881F991FF4
:100720004A95D1F7089508952F923F924F925F9284
:100730006F927F928F929F92AF92BF92CF92DF92F1
:10074000EF92FF920F931F93CF93DF9300D000D0CF
:10075000CDB7DEB76091060370910703809108035F
:10076000909109030E94D51C2091F00230E0AB016A
:10077000421B530B5E834D835093EE024093ED0278
:10078000609102037091030380910403909105032B
:100790000E94D51C2091EF0230E08B01021B130B4D
:1007A0001093EC020093EB022D813E81B901330FCF
:1007B000880B990B0E94981A2B013C01A090D9023A
:1007C000B090DA02B5010B2C000C880B990B0E943B
:1007D000981AA30192010E94091C20E030E040E039
:1007E0005FE30E94F71A20E030E046E153E40E9404
:1007F000F71A20E030E04AE754E40E946D1C9B01A8
:10080000AC016091E7027091E8028091E902909159
:10081000EA020E94091C6093E7027093E802809349
:10082000E9029093EA02B801012E000C880B990BA3
:100830000E94981A69837A838B839C832090D702C5
:100840003090D802B101032C000C880B990B0E9448
:10085000981A29813A814B815C810E94091C20E011
:1008600030E040E05FE30E94F71A20E030E046E12C
:1008700053E40E94F71A20E030E04AE754E40E9473
:100880006D1C9B01AC016091E3027091E4028091C8
:10089000E5029091E6020E94091C6093E3027093C6
:1008A000E4028093E5029093E602C0900B03D0909F
:1008B0000C03E0900D03F0900E0320E030E0A9015E
:1008C000C701B6010E94061D18165CF420E030E056
:1008D00040E85FE3C701B6010E94921A87FF1BC080
:1008E0000AC020E030E040E85FEBC701B6010E949B
:1008F000061D181684F41092E7021092E802109276
:10090000E9021092EA021092E3021092E4021092BD
:10091000E5021092E60220E030E04FE253E46091FD
:10092000E7027091E8028091E9029091EA020E9448
:10093000061D181664F480E090E0AFE2B3E4809303
:10094000E7029093E802A093E902B093EA0220E064
:1009500030E04FE253EC6091E7027091E802809141
:10096000E9029091EA020E94921A87FF0CC080E08F
:1009700090E0AFE2B3EC8093E7029093E802A0939B
:10098000E902B093EA0220E030E04FE253E46091E4
:10099000E3027091E4028091E5029091E6020E94E8
:1009A000061D181664F480E090E0AFE2B3E4809393
:1009B000E3029093E402A093E502B093E60220E004
:1009C00030E04FE253EC6091E3027091E4028091D9
:1009D000E5029091E6020E94921A87FF0CC080E027
:1009E00090E0AFE2B3EC8093E3029093E402A09333
:1009F000E502B093E6026D817E816A197B09072EBC
:100A0000000C880B990B0E94981A4B015C016093B3
:100A1000DF027093E0028093E1029093E202B8015A
:100A200062197309072E000C880B990B0E94981A03
:100A30006B017C016093DB027093DC028093DD022A
:100A40009093DE0225E535E545E550E46091E70247
:100A50007091E8028091E9029091EA020E94F71AEF
:100A6000A30192010E94091C2B013C0120E030E00F
:100A700048EC52E4C501B4010E94F71A20E030E0CE
:100A800046E153E40E946D1C9B01AC01C301B2011D
:100A90000E94091C2AE939E949E95FE30E94F71A33
:100AA0004B015C016093FE027093FF028093000390
:100AB0009093010325E535E545E550E46091E302B7
:100AC0007091E4028091E5029091E6020E94F71A8B
:100AD00029813A814B815C810E94091C2B013C01D8
:100AE00020E030E048EC52E4C701B6010E94F71A5A
:100AF00020E030E046E153E40E946D1C9B01AC0114
:100B0000C301B2010E94091C2AE939E949E95FE3FE
:100B10000E94F71A6B017C016093FA027093FB024A
:100B20008093FC029093FD0220E030E04FE753E415
:100B3000C501B4010E94061D181664F480E090E01F
:100B4000AFE7B3E48093FE029093FF02A09300030B
:100B5000B093010320E030E0A9016091FE027091A2
:100B6000FF0280910003909101030E94921A87FF77
:100B700008C01092FE021092FF0210920003109221
:100B8000010320E030E04FE753E4C701B6010E94C3
:100B9000061D181664F480E090E0AFE7B3E480939C
:100BA000FA029093FB02A093FC02B093FD0220E0B6
:100BB00030E0A9016091FA027091FB028091FC0281
:100BC0009091FD020E94921A87FF08C01092FA02CB
:100BD0001092FB021092FC021092FD024D815E8188
:100BE0005093DA024093D9021093D8020093D702AF
:100BF00026960FB6F894DEBF0FBECDBFDF91CF9122
:100C00001F910F91FF90EF90DF90CF90BF90AF902A
:100C10009F908F907F906F905F904F903F902F901C
:100C200008950F931F93CF93DF930091F00210E08C
:100C30006091060370910703809108039091090366
:100C40000E94D51C061B170B1093EE020093ED02B9
:100C5000C091EF02D0E06091020370910303809194
:100C60000403909105030E94D51CC61BD70BD0939B
:100C7000EC02C093EB020F3F8FEF18071CF50B3F00
:100C80008FEF18070CF055C0033E8FEF180794F450
:100C90000F3C8FEF18070CF042C009318CEF18079A
:100CA0000CF46CC00D391F4F5CF520E030E040EAD9
:100CB00051E42AC0023F1F4FBCF520E030E040E085
:100CC00051E422C00E3111057CF40F301105DCF522
:100CD000023011050CF452C0063011057CF520E0FD
:100CE00030E040E85FE338C0023311058CF1083E84
:100CF00013400CF043C020E030E040E751E42CC04A
:100D000020E030E040E751E46091FE027091FF0284
:100D100080910003909101030E94091C27C020E0EC
:100D200030E040E451E4F0CF20E030E040EA50E42D
:100D3000EBCF20E030E040E85FE3E6CF20E030E0BA
:100D400040EA50E409C020E030E040E051E404C053
:100D500020E030E040E451E46091FE027091FF0237
:100D600080910003909101030E94081C6093FE0291
:100D70007093FF02809300039093010320E030E022
:100D80004FE753E46091FE027091FF0280910003EF
:100D9000909101030E94061D181664F480E090E013
:100DA000AFE7B3E48093FE029093FF02A0930003A9
:100DB000B093010320E030E0A9016091FE02709140
:100DC000FF0280910003909101030E94921A87FF15
:100DD00008C01092FE021092FF02109200031092BF
:100DE0000103CF3F8FEFD8071CF5CB3F8FEFD8071C
:100DF0000CF054C0C33E8FEFD80794F4CF3C8FEF74
:100E0000D8070CF041C0C9318CEFD8070CF46BC087
:100E1000CD39DF4F54F520E030E040EA51E429C0FD
:100E2000C23FDF4FB4F520E030E040E051E421C0A4
:100E3000CE31D10574F4CF30D105D4F5C230D1050F
:100E40000CF451C026977CF520E030E040E85FE3E9
:100E500038C0C233D1058CF1C83ED3400CF043C03A
:100E600020E030E048EC51E42CC020E030E040E7E6
:100E700051E46091FA027091FB028091FC02909122
:100E8000FD020E94091C27C020E030E040E451E44C
:100E9000F0CF20E030E040EA50E4EBCF20E030E05B
:100EA00040E85FE3E6CF20E030E040EA50E409C0EC
:100EB00020E030E040E051E404C020E030E040E4D5
:100EC00051E46091FA027091FB028091FC029091D2
:100ED000FD020E94081C6093FA027093FB0280934B
:100EE000FC029093FD0220E030E04FE753E4609174
:100EF000FA027091FB028091FC029091FD020E9427
:100F0000061D181664F480E090E0AFE7B3E4809328
:100F1000FA029093FB02A093FC02B093FD0220E042
:100F200030E0A9016091FA027091FB028091FC020D
:100F30009091FD020E94921A87FF08C01092FA0257
:100F40001092FB021092FC021092FD02DF91CF91F1
:100F50001F910F91089580919D0A98DB21E0892BC4
:100F600009F420E020939E0A80919F0A8FDB21E004
:100F7000892B09F420E02093A00A8091A10A86DB46
:100F800021E0892B09F420E02093A20A8091A30A92
:100F90007DDB21E0892B09F420E02093A40A089549
:100FA0008091D6028093EF021092D602089580912C
:100FB000D5028093F0021092D50208957F928F920D
:100FC0009F92AF92BF92CF92DF92EF92FF920F93D8
:100FD0001F93CF93DF9370900F0380901003909036
:100FE0001103D0911203C0911303B0911403F09137
:100FF0001503E0911603272D382D492D5D2F6C2FF9
:101000007B2F8F2F9E2FA090CD02B090CE02C0904C
:10101000CF02D090D002E090D102F090D2020091A5
:10102000D3021091D4020E94181DA2E00E94211D3B
:10103000B1F0A8F07092CD028092CE029092CF02D1
:10104000D093D002C093D102B093D202F093D302D6
:10105000E093D4028091D6028F5F8093D602DF9115
:10106000CF911F910F91FF90EF90DF90CF90BF90A5
:10107000AF909F908F907F9008957F928F929F92D4
:10108000AF92BF92CF92DF92EF92FF920F931F9396
:10109000CF93DF9370900F03809010039090110313
:1010A000D0911203C0911303B0911403F091150372
:1010B000E0911603272D382D492D5D2F6C2F7B2FA6
:1010C0008F2F9E2FA090C502B090C602C090C7027D
:1010D000D090C802E090C902F090CA020091CB0201
:1010E0001091CC020E94181DA2E00E94211DB1F0B7
:1010F000A8F07092C5028092C6029092C702D09367
:10110000C802C093C902B093CA02F093CB02E09325
:10111000CC028091D5028F5F8093D502DF91CF9171
:101120001F910F91FF90EF90DF90CF90BF90AF9005
:101130009F908F907F900895CF93DF9300D000D041
:10114000CDB7DEB7CE0101960E945A126EE272E070
:10115000CE0101960E94221261E1CE0101960E9409
:10116000F91164E372E0CE0101960E9422126091AF
:101170000B0370910C0380910D0390910E030E945C
:10118000DA1CCE0101960E94F9116EE372E0CE01E5
:1011900001960E9422126091F002CE0101960E94F7
:1011A000F9116EE372E0CE0101960E942212609165
:1011B000EF02CE0101960E94F91161E472E0CE01C6
:1011C00001960E9422126091ED027091EE02CE0112
:1011D0000196DFD76EE372E0CE0101960E942212E3
:1011E0006091EB027091EC02CE010196D2D76DE4D2
:1011F00072E0CE0101960E9422126091E702709186
:10120000E8028091E9029091EA020E94DA1CCE0184
:1012100001960E94F9116EE372E0CE0101960E94E0
:1012200022126091E3027091E4028091E5029091B4
:10123000E6020E94DA1CCE0101960E94F91164E5D3
:1012400072E0CE0101960E9422126091DF0270913D
:10125000E0028091E1029091E2020E94DA1CCE014C
:1012600001960E94F9116EE372E0CE0101960E9490
:1012700022126091DB027091DC028091DD0290917C
:10128000DE020E94DA1CCE0101960E94F9116CE583
:1012900072E0CE0101960E9422126091FE027091CE
:1012A000FF0280910003909101030E94DA1CCE019D
:1012B00001960E94F9116EE372E0CE0101960E9440
:1012C00022126091FA027091FB028091FC029091CF
:1012D000FD020E94DA1CCE0101960E94F91166E619
:1012E00072E0CE0101960E942212CE0101962CD707
:1012F00089819A810E94C51D26960FB6F894DEBF9B
:101300000FBECDBFDF91CF910895CF93DF9300D073
:1013100000D0CDB7DEB7CE0101960E945A1244E04C
:1013200050E068E672E0CE0101960E9430126091B2
:101330001803CE0101960E94F9116DE672E0CE010C
:1013400001960E94221260911903CE0101960E941B
:10135000F91180910A03811103C063E772E002C0B2
:1013600068E772E0CE0101960E9422126DE772E0FA
:10137000CE0101960E94221240910B0350910C0362
:1013800060910D0370910E03CE01019630D763E892
:1013900072E0CE0101960E94221240910603509104
:1013A00007036091080370910903CE0101961FD7CE
:1013B00069E872E0CE0101960E9422126FE872E0A5
:1013C000CE0101960E9422126091F002CE01019698
:1013D0000E94F91167E972E0CE0101960E94221283
:1013E0006091ED027091EE02CE010196D2D66DE9C8
:1013F00072E0CE0101960E9422124091FE025091AD
:10140000FF026091000370910103CE010196EFD6B7
:10141000CE01019699D689819A810E94C51D269692
:101420000FB6F894DEBF0FBECDBFDF91CF91089508
:101430000F931F93CF93DF9300D000D0CDB7DEB7CB
:10144000CE0101960E945A1207E113E0F801608173
:10145000CE010196CED7CE01019687D6F8016181E3
:10146000CE010196C6D7CE0101967FD6F8016281E2
:10147000CE010196BED7CE01019677D6F8016381E1
:10148000CE010196B6D7CE0101966FD6F8016385DD
:10149000CE010196AED7CE01019667D6F8016185DF
:1014A000CE010196A6D7CE0101964ED689819A81AA
:1014B0000E94C51D26960FB6F894DEBF0FBECDBFA5
:1014C000DF91CF911F910F9108951F920F920FB648
:1014D0000F9211240BB60F922F933F934F935F936C
:1014E0006F937F938F939F93AF93BF93EF93FF93EC
:1014F0008CE893E00E942902FF91EF91BF91AF9198
:101500009F918F917F916F915F914F913F912F911B
:101510000F900BBE0F900FBE0F901F9018951F924B
:101520000F920FB60F9211240BB60F922F938F9339
:101530009F93EF93FF93E0919C03F0919D03808133
:10154000E091A203F091A30382FD12C090818091EB
:10155000A5038F5F8F732091A603821751F0E0914E
:10156000A503F0E0E457FC4F958F8093A50301C0DD
:101570008081FF91EF919F918F912F910F900BBEE2
:101580000F900FBE0F901F9018951F93CF93DF936E
:10159000282F30E0F901EE5EFC4F8491F901E4530D
:1015A000FD4FD491F901EA57FD4FC491CC23B9F016
:1015B000162F811115D8EC2FF0E0EE0FFF1FEE5A19
:1015C000FD4FA591B4919FB7F894111104C08C916F
:1015D000D095D82302C0EC91DE2BDC939FBFDF9126
:1015E000CF911F910895CF93DF9390E0FC01E453D6
:1015F000FD4F2491FC01EA57FD4F8491882361F14E
:1016000090E0880F991FFC01E85CFD4FC591D491D3
:10161000FC01EE5AFD4FA591B491611109C09FB72D
:10162000F8948881209582238883EC912E230BC027
:10163000623061F49FB7F8948881322F309583230C
:101640008883EC912E2B2C939FBF06C08FB7F89404
:10165000E8812E2B28838FBFDF91CF9108951F93B0
:10166000CF93DF93182FEB0161E0BDDF209711F4DA
:1016700060E004C0CF3FD10531F461E0812FDF91FC
:10168000CF911F9182CFE12FF0E0EE5EFC4FE4910D
:101690008E2F90E0FC013197E231F10508F09DC0FA
:1016A0008827EC57FF4F8F4F0C940A1D84B5806834
:1016B00084BDC7BD97C084B5806284BDC8BD92C0DB
:1016C00080918000806880938000D0938900C093CF
:1016D000880088C080918000806280938000D093D1
:1016E0008B00C0938A007EC08091800088608093C8
:1016F0008000D0938D00C0938C0074C08091B000A6
:1017000080688093B000C093B3006CC08091B0003B
:1017100080628093B000C093B40064C08091900058
:10172000806880939000D0939900C09398005AC02D
:1017300080919000806280939000D0939B00C09332
:101740009A0050C080919000886080939000D09360
:101750009D00C0939C0046C08091A000806880934B
:10176000A0008091A0008F7B8093A000D093A9005F
:10177000C093A80037C08091A00080628093A00031
:10178000D093AB00C093AA002DC08091A0008860C8
:101790008093A000D093AD00C093AC0023C0809193
:1017A0002001806880932001D0932901C0932801F3
:1017B00019C080912001806280932001D0932B0179
:1017C000C0932A010FC0809120018860809320017E
:1017D000D0932D01C0932C0105C0C038D1050CF069
:1017E0004CCF46CFDF91CF911F910895863308F0FB
:1017F000865390917B00282F2870977F922B90938F
:101800007B008770806480937C0080917A00806484
:1018100080937A0080917A0086FDFCCF80917800D9
:101820002091790090E0922B08958F929F92AF9231
:10183000BF92CF92DF92EF92FF926B017C010E94E8
:101840006E034B015C01C114D104E104F104F1F019
:101850000E946E03DC01CB0188199909AA09BB0912
:10186000883E9340A105B10570F321E0C21AD1086A
:10187000E108F10888EE880E83E0981EA11CB11CD7
:10188000C114D104E104F10419F7DDCFFF90EF900A
:10189000DF90CF90BF90AF909F908F9008952FB71B
:1018A000F8946091F2027091F3028091F4029091A9
:1018B000F5022FBF08951F920F920FB60F921124B9
:1018C0002F933F938F939F93AF93BF938091F20297
:1018D0009091F302A091F402B091F5023091F102DF
:1018E00023E0230F2D3720F40196A11DB11D05C063
:1018F00026E8230F0296A11DB11D2093F1028093CB
:10190000F2029093F302A093F402B093F502809157
:10191000F6029091F702A091F802B091F9020196B7
:10192000A11DB11D8093F6029093F702A093F802D7
:10193000B093F902BF91AF919F918F913F912F91F9
:101940000F900FBE0F901F9018951F920F920FB619
:101950000F9211240BB60F922F933F934F935F93E7
:101960006F937F938F939F93AF93BF93EF93FF9367
:10197000E0910E02F0910F021995FF91EF91BF9146
:10198000AF919F918F917F916F915F914F913F9117
:101990002F910F900BBE0F900FBE0F901F901895B8
:1019A0001F920F920FB60F9211240BB60F922F9326
:1019B0003F934F935F936F937F938F939F93AF93D7
:1019C000BF93EF93FF93E0910C02F0910D021995F4
:1019D000FF91EF91BF91AF919F918F917F916F9107
:1019E0005F914F913F912F910F900BBE0F900FBEC3
:1019F0000F901F9018951F920F920FB60F921124FF
:101A00000BB60F922F933F934F935F936F937F93F8
:101A10008F939F93AF93BF93EF93FF93E091020255
:101A2000F09103021995FF91EF91BF91AF919F91B2
:101A30008F917F916F915F914F913F912F910F9077
:101A40000BBE0F900FBE0F901F9018951F920F9214
:101A50000FB60F9211240BB60F922F933F934F9313
:101A60005F936F937F938F939F93AF93BF93EF9306
:101A7000FF93E0910002F09101021995FF91EF911F
:101A8000BF91AF919F918F917F916F915F914F9196
:101A90003F912F910F900BBE0F900FBE0F901F9094
:101AA00018951F920F920FB60F9211240BB60F923A
:101AB0002F933F934F935F936F937F938F939F9356
:101AC000AF93BF93EF93FF93E0910A02F0910B0263
:101AD0001995FF91EF91BF91AF919F918F917F9158
:101AE0006F915F914F913F912F910F900BBE0F908F
:101AF0000FBE0F901F9018951F920F920FB60F9266
:101B000011240BB60F922F933F934F935F936F93D4
:101B10007F938F939F93AF93BF93EF93FF93E09146
:101B20000802F09109021995FF91EF91BF91AF91D1
:101B30009F918F917F916F915F914F913F912F91E5
:101B40000F900BBE0F900FBE0F901F9018951F9215
:101B50000F920FB60F9211240BB60F922F933F9353
:101B60004F935F936F937F938F939F93AF93BF93A5
:101B7000EF93FF93E0910602F09107021995FF9110
:101B8000EF91BF91AF919F918F917F916F915F91F5
:101B90004F913F912F910F900BBE0F900FBE0F9062
:101BA0001F9018951F920F920FB60F9211240BB62B
:101BB0000F922F933F934F935F936F937F938F93E6
:101BC0009F93AF93BF93EF93FF93E0910402F09143
:101BD00005021995FF91EF91BF91AF919F918F9160
:101BE0007F916F915F914F913F912F910F900BBE1D
:101BF0000F900FBE0F901F9018958EBD00000DB472
:101C000007FEFDCF8EB50895EF92FF920F931F93BD
:101C1000CF93DF937C01A8ECEA0EF11CD701ED9184
:101C2000FC913A9768F4FC0100E010E0A481B581D2
:101C3000AB2B49F00F5F1F4F74960A301105B1F7B7
:101C40008FEF9FEF25C021153105D1F3A4E1A09FAF
:101C5000F001A19FF00D1124EC01CE0FDF1F498789
:101C60005A876B877C873D832C831F821E82188650
:101C70001E861D8681E0898B12DE688379838A83C4
:101C80009B83F70180819181019691838083C801B4
:101C9000DF91CF911F910F91FF90EF9008954F9298
:101CA0005F926F927F928F929F92AF92BF92CF92EC
:101CB000DF92EF92FF920F931F93CF93DF938C01EC
:101CC000EEDD6B017C01E80108531F4FFE0121E0AE
:101CD00030E042E050E0138A128A84819581892B9A
:101CE000A1F180809180A280B38081859285A385B7
:101CF000B48526013701481859086A087B08481638
:101D000059066A067B0608F1880D991DAA1DBB1DA0
:101D100080839183A283B38381898823B1F0A585D1
:101D2000B685109719F4338B228B0FC08785908965
:101D30008A179B0750F4338B228B0196908B8787F1
:101D40008A179B0710F0538B428B7496E017F107AC
:101D500011F684E1F82E8A899B89892B39F18885CF
:101D6000EC81FD81882321F08E819F81199501C02E
:101D700019958A899B890297C9F4F801808191811C
:101D8000892BA1F08C819D81892B81F0FE018F2D03
:101D900011928A95E9F783DD688379838A839B832F
:101DA000F801808191810197918380836496C017A7
:101DB000D10789F6DF91CF911F910F91FF90EF909E
:101DC000DF90CF90BF90AF909F908F907F906F905B
:101DD0005F904F900895CF93DF93EC0160E088818E
:101DE000D4DB60E08A81D1DB60E070E08C81DF9140
:101DF000CF9135CC0F931F93CF93DF93EC018B01E1
:101E000061E08881C2DB60E08A81BFDBB8018C8140
:101E1000DF91CF911F910F9122CC0F931F93CF93FE
:101E2000DF93EC018B0160E08881AFDB61E08A81A8
:101E3000ACDBB8018C81DF91CF911F910F910FCC5A
:101E4000CF93DF938091350490913604209137042D
:101E5000309138048217930711F061E0C4DB809160
:101E600037049091380420913504309136042817B6
:101E7000390711F061E0B7DBCFB7F8948091C40265
:101E8000811123C0EBEBF2E08491E1E0F3E0949167
:101E9000E82FF0E0EE0FFF1FE85CFD4FA591B49135
:101EA000EC91E92319F461E085E36FDB61E085E300
:101EB0009ADB8CB580618CBD8CB580648CBD61E093
:101EC00084E391DB61E083E38EDB8091C4028F5F6A
:101ED0008093C402CFBF8091350490913604209145
:101EE0003704309138048217930711F060E04DDB1E
:101EF00081E0ACD165E070E080E090E096DC6CE0E1
:101F000080E0C3D16FE584E0C0D182E090E01BD2D5
:101F1000882319F081E080933B0486E0D4D180E0EF
:101F200090E011D280E092D180E567DE83E765DE44
:101F300081E08CD160E08DE1A8D160E08CE1A5D199
:101F400010923D0460E787E0A0D16CE485E09DD16C
:101F500080E07CD182EE51DE81E078D1A9D1E5D15B
:101F600080E0B1D1682F6E7F80E08FD180E090E07B
:101F7000EAD160E085E089D14091430450E066E118
:101F800072E08EE394E00E94321FECE2F2E0849172
:101F90004091430466E172E0A5D1E6E2F2E084916B
:101FA00060913C0472D182E08ED1C2E3D2E0FE01A6
:101FB000949161E070E001C0660F9A95EAF7682B92
:101FC00082E063D1B2D180E07ED1682F616080E091
:101FD0005CD160E787E059D1809135049091360457
:101FE00020913704309138048217930711F061E093
:101FF000CCDA80913E04882339F0409143046EE3AB
:1020000074E08AE06FD10FC082E05DD1FE01C4911F
:1020100021E030E001C0220FCA95EAF72095622F37
:10202000682382E032D18DE14ED181FF03C0DF9180
:10203000CF913EC1DF91CF910895CF92DF92EF9281
:10204000FF920F931F93CF93DF936C017A018B0163
:10205000C0E0D0E0CE15DF0581F0D8016D918D0193
:10206000D601ED91FC910190F081E02DC60119950A
:10207000892B11F02196EECF7E01C701DF91CF9120
:102080001F910F91FF90EF90DF90CF90089542E065
:1020900050E060EC72E08CE893E0CFCF0E942E1FFE
:1020A0000F931F93CF93DF93EC0188819981009761
:1020B00029F02A813B812617370788F48B016F5F4F
:1020C0007F4F0E944E1E009761F0998388831B8387
:1020D0000A832C813D81232B11F4FC01108281E0C5
:1020E00001C080E0DF91CF911F910F910895EF9291
:1020F000FF920F931F93CF93DF936115710511F436
:1021000080E01BC041155105B9F07B01EC018C81C9
:102110009D818A01080F191FB801CE01C1DF8823F4
:1021200079F3288139818C819D81B701820F931FBA
:102130000E943B1F1D830C8381E0DF91CF911F9193
:102140000F91FF90EF900895CF93DF93FC014481AE
:102150005581608171818CE893E06FDFEC0197DF3E
:102160008C0F9D1FDF91CF910895CF93DF931F9226
:102170001F92CDB7DEB720E229831A8241E050E0FA
:10218000BE016F5F7F4FB3DF0F900F90DF91CF9154
:102190000895EF92FF920F931F93CF93DF93CDB7E4
:1021A000DEB728970FB6F894DEBF0FBECDBF7C0117
:1021B000CB014AE08E010F5F1F4FB80132D7F80103
:1021C00001900020E9F73197AF01401B510BB80196
:1021D000C7018DDF28960FB6F894DEBF0FBECDBFC6
:1021E000DF91CF911F910F91FF90EF900895EF92A3
:1021F000FF920F931F93CF93DF93CDB7DEB7649712
:102200000FB6F894DEBF0FBECDBF7C01CB01BA0183
:102210008E010F5F1F4F22E044E0E4D6FC010190E5
:102220000020E9F73197AF01481B590BBC01C701EA
:102230005EDF64960FB6F894DEBF0FBECDBFDF91B0
:10224000CF911F910F91FF90EF9008959CB59F7DC6
:102250009CBD9CB5937F9CBD9CB59C7F9CBD9DB552
:1022600091609DBD682F809137048FD9809149047A
:1022700090914A048230910538F0880F991F880F99
:10228000991F05970197F1F70895CF93DF93C82F12
:10229000D62F80E0DBDF8C2F8F718062AEDCC82F01
:1022A0008D2FABDC81E0D2DF8C2FDF91CF910895B1
:1022B000CF9380E0CBDF81EEA0DCC82F81E0C6DFCA
:1022C0008C2FCF910895CF93C82F80E0BFDF8C2F44
:1022D0008F7193DC8FEF91DCC82F81E0B7DF8C2FFB
:1022E000CF910895EF92FF920F931F93CF93DF93B7
:1022F000182F7B01C42F80E0A9DF812F8F718062AE
:102300007CDCD82F8701CC2331F0F80181918F013B
:1023100074DCC150F8CF81E099DF8D2FDF91CF9130
:102320001F910F91FF90EF90089580E0CCDF81FD29
:1023300009C0682F626080E0A8DF65E070E080E09F
:1023400090E073CA08950F931F93CF938C0186E09A
:10235000BADFC82FC77D0230110531F4C0628BE9A6
:1023600090E0A0E0B0E00DC00130110529F085E556
:1023700090E0A0E0B0E005C0C86081E490E0A0E09B
:10238000B0E08093450490934604A0934704B09333
:1023900048046C2F86E079DF86E095DF91E0C81372
:1023A00090E0892FCF911F910F910895CF93DF93E4
:1023B000009771F0FC0101900020E9F73197AF011F
:1023C000481B590BBC018CE893E037DEEC0102C0DE
:1023D000C0E0D0E05CDE8C0F9D1FDF91CF910895AF
:1023E00083E071DF9FEF980F81E0933008F080E089
:1023F0000895EF92FF920F931F93CF93DF9300D036
:102400001F92CDB7DEB77C01862F4AE08E010F5FA9
:102410001F4FB80190E005D6F80101900020E9F7C0
:102420003197AF01401B510BB801C70160DE0F901F
:102430000F900F900F90DF91CF911F910F91FF9010
:10244000EF9008956115710549F0FB01019000209E
:10245000E9F73197AF01461B570B49CE80E008954D
:10246000EF92FF920F931F93CF93DF93EC017B01C9
:102470008A01BA0115DE2881398181110DC021152B
:10248000310519F0C9010E94C51D198218821D82EB
:102490001C821B821A8206C01D830C83B701C901EE
:1024A0000E943B1FCE01DF91CF911F910F91FF90B2
:1024B000EF900895FC01118210821382128215821E
:1024C000148240E050E062EC72E0CACFCF93DF9319
:1024D000D82FC92FE4D9ED2FFC2FAF0148535F4F00
:1024E00024E1DF01322F1D923A95E9F76083718371
:1024F000828393837496E417F50799F7118210820B
:10250000DF91CF910895CF93DF93CDB7DEB72997B1
:102510000FB6F894DEBF0FBECDBF789484B582604D
:1025200084BD84B5816084BD85B5826085BD85B577
:10253000816085BD80916E00816080936E001092F5
:102540008100809181008260809381008091810070
:102550008160809381008091800081608093800001
:102560008091B10084608093B1008091B00081605F
:102570008093B0008091910082608093910080915F
:1025800091008160809391008091900081608093A0
:1025900090008091A10082608093A1008091A100B1
:1025A00081608093A1008091A00081608093A00051
:1025B00080912101826080932101809121018160BD
:1025C000809321018091200181608093200180917E
:1025D0007A00846080937A0080917A008260809390
:1025E0007A0080917A00816080937A0080917A00ED
:1025F000806880937A001092C10061E082E20E94BC
:10260000F30A61E081E20E94F30A61E080E20E9445
:10261000F30A61E080E30E94F30A61E081E30E9433
:10262000F30A62E083E00E94F30A62E082E00E9423
:10263000F30A62E080919D0A0E94F30A62E08091B1
:102640009F0A0E94F30A62E08091A10A0E94F30AA5
:1026500062E08091A30A0E94F30A61E080E20E9496
:10266000C50AE0919C03F0919D0382E08083E09194
:102670009803F09199031082E0919A03F0919B03E3
:102680008FEC80831092A403E091A003F091A1034A
:1026900086E08083E0919E03F0919F0380818061BA
:1026A0008083E0919E03F0919F0380818860808306
:1026B000E0919E03F0919F03808180688083E09188
:1026C0009E03F0919F0380818F7D808384EA92E056
:1026D0006DDEB6DB80EB92E069DE64E670E080E000
:1026E00090E0A3D860E080E20E94C50A8DE398E004
:1026F000909303028093020280916A008C60809321
:102700006A00ED9A8EED97E09093010280930002AB
:1027100080916A00836080936A00EC9A25E839E032
:1027200044EF51E060E070E083ED99E06DDA28E17C
:102730003AE044EF51E060E070E089E099E064DA6B
:102740002CE938E044EF51E060E070E08FE398E07E
:102750005BDA27ED37E044EF51E060E070E085E7B9
:1027600097E052DA20ED37E044EF51E060E070E0AE
:102770008BEA96E049DA2BEA37E048EE53E060E076
:1027800070E081EE95E040DA21E136E046E950E084
:1027900060E070E087E195E037DA24E933E046E96C
:1027A00050E060E070E08DE494E02EDA412C512C92
:1027B00088EC682E82E4782E81EE95E070DA85E769
:1027C00097E06DDA8BEA96E06ADA0ADE882329F070
:1027D00080918B03882309F4A2C202DE61E068279E
:1027E00082E20E94C50A609121036695617080E3D0
:1027F0000E94C50A6091210362FB662760F981E3AC
:102800000E94C50A4CD87B018C0120E030E0A90170
:102810006983FA820B831C832D833E834F83588701
:1028200060930F03F09210030093110310931203AF
:1028300010921303109214031092150310921603B2
:1028400087E141DD80FF6DC218C081E0FFDC60E7F9
:1028500087E01BDD8091220390E090932603809314
:1028600025038C199D09019790938A03809389030E
:102870008091210381708093880329813A814B8163
:102880005C8160E070E080E090E0A0907703B09021
:102890007803C0907903D0907A03E0907B03F090A6
:1028A0007C0300917D0310917E030E94181DAAE015
:1028B0000E94211D09F070F48091890390918A0390
:1028C00003970CF44AC089E294E085DA8FE294E041
:1028D00082DA43C0F981F0937703EA80E0927803CB
:1028E000FB80F09279030C8100937A0310927B03B2
:1028F00010927C0310927D0310927E0387E30E9466
:10290000F60B8C0188E30E94F60BD801A81BB90BCB
:1029100020E533EC0E94121D2FEF33E040E050E041
:102920001AD7CA01B90104D6E7E7F3E0DF01189727
:102930000D911D912D913C9132932293129302930C
:1029400013E0E732F10791F76093270370932803B0
:102950008093290390932A03AFCF80918803882323
:1029600009F4D0C060E081E30E94C50A809122038F
:10297000882309F4C4C0809187038111C0C080916D
:102980001803282F30E02F36310524F590E0A0E021
:10299000B0E09C01AD012150310941095109A1EB81
:1029A000BFEF01D724E530E040E050E0D4D6CA01C3
:1029B000B901605B7F4F8F4F9F4FBAD560930B0378
:1029C00070930C0380930D0390930E0321E02093EA
:1029D0000A030CC0213931050CF0D7C110920B034A
:1029E00010920C0310920D0310920E0320911E03FF
:1029F000822F90E08F369105ACF49C01A4E6B0E004
:102A0000F8D62FE630E040E050E0A5D6CA01B90183
:102A10008FD5609383037093840380938503909391
:102A2000860314C0813991050CF0D5C1409283030F
:102A300050928403609285037092860340927F03D4
:102A4000509280036092810370928203C0900B03C6
:102A5000D0900C03E0900D03F0900E0320918303BF
:102A6000309184034091850350918603C701B601DC
:102A7000BED520E030E048EC52E42FD74B015C019A
:102A800060930603709307038093080390930903F0
:102A900020917F0330918003409181035091820304
:102AA000C701B601A4D520E030E048EC52E415D7C8
:102AB0006B017C0160930203709303038093040312
:102AC0009093050380910A0381110DC0C501B401E3
:102AD0006CD789E294E0A1D9C701B60166D78FE22D
:102AE00094E09BD90CC0C501B4015FD789E294E0A2
:102AF00081D9C701B60159D78FE294E07BD989E02B
:102B000099E0E5C061E081E30E94C50A809122035B
:102B1000882309F4D6C0809187038111D2C08091A7
:102B20001803282F30E02F36310524F590E0A0E07F
:102B3000B0E09C01AD012150310941095109A1EBDF
:102B4000BFEF31D62EE630E040E050E004D6CA01B7
:102B5000B901605B7F4F8F4F9F4FEAD460930B03A7
:102B600070930C0380930D0390930E0331E0309328
:102B70000A030CC0213931050CF04FC110920B0330
:102B800010920C0310920D0310920E032091190362
:102B900030E02F363105A4F4A4E6B0E02AD62FE6C3
:102BA00030E040E050E0D7D5CA01B901C1D460930C
:102BB00083037093840380938503909386030CC0F2
:102BC000213931050CF04FC14092830350928403A8
:102BD000609285037092860340927F035092800337
:102BE0006092810370928203C0900B03D0900C031B
:102BF000E0900D03F0900E03209183033091840345
:102C00004091850350918603C701B601F0D420E0BE
:102C100030E048EC52E461D66093060370930703FA
:102C2000809308039093090320917F0330918003E0
:102C30004091810350918203C701B601D8D420E0AE
:102C400030E048EC52E449D66093020370930303EA
:102C5000809304039093050380910A03811119C0A6
:102C60006091FE027091FF02809100039091010338
:102C70009CD689E294E0D1D86091FA027091FB026F
:102C80008091FC029091FD0290D68FE294E0C5D82D
:102C900018C06091FE027091FF0280910003909134
:102CA000010383D689E294E0A5D86091FA0270917D
:102CB000FB028091FC029091FD0277D68FE294E0B6
:102CC00099D88FE398E00E944F0E8DE494E00E9423
:102CD0004F0E80911803811110C080911703882333
:102CE00061F080911903811108C080911A0381114C
:102CF00004C041E04093870302C010928703809193
:102D00008703882311F061E001C060E082E20E9445
:102D1000C50A66DB80938B030E94B8024DCD90D824
:102D20005CCDC0902503D0902603D0922403C0929E
:102D3000230390913C049C3030F10CE00987809192
:102D40003D04811104C0F92E1985F11A01C0F12C3E
:102D500080E07CDA81E60E94FD0D07E113E0298521
:102D6000215029872F3F39F08FEF0E94FD0DF80188
:102D700081938F01F4CFFF2009F467CD8FEF0E947C
:102D8000FD0DFA94F8CF9987DACF2B5A3109C90192
:102D9000330FAA0BBB0B9C01AD0121503109410936
:102DA0005109AFE4B0E0F3D424E530E040E050E076
:102DB000D2D4CA01B9016F5F7F4F8F4F9F4FB8D3F5
:102DC00060930B0370930C0380930D0390930E0399
:102DD00010920A030BCE822F90E0A0E0B0E09C019D
:102DE000AD012159310941095109ACE9BFEFDBD4EB
:102DF0002EE630E040E050E0AED4CA01B9016C5993
:102E00007F4F8F4F9F4F94D360937F0370938003C6
:102E1000809381039093820319CE21593109C9010E
:102E2000330FAA0BBB0B9C01AD01215031094109A5
:102E30005109AFE4B0E0ABD42EE630E040E050E022
:102E40008AD4CA01B9016F5F7F4F8F4F9F4F70D3F4
:102E500060930B0370930C0380930D0390930E0308
:102E600010920A0393CE2159310956EF5203B00153
:102E7000539F700D11246C597F4F072E000C880B47
:102E8000990B56D360937F037093800380938103E3
:102E9000909382034092830350928403609285034F
:102EA00070928603A1CECF93DF93ECE8F3E0138218
:102EB000128288EE93E0A0E0B0E084839583A6833D
:102EC000B78380E292E09183808385EC90E09587E0
:102ED000848784EC90E09787868780EC90E0918BE4
:102EE000808B81EC90E0938B828B82EC90E0958BD1
:102EF000848B86EC90E0978B868B118E128E138ECE
:102F0000148EEDE9FAE08CE180838DE182838EE11D
:102F100084838FE1868383ED99E0D8DA89E099E0B4
:102F2000D5DA8FE398E0D2DA85E797E0CFDA8BEA5B
:102F300096E0CCDA81EE95E0C9DA87E195E0C6DA71
:102F40008DE494E0C3DAE5E3F4E087E090E0918378
:102F5000808388E090E093838283168280E2878377
:102F6000108685E0868785E090E0A0E0B0E0848B65
:102F7000958BA68BB78B1186CFE2D4E089E290E0E7
:102F80009983888388E290E09B838A838DE290E036
:102F90009D838C8361E089E20E94F30A61E08A816B
:102FA0000E94F30A61E08C810E94F30AC9E2D4E036
:102FB0008BE290E0998388838AE290E09B838A8306
:102FC0008CE290E09D838C8361E08BE20E94F30AA7
:102FD00061E08A810E94F30A61E08C81DF91CF91E8
:102FE0000C94F30AEF920F931F93CF93DF93E801B2
:102FF00047FD02C034E001C034E1042E000C550B43
:1030000057FF03C0519541955109E32E022F242FFC
:10301000AE012AD0CE01DF91CF911F910F91EF9099
:103020000895BB274A3031F4992322F4BDE29095EC
:1030300081959F4F01C0BB27FB015527AA27880F09
:10304000991FAA1FA41710F0A41B83955051B9F71C
:10305000A05DAA3308F0A95DA193009779F7B1119B
:10306000B1931192CB014EC28F929F92AF92BF92B9
:10307000CF92DF92EF92FF920F931F93CF93DF9344
:10308000CDB7DEB729970FB6F894DEBF0FBECDBF20
:103090006A01122FB02E2BE3201720F0FF24F394A7
:1030A000F00E02C02CE3F22E0F2D27E0AE014F5F91
:1030B0005F4F50D1BC014981842F8970813031F03C
:1030C000E1FC06C0E0FE06C090E205C09DE203C040
:1030D0009BE201C090E05E2D507143FF3CC0911116
:1030E00002C083E001C084E0811718F4212F281B5F
:1030F00001C020E051110BC0F601822F30E288237D
:1031000019F031938150FBCFC20ED11C20E09923DE
:1031100029F0D6019C93F60131966F01C601039602
:10312000E2FE0AC03EE4D6013C9341E411964C9382
:10313000119712963C9306C03EE6F601308341E6B5
:1031400041833283FC01322F40E2332309F442C031
:1031500041933150FACF42FF44C0911102C083E045
:1031600001C084E0811718F4212F281B01C020E042
:1031700051110BC0F601822F30E2882319F03193F0
:103180008150FBCFC20ED11C20E0992329F0D6013B
:103190009C93F60131966F01C6010396E2FE0BC0C7
:1031A00039E4D6013C933EE411963C93119736E402
:1031B00012963C9307C039E6F60130833EE6318330
:1031C00036E63283FC01322F40E2332319F041937B
:1031D0003150FBCFFC01E20FF11D10828EEF9FEF0B
:1031E000A6C021E030E0911102C020E030E01616C8
:1031F00017061CF4FB01319602C0E1E0F0E02E0F4F
:103200003F1FBB2021F0EB2DF0E0319602C0E0E043
:10321000F0E02E0F3F1FE12FF0E02E173F071CF4C8
:10322000121B212F01C020E08E2D887159F4F60168
:10323000822F30E2882319F031938150FBCFC20EE8
:10324000D11C20E0992329F0D6019C93F6013196F8
:103250006F0151110BC0F601822F90E3882319F002
:1032600091938150FBCFC20ED11C20E00F2D060F91
:103270009A81342F307144FF03C0913309F4015017
:10328000101624F4093018F008E001C001E0AB0189
:1032900077FF02C040E050E0FB01E41BF50BA1E02A
:1032A000B0E0AC0FBD1FEA0FFB1F8EE2A82E4B0152
:1032B000801A91080B2D10E01195019511094F3FCF
:1032C000BFEF5B0721F4D601AC9211966D01641734
:1032D00075072CF08416950614F4818101C080E3F3
:1032E000415051093196D60111967D014017510781
:1032F00024F0D6018C936701E2CF6417750739F487
:10330000963320F4953319F4311101C081E3F601AD
:103310008083F701822F90E2882319F091938150E6
:10332000FBCFF701E20FF11D108280E090E02996BB
:103330000FB6F894DEBF0FBECDBFDF91CF911F91C6
:103340000F91FF90EF90DF90CF90BF90AF909F9044
:103350008F900895283008F027E03327DA01990F7D
:10336000311D87FD916000966105710539F4326069
:103370002E5F3D9330E32A95E1F708959F3F30F0AB
:1033800080387105610509F03C5F3C5F3D939130E9
:1033900008F08068911DDF93CF931F930F93FF92E6
:1033A000EF92192F987F9695E92F96959695E90FAC
:1033B000FF27EA57FE4F99273327EE24FF24A70162
:1033C000E70105900894079428F4360FE71EF81ECD
:1033D000491F511D660F771F881F991F0694A1F77B
:1033E0000590079428F4E70EF81E491F561FC11DCB
:1033F000770F881F991F661F0694A1F70590079401
:1034000028F4F80E491F561FC71FD11D880F991F9A
:10341000661F771F0694A1F70590079420F4490FC3
:10342000561FC71FD81F990F661F771F881F069446
:10343000A9F784911095177041F0D695C7955795C7
:103440004795F794E7941A95C1F7ECE2F1E0689498
:103450001590159135916591959105907FE2739541
:10346000E118F10A430B560BC90BD009C0F7E10C68
:10347000F11E431F561FC91FD01D7EF4703311F477
:103480008A95E6CFE894015030F0080F0AF400273F
:10349000021708F4202F2395022F7A3328F079E3BE
:1034A0007D932A95E9F710C07D932A9589F60694B5
:1034B00097956795379517951794E118F10A430B7F
:1034C000560BC90BD00998F023957E9173957A33EA
:1034D00008F070E37C932013B8F77E9170617D93C0
:1034E00030F0839571E37D9370E32A95E1F7112421
:1034F000EF90FF900F911F91CF91DF91992787FD5A
:1035000090950895DC01FC01672F71917723E1F715
:10351000329704C07C916D9370836291AE17BF07A0
:10352000C8F3089540D008F481E00895E89409C0F4
:1035300097FB3EF490958095709561957F4F8F4FE6
:103540009F4F9923A9F0F92F96E9BB279395F695FC
:10355000879577956795B795F111F8CFFAF4BB0F7A
:1035600011F460FF1BC06F5F7F4F8F4F9F4F16C0DE
:10357000882311F096E911C0772321F09EE8872F68
:10358000762F05C0662371F096E8862F70E060E024
:103590002AF09A95660F771F881FDAF7880F96959D
:1035A000879597F90895990F0008550FAA0BE0E841
:1035B000FEEF16161706E807F907C0F012161306F5
:1035C000E407F50798F0621B730B840B950B39F435
:1035D0000A2661F0232B242B252B21F408950A269B
:1035E00009F4A140A6958FEF811D811D08950BD090
:1035F00078C069D028F06ED018F0952309F05AC031
:103600005FC01124A2C07ED0A0F3959FD1F3950F87
:1036100050E0551F629FF001729FBB27F00DB11D56
:10362000639FAA27F00DB11DAA1F649F6627B00DE6
:10363000A11D661F829F2227B00DA11D621F739FCF
:10364000B00DA11D621F839FA00D611D221F749FDD
:103650003327A00D611D231F849F600D211D822F24
:10366000762F6A2F11249F5750408AF0E1F088236B
:103670004AF0EE0FFF1FBB1F661F771F881F915078
:103680005040A9F79E3F510570F014C05EC05F3FE7
:10369000ECF3983EDCF3869577956795B795F795AB
:1036A000E7959F5FC1F7FE2B880F911D9695879533
:1036B00097F9089597F99F6780E870E060E00895B2
:1036C0009FEF80EC089500240A941616170618063A
:1036D0000906089500240A94121613061406050616
:1036E0000895092E0394000C11F4882352F0BB0FA7
:1036F00040F4BF2B11F460FF04C06F5F7F4F8F4F0A
:103700009F4F089557FD9058440F551F59F05F3F44
:1037100071F04795880F97FB991F61F09F3F79F0F3
:1037200087950895121613061406551FF2CF469575
:10373000F1DF08C0161617061806991FF1CF8695F7
:103740007105610508940895E894BB2766277727DB
:10375000CB0197F90895052E97FB16F400940FD02E
:1037600057FD05D024D007FC02D046F408C0509580
:103770004095309521953F4F4F4F5F4F089590955D
:103780008095709561957F4F8F4F9F4F089531D0F1
:10379000A59F900DB49F900DA49F800D911D1124A5
:1037A0000895B7FFF4CFF3DF821B930B0895A1E2D6
:1037B0001A2EAA1BBB1BFD010DC0AA1FBB1FEE1FAB
:1037C000FF1FA217B307E407F50720F0A21BB30BF6
:1037D000E40BF50B661F771F881F991F1A9469F772
:1037E00060957095809590959B01AC01BD01CF01CE
:1037F0000895A29FB001B39FC001A39F700D811DCA
:103800001124911DB29F700D811D1124911D0895E9
:103810005058BB27AA270ED064CF55DF30F05ADFAF
:1038200020F031F49F3F11F41EF44ACF0EF4E095DE
:10383000E7FB40CFE92F66DF80F3BA176207730713
:103840008407950718F071F49EF57ECF0EF4E0958D
:103850000B2EBA2FA02D0B01B90190010C01CA014A
:10386000A0011124FF27591B99F0593F50F4503EF5
:1038700068F11A16F040A22F232F342F4427585FE7
:10388000F3CF469537952795A795F0405395C9F7FF
:103890007EF41F16BA0B620B730B840BBAF09150B7
:1038A000A1F0FF0FBB1F661F771F881FC2F70EC056
:1038B000BA0F621F731F841F48F487957795679529
:1038C000B795F7959E3F08F0B3CF9395880F08F012
:1038D0009927EE0F9795879508950CD002CFFADEC1
:1038E00040F0F1DE30F021F45F3F19F0E3CE5111EA
:1038F0002CCFE6CE07DF98F39923C9F35523B1F314
:10390000951B550BBB27AA2762177307840738F04E
:103910009F5F5F4F220F331F441FAA1FA9F333D0AD
:103920000E2E3AF0E0E830D091505040E695001C61
:10393000CAF729D0FE2F27D0660F771F881FBB1F1D
:10394000261737074807AB07B0E809F0BB0B802DF7
:10395000BF01FF2793585F4F2AF09E3F510568F043
:10396000A9CEF3CE5F3FECF3983EDCF386957795D6
:103970006795B795F7959F5FC9F7880F911D969545
:10398000879597F90895E1E0660F771F881FBB1FA1
:10399000621773078407BA0720F0621B730B840B4E
:1039A000BA0BEE1F88F7E095089504D06894B11122
:1039B000CCCE0895AFDE88F09F5790F0B92F9927AD
:1039C000B751A0F0D1F0660F771F881F991F1AF02A
:1039D000BA95C9F712C0B13081F0B6DEB1E00895F2
:1039E000B3CE672F782F8827B85F39F0B93FCCF373
:1039F000869577956795B395D9F73EF49095809520
:103A0000709561957F4F8F4F9F4F0895CCDD08F4DF
:103A10008FEF0895EE0FFF1F881F8BBF0790F69161
:103A2000E02D1994E6DEB7FF0895821B930B0895ED
:103A30002A193B094C095D096E097F09800B910B1E
:103A400008950024A7FD00942A173005400550056D
:103A5000600570058005900508950F931F93CF931F
:103A6000DF938230910510F482E090E0E091A70AA4
:103A7000F091A80A20E030E0A0E0B0E0309719F122
:103A8000408151810281138148175907C8F084177A
:103A9000950769F4109731F012960C9312971396CC
:103AA0001C9327C00093A70A1093A80A22C02115CF
:103AB000310519F04217530718F49A01BD01EF01BF
:103AC000DF01F801DBCF21153105F9F0281B390B97
:103AD0002430310580F48A819B816115710521F0C4
:103AE000FB019383828304C09093A80A8093A70A62
:103AF000FE01329644C0FE01E20FF31F81939193C1
:103B000022503109398328833AC02091A50A309187
:103B1000A60A232B41F42091120230911302309314
:103B2000A60A2093A50A20911002309111022115B6
:103B3000310541F42DB73EB7409114025091150262
:103B4000241B350BE091A50AF091A60AE217F307B2
:103B5000A0F42E1B3F0B2817390778F0AC014E5FFD
:103B60005F4F2417350748F04E0F5F1F5093A60A8A
:103B70004093A50A8193919302C0E0E0F0E0CF0169
:103B8000DF91CF911F910F910895CF93DF9300970D
:103B900009F481C0FC01329713821282A091A70A16
:103BA000B091A80A109781F420813181820F931F70
:103BB0002091A50A3091A60A2817390751F5F093EC
:103BC000A60AE093A50A67C0ED0120E030E0CE1719
:103BD000DF0740F44A815B819E0141155105F1F0F8
:103BE000EA01F5CFD383C28340815181840F951FB1
:103BF000C817D90759F488819981840F951F0296B7
:103C0000918380838A819B819383828321153105EF
:103C100029F4F093A80AE093A70A3DC0E901FB83C9
:103C2000EA8349915991C40FD51FEC17FD0761F440
:103C300080819181840F951F0296E9019983888381
:103C4000828193819B838A83E0E0F0E012968D91DC
:103C50009C911397009719F0FD01DC01F7CF8D912E
:103C60009C9111979D012E5F3F4F820F931F2091D2
:103C7000A50A3091A60A2817390769F4309729F464
:103C80001092A80A1092A70A02C013821282B0935F
:103C9000A60AA093A50ADF91CF9108956F927F9213
:103CA0008F929F92AF92BF92CF92DF92EF92FF924C
:103CB0000F931F93CF93DF93009781F4CB01DF9194
:103CC000CF911F910F91FF90EF90DF90CF90BF9019
:103CD000AF909F908F907F906F90BFCEFC01E60FCA
:103CE000F71F9C0122503109E217F30708F4A5C021
:103CF000EC01D9010D911C91119706171707A8F037
:103D00000530110508F497C0C80104978617970776
:103D100008F491C002501109061B170B019311936F
:103D20006D937C93CF0131DF86C05B01A01AB10A8D
:103D30004C01800E911EA091A70AB091A80A612C97
:103D4000712CE12CF12C109709F446C08D919C91B7
:103D50001197A815B905B1F56C0142E0C40ED11C4C
:103D6000CA14DB0478F14C018A189B08640142E014
:103D7000C40ED11C1296BC9012971396AC91B5E06C
:103D8000CB16D10440F0B282A38391828082D90104
:103D90006D937C9309C00E5F1F4F800F911FF90137
:103DA00091838083EB2DFA2FE114F10431F0D701D8
:103DB0001396FC93EE9312973EC0F093A80AE093FB
:103DC000A70A39C06816790608F43C017D011296ED
:103DD0000D90BC91A02DB7CF8091A50A9091A60A15
:103DE00088169906E1F466167706C8F480911002E9
:103DF00090911102009741F48DB79EB74091140243
:103E000050911502841B950BE817F907B0F4F09355
:103E1000A60AE093A50AF901718360830CC0CB0167
:103E20001CDE7C01009749F0A801BE011BD0CE0129
:103E3000ACDEC70104C0CE0102C080E090E0DF919B
:103E4000CF911F910F91FF90EF90DF90CF90BF9097
:103E5000AF909F908F907F906F90089581E090E059
:103E6000F89410C0FB01DC0102C001900D9241509A
:103E70005040D8F70895FB01DC0101900D9200201D
:083E8000E1F70895F894FFCF6B
:103E8800930393039303930393039303930393037A
:103E98000000A90A8000314E6F64653100000000FF
:103EA8004B021D10E30197021402F2010602445A64
:103EB800203D20000976656C6F203D205B002C209A
:103EC800005D096572726F72203D205B005D0949D3
:103ED800203D5B005D0964203D205B005D09505773
:103EE8004D203D205B005D004C5F593A0020525F39
:103EF800583A002046574400204257440020535F58
:103F0800473A0020535F4C3A0020535F523A002052
:103F1800535F4C5F4D3A0020455F4C3A00205057A4
:103F28004D5F4C005374617274696E672E2E2E00BB
:103F3800536574757020636F6D706C65746564008B
:043F48000D0A00005E
:020000023000CC
:10E000000D9489F10D94B2F10D94B2F10D94B2F129
:10E010000D94B2F10D94B2F10D94B2F10D94B2F1F0
:10E020000D94B2F10D94B2F10D94B2F10D94B2F1E0
:10E030000D94B2F10D94B2F10D94B2F10D94B2F1D0
:10E040000D94B2F10D94B2F10D94B2F10D94B2F1C0
:10E050000D94B2F10D94B2F10D94B2F10D94B2F1B0
:10E060000D94B2F10D94B2F10D94B2F10D94B2F1A0
:10E070000D94B2F10D94B2F10D94B2F10D94B2F190
:10E080000D94B2F10D94B2F10D94B2F10D94B2F180
:10E090000D94B2F10D94B2F10D94B2F10D94B2F170
:10E0A0000D94B2F10D94B2F10D94B2F10D94B2F160
:10E0B0000D94B2F10D94B2F10D94B2F10D94B2F150
:10E0C0000D94B2F10D94B2F10D94B2F10D94B2F140
:10E0D0000D94B2F10D94B2F10D94B2F10D94B2F130
:10E0E0000D94B2F141546D656761323536300041AF
:10E0F000726475696E6F206578706C6F72657220DE
:10E1000073746B3530305632206279204D4C530099
:10E11000426F6F746C6F616465723E004875683F52
:10E1200000436F6D70696C6564206F6E203D200048
:10E130004350552054797065202020203D20005FF9
:10E140005F4156525F415243485F5F3D2000415658
:10E1500052204C696243205665723D20004743437C
:10E160002056657273696F6E203D20004350552024
:10E1700049442020202020203D20004C6F7720663D
:10E18000757365202020203D20004869676820665F
:10E190007573652020203D200045787420667573D6
:10E1A00065202020203D20004C6F636B2066757336
:10E1B000652020203D20004D617220203720323024
:10E1C000313300312E362E3800342E332E350056A2
:10E1D00023202020414444522020206F7020636F70
:10E1E00064652020202020696E73747275637469E1
:10E1F0006F6E2061646472202020496E74657272B3
:10E20000757074006E6F20766563746F7200726A49
:10E210006D702020006A6D70200057686174207056
:10E220006F72743A00506F7274206E6F7420737541
:10E2300070706F72746564004D7573742062652030
:10E2400061206C6574746572002000577269747483
:10E25000696E672045450052656164696E672045B7
:10E26000450045452065727220636E743D00504F35
:10E27000525400303D5A65726F2061646472003FF1
:10E280003D43505520737461747300403D454550C3
:10E29000524F4D207465737400423D426C696E6B41
:10E2A000204C454400453D44756D70204545505215
:10E2B0004F4D00463D44756D7020464C415348001B
:10E2C000483D48656C70004C3D4C69737420492F83
:10E2D0004F20506F72747300513D51756974005234
:10E2E0003D44756D702052414D00563D73686F7707
:10E2F00020696E7465727275707420566563746FF0
:10E30000727300593D506F727420626C696E6B00BD
:10E310002A0011241FBECFEFD1E2DEBFCDBF01E046
:10E320000CBF12E0A0E0B2E0EEE1FDEF03E00BBFB6
:10E3300002C007900D92A030B107D9F712E0A0E01B
:10E34000B2E001C01D92AE30B107E1F70F9460F367
:10E350000D948DFE01E20EBF0FEF0DBF11241FBE05
:10E360000D9460F30D9400F020E030E040ED57E0B4
:10E3700005C0FA013197F1F72F5F3F4F2817390792
:10E38000C0F308959C01260F311DC901A0E0B0E043
:10E390002F5F3F4FABBFFC018791882361F08093D3
:10E3A000C6008091C00086FFFCCF8091C0008064D1
:10E3B0008093C000EACF08958DE08093C6008091DD
:10E3C000C00086FFFCCF8091C00080648093C000B5
:10E3D0008AE08093C6008091C00086FFFCCF8091C8
:10E3E000C00080648093C00008950F94C2F10F9420
:10E3F000DCF10895FC019081992359F09093C600B7
:10E400008091C00086FFFCCF8091C0008064809323
:10E41000C0003196992379F70895282F982F929567
:10E420009F70892F805D8A3308F0895F8093C600D2
:10E430008091C00086FFFCCF8091C00080648093F3
:10E44000C000822F8F70982F905D9A3308F0995FEB
:10E450009093C6008091C00086FFFCCF8091C000E1
:10E4600080648093C00008959C01FB01853691056E
:10E470001CF46330710594F0C90164E670E00F94F8
:10E480002EFE605D7F4F6093C6008091C00086FFC6
:10E49000FCCF8091C00080648093C0002B30310598
:10E4A00014F43297B4F0C90164E670E00F942EFEC4
:10E4B0006AE070E00F942EFE605D7F4F6093C600AF
:10E4C0008091C00086FFFCCF8091C0008064809363
:10E4D000C000C9016AE070E00F942EFEC0968093E0
:10E4E000C6008091C00086FFFCCF8091C000806490
:10E4F0008093C00008951F93182F8EE692EE60E07F
:10E500000F94C2F11093C6008091C00086FFFCCF2B
:10E510008091C00080648093C0000F94DCF11F9153
:10E5200008952F923F924F925F926F927F928F92B7
:10E530009F92AF92BF92CF92DF92EF92FF920F9392
:10E540001F93DF93CF93CDB7DEB762970FB6F894E2
:10E55000DEBF0FBECDBF382E622ECA01DB015C01CB
:10E560006D01772420E2222E2E010894411C511CBB
:10E570008BC081E0A81680E0B80681E0C80680E084
:10E58000D80628F0C601AA27BB270F940DF2BB2797
:10E59000AD2D9C2D8B2D0F940DF28A2D0F940DF225
:10E5A0002092C6008091C00086FFFCCF8091C00001
:10E5B00080648093C0009DE29093C6008091C0006B
:10E5C00086FFFCCF8091C00080648093C0002092C1
:10E5D000C6008091C00086FFFCCF8091C00080649F
:10E5E0008093C00019828601750188249924A1E0D6
:10E5F0003A1651F03A1620F0B2E03B1661F409C029
:10E600000BBFF701779007C0C7010F9477FE782EF4
:10E6100002C0F7017080872D0F940DF22092C60082
:10E620008091C00086FFFCCF8091C0008064809301
:10E63000C000872D8052F401EF70F0708F3520F408
:10E64000E40DF51D708204C0E40DF51D8EE280839B
:10E650000894E11CF11C011D111D0894811C911CE2
:10E6600090E18916910409F0C2CF80E190E0A0E02A
:10E67000B0E0A80EB91ECA1EDB1E198AC2010F9493
:10E68000FAF10F94DCF16A94662009F072CF629679
:10E690000FB6F894DEBF0FBECDBFCF91DF911F91B3
:10E6A0000F91FF90EF90DF90CF90BF90AF909F9031
:10E6B0008F907F906F905F904F903F902F90089534
:10E6C0002F923F924F925F926F927F928F929F9282
:10E6D000AF92BF92CF92DF92EF92FF920F931F9370
:10E6E000DF93CF93CDB7DEB7CD53D1400FB6F894BB
:10E6F000DEBF0FBECDBF01E20EBF0FEF0DBF94B75F
:10E70000F894A89514BE80916000886180936000A1
:10E7100010926000789493FF05C0E0910002F091A0
:10E7200001021995279A2F9A8091C00082608093E8
:10E73000C00080E18093C40088E18093C1000000A4
:10E74000EE24FF24870144E0A42EB12CCC24DD2448
:10E7500024C0C5010197F1F70894E11CF11C011DCB
:10E76000111D21E2E2162EE4F20620E0020720E06D
:10E77000120718F031E0C32ED12CC801B70127ECE5
:10E780003BE140E050E00F9441FE611571058105C9
:10E79000910519F485B1805885B98091C00087FD35
:10E7A00003C0C114D104A9F2A6014F5F5F4FC25E3E
:10E7B000DE4F59834883CE51D140C25EDE4F8881FF
:10E7C0009981CE51D140019711F00D9410FEC05D9A
:10E7D000DE4F19821882C053D14060E0C15DDE4F28
:10E7E0001882CF52D14088249924C35DDE4F19820C
:10E7F0001882CD52D140C05EDE4F188219821A8233
:10E800001B82C052D140CE5CDE4F188219821A8220
:10E810001B82C253D140EE24FF2487010BBFF701B6
:10E8200007911691C45CDE4F19830883CC53D14005
:10E830000D940BFEC25EDE4F28813981CE51D1404E
:10E840002130310509F52091C600C25EDE4F1982E4
:10E850001882CE51D14022C02F5F3F4F4F4F5F4FA4
:10E86000213082E138078AE7480780E0580780F0C6
:10E87000C45CDE4FE881F981CC53D140EF5FFF4F9C
:10E8800019F0EE27FF27099420E030E040E050E047
:10E890008091C00087FFE0CF2091C600C35DDE4FAE
:10E8A00048815981CD52D1404F5F5F4FC35DDE4FEC
:10E8B00059834883CD52D140213209F063C64A3092
:10E8C000510508F05FC60894811C911C53E0851621
:10E8D000910409F059C600E010E018C081E280936D
:10E8E000C6008091C00086FFFCCF8091C00080648C
:10E8F0008093C0002F5F3F4F2931310579F70F9486
:10E90000DCF10F5F1F4F0530110519F020E030E0FA
:10E91000E5CF10920A0210920B0210920C02109294
:10E920000D02109206021092070210920802109235
:10E930000902109202021092030210920402109235
:10E9400005028FEE90EE60E00F94F5F180E191EE1C
:10E9500060E00F94C2F18091C00087FFFCCF9091DE
:10E96000C600903608F09F759032B8F09093C600BC
:10E970008091C00086FFFCCF8091C00080648093AE
:10E98000C000A0E2A093C6008091C00086FFFCCF2B
:10E990008091C00080648093C000983409F4D7C18E
:10E9A0009934B8F4923409F459C1933458F490333B
:10E9B00019F1903308F4E3C59F33A1F1903409F0C5
:10E9C000DEC5BDC0953409F470C1963409F0D7C5D1
:10E9D00098C1923509F42BC2933538F49C3409F46C
:10E9E000F5C1913509F0CBC518C2963509F445C279
:10E9F000993509F0C4C567C483E792EE62E00F94CD
:10EA0000F5F110920602109207021092080210927D
:10EA1000090210920A0210920B0210920C0210923C
:10EA20000D0213C18FE792EE62E00F94F5F18FEEC5
:10EA300090EE60E00F94F5F181E291EE60E00F94CA
:10EA4000C2F187EB91EE60E00F94F5F180E391EE77
:10EA500060E00F94C2F184EE90EE60E00F94F5F167
:10EA60008FE391EE60E00F94C2F186E090E061E008
:10EA700070E00F9434F20F94DCF18DE591EE60E0DC
:10EA80000F94C2F189EC91EE60E00F94F5F18EE401
:10EA900091EE60E00F94C2F183EC91EE60E00F9490
:10EAA000F5F18CE691EE60E00F94C2F18EE10F94E7
:10EAB0000DF288E90F940DF281E00F940DF20F949E
:10EAC000DCF18BE791EE60E00F94C2F119E0E0E039
:10EAD000F0E010935700E4918E2F0F940DF20F94F5
:10EAE000DCF18AE891EE60E00F94C2F1E3E0F0E03F
:10EAF00010935700E4918E2F0F940DF20F94DCF1D8
:10EB000089E991EE60E00F94C2F1E2E0F0E0109349
:10EB10005700E4918E2F0F940DF20F94DCF188EAE8
:10EB200091EE60E00F94C2F1E1E0F0E01093570045
:10EB30001491812F0F940DF20F94DCF107CF8BE825
:10EB400092EE62E00F94F5F18BE492EE60E00F94A8
:10EB5000F5F10F94DCF100E010E019C0C8016F2D51
:10EB60000F947FFEFF2031F489E492EE60E00F9471
:10EB7000C2F10BC0F092C6008091C00086FFFCCFAE
:10EB80008091C00080648093C0000F5F1F4FC80158
:10EB900081519F41A0E0B0E0ABBFFC01F790BAE229
:10EBA000FB1621F0E2E000301E07C1F60F94DCF105
:10EBB0000F94DCF187E592EE60E00F94F5F10F948D
:10EBC000DCF1CC24DD2400E010E01EC0C8010F946D
:10EBD00077FEF82E882331F489E492EE60E00F94FA
:10EBE000C2F10BC08093C6008091C00086FFFCCFAD
:10EBF0008091C00080648093C000FE1419F00894D6
:10EC0000C11CD11C0F5F1F4FC80181519F41A0E063
:10EC1000B0E0ABBFFC01E790FAE2EF1621F022E092
:10EC20000030120799F60F94DCF10F94DCF182E6C4
:10EC300092EE60E00F94C2F1C60161E070E00F94C3
:10EC400034F20F94DCF10F94DCF110920202109276
:10EC50000302109204021092050278CE89E992EE26
:10EC600062E00F94F5F1279A2F9A16C02F9880E052
:10EC700090E0E0EDF7E03197F1F7019684369105E9
:10EC8000C1F72F9A80E090E0E0EDF7E03197F1F7DF
:10EC9000019684369105C1F78091C00087FFE6CFC9
:10ECA0008091C00087FFFCCF64C485EA92EE62E0E9
:10ECB0000F94F5F140910202509103026091040219
:10ECC0007091050281E020E10F9491F2809102029F
:10ECD00090910302A0910402B091050280509F4FD1
:10ECE000AF4FBF4F8093020290930302A0930402A0
:10ECF000B093050280509041A040B04008F426CE69
:10ED0000A4CF83EB92EE62E00F94F5F140910602FE
:10ED100050910702609108027091090280E020E1A1
:10ED20000F9491F28091060290910702A09108023F
:10ED3000B091090280509F4FAF4FBF4F80930602A2
:10ED400090930702A0930802B0930902FFCD80ECD4
:10ED500092EE62E00F94F5F183E792EE60E00F949B
:10ED6000F5F18FE792EE60E00F94F5F18BE892EE0B
:10ED700060E00F94F5F189E992EE60E00F94F5F10F
:10ED800085EA92EE60E00F94F5F183EB92EE60E09D
:10ED90000F94F5F180EC92EE60E00F94F5F187ECC2
:10EDA00092EE60E00F94F5F188ED92EE60E00F9442
:10EDB000F5F18FED92EE60E00F94F5F18AEE92EEB0
:10EDC00060E00F94F5F183E093EEBDCD87EC92EE19
:10EDD00062E00F94F5F181E40F947BF282E40F94EA
:10EDE0007BF283E40F947BF284E40F947BF285E45E
:10EDF0000F947BF286E40F947BF287E40F947BF20E
:10EE000088E40F947BF28AE40F947BF28BE40F94F6
:10EE10007BF28CE40F947BF299CD88ED92EE62E068
:10EE20000F94F5F1772473948824992409C48FED05
:10EE300092EE62E00F94F5F140910A0250910B02BC
:10EE400060910C0270910D0282E020E10F9491F22A
:10EE500080910A0290910B02A0910C02B0910D02D8
:10EE600080509F4FAF4FBF4F80930A0290930B0289
:10EE7000A0930C02B0930D0269CD8AEE92EE62E08F
:10EE80000F94F5F184EE90EE60E00F94F5F18FECC5
:10EE900091EE60E00F94F5F1662477244301CC5D98
:10EEA000DE4F19821882C452D140D401C301B695F5
:10EEB000A79597958795CA5DDE4F88839983AA8326
:10EEC000BB83C652D140CC5DDE4FA881B981C4520C
:10EED000D1401196CC5DDE4FB983A883C452D14096
:10EEE000CD0162E070E00F9434F2B0E2B093C6005E
:10EEF0008091C00086FFFCCF8091C0008064809329
:10EF0000C000EDE2E093C6008091C00086FFFCCF18
:10EF10008091C00080648093C000F0E2F093C6004E
:10EF20008091C00086FFFCCF8091C00080648093F8
:10EF3000C000CA5DDE4FE880F9800A811B81C6529D
:10EF4000D140BB27A12F902F8F2D0F940DF2CA5DBA
:10EF5000DE4F8881C652D1400F940DF2B0E2FB2EF5
:10EF6000F092C6008091C00086FFFCCF8091C00067
:10EF700080648093C0000DE30093C6008091C000C0
:10EF800086FFFCCF8091C00080648093C00010E2B7
:10EF90001093C6008091C00086FFFCCF8091C00016
:10EFA00080648093C0008BBEF3012791C65DDE4F65
:10EFB0002883CA52D140A22EBB24CC24DD2408943D
:10EFC000611C711C811C911C8BBEF3018791282E42
:10EFD0003324442455240894611C711C811C911C09
:10EFE0008BBEF3013791C55DDE4F3883CB52D140E4
:10EFF0000894611C711C811C911C8BBEF30147910C
:10F00000C45DDE4F4883CC52D140ADEFEA2EAFEF66
:10F01000FA2EAFEF0A2FAFEF1A2F6E0C7F1C801E57
:10F02000911E142D032DF22CEE24EA0CFB1C0C1D5A
:10F030001D1D0F940DF220E22093C6008091C000A8
:10F0400086FFFCCF8091C00080648093C000C65DC5
:10F05000DE4F8881CA52D1400F940DF230E23093D6
:10F06000C6008091C00086FFFCCF8091C000806404
:10F070008093C000C45DDE4F8881CC52D1400F9494
:10F080000DF240E24093C6008091C00086FFFCCFA5
:10F090008091C00080648093C000C55DDE4F888190
:10F0A000CB52D1400F940DF250E25093C6008091A4
:10F0B000C00086FFFCCF8091C00080648093C000B8
:10F0C0008FEFE8168FEFF80680E0080780E018075A
:10F0D00031F484E092EE60E00F94C2F1DFC0D80119
:10F0E000C7018070907CA070B0708050904CA040A0
:10F0F000B040D1F52FEF3FE340E050E0E222F322B1
:10F1000004231523CA5DDE4FA880B980CA80DB8046
:10F11000C652D140AE0CBF1CC01ED11EAA0CBB1CD7
:10F12000CC1CDD1C8EE092EE60E00F94C2F1BB2798
:10F13000A12F902F8F2D0F940DF28E2D0F940DF285
:10F1400030E23093C6008091C00086FFFCCF8091F2
:10F15000C00080648093C0004EE34093C60080915D
:10F16000C00086FFFCCF87C08EE09EEFA0E0B0E03D
:10F17000E822F9220A231B239CE0E91694E9F90608
:10F1800090E0090790E0190709F088C0C45DDE4FE0
:10F19000A881CC52D140EA2EFF2400E010E0102FCD
:10F1A0000F2DFE2CEE24C55DDE4FB881CB52D14031
:10F1B000EB0EF11C011D111DD601C501817090706F
:10F1C000A070B070DC0199278827E80EF91E0A1F8D
:10F1D0001B1F20EF30E040E050E0A222B322C42207
:10F1E000D52241E1AA0CBB1CCC1CDD1C4A95D1F7F1
:10F1F000EA0CFB1C0C1D1D1D81E090E0A0E0B0E0BE
:10F20000282239224A225B2235E1220C331C441C7D
:10F21000551C3A95D1F7E20CF31C041D151D57013E
:10F220006801AA0CBB1CCC1CDD1C85E192EE60E0E1
:10F230000F94C2F1C801AA27BB270F940DF2BB2778
:10F24000A12F902F8F2D0F940DF28E2D0F940DF274
:10F2500090E29093C6008091C00086FFFCCF809121
:10F26000C00080648093C000AEE3A093C60080918C
:10F27000C00086FFFCCF8091C00080648093C000F6
:10F28000C601AA27BB270F940DF2BB27AD2D9C2DDD
:10F290008B2D0F940DF28A2D0F940DF20F94DCF14B
:10F2A000CC5DDE4FE881F981C452D140F99709F471
:10F2B0004DCBF4E0EF2EF12C012D112D6E0C7F1CA7
:10F2C000801E911EF2CD83E093EE62E00F94F5F183
:10F2D0008AE192EE60E00F94C2F18091C00087FF56
:10F2E000FCCF1091C6001F751093C6008091C0001E
:10F2F00086FFFCCF8091C00080648093C0000F9493
:10F30000DCF1812F81548A3108F036C1163409F4BA
:10F3100095C0173490F4133409F44EC0143430F40B
:10F320001134F1F0123409F01DC130C0143409F465
:10F3300059C0153409F016C16BC01A3409F4C4C0A1
:10F340001B3438F4173409F48FC0183409F00AC19B
:10F35000A1C01B3409F4D2C01C3409F003C1E8C0B9
:10F360008FEF81B90DC082B1809582B980E090E0C5
:10F37000E0EDF7E03197F1F70196883C9105C1F790
:10F380008091C00087FFEFCF12B8EFC08FEF84B934
:10F390000DC085B1809585B980E090E0E0EDF7E0A3
:10F3A0003197F1F70196883C9105C1F78091C00033
:10F3B00087FFEFCF15B8D9C08FEF87B90DC088B1DF
:10F3C000809588B980E090E0E0EDF7E03197F1F7C3
:10F3D0000196883C9105C1F78091C00087FFEFCF6F
:10F3E00018B8C3C08FEF8AB90DC08BB180958BB9A7
:10F3F00080E090E0E0EDF7E03197F1F70196883C8E
:10F400009105C1F78091C00087FFEFCF1BB8ADC059
:10F410008FEF8DB90DC08EB180958EB980E090E0F0
:10F42000E0EDF7E03197F1F70196883C9105C1F7DF
:10F430008091C00087FFEFCF1EB897C08FEF80BBD1
:10F440000DC081B3809581BB80E090E0E0EDF7E0F6
:10F450003197F1F70196883C9105C1F78091C00082
:10F4600087FFEFCF11BA81C08FEF83BB0DC084B38C
:10F47000809584BB80E090E0E0EDF7E03197F1F714
:10F480000196883C9105C1F78091C00087FFEFCFBE
:10F4900014BA6BC08FEF809301010FC080910201FD
:10F4A00080958093020180E090E0E0EDF7E03197F5
:10F4B000F1F70196883C9105C1F78091C00087FF64
:10F4C000EDCF1092020151C08FEF809304010FC065
:10F4D0008091050180958093050180E090E0E0ED4A
:10F4E000F7E03197F1F70196883C9105C1F78091DB
:10F4F000C00087FFEDCF1092050137C08FEF8093DA
:10F5000007010FC08091080180958093080180E079
:10F5100090E0E0EDF7E03197F1F70196883C910536
:10F52000C1F78091C00087FFEDCF109208011DC088
:10F530008FEF80930A010FC080910B01809580931B
:10F540000B0180E090E0E0EDF7E03197F1F70196F4
:10F55000883C9105C1F78091C00087FFEDCF1092E4
:10F560000B0103C085E292EEEEC98091C00087FFD7
:10F57000FCCF8091C600EAC988E392EEE4C98CE131
:10F5800091EEE1C988249924933011F1943028F444
:10F59000913089F09230B8F408C0953061F195301F
:10F5A000F0F0963009F048C043C02B3109F042C951
:10F5B00091E06BE13FC96227C15DDE4F2883CF52E6
:10F5C000D14092E037C9B22FA0E0622793E032C960
:10F5D000822F90E0A82BB92B622794E02BC92E3004
:10F5E00009F039C3622795E0C05DDE4F19821882A9
:10F5F000C053D1401FC9E1E0F0E0EC0FFD1FC05D3A
:10F60000DE4F08811981C053D140E00FF11F2083E4
:10F610000F5F1F4FC05DDE4F19830883C053D14079
:10F6200062270A171B0709F005C9D80196E002C92D
:10F63000261709F010C303C0973009F0FBC87724E0
:10F640009981933109F412C19431C8F4963009F4C8
:10F65000D8C0973050F4923009F406C1933009F4C1
:10F660006DC0913009F059C253C0913109F477C08F
:10F67000923108F0BBC0903109F04FC2F5C098310B
:10F6800009F487C0993150F4953109F4EFC09531F0
:10F6900008F4C6C1963109F040C2C2C19A3109F4DA
:10F6A0006CC09A3108F491C09B3109F45BC09D3164
:10F6B00009F033C29D81903359F48F81882311F46E
:10F6C0009EE11CC0813011F091E018C098E916C08D
:10F6D000892F807591F0903539F4E0E0F0E089E011
:10F6E0008093570094910AC0983539F4E3E0F0E034
:10F6F00089E080935700949101C090E01A821B82A8
:10F700008D818C831D829E831F8227E030E009C299
:10F710001A8288E08B8381E48C8386E58D8382E581
:10F720008E8389E48F8383E5888780E589878FE5E9
:10F730008A8782E38B872BE030E0F3C18A818139AD
:10F7400041F0823941F0803911F48FE005C080E04A
:10F7500003C082E001C08AE01A828B8344C0772410
:10F76000739482C08D81882311F48EE12CC0813086
:10F7700011F081E028C088E926C01A82E1E0F0E0BB
:10F7800089E08093570084918B831C8224E030E0D1
:10F79000C8C18B81803589F48C81883039F4E2E0EE
:10F7A000F0E089E08093570084910DC0E0E0F0E044
:10F7B00089E080935700849106C0E3E0F0E089E09F
:10F7C0008093570084911A82DFCF8D81836C99E0FA
:10F7D000E1E0F0E0082E90935700E89507B600FCB2
:10F7E000FDCF1A821B8223E030E09BC180EC8A832C
:10F7F000CE5CDE4F188219821A821B82C253D1401E
:10F800008EC18A8190E0A0E0B0E0582F44273327D2
:10F8100022278B8190E0A0E0B0E0DC0199278827C7
:10F82000282B392B4A2B5B2B8D8190E0A0E0B0E098
:10F83000282B392B4A2B5B2B8C8190E0A0E0B0E089
:10F84000BA2FA92F982F8827282B392B4A2B5B2BCF
:10F85000220F331F441F551FC05EDE4F288339839C
:10F860004A835B83C052D1401A8259C13A81C95C34
:10F87000DE4F3883C753D140CA5CDE4F1882C6536F
:10F88000D1408B81C82EDD24CA5CDE4F488159816E
:10F89000C653D140C42AD52A933109F082C0CE5C28
:10F8A000DE4F88819981AA81BB81C253D1408050AB
:10F8B000904CA340B04030F583E0CE5CDE4FE88052
:10F8C000F9800A811B81C253D140F70100935B008C
:10F8D00080935700E89507B600FCFDCFCE5CDE4F65
:10F8E000088119812A813B81C253D14000501F4FAA
:10F8F0002F4F3F4FCE5CDE4F088319832A833B8313
:10F90000C253D140C05EDE4F488159816A817B81FC
:10F91000C052D140DE011B9631E08C9111962C91A2
:10F9200011971296C75CDE4F2883C953D140C85C3B
:10F93000DE4F1882C853D14090E0C85CDE4FE881AA
:10F94000F981C853D1408E2B9F2B0C01FA01609393
:10F950005B0030935700E89511244E5F5F4F6F4F67
:10F960007F4F0EEFE02E0FEFF02ECE0CDF1CC114F8
:10F97000D10499F685E0C05EDE4F088119812A81A5
:10F980003B81C052D140F80120935B008093570027
:10F99000E89507B600FCFDCF81E180935700E8951C
:10F9A00035C0C05EDE4F88819981AA81BB81C0527B
:10F9B000D140B695A795979587957C018601ABE0D8
:10F9C000AA2EB12CAC0EBD1E0BC0D5016D915D01F0
:10F9D000C7010F947FFE0894E11CF11C01501040F8
:10F9E0000115110591F7A60160E070E0440F551F65
:10F9F000661F771FC05EDE4FE880F9800A811B8199
:10FA0000C052D1404E0D5F1D601F711F1A82C05E33
:10FA1000DE4F488359836A837B83C052D1407FC0C5
:10FA2000FA80C55CDE4FF882CB53D140C65CDE4F16
:10FA30001882CA53D1408B81C82EDD24C65CDE4FAC
:10FA400008811981CA53D140C02AD12A1A828981DA
:10FA5000BE016D5F7F4F843121F59601C05EDE4FA0
:10FA6000E880F9800A811B81C052D1400BBFF701A9
:10FA700087919691DB018C9311969C936E5F7F4FDB
:10FA8000D801C7010296A11DB11DC05EDE4F88835B
:10FA90009983AA83BB83C052D14022503040F1F6F3
:10FAA00036C0C05EDE4F288139814A815B81C052F9
:10FAB000D1400894C108D108760100E010E0089414
:10FAC000C11CD11C0894E11CF11C011D111DE20E8A
:10FAD000F31E041F151F21BDBB27A52F942F832FB5
:10FAE00082BD2F5F3F4F4F4F5F4FF89A80B5DB01CC
:10FAF0008D93BD012E153F054007510761F7C05E8C
:10FB0000DE4F288339834A835B83C052D1409601FC
:10FB10002D5F3F4FFB01108204C080EC8A8322E0FE
:10FB200030E08BE18093C6008091C00086FFFCCF5F
:10FB30008091C00080648093C000C15DDE4FF88179
:10FB4000CF52D140F093C6008091C00086FFFCCF19
:10FB50008091C00080648093C000432F3093C60022
:10FB60008091C00086FFFCCF8091C00080648093AC
:10FB7000C000922F2093C6008091C00086FFFCCF6A
:10FB80008091C00080648093C0008EE08093C600A6
