:1000000010C100003CC100003AC1000038C100002E
:1000100036C1000034C1000032C1000030C1000010
:100020002EC100002CC100002AC1000028C1000020
:1000300026C1000024C1000022C1000020C1000030
:100040001EC100001CC100001AC1000018C1000040
:1000500016C1000014C1000012C1000022C400003B
:100060000EC10000E8C30000BDC3000008C10000CD
:1000700006C1000004C1000002C1000000C1000070
:10008000FEC00000FCC00000FAC00000F8C0000084
:10009000F6C00000F4C00000F2C00000F0C0000094
:1000A000EEC00000ECC00000EAC00000E8C00000A4
:1000B000E6C00000E4C00000E2C00000E0C00000B4
:1000C000DEC00000DCC00000DAC00000D8C00000C4
:1000D000D6C00000D4C00000D2C00000D0C00000D4
:1000E000CEC00000C802CB02BA02BE02C2020203A6
:1000F000CF02D302D902DD02E102E702EB02EF02F6
:100100000203F502F902FD0200000A0B02090C0DC0
:100110000E080703040100000000000000000000BA
:1001200000000000000000000000000000000000CF
:10013000000000001211100000000000000000008C
:10014000000000000000000000000000000011128C
:10015000131415160A0B0C0D0E0F000102030405F3
:1001600000002200250028002B002E003100340062
:1001700002010000050108010B010000210024001C
:1001800027002A002D003000330001010000040187
:1001900007010A0105050505070508080808020208
:1001A00002020A0A08080404040401010101010111
:1001B00001010303030303030303040707070C0CF4
:1001C0000C0C0C0C0C0C02020202060606060606BB
:1001D00006060B0B0B0B0B0B0B0B01021020200860
:1001E0000810204010204080020102010804020192
:1001F0000102040810204080804020100804020101
:100200008004020180402010080402010804020159
:1002100001020408102040800102040810204080E0
:100220009B0411241FBECFEFD1E2DEBFCDBF00E0A3
:100230000CBF22E0ACE1B2E001C01D92A93EB207C2
:10024000E1F712E0A0E0B2E0E4ECFEE000E00BBF7A
:1002500002C007900D92AC31B107D9F711E0C1E1AE
:10026000D1E000E005C021970109802FFE0113D6DF
:10027000C031D10780E00807B1F7A3D321C6C0CEB3
:1002800090E0FC01E652FE4F2491FC01EC56FE4F3B
:100290008491882399F090E0880F991FFC01E6581B
:1002A000FE4FA591B491FC01E05AFE4F85919491C7
:1002B0008FB7F894EC91E22BEC938FBF0895CF9217
:1002C000DF92EF92FF920F931F93CF93DF936C0116
:1002D0007A018B01C0E0D0E0CE15DF0581F0D801B6
:1002E0006D918D01D601ED91FC910190F081E02D91
:1002F000C6011995892B11F02196EECF7E01C70119
:10030000DF91CF911F910F91FF90EF90DF90CF90F1
:100310000895089580E090E00895FC01538D448D88
:10032000252F30E0842F90E0821B930B541710F0A0
:10033000CF96089501970895FC01918D828D9817AD
:1003400061F0828DDF01A80FB11D5D968C91928DB9
:100350009F5F9F73928F90E008958FEF9FEF0895B6
:10036000FC01918D828D981731F0828DE80FF11D7F
:10037000858D90E008958FEF9FEF0895FC01918D9A
:10038000228D892F90E0805C9F4F821B91098F7393
:100390009927089584E392E0F1DF21E0892B09F4A5
:1003A00020E0822F0895FC01848DDF01A80FB11D8C
:1003B000A35ABF4F2C91848D90E001968F7399279B
:1003C000848FA689B7892C93A089B1898C91837079
:1003D00080648C93938D848D981306C00288F38972
:1003E000E02D80818F7D80830895EF92FF920F939F
:1003F0001F93CF93DF93EC0181E0888F9B8D8C8DD1
:10040000981305C0E889F989808185FD25C0F62EFD
:100410000B8D10E00F5F1F4F0F731127E02E8C8D97
:10042000E8120BC00FB607FCFACFE889F989808182
:1004300085FFF5CFCE01B7DFF2CF8B8DFE01E80F40
:10044000F11DE35AFF4FF0829FB7F8940B8FEA89B2
:10045000FB89808180620AC09FB7F894EE89FF898A
:100460006083E889F98980818370806480839FBF7D
:1004700081E090E0DF91CF911F910F91FF90EF907D
:100480000895CF93DF93EC01888D8823C1F0EA892A
:10049000FB89808185FD05C0A889B9898C9186FD7D
:1004A0000EC00FB607FCF5CF808185FFF2CFA8897B
:1004B000B9898C9185FFEDCFCE0175DFE8CFDF9153
:1004C000CF91089580E090E0892B19F063DF8111CE
:1004D00025C080E090E0892B41F080E090E0892BFE
:1004E00021F00E94000081111CC080E090E0892B67
:1004F00041F080E090E0892B21F00E940000811102
:1005000013C080E090E0892BA1F080E090E0892B7F
:1005100081F00E94000081110AC008950E9400002D
:10052000D8CF0E940000E1CF0E940000EACF0C94D7
:1005300000000895362F90E0FC01E85FFE4F4491E3
:10054000FC01E652FE4F2491FC01EC56FE4F9491C3
:10055000992309F46BC0442309F454C050E0FA0114
:100560003197E231F10508F04DC08827EE58FF4F72
:100570008F4F91C4809180008F7707C08091800059
:100580008F7D03C080918000877F809380003AC078
:1005900084B58F7702C084B58F7D84BD33C08091D0
:1005A000B0008F7703C08091B0008F7D8093B00042
:1005B00029C0809190008F7707C0809190008F7D37
:1005C00003C080919000877F809390001BC0809132
:1005D000A0008F7707C08091A0008F7D03C080911D
:1005E000A000877F8093A0000DC0809120018F77AD
:1005F00007C0809120018F7D03C080912001877FFB
:1006000080932001E92FF0E0EE0FFF1FE05AFE4F2C
:10061000A591B4919FB7F894311104C08C912095A5
:10062000282302C0EC912E2B2C939FBF08959CB5DC
:100630009F7D9CBD9CB5937F9CBD9CB59C7F9CBDC4
:100640009DB591609DBD682F8091D30273DF80912D
:10065000E5029091E6028230910538F0880F991FEB
:10066000880F991F05970197F1F708953FB7F89400
:1006700080911D0290911E02A0911F02B091200254
:1006800026B5A89B05C02F3F19F00196A11DB11DED
:100690003FBFBA2FA92F982F8827820F911DA11D28
:1006A000B11DBC01CD0142E0660F771F881F991F65
:1006B0004A95D1F708958F929F92AF92BF92CF92B1
:1006C000DF92EF92FF92D2DF4B015C0185E0C82EF2
:1006D000D12CE12CF12CCADFDC01CB01881999095E
:1006E000AA09BB09883E9340A105B105A0F321E00A
:1006F000C21AD108E108F10888EE880E83E0981E3E
:10070000A11CB11CC114D104E104F10421F7FF9034
:10071000EF90DF90CF90BF90AF909F908F90089513
:100720008EBD00000DB407FEFDCF8EB50895CF93AA
:1007300080E07DDF81EEF4DFC82F81E078DF8C2F51
:10074000CF910895CF93C82F80E071DF8C2F8F71E8
:10075000E7DF8FEFE5DFC82F81E069DF8C2FCF91D6
:100760000895CF93DF93C82FD62F80E060DF8C2FC2
:100770008F718062D5DFC82F8D2FD2DF81E057DFE8
:100780008C2FDF91CF91089580E0DCDF81FD05C0E3
:10079000682F626080E0E5DF8ECF0895EF92FF92D0
:1007A0000F931F93CF93DF93182F7B01C42F80E00B
:1007B0003EDF812F8F718062B3DFD82F8701CC237A
:1007C00031F0F80181918F01ABDFC150F8CF81E0AA
:1007D0002EDF8D2FDF91CF911F910F91FF90EF9022
:1007E000089561D31F920F920FB60F9211240BB68A
:1007F0000F922F933F934F935F936F937F938F93BA
:100800009F93AF93BF93EF93FF9384E392E0CBDD8D
:10081000FF91EF91BF91AF919F918F917F916F91D8
:100820005F914F913F912F910F900BBE0F900FBE94
:100830000F901F9018951F920F920FB60F921124D0
:100840000BB60F922F938F939F93EF93FF93E091AB
:100850004402F09145028081E0914A02F0914B02FE
:1008600082FD12C0908180914D028F5F8F73209125
:100870004E02821751F0E0914D02F0E0EC5CFD4F2A
:10088000958F80934D0201C08081FF91EF919F91E0
:100890008F912F910F900BBE0F900FBE0F901F9056
:1008A00018951F920F920FB60F9211242F933F931A
:1008B0008F939F93AF93BF938091220290912302D5
:1008C000A0912402B091250230911C0223E0230F55
:1008D0002D3720F40196A11DB11D05C026E8230F78
:1008E0000296A11DB11D20931C02809322029093B9
:1008F0002302A0932402B093250280911D029091BF
:100900001E02A0911F02B09120020196A11DB11DEF
:1009100080931D0290931E02A0931F02B0932002A9
:10092000BF91AF919F918F913F912F910F900FBEEB
:100930000F901F901895E4E3F2E01382128288EE84
:1009400093E0A0E0B0E084839583A683B7838AE038
:1009500092E09183808385EC90E09587848784EC96
:1009600090E09787868780EC90E0918B808B81EC7C
:1009700090E0938B828B82EC90E0958B848B86EC5D
:1009800090E0978B868B118E128E138E148EE1ED74
:10099000F2E08EE090E0918380838FE090E093839B
:1009A0008283168280E28783108685E0868785E0D1
:1009B00090E0A0E0B0E0848B958BA68BB78B11867E
:1009C0000895CF93DF93CDB7DEB7A1970FB6F89414
:1009D000DEBF0FBECDBF789484B5826084BD84B580
:1009E000816084BD85B5826085BD85B5816085BD2A
:1009F00080916E00816080936E00109281008091E2
:100A00008100826080938100809181008160809369
:100A10008100809180008160809380008091B1008E
:100A200084608093B1008091B00081608093B000B9
:100A3000809191008260809391008091910081600B
:100A400080939100809190008160809390008091CC
:100A5000A10082608093A1008091A10081608093B9
:100A6000A1008091A00081608093A000809121016D
:100A70008260809321018091210181608093210116
:100A80008091200181608093200180917A008460B0
:100A900080937A0080917A00826080937A008091BE
:100AA0007A00816080937A0080917A0080688093D8
:100AB0007A001092C100E0914402F091450282E078
:100AC0008083E0914002F09141021082E091420265
:100AD000F09143028FEC808310924C02E091480227
:100AE000F091490286E08083E0914602F09147024E
:100AF000808180618083E0914602F091470280818D
:100B000088608083E0914602F0914702808180688E
:100B10008083E0914602F091470280818F7D80833F
:100B20008091D1029091D2022091D3023091D402CF
:100B30008217930709F0A4DB8091D3029091D4022D
:100B40002091D1023091D2022817390709F098DBA1
:100B50001FB7F89480912102811120C0E9ECF1E0E7
:100B60008491EFE0F2E09491E82FF0E0EE0FFF1FA8
:100B7000E658FE4FA591B491EC91E92319F461E098
:100B800085E3D8DC85E37CDB8CB580618CBD8CB5DE
:100B900080648CBD84E374DB83E372DB809121028B
:100BA0008F5F809321021FBF8091D1029091D2026A
:100BB0002091D3023091D4028217930711F060E0A4
:100BC000B9DC81E034DD77DD6CE080E0CADD6FE523
:100BD00084E0C7DD86E0B6DD877D182F10628BE9E3
:100BE00090E0A0E0B0E08093E1029093E202A09355
:100BF000E302B093E402612F86E0B3DD86E0A2DD7C
:100C0000181709F4C9C086E09DDD86E09BDD45E547
:100C100050E060E070E04093E1025093E2026093A4
:100C2000E3027093E402682F677D86E09ADD86E038
:100C300089DD80E0FCDC80E573DD83E771DD81E048
:100C4000F6DC60E08DE18DDD60E08CE18ADD109204
:100C5000D90260E787E085DD6CE485E082DD80E035
:100C6000E6DC82EE5DDD81E0E2DC61DD8DDD80E0F1
:100C700069DD682F6E7F80E074DD6EE685E071DDF2
:100C80004091DF0250E060E072E08AED92E00FD127
:100C9000E4E5F1E084914091DF0260E072E07EDD06
:100CA000EEE4F1E084916091D8025BDD82E04ADD00
:100CB0000AE511E0F801949161E070E001C0660F6F
:100CC0009A95EAF7682B82E04CDD5EDD80E03ADD44
:100CD000682F616080E045DD60E787E042DD80915C
:100CE000D1029091D2022091D3023091D402821786
:100CF000930711F061E01EDC8091DA02882339F05D
:100D00004091DF026AED72E08AE048DD0FC082E0C8
:100D100019DDF801049121E030E001C0220F0A95AD
:100D2000EAF72095622F682382E01BDD8DE10ADD62
:100D300081FDFDDC9CE2C92E92E0D92E2AE0422EF4
:100D4000512C612C712C8FB7F894009122021091D4
:100D5000230220912402309125028FBF00932C02A0
:100D600010932D0220932E0230932F021092300206
:100D700010923102109232021092330287E1E2DCCB
:100D800080FF0EC007C042E050E068E172E084E3FB
:100D900092E095DA97DBD7CF81E08093D70233CF0B
:100DA0001091D802163008F452C006E08091D902A2
:100DB000811102C0101B01C010E080E038DC81E628
:100DC000AFDC86E2E82E82E0F82E5701015030F0C9
:100DD0008FEFA6DCF50181935F01F8CF112321F09D
:100DE0008FEF9EDC1150FACF81E021DC60E787E0D5
:100DF000B8DCCE14DF0409F4C6CFF70121917F01DE
:100E000030E040E050E019A28E010F5D1F4FCA0193
:100E1000B901A30192011DD0605DF80162938F01B9
:100E2000211531054105510591F7309759F0019091
:100E30000020E9F73197AF01401B510BB80184E363
:100E400092E03DDA60E284E392E0CFDAD2CF012F84
:100E5000ADCFA1E21A2EAA1BBB1BFD010DC0AA1F1C
:100E6000BB1FEE1FFF1FA217B307E407F50720F013
:100E7000A21BB30BE40BF50B661F771F881F991F8E
:100E80001A9469F760957095809590959B01AC01D7
:100E9000BD01CF010895EE0FFF1F881F8BBF079084
:100EA000F691E02D199481E090E0F89409C0FB01DF
:100EB000DC0102C001900D9241505040D8F70895D6
:040EC000F894FFCFD4
:100EC400314E6F64653000000000F5015F018D0153
:0C0ED4004102BE019C01B0010D0A0000AB
:00000001FF
