:100000000BC100000C94E90E0C94BE0E0C94930EE0
:100010000C94680E0C943D0E0C94120E0C94E70D8B
:100020000C94BC0D2AC1000028C1000026C10000AC
:1000300024C100000C94140F20C100001EC1000058
:100040001CC100001AC1000018C1000016C1000048
:1000500014C1000012C1000010C100000C94720D08
:100060000CC100000C943C0D0C94120D06C1000054
:1000700004C1000002C1000000C10000FEC0000079
:10008000FCC00000FAC00000F8C00000F6C000008C
:10009000F4C00000F2C00000F0C00000EEC000009C
:1000A000ECC00000EAC00000E8C00000E6C00000AC
:1000B000E4C00000E2C00000E0C00000DEC00000BC
:1000C000DCC00000DAC00000D8C00000D6C00000CC
:1000D000D4C00000D2C00000D0C00000CEC00000DC
:1000E000CCC000001112131415160A0B0C0D0E0FC4
:1000F00000000A0B02090C0D0E08070304010000A2
:1001000000000000000000000000000000000000EF
:1001100000000000000000000000000012111000AC
:1001200000000000000000000000000000000000CF
:10013000000000000000000102030405000021008F
:10014000240027002A002D003000330001010000A8
:10015000040107010A0100002000230026002900F5
:100160002C002F00320000010000030106010901EC
:1001700000002200250028002B002E003100340052
:1001800002010000050108010B0105050505070531
:1001900008080808020202020A0A08080404040403
:1001A000010101010101010103030303030303032F
:1001B000040707070C0C0C0C0C0C0C0C02020202BE
:1001C00006060606060606060B0B0B0B0B0B0B0BA7
:1001D0000102102020080810204010204080020159
:1001E000020108040201010204081020408080403E
:1001F000201008040201800402018040201008043D
:1002000002010804020101020408102040800102DA
:100210000408102040803D0F11241FBECFEFD1E213
:10022000DEBFCDBF00E00CBF12E0A0E0B2E0E0E135
:10023000FDE300E00BBF02C007900D92A43AB107A6
:10024000D9F724E0A4EAB2E001C01D92A535B207B7
:10025000E1F711E0CCE0D1E000E006C02197010910
:10026000802FFE010E94581CCB30D10780E0080788
:10027000A9F70E942F100C94861EC2CEAF92BF9297
:10028000CF92DF92EF92FF920F931F93CF93DF9362
:100290006C017B018B01040F151FEB015E01AE1891
:1002A000BF08C017D10759F06991D601ED91FC91B3
:1002B0000190F081E02DC6011995892B79F7C501D0
:1002C000DF91CF911F910F91FF90EF90DF90CF9032
:1002D000BF90AF9008958230910538F0880F991F34
:1002E000880F991F05970197F1F708957F928F92D4
:1002F0009F92AF92BF92CF92DF92EF92FF920F93B5
:100300001F93CF93DF9370903C0380903D039090B8
:100310003E03D0913F03C0914003B0914103F0915F
:100320004203E0914303272D382D492D5D2F6C2F7B
:100330007B2F8F2F9E2FA090B902B090BA02C09051
:10034000BB02D090BC02E090BD02F090BE020091D2
:10035000BF021091C0020E94601CA2E00E94691CB2
:10036000B1F0A8F07092B9028092BA029092BB02EA
:10037000D093BC02C093BD02B093BE02F093BF0203
:10038000E093C0028091D3028F5F8093D302DF910C
:10039000CF911F910F91FF90EF90DF90CF90BF9082
:1003A000AF909F908F907F9008957F928F929F92B1
:1003B000AF92BF92CF92DF92EF92FF920F931F9373
:1003C000CF93DF9370903C0380903D0390903E0369
:1003D000D0913F03C0914003B0914103F09142039B
:1003E000E0914303272D382D492D5D2F6C2F7B2F56
:1003F0008F2F9E2FA090C102B090C202C090C30266
:10040000D090C402E090C502F090C6020091C702ED
:100410001091C8020E94601CA2E00E94691CB1F009
:10042000A8F07092C1028092C2029092C302D0934F
:10043000C402C093C502B093C602F093C702E09312
:10044000C8028091D4028F5F8093D402DF91CF9154
:100450001F910F91FF90EF90DF90CF90BF90AF90E2
:100460009F908F907F900895FC01538D448D252F90
:1004700030E0842F90E0821B930B541710F0CF963E
:10048000089501970895FC01918D828D981761F070
:10049000A28DAE0FBF2FB11D5D968C91928D9F5F87
:1004A0009F73928F90E008958FEF9FEF0895FC0166
:1004B000918D828D981731F0828DE80FF11D858D19
:1004C00090E008958FEF9FEF0895FC01918D228DAC
:1004D000892F90E0805C9F4F821B91098F73992731
:1004E000089586E493E0F1DF21E0892B09F420E010
:1004F000822F0895FC01A48DA80FB92FB11DA35A16
:10050000BF4F2C91848D90E001968F739927848F33
:10051000A689B7892C93A089B1898C918370806456
:100520008C93938D848D981306C00288F389E02DF7
:1005300080818F7D80830895EF92FF920F931F93A8
:10054000CF93DF93EC0181E0888F9B8D8C8D981386
:100550001AC0E889F989808185FF15C09FB7F89492
:10056000EE89FF896083E889F989808183708064DE
:1005700080839FBF81E090E0DF91CF911F910F9129
:10058000FF90EF900895F62E0B8D10E00F5F1F4F38
:100590000F731127E02E8C8D8E110BC00FB607FC48
:1005A000FACFE889F989808185FFF5CFCE01A2DFF6
:1005B000F2CFEB8DEC0FFD2FF11DE35AFF4FF082D0
:1005C0009FB7F8940B8FEA89FB8980818062D0CF36
:1005D000CF93DF93EC01888D8823B1F0AA89BB8982
:1005E000E889F9898C9185FD03C0808186FD0CC066
:1005F0000FB607FCF7CF8C9185FFF2CF808185FF86
:10060000EDCFCE0177DFEACFDF91CF91089580E083
:1006100090E0892B21F065DF81110E94000080E0CD
:1006200090E0892B49F080E090E0892B29F00E942E
:10063000000081110E94000080E090E0892B49F0C9
:1006400080E090E0892B29F00E94000081110E9437
:10065000000080E090E0892B49F080E090E0892B59
:1006600029F00E94000081110C940000089581502F
:10067000823108F05AC0E82FF0E08827ED5BFC4F8C
:100680008F4F0C94581C6303670355035B035F0390
:1006900095036A03700374037A037E03820388035D
:1006A0008C039503900396039A03809180008F77C3
:1006B000809380000895809180008F7DF9CF809194
:1006C0008000877FF5CF84B58F7784BD089584B58A
:1006D0008F7DFBCF8091B0008F778093B00008951D
:1006E0008091B0008F7DF9CF809190008F778093BB
:1006F00090000895809190008F7DF9CF80919000B7
:10070000877FF5CF8091A0008F778093A000089518
:100710008091A0008F7DF9CF8091A000877FF5CFD9
:10072000809120018F77809320010895809120018E
:100730008F7DF9CF80912001877FF5CFCF93DF9315
:10074000282F30E0F901E051FF4F8491F901E05387
:10075000FE4FD491F901E657FE4FC491CC2399F096
:10076000811185DFEC2FF0E0EE0FFF1FEA5AFE4FFC
:10077000A591B491EC91ED2381E090E009F480E043
:10078000DF91CF91089580E090E0FACF1F93CF934F
:10079000DF93282F30E0F901E051FF4F8491F901F8
:1007A000E053FE4FD491F901E657FE4FC491CC239C
:1007B000A1F0162F81115BDFEC2FF0E0EE0FFF1F91
:1007C000E059FE4FA591B4918FB7F894EC911111B7
:1007D00008C0D095DE23DC938FBFDF91CF911F91AE
:1007E0000895DE2BF8CFCF93DF939CB59F7D9CBD02
:1007F0009CB5937F9CBD9CB59C7F9CBD9DB5916035
:100800009DBDC7E1D4E0682F8A81C0DF8C899D89B6
:10081000DF91CF9160CD81E0E6CF80E0E4CF209101
:100820001704309118044091190450911A042417A8
:10083000350719F0682F822FA9CF0895CF93DF9342
:1008400090E0FC01E053FE4F249186579E4FFC013F
:1008500084918823D1F090E0880F991FFC01E45C1B
:10086000FE4FA591B491FC01E059FE4FC591D49182
:10087000623071F49FB7F8943C91822F8095832366
:100880008C93E8812E2B28839FBFDF91CF91089511
:100890008FB7F894EC912E2B2C938FBFF6CF1F932C
:1008A000CF93DF93182FEB0161E0C8DF209731F47D
:1008B00060E0812FDF91CF911F9168CFCF3FD105AD
:1008C00011F461E0F6CFE12FF0E0E051FF4FE49149
:1008D000E150E23108F0B3C0F0E08827ED58FB4F5B
:1008E0008F4F0C94581C85048D0492049C04A6041C
:1008F0001F05B004B804C004CA04D404DE04ED0427
:10090000F7041F0501050B05150584B5806884BD36
:10091000C7BDDF91CF911F91089584B5806284BDDA
:10092000C8BDF7CF80918000806880938000D0930D
:100930008900C0938800EDCF809180008062809311
:100940008000D0938B00C0938A00E3CF8091800019
:10095000886080938000D0938D00C0938C00D9CFA5
:100960008091B00080688093B000C093B300D1CF75
:100970008091B00080628093B000C093B400C9CF72
:1009800080919000806880939000D0939900C093EC
:100990009800BFCF80919000806280939000D093A8
:1009A0009B00C0939A00B5CF80919000886080939F
:1009B0009000D0939D00C0939C00ABCF8091A0008D
:1009C00080688093A0008091A0008F7B8093A0001E
:1009D000D093A900C093A8009CCF8091A000806212
:1009E0008093A000D093AB00C093AA0092CF8091D7
:1009F000A00088608093A000D093AD00C093AC00AD
:100A000088CF80912001806880932001D0932901B4
:100A1000C09328017ECF80912001806280932001C5
:100A2000D0932B01C0932A0174CF8091200188605C
:100A300080932001D0932D01C0932C016ACFC03840
:100A4000D1050CF03ECF34CF3FB7F8948091CB0264
:100A50009091CC02A091CD02B091CE0226B5A89B78
:100A600005C02F3F19F00196A11DB11D3FBFBA2F40
:100A7000A92F982F8827BC01CD01620F711D811D00
:100A8000911D42E0660F771F881F991F4A95D1F785
:100A900008958F929F92AF92BF92CF92DF92EF9282
:100AA000FF92D2DF4B015C0185E0C82ED12CE12CF6
:100AB000F12CCADF681979098A099B09683E7340DD
:100AC00081059105B0F321E0C21AD108E108F108CF
:100AD00088EE880E83E0981EA11CB11CC114D104BD
:100AE000E104F10431F7FF90EF90DF90CF90BF90D9
:100AF000AF909F908F90089508958EBD00000DB423
:100B000007FEFDCF8EB50895CF9387DE81EEF5DF2A
:100B1000C82F81DE8C2FCF910895CF93C82F7DDE13
:100B20008C2FEBDF8FEFE9DFC82F75DE8C2FCF9195
:100B30000895CF93DF93C82FD62F6FDE8C2F8F7140
:100B40008062DBDFC82F8D2FD8DF65DE8C2FDF9131
:100B5000CF91089580E0E1DF81FD05C0682F6260DC
:100B600080E0E7DF96CF08950F931F93CF938C011A
:100B700086E0D3DFC82FC77D85E590E0A0E0B0E038
:100B80000230110529F4C0628BE990E0A0E0B0E0EA
:100B90008093270490932804A0932904B0932A04F7
:100BA0006C2F86E0C6DF86E0B8DF91E0C81390E0E6
:100BB000892FCF911F910F910895EF92FF920F937C
:100BC0001F93CF93DF93C82F7B01142F26DE8C2F2A
:100BD0008F71806292DF082FE701115018F0899120
:100BE0008CDFFBCF18DE802FDF91CF911F910F910B
:100BF000FF90EF900895AEDF80E08FDF682F616097
:100C000080E097DF60E787E094DF81E008DE809195
:100C10002004882359F04091250460E274E08AE0C2
:100C2000CCDF8DE17ADF81FF12C06ECF82E075DF0D
:100C3000E6E3F1E0E49121E030E001C0220FEA9523
:100C4000EAF72095622F682382E073DFEACF0895E8
:100C5000CF93DF93EC0160E0888198DD60E08A81CA
:100C600095DD70E060E08C81DF91CF9118CEFF922E
:100C70000F931F93CF93DF93EC018B01F42E60E071
:100C8000888184DD61E08A8181DDB801F11002C0D4
:100C900070E060E08C81DF91CF911F910F91FF9008
:100CA000FECD42E050E064E672E086E493E0E6CAFE
:100CB000CF93DF93FC0101900020E9F73197AF015A
:100CC000481B590BBC0186E493E0D8DAEC01E9DF5C
:100CD0008C0F9D1FDF91CF9108950F931F93CF939A
:100CE000DF93EC018B0161E0888150DD60E08A8157
:100CF0004DDDB8018C81DF91CF911F910F91CFCD48
:100D00004F925F926F927F928F929F92AF92BF921B
:100D1000CF92DF92EF92FF920F931F93CF93DF93C7
:100D200000D01F921F92CDB7DEB790910E0399238A
:100D300071F02091FF022D83211109C0823009F446
:100D40003FC2D8F4813009F43BC1109202030F90E6
:100D50000F900F900F900F90DF91CF911F910F91F7
:100D6000FF90EF90DF90CF90BF90AF909F908F90CB
:100D70007F906F905F904F900895833009F455C332
:100D8000843019F7809302036091E00269836D3328
:100D900008F441C060910A0370E090E080E00E9496
:100DA000D5196093FB027093FC028093FD0290932F
:100DB000FE026093F6027093F7028093F80290931C
:100DC000F902E0904D04F0904E0481E0F826E11025
:100DD000F12C6091ED027091EE028091EF02909102
:100DE000F0020E94141C4F2D8BE094E040DFF09045
:100DF0004E0481E0F826E110F12C6091E902709137
:100E0000EA028091EB029091EC020E94141C4F2D9B
:100E100081E194E02CDF89818551883208F042C05D
:100E200060910A03669570E090E080E00E94D71917
:100E30006093FB027093FC028093FD029093FE028C
:100E40006093F6027093F7028093F8029093F90290
:100E5000E0904D04F0904E0481E0F826E110F12C72
:100E60006091ED027091EE028091EF029091F0029C
:100E70000E94141C4F2D8BE094E0F9DEF0904E049C
:100E800081E0F826E110F12C6091E9027091EA020C
:100E90008091EB029091EC020E94141C4F2D81E195
:100EA00094E0E5DE8091DF02853108F422C4798187
:100EB000753108F04CCF80913C038093A80280915B
:100EC0003D038093A90280913E038093AA02809102
:100ED0003F038093AB02809140038093AC028091EA
:100EE00041038093AD02809142038093AE028091D2
:100EF00043038093AF0260910A03669570E090E02F
:100F000080E00E94D7196093FB027093FC028093EB
:100F1000FD029093FE026093F6027093F7028093B5
:100F2000F8029093F9026091ED027091EE028091C7
:100F3000EF029091F0020E94141C69837A838B83E4
:100F40009C836091E9027091EA028091EB0290919A
:100F5000EC020E94141C2B0120913C0330913D03B4
:100F600040913E0350913F036091400370914103D3
:100F70008091420390914303A090A802B090A902EF
:100F8000C090AA02D090AB02E090AC02F090AD020B
:100F90000091AE021091AF020E94601C28383341CC
:100FA00041055105610571058105910509F008F4B8
:100FB000A5C369817A818BE094E08FDEB2019AC08B
:100FC00080930203609104036983683538F0683ABE
:100FD00008F04CC08BE094E03BDE28C06091E10259
:100FE0007091E2028091E3029091E4020E94141C4D
:100FF0009B01AC017981872F90E0B0E0A0E0BC01BB
:10100000CD0167557109810991090E94491C29EA9E
:101010003FEF4FEF5FEF0E94EA1ACA01B9010E9449
:10102000D7190E94141C8BE094E057DE60910603F0
:1010300069836835D0F1683A08F074C081E194E0C2
:101040000F900F900F900F900F90DF91CF911F9105
:101050000F91FF90EF90DF90CF90BF90AF909F9057
:101060008F907F906F905F904F90F2CD6091E102F2
:101070007091E2028091E3029091E402E0914D04CC
:10108000E983E1110AC020914E04211107C021E03B
:1010900029832091E0022B3008F419820E94141C4D
:1010A00049818BE094E0E3DDC1CF6091E102709172
:1010B000E2028091E3029091E4020E94141C9B01E1
:1010C000AC017981872F90E0B0E0A0E0BC01CD01B8
:1010D00067557109810991090E94491C29EA3FEF6E
:1010E0004FEF5FEF0E94EA1ACA01B9010E94D719B7
:1010F0000E94141C81E194E00F900F900F900F90CC
:101100000F90DF91CF911F910F91FF90EF90DF90A3
:10111000CF90BF90AF909F908F907F906F905F9097
:101120004F90DBCD6091E1027091E2028091E30289
:101130009091E4020E94141C9B01AC01E9818E2F66
:1011400090E0B0E0A0E0BC01CD01685A71098109CE
:1011500091090E94491C27E530E040E050E00E94E0
:10116000EA1ACA01B9010E94D71920914D042983B6
:1011700021110AC020914E04211107C0E1E0E9834A
:101180002091E0022B3008F419820E94141C49813E
:1011900081E194E00F900F900F900F900F90DF91EE
:1011A000CF911F910F91FF90EF90DF90CF90BF9064
:1011B000AF909F908F907F906F905F904F9057CDA2
:1011C00080930203209104032983283560F0283A94
:1011D00008F03FC08BE094E03BDD81E194E038DD36
:1011E0001092B80228C06091E1027091E2028091F1
:1011F000E3029091E4020E94141C9B01AC016981FE
:10120000862F90E0B0E0A0E0BC01CD0167557109E8
:10121000810991090E94491C29EA3FEF4FEF5FEFD6
:101220000E94EA1ACA01B9010E94D7196B017C0118
:1012300081E08093B80220910503283580F1283A97
:1012400008F059C0812C912C48ECA42E42E4B42E15
:1012500041C06091E1027091E2028091E3029091BD
:10126000E4020E94141C9B01AC017981872F90E05D
:10127000B0E0A0E0BC01CD01685A71098109910973
:101280000E94491C27E530E040E050E00E94EA1A45
:10129000CA01B9010E94D7196B017C01A1CF30E0CE
:1012A00050E040E02755310941095109ADE9BFEF50
:1012B0000E94121B29EA3FEF4FEF5FEF0E94EA1AEC
:1012C000CA01B9016C597F4F8F4F9F4F0E94D719A8
:1012D0004B015C0120E030E0A901C501B4010E948E
:1012E000451C18160CF065C0412C512C38EC632EAF
:1012F00032E4732E21C030E050E040E0285A31093A
:1013000041095109ADE9BFEF0E94121B27E530E00A
:1013100040E050E00E94EA1ACA01B9016C597F4FBF
:101320008F4F9F4F0E94D7192B013C01812C912C8C
:1013300058ECA52E52E4B52E20E030E048EC52E403
:10134000C501B4010E94AC1B9B01AC01C701B601F1
:101350000E94361A4B015C0120E030E0A901C30174
:10136000B2010E94451C1816A4F520E030E048ECBC
:1013700052E4C301B2010E94AC1B2B013C018091DD
:10138000B8028983C501B4010E94141C4B01A3015A
:101390009201C701B6010E94361A0E94141C6B010B
:1013A00099819923F1F0B4018BE094E096DCB601C9
:1013B000A1CEC501B401905820E030E048EC52E4E1
:1013C0000E94AC1B412C512C28EC622E22E4722E80
:1013D000BBCFC301B201905820E030E048EC52E4AA
:1013E000CACFE0914D04E983E11109C080914E0418
:1013F000811105C041E08091E0028B3008F440E0AB
:10140000B4018BE094E033DC298121110AC0809182
:101410004E04811107C061E069838091E0028B3046
:1014200008F419824981B601B3CE8093020370910A
:10143000040379837835C0F56091E1027091E2028E
:101440008091E3029091E4020E94141C6B017C01E4
:101450008981282F30E050E040E0215031094109D6
:10146000510961E070E080E090E06C197D098E091F
:101470009F090E94491C27E530E040E050E00E94AF
:10148000EA1ACA01B9016C0D7D1D8E1D9F1D0E94B7
:10149000D7196093F1027093F2028093F302909354
:1014A000F40281E08093B80289818855803508F084
:1014B000B8C01092F1021092F2021092F302109250
:1014C000F402709105037983783520F5272F30E0F9
:1014D000A4E6B0E00E94381B28E530E040E050E090
:1014E0000E94EA1ACA01B9010E94D7196093B40296
:1014F0007093B5028093B6029093B70280E090E0BB
:10150000A8ECB2E48093B0029093B102A093B2022F
:10151000B093B30289818855803508F0BFC080E060
:1015200090E0A8ECB2E48093B4029093B502A0934B
:10153000B602B093B7028093B0029093B102A09329
:10154000B202B093B302C090F102D090F202E090E8
:10155000F302F090F4022091B4023091B502409170
:10156000B6025091B702C701B6010E94361A20E0B8
:1015700030E048EC52E40E94AC1B6093FB02709395
:10158000FC028093FD029093FE022091B002309104
:10159000B1024091B2025091B302C701B6010E945C
:1015A000361A20E030E048EC52E40E94AC1B609315
:1015B000F6027093F7028093F8029093F90270910B
:1015C000B80279836091ED027091EE028091EF0292
:1015D0009091F0020E94141C4B016091E9027091FD
:1015E000EA028091EB029091EC020E94141C6B01C4
:1015F00089818111D8CE90914D049D8340914E04F4
:1016000081E04827911140E0B4018BE094E02FDBAA
:10161000ED81E11107CF20914E0481E02827298335
:1016200001CF9981983A08F44CCF6091E102709112
:10163000E2028091E3029091E4020E94141C9B015B
:10164000AC0121503109410951096981685A770B70
:10165000CB01092E000CAA0BBB0BBC01CD016150C4
:101660007109810991090E94491C27E530E040E099
:1016700050E00E94EA1ACA01B9016F5F7F4F8F4F95
:101680009F4F0E94D7196093F1027093F2028093EA
:10169000F3029093F4021092B80213CF8981883A32
:1016A00008F451CF682F6159770B9B0146EF420335
:1016B000B001439F700D11246C597F4F072E000C11
:1016C000880B990B0E94D7196093B0027093B102F6
:1016D0008093B2029093B30280E090E0A8ECB2E471
:1016E0008093B4029093B502A093B602B093B70270
:1016F0002ACF8981853108F4FECB29CB80914D0416
:10170000811105C020914E0481E028272D834D8151
:1017100069817A818BE094E0AADA50CC0F931F9311
:10172000CF93DF93EC0188819981009759F02A814A
:101730003B812617370730F081E0DF91CF911F9171
:101740000F9108958B016F5F7F4F0E949A1D009744
:1017500059F0998388831B830A832C813D81232B35
:1017600059F7FC011082E8CF80E0E7CFEF92FF92BB
:101770000F931F93CF93DF9341155105A9F07B0180
:10178000EC010C811D81040F151FB801C7DF8823F0
:1017900061F0288139818C819D81B701820F931F6F
:1017A0000E947F1E1D830C8381E0DF91CF911F91EA
:1017B0000F91FF90EF900895CF93DF931F921F92A8
:1017C000CDB7DEB720E229831A8241E050E0BE01A6
:1017D0006F5F7F4FCBDF0F900F90DF91CF91089518
:1017E000EF92FF920F931F93CF93DF9300D000D01F
:1017F0001F921F92CDB7DEB77C01CB014AE08E016C
:101800000F5F1F4FB8010E949E19F8010190002040
:10181000E9F73197AF01401B510BB801C701A6DFB3
:1018200028960FB6F894DEBF0FBECDBFDF91CF91E3
:101830001F910F91FF90EF900895EF92FF920F93F9
:101840001F93CF93DF9300D01F92CDB7DEB77C01FB
:10185000862F4AE08E010F5F1F4FB80190E00E9473
:101860009E19F80101900020E9F73197AF01401B64
:10187000510BB801C7017ADF0F900F900F900F90B6
:10188000DF91CF911F910F91FF90EF900895CF932B
:1018900080911704909118042091190430911A0432
:1018A0008217930719F061E00E941E0480911904C9
:1018B00090911A04209117043091180428173907C1
:1018C00019F061E00E941E04CFB7F8948091C9021C
:1018D000811127C0EFEBF1E08491E5E0F2E0949113
:1018E000E82FF0E0EE0FFF1FE45CFE4FA591B491EE
:1018F000EC91E92321F461E085E30E94C60361E0F5
:1019000085E30E941E048CB580618CBD8CB580641B
:101910008CBD61E084E30E941E0461E083E30E94C9
:101920001E048091C9028F5F8093C902CFBF80E0FF
:101930000E940F0481E00E94F303ABD86CE080E0CA
:10194000F8D86FE584E0F5D882E090E00DD98823DF
:1019500019F081E080931D0486E0DFD890E080E0FC
:1019600003D90E940D0480E5C8D883E7C6D80E9439
:101970000B0460E08DE1DDD860E08CE1DAD81092F4
:101980001F0460E787E0D5D86CE485E0D2D80E94D8
:101990000D0482EEB2D80E940B04B6D8DBD880E0EA
:1019A000BCD8682F6E7F80E0C4D890E080E0DCD89F
:1019B00060E085E0BED84091250450E06CE472E020
:1019C00080E294E00E94761EEAEEF0E0849140917D
:1019D00025046CE472E0F1D8E4EEF0E084916091CB
:1019E0001E04A7D882E099D8E6E3F1E0E49161E033
:1019F00070E001C0660FEA95EAF7682B82E099D89B
:101A00004091250466E472E08AE0D7D8409125042D
:101A100066E472E080E1D1D860911E0481E189D84A
:101A2000CF91E9C81F920F920FB60F9211240BB6F7
:101A30000F922F933F934F935F936F937F938F9367
:101A40009F93AF93BF93EF93FF9386E493E00E943D
:101A50007A02FF91EF91BF91AF919F918F917F910A
:101A60006F915F914F913F912F910F900BBE0F900F
:101A70000FBE0F901F9018951F920F920FB60F92E6
:101A800011240BB60F922F938F939F93EF93FF9395
:101A9000E0915603F09157038081E0915C03F0914F
:101AA0005D0382FD1DC0908180915F038F5F8F7306
:101AB00020916003821741F0E0915F03F0E0EA5B60
:101AC000FC4F958F80935F03FF91EF919F918F91D2
:101AD0002F910F900BBE0F900FBE0F901F90189577
:101AE0008081F2CF1F920F920FB60F9211242F9385
:101AF0003F938F939F93AF93BF938091CF02909129
:101B0000D002A091D102B091D2023091CA0223E05A
:101B1000230F2D3758F50196A11DB11D2093CA0240
:101B20008093CF029093D002A093D102B093D202BF
:101B30008091CB029091CC02A091CD02B091CE02C7
:101B40000196A11DB11D8093CB029093CC02A0936E
:101B5000CD02B093CE02BF91AF919F918F913F91F3
:101B60002F910F900FBE0F901F90189526E8230F0E
:101B70000296A11DB11DD2CF1F920F920FB60F92E8
:101B800011240BB60F922F933F934F935F936F9354
:101B90007F938F939F93AF93BF93EF93FF93E091C6
:101BA0000E02F0910F021995FF91EF91BF91AF9145
:101BB0009F918F917F916F915F914F913F912F9165
:101BC0000F900BBE0F900FBE0F901F9018951F9295
:101BD0000F920FB60F9211240BB60F922F933F93D3
:101BE0004F935F936F937F938F939F93AF93BF9325
:101BF000EF93FF93E0910C02F0910D021995FF9184
:101C0000EF91BF91AF919F918F917F916F915F9174
:101C10004F913F912F910F900BBE0F900FBE0F90E1
:101C20001F9018951F920F920FB60F9211240BB6AA
:101C30000F922F933F934F935F936F937F938F9365
:101C40009F93AF93BF93EF93FF93E0910202F091C4
:101C500003021995FF91EF91BF91AF919F918F91E1
:101C60007F916F915F914F913F912F910F900BBE9C
:101C70000F900FBE0F901F9018951F920F920FB6E6
:101C80000F9211240BB60F922F933F934F935F93B4
:101C90006F937F938F939F93AF93BF93EF93FF9334
:101CA000E0910002F09101021995FF91EF91BF912F
:101CB000AF919F918F917F916F915F914F913F91E4
:101CC0002F910F900BBE0F900FBE0F901F90189585
:101CD0001F920F920FB60F9211240BB60F922F93F3
:101CE0003F934F935F936F937F938F939F93AF93A4
:101CF000BF93EF93FF93E0910A02F0910B021995C5
:101D0000FF91EF91BF91AF919F918F917F916F91D3
:101D10005F914F913F912F910F900BBE0F900FBE8F
:101D20000F901F9018951F920F920FB60F921124CB
:101D30000BB60F922F933F934F935F936F937F93C5
:101D40008F939F93AF93BF93EF93FF93E09108021C
:101D5000F09109021995FF91EF91BF91AF919F9179
:101D60008F917F916F915F914F913F912F910F9044
:101D70000BBE0F900FBE0F901F9018951F920F92E1
:101D80000FB60F9211240BB60F922F933F934F93E0
:101D90005F936F937F938F939F93AF93BF93EF93D3
:101DA000FF93E0910602F09107021995FF91EF91E0
:101DB000BF91AF919F918F917F916F915F914F9163
:101DC0003F912F910F900BBE0F900FBE0F901F9061
:101DD00018951F920F920FB60F9211240BB60F9207
:101DE0002F933F934F935F936F937F938F939F9323
:101DF000AF93BF93EF93FF93E0910402F09105023C
:101E00001995FF91EF91BF91AF919F918F917F9124
:101E10006F915F914F913F912F910F900BBE0F905B
:101E20000FBE0F901F9018951F920F920FB60F9232
:101E300011240BB60F922F933F934F935F936F93A1
:101E40007F938F939F93AF93BF93EF93FF93F0E0B4
:101E5000E0E01995FF91EF91BF91AF919F918F9124
:101E60007F916F915F914F913F912F910F900BBE9A
:101E70000F900FBE0F901F901895CF93DF93E6E45D
:101E8000F3E01382128288EE93E0A0E0B0E0848356
:101E90009583A683B78386E592E09183808385EC62
:101EA00090E09587848784EC90E09787868780EC24
:101EB00090E0918B808B81EC90E0938B828B82EC15
:101EC00090E0958B848B86EC90E0978B868B118EBF
:101ED000128E138E148EE9E4F4E081E1808380E1B8
:101EE000818312821382E1E4F4E08AE180838BE152
:101EF00081838CE182838DE18383EEEDF1E0E491D7
:101F0000AFE2B4E01496EC931497EFEDF1E0E491B6
:101F10001596EC93159788E991E0FC012491E22F46
:101F2000F0E0EE0FFF1FE059FE4F25913491179618
:101F30003C932E931697E9E9F1E0E491F0E0EE0F7F
:101F4000FF1FEA5AFE4F2591349119963C932E9328
:101F50001897FC018491E82FF0E0EE0FFF1FE45C7E
:101F6000FE4F859194911B969C938E931A9781ECCA
:101F70009CE21D969C938E931C97E7E1F4E087E02A
:101F800090E09183808388E090E09383828316823F
:101F900080E28783108685E0868785E090E0A0E078
:101FA000B0E0848B958BA68BB78B1186C1E1D4E012
:101FB00089E290E09983888388E290E09B838A831A
:101FC0008DE290E09D838C8361E089E20E941E0493
:101FD00061E08A810E941E0461E08C810E941E04DF
:101FE000CBE0D4E08BE290E0998388838AE290E0B2
:101FF0009B838A838CE290E09D838C8361E08BE2FB
:102000000E941E0461E08A810E941E0461E08C81AE
:102010000E941E04E3EEF3E086E696E6A6EABFE33E
:10202000808F918FA28FB38F8DEC9CECACECBEE3D4
:10203000848F958FA68FB78F80E090E0A8ECB2E4F4
:1020400080A391A3A2A3B3A380E090E0AFE2B3E4A6
:1020500084A395A3A6A3B7A3DF91CF910895CF93AF
:10206000DF93CDB7DEB76E970FB6F894DEBF0FBE25
:10207000CDBF789484B5826084BD84B5816084BD11
:1020800085B5826085BD85B5816085BD80916E0016
:10209000816080936E001092810080918100826047
:1020A0008093810080918100816080938100809184
:1020B00080008160809380008091B1008460809373
:1020C000B1008091B00081608093B0008091910058
:1020D0008260809391008091910081608093910053
:1020E000809190008160809390008091A100826037
:1020F0008093A1008091A10081608093A1008091D4
:10210000A00081608093A000809121018260809373
:102110002101809121018160809321018091200122
:1021200081608093200180917A00846080937A009E
:1021300080917A00826080937A0080917A00816039
:1021400080937A0080917A00806880937A00109260
:10215000C10061E082E20E941E0461E081E20E940F
:102160001E0461E080E20E941E0461E084E00E949F
:102170001E0461E080E30E941E0461E081E30E948E
:102180001E0462E083E00E941E0462E082E00E947E
:102190001E0462E0809141040E941E0462E080916E
:1021A00042040E941E0462E0809143040E941E04C7
:1021B00062E0809144040E941E0462E08091490420
:1021C0000E941E0462E080914A040E941E0486E779
:1021D00091E0909303028093020280916A008C60E8
:1021E00080936A00ED9A85ED91E0909301028093CF
:1021F000000280916A00836080936A00EC9AE0910B
:102200005603F091570382E08083E0915203F091EE
:1022100053031082E0915403F09155038FEC8083B7
:1022200010925E03E0915A03F0915B0386E0808395
:10223000E0915803F0915903808180618083E0919F
:102240005803F0915903808188608083E09158039E
:10225000F0915903808180688083E0915803F09168
:10226000590380818F7D808387E692E00E94580623
:102270000EDB83E792E00E945806209145032D8BE8
:10228000309144033E8B8FB7F8944091CF02509128
:10229000D0026091D1027091D2028FBF1A012B013E
:1022A00040933C0330923D0360933E0350923F03C2
:1022B0001092400310924103109242031092430384
:1022C0009A01AB0160E070E080E090E0A090340300
:1022D000B0903503C0903603D0903703E0903803B8
:1022E000F090390300913A0310913B030E94601C67
:1022F000283E334041055105610571058105910571
:10230000B9F0B0F020923403309235034092360396
:1023100050923703109238031092390310923A0307
:1023200010923B0380913303B1E08B2780933303FA
:102330009101A20160E070E080E090E0A0902B03AA
:10234000B0902C03C0902D03D0902E03E0902F036B
:10235000F090300300913103109132030E94601C11
:102360002A3F31054105510561057105810591053A
:1023700009F008F47AC020922B0330922C0340928B
:102380002D0350922E0310922F03109230031092BF
:102390003103109232031A8219821C821B821E8220
:1023A0001D826FE170E0CE010196B8D929813A8192
:1023B000811130C22115310519F0C9010E94111D8A
:1023C0001A8219821E821D821C821B826091030365
:1023D000CE01019632DACE010196EED96091040366
:1023E000CE0101962ADACE010196E6D96091050365
:1023F000CE01019622DACE010196DED96091060364
:10240000CE0101961ADACE010196D6D960910E035B
:10241000CE01019612DACE010196CED960910B035E
:10242000CE0101960ADACE010196C6D96091450324
:1024300070E0CE010196D4D9CE010196BDD960914C
:10244000440370E0CE010196CBD94D815E81698154
:102450007A8186E493E00E943E010E9451068981C0
:102460009A81009711F00E94111D90903C032090DA
:102470003D0380903E0370903F0360904003509076
:1024800041034090420330904303292D322D482DC3
:10249000572D662D752D842D932DA0902303B0907C
:1024A0002403C0902503D0902603E0902703F090EA
:1024B00028030091290310912A030E94601C5901EE
:1024C0006A017B018C01283E3340410551056105BD
:1024D00071058105910509F008F4A6C161E082E269
:1024E0000E94C6039501A601B701C801283B3B40E5
:1024F00041055105610571058105910511F008F04F
:1025000098C1292D322D482D572D662D752D842DDE
:10251000932DA0903802B0903902C0903A02D0902A
:102520003B02E0903C02F0903D0200913E0210918F
:102530003F020E94601C283E334041055105610561
:10254000710581059105C9F1C0F190923802209280
:10255000390280923A0270923B0260923C025092A1
:102560003D0240923E0230923F02809141040E941F
:102570009E0321E0892B09F420E0209345048091FB
:1025800042040E949E0321E0892B09F420E020935D
:102590004604809143040E949E0321E0892B09F4A4
:1025A00020E020934704809144040E949E0321E090
:1025B000892B09F420E020934804292D322D482D41
:1025C000572D662D752D842D932DA0903002B0903F
:1025D0003102C0903202D0903302E0903402F09089
:1025E000350200913602109137020E94601C243F90
:1025F0003140410551056105710581059105B9F02D
:10260000B0F09092300220923102809232027092A9
:102610003302609234025092350240923602309278
:1026200037028091D3028093FA021092D302292DAF
:10263000322D482D572D662D752D842D932DA0906C
:102640002802B0902902C0902A02D0902B02E0907C
:102650002C02F0902D0200912E0210912F020E9468
:10266000601C243F3140410551056105710581051C
:102670009105B9F0B0F09092280220922902809240
:102680002A0270922B0260922C0250922D024092EC
:102690002E0230922F028091D4028093F502109284
:1026A000D402292D322D482D572D662D752D842DC0
:1026B000932DA0902002B0902102C0902202D090D1
:1026C0002302E0902402F09025020091260210914E
:1026D00027020E94601C243F3140410551056105DD
:1026E00071058105910509F008F4DDC09092200282
:1026F0002092210280922202709223026092240290
:102700005092250240922602309227028091FA02CE
:102710008093D5028091F5028093D6028091E002E9
:102720008093D702809102038093D802E091230323
:10273000B0902403C0902503D0902603E090270397
:10274000F09028030091290310912A03292D322D9E
:10275000482D572D662D752D842D932DAE2E0E945C
:10276000601C2E3F3105410551056105710581054C
:10277000910511F008F06FC0892D8E1B8093D9024E
:1027800080E00E940F0480912704909128040E9409
:102790006B018DE10E948D0581FF08C080912704A7
:1027A000909128040E946B010E94840580E00E94A1
:1027B0008D05682F6E7F80E00E94990582E00E945F
:1027C0008D05E6E3F1E0949161E070E001C0660FF1
:1027D0009A95EAF7682B82E00E94990510911E04F1
:1027E000012F1B3008F00AE080911F04101B81119B
:1027F00010E00E940D0480EA0E947D0525EDE22E86
:1028000022E0F22E015048F1D7018D917D010E9406
:102810007D05F8CF8FE190E09E838D8363E872E0C1
:10282000C9010E947F1ED2CD60E082E20E94C603F1
:1028300068CE2DD890922303209224038092250302
:102840007092260360922703509228034092290336
:1028500030922A0356CE8FEF91CF115020F080E0B6
:102860000E947D05FACF0E940B0481E00E940F04B4
:102870000E940D048FEF0E947D05182F0E940B040B
:102880001073B1F380E00E940F0460E787E00E94BC
:10289000990584FD0E9484050E94FB058091DE025B
:1028A0008F5F8093DE02292D322D482D572D662D06
:1028B000752D842D932DA0901802B0901902C09010
:1028C0001A02D0901B02E0901C02F0901D020091B1
:1028D0001E0210911F02F4D7ABE4FBD709F008F4F5
:1028E00065C0909218022092190280921A0270928A
:1028F0001B0260921C0250921D0240921E023092F6
:102900001F02E0913904F0913A04808190913304E0
:10291000892B8083E0913504F09136049081809179
:1029200033048095892380838BE090E00197F1F751
:10293000E0913504F0913604808190913304892B25
:10294000808383E290E00197F1F7E0913504F09104
:102950003604908180913304809589238083E091AF
:102960003904F0913A049081809133048095892351
:102970008083E0913704F091380480819091340491
:10298000892309F43DC190E080E0BC0190E080E043
:1029900029E330E040E050E049D6C901892B31F00D
:1029A0008091E0028093DF022093E002809149044D
:1029B0000E949E0321E0892B09F020E020934D0422
:1029C00080914A040E949E0321E0892B09F020E0B7
:1029D00020934E046091450380E30E94C6036091FA
:1029E000440381E30E94C60380912203FD89F81706
:1029F00099F090921A0320921B0380921C0370920C
:102A00001D0360921E0350921F03409220033092D8
:102A1000210321E02093190380911903882349F1B0
:102A2000292D322D482D572D662D752D842D932D52
:102A3000A0901A03B0901B03C0901C03D0901D03FC
:102A4000E0901E03F0901F030091200310912103DA
:102A500037D72F3831404105510561057105810592
:102A6000910511F008F062C46AE070E084E00E9411
:102A70004F0480911803BE89B81799F09092100303
:102A80002092110380921203709213036092140338
:102A9000509215034092160330921703E1E0E09341
:102AA0000F0380910F03882309F45DC0292D322D77
:102AB000482D572D662D752D842D932DA090100334
:102AC000B0901103C0901203D0901303E090140350
:102AD000F09015030091160310911703F1D68901A8
:102AE0005A016B017C01253931054105510561050C
:102AF00071058105910509F028F46AE070E084E031
:102B00000E944F049801A501B601C7012659310959
:102B1000410951096109710981099109A1E3D9D6D6
:102B200009F028F470E060E084E00E944F0498010E
:102B3000A501B601C701285C3109410951096109A4
:102B40007109810991092539310541055105610551
:102B500071058105910511F008F0C4C06AE070E0CC
:102B600084E00E944F046091330380E20E94C60318
:102B700087E10E948D0580FD0EC190922303209273
:102B800024038092250370922603609227035092BB
:102B900028034092290330922A038CE0FE013196EB
:102BA000A3E0B3E001900D928A95E1F70091E7026E
:102BB0001091E8021093E6020093E50280911E0452
:102BC000E82E8C3010F09CE0E92E90911F04F82E36
:102BD000FE189111F12C0E940D0481E60E947D05E2
:102BE00083E0C82E83E0D82EEA94EFEFEE1609F4C6
:102BF00090C08FEF0E947D05D6018D936D01F4CFBB
:102C00000E942405AB01BC0180913B0490913C04DF
:102C1000B0E0A0E08855994EAF4FBF4F840F951F8D
:102C2000A61FB71F80933D0490933E04A0933F04DA
:102C3000B0934004E0913704F09138048081909182
:102C40003404892381F40E94240500913D041091ED
:102C50003E0420913F0430914004061717072807CF
:102C6000390740F790CE0E94240520913B04309113
:102C70003C04620F731F811D911D60933D0470938E
:102C80003E0480933F0490934004E0913704F09118
:102C90003804808190913404892381F00E942405B6
:102CA00000913D0410913E0420913F043091400476
:102CB000061717072807390740F765CE0E94240535
:102CC00020913B0430913C04A901455051092091C9
:102CD0003D0430913E04FA01E21BF30BCF01860F55
:102CE000971F53CE9801A501B601C7012D3531407C
:102CF00041055105610571058105910509F008F44B
:102D000032CF70E060E084E00E944F0410920F0325
:102D10002ACFFA94BFEFFB1621F08FEF0E947D05BA
:102D2000F8CF0E940B0460E787E00E94990580912C
:102D30000E0390E09093E8028093E702801B910BD2
:102D40000197909301038093000380910D0381FB11
:102D5000992790F99093450382FB882780F9809307
:102D6000440320910A03C22ED12CF12CE12C30E037
:102D7000A4E6B0E07DD46B3E7441810591051CF161
:102D8000C701B60114D36093E1027093E20280930D
:102D9000E3029093E4028091040381111DC08091AD
:102DA00003038823C9F08091050390910603892BC2
:102DB00099F4F1E0F093FF0280910B0381110FC0B1
:102DC0000E94800614C01092E1021092E20210925A
:102DD000E3021092E402DFCF1092FF02EDCF8130C8
:102DE00079F3823069F3833059F3843049F3809169
:102DF00002038350823008F07DC2292D322D482DE8
:102E0000572D662D752D842D932DA0901002B09016
:102E10001102C0901202D0901302E0901402F090C0
:102E2000150200911602109117024AD52639310574
:102E300041055105610571058105910509F008F409
:102E400059C2909210022092110280921202709246
:102E500013026092140250921502409216023092B0
:102E600017026091FB027091FC028091FD0290912B
:102E7000FE02DAD42091FA0230E01B01221A330A52
:102E80003092E4032092E3036091F6027091F7021E
:102E90008091F8029091F902C7D42091F50230E0B8
:102EA0008B01021B130B1093E8030093E703B1019E
:102EB000032C000C880B990B7AD22B013C01E0917A
:102EC000E503F091E603FE87ED87BF01FF0F880B56
:102ED000990B6DD2A3019201DBD320E030E040E0FA
:102EE0005FE3C4D220E030E046E153E4BFD220E00B
:102EF00030E04AE754E430D42091EB033091EC0306
:102F00004091ED035091EE03C3D36093EB037093B4
:102F1000EC038093ED039093EE03B801012E000CB7
:102F2000880B990B44D26F8B788F898F9A8F209161
:102F3000E9033091EA033A8B298BB901330F880BEF
:102F4000990B35D22F89388D498D5A8DA1D320E028
:102F500030E040E05FE38AD220E030E046E153E435
:102F600085D220E030E04AE754E4F6D32091EF0325
:102F70003091F0034091F1035091F20389D36093B3
:102F8000EF037093F0038093F1039093F203C090EA
:102F9000F102D090F202E090F302F090F40220E00F
:102FA00030E0A901C701B60170D41816D4F420E0AE
:102FB00030E040E85FE3C701B601F3D187FF1AC0F4
:102FC0001092EB031092EC031092ED031092EE03BB
:102FD0001092EF031092F0031092F1031092F2039B
:102FE00009C020E030E040E85FEBC701B6014DD4F6
:102FF000181634F3C0900704D0900804E090090438
:10300000F0900A04A70196016091EB037091EC0324
:103010008091ED039091EE0338D4181644F4C092D9
:10302000EB03D092EC03E092ED03F092EE03460145
:103030005701B7FAB094B7F8B094A5019401609124
:10304000EB037091EC038091ED039091EE03A9D115
:1030500087FF08C08092EB039092EC03A092ED03EF
:10306000B092EE032091EF033091F0034091F10311
:103070005091F203C701B60194D187FF08C0C092F6
:10308000EF03D092F003E092F103F092F20320916B
:10309000EF033091F0034091F1035091F203C50129
:1030A000B401F3D3181644F48092EF039092F00326
:1030B000A092F103B092F203B1018D859E85681B49
:1030C000790B072E000C880B990B71D14B015C0119
:1030D0008092F3039092F403A092F503B092F6036A
:1030E000B801A989BA896A1B7B0B072E000C880BD3
:1030F000990B5DD16D877E878F87988B6093F703DF
:103100007093F8038093F9039093FA038091FB0383
:103110009091FC03A091FD03B091FE03898B9A8BE3
:10312000AB8BBC8B2091FF033091000440910104D4
:103130005091020460E070E080E89FE30DD36B01E2
:103140007C018091030490910404A0910504B09146
:1031500006048B8F9C8FAD8FBE8F2091EB03309137
:10316000EC034091ED035091EE03C701B6017ED10F
:10317000A30192018DD22B013C012B8D3C8D4D8DF5
:103180005E8DC501B40172D120E030E046E153E428
:10319000E3D29B01AC01C301B2017AD24B015C01C5
:1031A0002AE939E949E95FE369897A898B899C8948
:1031B0005DD19B01AC01C501B40158D14B015C014B
:1031C0008092ED029092EE02A092EF02B092F00295
:1031D0002091EF033091F0034091F1035091F203FD
:1031E000C701B60143D12F89388D498D5A8D50D2F0
:1031F0006B017C012B8D3C8D4D8D5E8D6D857E85AB
:103200008F85988933D120E030E046E153E4A4D2A1
:103210009B01AC01C701B6013BD229893A894B8990
:103220005C8924D16B017C01C092E902D092EA0250
:10323000E092EB02F092EC0220E030E04FE753E442
:10324000C501B40122D3181664F480E090E0AFE722
:10325000B3E48093ED029093EE02A093EF02B0935B
:10326000F00220E030E0A9016091ED027091EE02E1
:103270008091EF029091F00294D087FF08C01092E5
:10328000ED021092EE021092EF021092F00220E096
:1032900030E04FE753E4C701B601F7D2181664F4E3
:1032A00080E090E0AFE7B3E48093E9029093EA0214
:1032B000A093EB02B093EC0220E030E0A901609112
:1032C000E9027091EA028091EB029091EC0269D0E0
:1032D00087FF08C01092E9021092EA021092EB02F6
:1032E0001092EC023092E6032092E5031093EA0379
:1032F0000093E9038091000390910103039724F464
:103300008091FF02882341F08BE094E00E94280620
:1033100081E194E00E9428069D8990932203AE8962
:10332000A09318030E9407030C943D1170E060E025
:1033300084E00E944F04109219039BCBBB274A30B4
:1033400031F4992322F4BDE2909581959F4F01C0FD
:10335000BB27FB015527AA27880F991FAA1FA4176F
:1033600010F0A41B83955051B9F7A05DAA3308F063
:10337000A95DA193009779F7B111B1931192CB0197
:1033800000C0DC01FC01672F71917723E1F73297D0
:1033900004C07C916D9370836291AE17BF07C8F330
:1033A000089540D008F481E00895E89409C097FB9F
:1033B0003EF490958095709561957F4F8F4F9F4F0C
:1033C0009923A9F0F92F96E9BB279395F695879550
:1033D00077956795B795F111F8CFFAF4BB0F11F413
:1033E00060FF1BC06F5F7F4F8F4F9F4F16C08823BA
:1033F00011F096E911C0772321F09EE8872F762FF0
:1034000005C0662371F096E8862F70E060E02AF030
:103410009A95660F771F881FDAF7880F969587951C
:1034200097F90895990F0008550FAA0BE0E8FEEFF1
:1034300016161706E807F907C0F012161306E40778
:10344000F50798F0621B730B840B950B39F40A2671
:1034500061F0232B242B252B21F408950A2609F44F
:10346000A140A6958FEF811D811D08950BD078C0D6
:1034700069D028F06ED018F0952309F05AC05FC0CB
:103480001124A2C07ED0A0F3959FD1F3950F50E0F8
:10349000551F629FF001729FBB27F00DB11D639F06
:1034A000AA27F00DB11DAA1F649F6627B00DA11DAC
:1034B000661F829F2227B00DA11D621F739FB00D52
:1034C000A11D621F839FA00D611D221F749F3327C2
:1034D000A00D611D231F849F600D211D822F762F5B
:1034E0006A2F11249F5750408AF0E1F088234AF058
:1034F000EE0FFF1FBB1F661F771F881F91505040A4
:10350000A9F79E3F510570F014C05EC05F3FECF319
:10351000983EDCF3869577956795B795F795E7958F
:103520009F5FC1F7FE2B880F911D9695879597F9A0
:10353000089597F99F6780E870E060E008959FEF35
:1035400080EC089500240A9416161706180609063A
:10355000089500240A941216130614060506089509
:10356000092E0394000C11F4882352F0BB0F40F491
:10357000BF2B11F460FF04C06F5F7F4F8F4F9F4FD1
:10358000089557FD9058440F551F59F05F3F71F053
:103590004795880F97FB991F61F09F3F79F08795BA
:1035A0000895121613061406551FF2CF4695F1DF43
:1035B00008C0161617061806991FF1CF86957105D3
:1035C000610508940895E894BB2766277727CB0107
:1035D00097F90895052E97FB16F400940FD057FD28
:1035E00005D024D007FC02D046F408C05095409581
:1035F000309521953F4F4F4F5F4F0895909580959F
:10360000709561957F4F8F4F9F4F089531D0A59F43
:10361000900DB49F900DA49F800D911D11240895CD
:10362000B7FFF4CFF3DF821B930B0895A1E21A2EAC
:10363000AA1BBB1BFD010DC0AA1FBB1FEE1FFF1F56
:10364000A217B307E407F50720F0A21BB30BE40BA6
:10365000F50B661F771F881F991F1A9469F76095ED
:103660007095809590959B01AC01BD01CF010895A7
:10367000A29FB001B39FC001A39F700D811D1124B3
:10368000911DB29F700D811D1124911D08955058F8
:10369000BB27AA270ED064CF55DF30F05ADF20F0C9
:1036A00031F49F3F11F41EF44ACF0EF4E095E7FB8E
:1036B00040CFE92F66DF80F3BA17620773078407EC
:1036C000950718F071F49EF57ECF0EF4E0950B2E61
:1036D000BA2FA02D0B01B90190010C01CA01A00164
:1036E0001124FF27591B99F0593F50F4503E68F1BF
:1036F0001A16F040A22F232F342F4427585FF3CF00
:10370000469537952795A795F0405395C9F77EF4D0
:103710001F16BA0B620B730B840BBAF09150A1F019
:10372000FF0FBB1F661F771F881FC2F70EC0BA0F9F
:10373000621F731F841F48F4879577956795B79527
:10374000F7959E3F08F0B3CF9395880F08F099271F
:10375000EE0F9795879508950CD002CFFADE40F0D2
:10376000F1DE30F021F45F3F19F0E3CE51112CCFA0
:10377000E6CE07DF98F39923C9F35523B1F3951BE0
:10378000550BBB27AA2762177307840738F09F5F82
:103790005F4F220F331F441FAA1FA9F333D00E2EF1
:1037A0003AF0E0E830D091505040E695001CCAF75E
:1037B00029D0FE2F27D0660F771F881FBB1F261723
:1037C00037074807AB07B0E809F0BB0B802DBF01F6
:1037D000FF2793585F4F2AF09E3F510568F0A9CE0E
:1037E000F3CE5F3FECF3983EDCF3869577956795D3
:1037F000B795F7959F5FC9F7880F911D96958795A7
:1038000097F90895E1E0660F771F881FBB1F6217C5
:1038100073078407BA0720F0621B730B840BBA0B83
:10382000EE1F88F7E095089504D06894B111CCCECE
:103830000895AFDE88F09F5790F0B92F9927B751C0
:10384000A0F0D1F0660F771F881F991F1AF0BA9564
:10385000C9F712C0B13081F0B6DEB1E00895B3CE41
:10386000672F782F8827B85F39F0B93FCCF386955A
:1038700077956795B395D9F73EF4909580957095B7
:1038800061957F4F8F4F9F4F0895CCDD08F48FEFE8
:103890000895DB018F939F93B9DEBF91AF91A29FF3
:1038A000800D911DA39F900DB29F900D112408953E
:1038B000EE0FFF1F881F8BBF0790F691E02D199424
:1038C0002A193B094C095D096E097F09800B910B90
:1038D00008950024A7FD00942A17300540055005DF
:1038E000600570058005900508950F931F93CF9391
:1038F000DF938230910510F482E090E0E091530470
:10390000F091540430E020E0B0E0A0E0309799F46A
:103910002115310509F44AC0281B390B2430310523
:10392000D8F58A819B816115710589F1FB0193832B
:103930008283FE0111C040815181028113814817A9
:103940005907E0F04817590799F4109761F012965B
:103950000C93129713961C933296CF01DF91CF915F
:103960001F910F9108950093530410935404F4CFC2
:103970002115310551F04217530738F0A901DB0139
:103980009A01BD01DF01F801C1CFEF01F9CF90939A
:10399000540480935304CDCFFE01E20FF31F8193B3
:1039A00091932250310939832883D7CF2091510434
:1039B00030915204232B41F4209142023091430272
:1039C00030935204209351042091400230914102DF
:1039D0002115310541F42DB73EB740914402509175
:1039E0004502241B350BE0915104F0915204E2177B
:1039F000F307A0F42E1B3F0B2817390778F0AC0112
:103A00004E5F5F4F2417350748F04E0F5F1F5093EE
:103A1000520440935104819391939FCFF0E0E0E0F2
:103A20009CCFCF93DF930097E9F0FC01329713828C
:103A30001282A0915304B0915404ED0130E020E0D3
:103A40001097A1F420813181820F931F209151049E
:103A5000309152042817390709F061C0F0935204DD
:103A6000E0935104DF91CF910895EA01CE17DF076B
:103A7000E8F54A815B819E0141155105B1F7E901E5
:103A8000FB83EA8349915991C40FD51FEC17FD07B9
:103A900061F4808191810296840F951FE9019983D9
:103AA0008883828193819B838A83F0E0E0E0129691
:103AB0008D919C9113970097B9F52D913C91119799
:103AC000CD010296820F931F209151043091520430
:103AD0002817390739F6309751F51092540410928F
:103AE0005304B0935204A0935104BCCFD383C28338
:103AF00040815181840F951FC817D90761F44E5F2B
:103B00005F4F88819981480F591F518340838A8173
:103B10009B81938382832115310509F0B0CFF09307
:103B20005404E09353049ECFFD01DC01C0CF138207
:103B30001282D7CF4F925F926F927F928F929F9215
:103B4000AF92BF92CF92DF92EF92FF920F931F93AB
:103B5000CF93DF938C01009791F4CB01DF91CF914C
:103B60001F910F91FF90EF90DF90CF90BF90AF909B
:103B70009F908F907F906F905F904F90B6CEFC019A
:103B8000E60FF71F9C0122503109E217F30708F4F2
:103B9000AAC0D901CD91DC911197C617D70718F1AA
:103BA000C530D10570F0CE0104978617970748F00D
:103BB000C61BD70B2297C193D1936D937C93CF01F2
:103BC00030DFC801DF91CF911F910F91FF90EF90EF
:103BD000DF90CF90BF90AF909F908F907F906F902D
:103BE0005F904F9008955B01AC1ABD0A4C018C0E9A
:103BF0009D1EA0915304B0915404512C412CF12CE2
:103C0000E12C109731F58091510490915204881560
:103C1000990509F05CC04616570608F058C0809117
:103C2000400290914102009741F48DB79EB74091B8
:103C3000440250914502841B950BE817F90708F0E0
:103C400052C0F0935204E0935104F90171836083F0
:103C5000B8CF8D919C91119712966C9012971396F4
:103C60007C901397A815B90559F56C0142E0C40E74
:103C7000D11CCA14DB0420F1AC014A195B09DA013A
:103C80001296159780F06282738251834083D90126
:103C90006D937C93E114F10471F0D7011396FC93BA
:103CA000EE9312978ECF22968C0F9D1FF901918370
:103CB0008083F301EFCFF0935404E093530481CF5A
:103CC0004816590608F42C017D01D3019ACFCB0187
:103CD0000CDE7C01009739F0AE01B80107D0C801B5
:103CE000A0DE87016ECF10E000E06BCFFB01DC01AE
:103CF00002C001900D9241505040D8F70895FB0149
:103D0000DC0101900D920020E1F70895F894FFCFB7
:103D10007C057C057C057C057C057C057C057C059B
:103D20002B00000000000000250000000000000043
:103D30000C00000000000000430000000000000034
:103D40003D0000000000000017000000000000001F
:103D5000000055048000314E6F646532314E6F644F
:103D60006531000000009C023E013402E802650259
:103D7000430257020D0A005374617274696E672E14
:103D80002E2E00536574757020636F6D706C6574B2
:103D90006564005B584C20594C20585220595220E1
:103DA0004D5347204354524C20414C2041525D20FA
:043DB0003D200000B2
:00000001FF
