:10000000ACC100000C94DF080C94B4080C9489086F
:100010000C945E080C943308FBC70000CEC70000A8
:10002000A1C70000CBC10000C9C10000C7C10000CA
:10003000C5C10000C3C10000C1C10000BFC10000B4
:10004000BDC10000BBC10000B9C10000B7C10000C4
:10005000B5C10000B3C10000B1C1000039C7000044
:10006000ADC1000038C500000DC50000A7C10000EB
:10007000A5C10000A3C10000A1C100009FC10000F4
:100080009DC100009BC1000099C1000097C1000004
:1000900095C1000093C1000091C100008FC1000014
:1000A0008DC100008BC1000089C1000087C1000024
:1000B00085C1000083C1000081C100007FC1000034
:1000C0007DC100007BC1000079C1000077C1000044
:1000D00075C1000073C1000071C100006FC1000054
:1000E0006DC100000B030E03FD020103070345036E
:1000F000120316031C03200324032A032E033203D6
:10010000450338033C0340035A065F0664066E0647
:100110007806F10682068A0692069C06A606B006B6
:10012000BF06C906F106D306DD06E70600407A10D1
:10013000F35A00A0724E18090010A5D4E80000E898
:100140007648170000E40B54020000CA9A3B0000F6
:1001500000E1F505000080969800000040420F0085
:100160000000A08601000000102700000000E80346
:10017000000000006400000000000A000000000011
:100180000100000000002C76D888DC674F0823DFD0
:10019000C1DFAE59E1B1B796E5E3E453C63AE651A3
:1001A000997696E8E6C28426EB898C9B62ED407CCA
:1001B0006FFCEFBC9C9F40F2BAA56FA5F490055A66
:1001C0002AF75C936B6CF9676DC11BFCE0E40D478B
:1001D000FEF520E6B500D0ED902E030094357705AE
:1001E0000080841E080000204E0A000000C80C3366
:1001F0003333330F986E12831141EF8D2114893BF5
:10020000E65516CFFEE6DB18D1844B381BF77C1D74
:10021000901DA4BBE424203284725E228100C9F1C7
:1002200024ECA1E53D2700002100240027002A003E
:100230002D003000330001010000040107010A0114
:1002400000002200250028002B002E003100340081
:1002500002010000050108010B010000200023003D
:10026000260029002C002F003200000100000301AD
:100270000601090105050505070508080808020229
:1002800002020A0A08080404040401010101010130
:1002900001010303030303030303040707070C0C13
:1002A0000C0C0C0C0C0C02020202060606060606DA
:1002B00006060B0B0B0B0B0B0B0B0102102020087F
:1002C00008102040102040800201020108040201B1
:1002D0000102040810204080804020100804020120
:1002E0008004020180402010080402010804020179
:1002F0000102040810204080010204081020408000
:1003000000000A0B02090C0D0E080703040100008F
:1003100000000000000000000000000000000000DD
:10032000000000000000000000000000121110009A
:1003300000000000000000000000000000000000BD
:100340000000000000001112131415160A0B0C0D0A
:100350000E0F0001020304051E1811241FBECFEF6B
:10036000D1E2DEBFCDBF00E00CBF12E0A0E0B2E002
:10037000EAE6F0E400E00BBF02C007900D92AA3C51
:10038000B107D9F72BE0AAECB2E001C01D92A53964
:10039000B207E1F711E0CDEAD1E000E006C0219715
:1003A0000109802FFE010E94FB1DCC3AD10780E09D
:1003B0000807A9F70E9413130C94332021CE089547
:1003C00080E090E00895FC01538D448D252F30E0AE
:1003D000842F90E0821B930B541710F0CF96089552
:1003E00001970895FC01918D828D981761F0828D9F
:1003F000DF01A80FB11D5D968C91928D9F5F9F7359
:10040000928F90E008958FEF9FEF0895FC01918DFA
:10041000828D981731F0828DE80FF11D858D90E067
:1004200008958FEF9FEF0895FC01918D228D892F04
:1004300090E0805C9F4F821B91098F7399270895EC
:1004400086E893E0F1DF21E0892B09F420E0822F98
:100450000895FC01848DDF01A80FB11DA35ABF4F81
:100460002C91848D90E001968F739927848FA689B3
:10047000B7892C93A089B1898C91837080648C9307
:10048000938D848D981306C00288F389E02D8081B6
:100490008F7D80830895EF92FF920F931F93CF93E8
:1004A000DF93EC0181E0888F9B8D8C8D981305C0C4
:1004B000E889F989808185FD25C0F62E0B8D10E035
:1004C0000F5F1F4F0F731127E02E8C8DE8120BC0AA
:1004D0000FB607FCFACFE889F989808185FFF5CF4F
:1004E000CE01B7DFF2CF8B8DFE01E80FF11DE35A8D
:1004F000FF4FF0829FB7F8940B8FEA89FB898081C8
:1005000080620AC09FB7F894EE89FF896083E8890A
:10051000F98980818370806480839FBF81E090E04F
:10052000DF91CF911F910F91FF90EF900895CF939E
:10053000DF93EC01888D8823C1F0EA89FB898081F3
:1005400085FD05C0A889B9898C9186FD0EC00FB6BE
:1005500007FCF5CF808185FFF2CFA889B9898C91FE
:1005600085FFEDCFCE0175DFE8CFDF91CF91089504
:1005700080E090E0892B19F063DF811125C080E0D5
:1005800090E0892B41F080E090E0892B21F00E94DF
:10059000000081111CC080E090E0892B41F080E0D8
:1005A00090E0892B21F00E940000811113C080E0AF
:1005B00090E0892BA1F080E090E0892B81F00E94EF
:1005C000000081110AC008950E940000D8CF0E9447
:1005D0000000E1CF0E940000EACF0C9400000895D3
:1005E00090E0FC013197E231F10508F04EC0882718
:1005F000EE58FF4F8F4F0C94FB1D809180008F773A
:1006000003C0809180008F7D809380000895809149
:100610008000877FF9CF84B58F7702C084B58F7D46
:1006200084BD08958091B0008F7703C08091B000A1
:100630008F7D8093B0000895809190008F7707C0E0
:10064000809190008F7D03C080919000877F809380
:10065000900008958091A0008F7707C08091A0003E
:100660008F7D03C08091A000877F8093A0000895B4
:10067000809120018F7707C0809120018F7D03C07A
:1006800080912001877F8093200108953FB7F894DF
:100690008091650390916603A0916703B091680310
:1006A00026B5A89B05C02F3F19F00196A11DB11DCD
:1006B0003FBFBA2FA92F982F8827820F911DA11D08
:1006C000B11DBC01CD0142E0660F771F881F991F45
:1006D0004A95D1F7089508950F931F93CF93DF9311
:1006E00000D000D0CDB7DEB7CE0101960E9407132F
:1006F00060E572E0CE0101960E94CF1261E170E0E8
:10070000CE0101960E94F31166E572E0CE010196DA
:100710000E94CF126091DB027091DC028091DD02B9
:100720009091DE020E94CB1DCE0101960E94A6127E
:1007300060E672E0CE0101960E94CF1260915F03E5
:10074000CE0101960E94A61260E672E0CE010196EB
:100750000E94CF1260915E03CE0101960E94A61204
:1007600063E672E0CE0101960E94CF1203E214E02C
:10077000F80160817181CE0101960E94F31160E65B
:1007800072E0CE0101960E94CF12F801648175815A
:10079000CE0101960E94F3116FE672E0CE01019640
:1007A0000E94CF12F80160857185828593850E9431
:1007B000CB1DCE0101960E94A61260E672E0CE012A
:1007C00001960E94CF12F80164857585868597850C
:1007D0000E94CB1DCE0101960E94A61266E772E030
:1007E000CE0101960E94CF12F80160897189828939
:1007F00093890E94CB1DCE0101960E94A61260E64D
:1008000072E0CE0101960E94CF12F80164897589C9
:10081000868997890E94CB1DCE0101960E94A6125F
:100820006EE772E0CE0101960E94CF126091CE0277
:100830007091CF028091D0029091D1020E94CB1D85
:10084000CE0101960E94A61260E672E0CE010196EA
:100850000E94CF126091CA027091CB028091CC02AB
:100860009091CD020E94CB1DCE0101960E94A6124E
:1008700068E872E0CE0101960E94CF12CE01019687
:100880000E94CE1189819A810E94B61E26960FB6CB
:10089000F894DEBF0FBECDBFDF91CF911F910F91B6
:1008A0000895CF93DF9300D000D0CDB7DEB7CE014F
:1008B00001960E94071344E050E06AE872E0CE011E
:1008C00001960E94DD126091E002CE0101960E9425
:1008D000A6126FE872E0CE0101960E94CF126091DD
:1008E000E102CE0101960E94A6128091DA028111E6
:1008F00003C065E972E002C06AE972E0CE010196C8
:100900000E94CF126FE972E0CE0101960E94CF12D1
:100910004091DB025091DC026091DD027091DE02B9
:10092000CE0101960E94211265EA72E0CE01019685
:100930000E94CF124091D6025091D7026091D80206
:100940007091D902CE0101960E9421126BEA72E0E9
:10095000CE0101960E94CF1261EB72E0CE010196AA
:100960000E94CF1260915F03CE0101960E94A612F1
:1009700069EB72E0CE0101960E94CF1260912304D0
:1009800070912404CE0101960E94F3116FEB72E086
:10099000CE0101960E94CF124091CE025091CF021B
:1009A0006091D0027091D102CE0101960E94211275
:1009B000CE0101960E94CE1189819A810E94B61EB5
:1009C00026960FB6F894DEBF0FBECDBFDF91CF9154
:1009D00008950F931F93CF93DF9300D000D0CDB72E
:1009E000DEB7CE0101960E9407130FED12E0F80169
:1009F0006081CE0101960E94A612CE0101960E944E
:100A0000DF11F8016181CE0101960E94A612CE018C
:100A100001960E94DF11F8016281CE0101960E94C9
:100A2000A612CE0101960E94DF11F8016381CE016A
:100A300001960E94A612CE0101960E94DF11F801D4
:100A40006385CE0101960E94A612CE0101960E94F6
:100A5000DF11F8016185CE0101960E94A612CE0138
:100A600001960E94CE1189819A810E94B61E269617
:100A70000FB6F894DEBF0FBECDBFDF91CF911F91AF
:100A80000F9108951F920F920FB60F9211240BB67B
:100A90000F922F933F934F935F936F937F938F9317
:100AA0009F93AF93BF93EF93FF9386E893E0D1DCDE
:100AB000FF91EF91BF91AF919F918F917F916F9136
:100AC0005F914F913F912F910F900BBE0F900FBEF2
:100AD0000F901F9018951F920F920FB60F9211242E
:100AE0000BB60F922F938F939F93EF93FF93E09109
:100AF0009603F09197038081E0919C03F0919D0310
:100B000082FD12C0908180919F038F5F8F7320912F
:100B1000A003821751F0E0919F03F0E0EA57FC4FE9
:100B2000958F80939F0301C08081FF91EF919F91EA
:100B30008F912F910F900BBE0F900FBE0F901F90B3
:100B40001895CF93DF93282F30E0F901E050FD4F47
:100B50008491F901E654FD4FD491F901EC58FD4F11
:100B6000C491CC2389F081113BDDEC2FF0E0EE0F36
:100B7000FF1FE65AFD4FA591B491EC91ED2381E062
:100B800090E021F480E002C080E090E0DF91CF911E
:100B900008951F93CF93DF93282F30E0F901E050A1
:100BA000FD4F8491F901E654FD4FD491F901EC58C1
:100BB000FD4FC491CC23B9F0162F811111DDEC2F1C
:100BC000F0E0EE0FFF1FE05CFD4FA591B4919FB7E1
:100BD000F894111104C08C91D095D82302C0EC91E7
:100BE000DE2BDC939FBFDF91CF911F910895CF93B0
:100BF000DF9390E0FC01E654FD4F2491FC01EC589A
:100C0000FD4F8491882361F190E0880F991FFC01CA
:100C1000EA5DFD4FC591D491FC01E05CFD4FA591CB
:100C2000B491611109C09FB7F894888120958223FF
:100C30008883EC912E230BC0623061F49FB7F89447
:100C40008881322F309583238883EC912E2B2C932F
:100C50009FBF06C08FB7F894E8812E2B28838FBFE3
:100C6000DF91CF9108951F93CF93DF93182FEB015E
:100C700061E0BDDF209711F460E004C0CF3FD105F3
:100C800031F461E0812FDF91CF911F9182CFE12F6D
:100C9000F0E0E050FD4FE4918E2F90E0FC013197A1
:100CA000E231F10508F09DC08827EC57FF4F8F4FC8
:100CB0000C94FB1D84B5806884BDC7BD97C084B506
:100CC000806284BDC8BD92C080918000806880939E
:100CD0008000D0938900C093880088C080918000F4
:100CE000806280938000D0938B00C0938A007EC086
:100CF00080918000886080938000D0938D00C093A5
:100D00008C0074C08091B00080688093B000C09364
:100D1000B3006CC08091B00080628093B000C0933B
:100D2000B40064C080919000806880939000D0935C
:100D30009900C09398005AC080919000806280937F
:100D40009000D0939B00C0939A0050C08091900077
:100D5000886080939000D0939D00C0939C0046C013
:100D60008091A00080688093A0008091A0008F7B7C
:100D70008093A000D093A900C093A80037C08091B1
:100D8000A00080628093A000D093AB00C093AA0023
:100D90002DC08091A00088608093A000D093AD000A
:100DA000C093AC0023C08091200180688093200113
:100DB000D0932901C093280119C08091200180623D
:100DC00080932001D0932B01C0932A010FC0809102
:100DD0002001886080932001D0932D01C0932C01C5
:100DE00005C0C038D1050CF04CCF46CFDF91CF9174
:100DF0001F910895863308F0865390917B00282F29
:100E00002870977F922B90937B00877080648093EB
:100E10007C0080917A00806480937A0080917A00CF
:100E200086FDFCCF809178002091790090E0922B94
:100E300008958230910538F0880F991F880F991F07
:100E400005970197F1F708958F929F92AF92BF9205
:100E5000CF92DF92EF92FF926B017C0117DC4B0186
:100E60005C01C114D104E104F104E9F00FDCDC0100
:100E7000CB0188199909AA09BB09883E9340A105AD
:100E8000B10578F321E0C21AD108E108F10888EE33
:100E9000880E83E0981EA11CB11CC114D104E1048A
:100EA000F10421F7DECFFF90EF90DF90CF90BF905D
:100EB000AF909F908F9008952FB7F8946091610341
:100EC0007091620380916303909164032FBF089532
:100ED0001F920F920FB60F9211242F933F938F936F
:100EE0009F93AF93BF938091610390916203A09110
:100EF0006303B09164033091600323E0230F2D3727
:100F000020F40196A11DB11D05C026E8230F02960D
:100F1000A11DB11D20936003809361039093620330
:100F2000A0936303B093640380916503909166037B
:100F3000A0916703B09168030196A11DB11D809334
:100F4000650390936603A0936703B0936803BF9112
:100F5000AF919F918F913F912F910F900FBE0F9066
:100F60001F9018951F920F920FB60F9211240BB677
:100F70000F922F933F934F935F936F937F938F9332
:100F80009F93AF93BF93EF93FF93E0910E02F09185
:100F90000F021995FF91EF91BF91AF919F918F91A2
:100FA0007F916F915F914F913F912F910F900BBE69
:100FB0000F900FBE0F901F9018951F920F920FB6B3
:100FC0000F9211240BB60F922F933F934F935F9381
:100FD0006F937F938F939F93AF93BF93EF93FF9301
:100FE000E0910C02F0910D021995FF91EF91BF91E4
:100FF000AF919F918F917F916F915F914F913F91B1
:101000002F910F900BBE0F900FBE0F901F90189551
:101010001F920F920FB60F9211240BB60F922F93BF
:101020003F934F935F936F937F938F939F93AF9370
:10103000BF93EF93FF93E0910202F09103021995A1
:10104000FF91EF91BF91AF919F918F917F916F91A0
:101050005F914F913F912F910F900BBE0F900FBE5C
:101060000F901F9018951F920F920FB60F92112498
:101070000BB60F922F933F934F935F936F937F9392
:101080008F939F93AF93BF93EF93FF93E0910002F1
:10109000F09101021995FF91EF91BF91AF919F914E
:1010A0008F917F916F915F914F913F912F910F9011
:1010B0000BBE0F900FBE0F901F9018951F920F92AE
:1010C0000FB60F9211240BB60F922F933F934F93AD
:1010D0005F936F937F938F939F93AF93BF93EF93A0
:1010E000FF93E0910A02F0910B021995FF91EF91A5
:1010F000BF91AF919F918F917F916F915F914F9130
:101100003F912F910F900BBE0F900FBE0F901F902D
:1011100018951F920F920FB60F9211240BB60F92D3
:101120002F933F934F935F936F937F938F939F93EF
:10113000AF93BF93EF93FF93E0910802F091090200
:101140001995FF91EF91BF91AF919F918F917F91F1
:101150006F915F914F913F912F910F900BBE0F9028
:101160000FBE0F901F9018951F920F920FB60F92FF
:1011700011240BB60F922F933F934F935F936F936E
:101180007F938F939F93AF93BF93EF93FF93E091E0
:101190000602F09107021995FF91EF91BF91AF916F
:1011A0009F918F917F916F915F914F913F912F917F
:1011B0000F900BBE0F900FBE0F901F9018951F92AF
:1011C0000F920FB60F9211240BB60F922F933F93ED
:1011D0004F935F936F937F938F939F93AF93BF933F
:1011E000EF93FF93E0910402F09105021995FF91AE
:1011F000EF91BF91AF919F918F917F916F915F918F
:101200004F913F912F910F900BBE0F900FBE0F90FB
:101210001F9018958EBD00000DB407FEFDCF8EB552
:101220000895EF92FF920F931F93CF93DF937C016A
:10123000A8ECEA0EF11CD701ED91FC913A9768F405
:10124000FC0100E010E0A481B581AB2B49F00F5FF9
:101250001F4F74960A301105B1F78FEF9FEF25C02D
:1012600021153105D1F3A4E1A09FF001A19FF00D5C
:101270001124EC01CE0FDF1F49875A876B877C87CB
:101280003D832C831F821E8218861E861D8681E068
:10129000898B12DE688379838A839B83F70180813F
:1012A0009181019691838083C801DF91CF911F9135
:1012B0000F91FF90EF9008954F925F926F927F92FF
:1012C0008F929F92AF92BF92CF92DF92EF92FF9256
:1012D0000F931F93CF93DF938C01EEDD6B017C01A5
:1012E000E80108531F4FFE0121E030E042E050E0EA
:1012F000138A128A84819581892BA1F18080918043
:10130000A280B38081859285A385B48526013701AB
:10131000481859086A087B08481659066A067B0669
:1013200008F1880D991DAA1DBB1D80839183A2839E
:10133000B38381898823B1F0A585B685109719F408
:10134000338B228B0FC0878590898A179B0750F4B7
:10135000338B228B0196908B87878A179B0710F01F
:10136000538B428B7496E017F10711F684E1F82E47
:101370008A899B89892B39F18885EC81FD818823B5
:1013800021F08E819F81199501C019958A899B89C9
:101390000297C9F4F80180819181892BA1F08C8199
:1013A0009D81892B81F0FE018F2D11928A95E9F79D
:1013B00083DD688379838A839B83F80180819181AF
:1013C0000197918380836496C017D10789F6DF91D6
:1013D000CF911F910F91FF90EF90DF90CF90BF9032
:1013E000AF909F908F907F906F905F904F900895F7
:1013F00080917A0380935E0310927A03089580911E
:10140000790380935F031092790308957F928F92FE
:101410009F92AF92BF92CF92DF92EF92FF920F9383
:101420001F93CF93DF937090EB028090EC0290902B
:10143000ED02D091EE02C091EF02B091F002F09176
:10144000F102E091F202272D382D492D5D2F6C2FEE
:101450007B2F8F2F9E2FA0907103B0907203C090AE
:101460007303D0907403E0907503F09076030091BD
:101470007703109178030E94091EA2E00E94121EB9
:10148000B1F0A8F07092710380927203909273038E
:10149000D0937403C0937503B0937603F0937703EE
:1014A000E093780380917A038F5F80937A03DF91D2
:1014B000CF911F910F91FF90EF90DF90CF90BF9051
:1014C000AF909F908F907F9008957F928F929F9280
:1014D000AF92BF92CF92DF92EF92FF920F931F9342
:1014E000CF93DF937090EB028090EC029090ED022E
:1014F000D091EE02C091EF02B091F002F091F102B2
:10150000E091F202272D382D492D5D2F6C2F7B2F76
:101510008F2F9E2FA0906903B0906A03C0906B0339
:10152000D0906C03E0906D03F0906E0300916F0318
:10153000109170030E94091EA2E00E94121EB1F0D9
:10154000A8F07092690380926A0390926B03D09323
:101550006C03C0936D03B0936E03F0936F03E0933D
:101560007003809179038F5F80937903DF91CF912E
:101570001F910F91FF90EF90DF90CF90BF90AF90B1
:101580009F908F907F9008952F923F924F925F92FD
:101590006F927F928F929F92AF92BF92CF92DF9283
:1015A000EF92FF920F931F93CF93DF93CDB7DEB7E8
:1015B00062970FB6F894DEBF0FBECDBF6091D60222
:1015C0007091D7028091D8029091D9020E94C61DD5
:1015D00020915F0330E01B01221A330A3092240469
:1015E000209223046091D2027091D3028091D402A0
:1015F0009091D5020E94C61D20915E0330E0AB01A0
:10160000421B530B5A8B498B509328044093270459
:10161000B101032C000C880B990B0E94891B2B0134
:101620003C0180912504909126049A838983BC0112
:10163000990F880B990B0E94891BA30192010E94AC
:10164000FA1C20E030E040E05FE30E94E81B20E06D
:1016500030E046E153E40E94E81B20E030E04AE736
:1016600054E40E945E1D20912B0430912C04409183
:101670002D0450912E040E94FA1C60932B04709349
:101680002C0480932D0490932E04A989BA89BD015E
:10169000BB0F880B990B0E94891B6D837E838F8300
:1016A00098870091290410912A04B801012E000C9A
:1016B000880B990B0E94891B2D813E814F81588593
:1016C0000E94FA1C20E030E040E05FE30E94E81B4B
:1016D00020E030E046E153E40E94E81B20E030E0E7
:1016E0004AE754E40E945E1D20912F04309130049B
:1016F00040913104509132040E94FA1C60932F04EF
:10170000709330048093310490933204C090DB02D4
:10171000D090DC02E090DD02F090DE0220E030E0CC
:10172000A901C701B6010E94F71D18165CF420E05C
:1017300030E040E85FE3C701B6010E94831B87FFEA
:101740001BC00AC020E030E040E85FEBC701B601F3
:101750000E94F71D181684F410922B0410922C048A
:1017600010922D0410922E0410922F041092300427
:101770001092310410923204C0904704D090480473
:10178000E0904904F0904A04A701960160912B046F
:1017900070912C0480912D0490912E040E94F71DCD
:1017A000181644F4C0922B04D0922C04E0922D041D
:1017B000F0922E0446015701B7FAB094B7F8B094EE
:1017C000A501940160912B0470912C0480912D044B
:1017D00090912E040E94831B87FF08C080922B04E7
:1017E00090922C04A0922D04B0922E0420912F04EC
:1017F000309130044091310450913204C701B60158
:101800000E94831B87FF08C0C0922F04D09230042F
:10181000E0923104F092320420912F043091300490
:101820004091310450913204C501B4010E94F71D6A
:10183000181644F480922F0490923004A092310440
:10184000B0923204B10129813A81621B730B072ED9
:10185000000C880B990B0E94891B4B015C01609363
:10186000330470933404809335049093360469896B
:101870007A89601B710B072E000C880B990B0E9454
:10188000891B69837A838B839C836093370470936D
:1018900038048093390490933A0480913B049091EA
:1018A0003C04A0913D04B0913E0489879A87AB87A0
:1018B000BC8720913F0430914004409141045091F5
:1018C000420460E070E080E89FE30E945E1D6B01CF
:1018D0007C0120914304309144044091450450918F
:1018E00046042D873E874F87588B20912B043091DB
:1018F0002C0440912D0450912E040E94E81BA3015A
:1019000092010E94FA1C2B013C012D853E854F85DA
:101910005889C501B4010E94E81B20E030E046E18F
:1019200053E40E945E1D9B01AC01C301B2010E9401
:10193000FA1C29853A854B855C850E94E81B4B0182
:101940005C016093CE027093CF028093D00290939B
:10195000D10220912F0430913004409131045091F4
:101960003204C701B6010E94E81B2D813E814F81E0
:1019700058850E94FA1C6B017C012D853E854F85A0
:10198000588969817A818B819C810E94E81B20E0C3
:1019900030E046E153E40E945E1D9B01AC01C701AB
:1019A000B6010E94FA1C29853A854B855C850E9408
:1019B000E81B6B017C016093CA027093CB02809399
:1019C000CC029093CD0220E030E04FE753E4C50114
:1019D000B4010E94F71D181664F480E090E0AFE7B0
:1019E000B3E48093CE029093CF02A093D002B09341
:1019F000D10220E030E0A9016091CE027091CF02C7
:101A00008091D0029091D1020E94831B87FF08C071
:101A10001092CE021092CF021092D0021092D102F8
:101A200020E030E04FE753E4C701B6010E94F71D04
:101A3000181664F480E090E0AFE7B3E48093CA0244
:101A40009093CB02A093CC02B093CD0220E030E083
:101A5000A9016091CA027091CB028091CC02909151
:101A6000CD020E94831B87FF08C01092CA02109209
:101A7000CB021092CC021092CD023092260420921A
:101A8000250449895A8950932A044093290462966F
:101A90000FB6F894DEBF0FBECDBFDF91CF911F917F
:101AA0000F91FF90EF90DF90CF90BF90AF909F90FD
:101AB0008F907F906F905F904F903F902F90089500
:101AC0000F931F93CF93DF9300915F0310E060911A
:101AD000D6027091D7028091D8029091D9020E94CB
:101AE000C61D061B170B1093240400932304C091FA
:101AF0005E03D0E06091D2027091D3028091D40253
:101B00009091D5020E94C61DC61BD70BD093280406
:101B1000C09327040F3F8FEF18071CF50B3F8FEF83
:101B200018070CF055C0033E8FEF180794F40F3CD4
:101B30008FEF18070CF042C009318CEF18070CF436
:101B40006CC00D391F4F5CF520E030E040EA51E4F5
:101B50002AC0023F1F4FBCF520E030E040E051E4D6
:101B600022C00E3111057CF40F301105DCF5023076
:101B700011050CF452C0063011057CF520E030E070
:101B800040E85FE338C0023311058CF1083E134092
:101B90000CF043C020E030E040E751E42CC020E0EE
:101BA00030E040E751E46091CE027091CF02809125
:101BB000D0029091D1020E94FA1C27C020E030E0B0
:101BC00040E451E4F0CF20E030E040EA50E4EBCFD5
:101BD00020E030E040E85FE3E6CF20E030E040EA9C
:101BE00050E409C020E030E040E051E404C020E0CF
:101BF00030E040E451E46091CE027091CF028091D8
:101C0000D0029091D1020E94F91C6093CE02709391
:101C1000CF028093D0029093D10220E030E04FE7D2
:101C200053E46091CE027091CF028091D0029091E6
:101C3000D1020E94F71D181664F480E090E0AFE72F
:101C4000B3E48093CE029093CF02A093D002B093DE
:101C5000D10220E030E0A9016091CE027091CF0264
:101C60008091D0029091D1020E94831B87FF08C00F
:101C70001092CE021092CF021092D0021092D10296
:101C8000CF3F8FEFD8071CF5CB3F8FEFD8070CF075
:101C900054C0C33E8FEFD80794F4CF3C8FEFD807E2
:101CA0000CF041C0C9318CEFD8070CF46BC0CD39B2
:101CB000DF4F54F520E030E040EA51E429C0C23F54
:101CC000DF4FB4F520E030E040E051E421C0CE31F8
:101CD000D10574F4CF30D105D4F5C230D1050CF460
:101CE00051C026977CF520E030E040E85FE338C043
:101CF000C233D1058CF1C83ED3400CF043C020E084
:101D000030E048EC51E42CC020E030E040E751E402
:101D10006091CA027091CB028091CC029091CD0269
:101D20000E94FA1C27C020E030E040E451E4F0CFEC
:101D300020E030E040EA50E4EBCF20E030E040E843
:101D40005FE3E6CF20E030E040EA50E409C020E065
:101D500030E040E051E404C020E030E040E451E4F1
:101D60006091CA027091CB028091CC029091CD0219
:101D70000E94F91C6093CA027093CB028093CC023C
:101D80009093CD0220E030E04FE753E46091CA0227
:101D90007091CB028091CC029091CD020E94F71DF0
:101DA000181664F480E090E0AFE7B3E48093CA02D1
:101DB0009093CB02A093CC02B093CD0220E030E010
:101DC000A9016091CA027091CB028091CC029091DE
:101DD000CD020E94831B87FF08C01092CA02109296
:101DE000CB021092CC021092CD02DF91CF911F91C5
:101DF0000F9108950F931F93CF93DF9380E083D2C9
:101E0000809167049091680414D88DE137D281FFE6
:101E100006C080916704909168040BD825D280E0B9
:101E20002DD2682F6E7F80E038D282E027D2E2E5A3
:101E3000F3E0E49161E070E001C0660FEA95EAF733
:101E4000682B82E02AD2C0915E04DC2FCB3008F0F0
:101E5000DAE080915F04811102C0CD1B01C0C0E0B7
:101E600001D280EAD7D90CE713E0D15028F0F8016D
:101E700081918F01CFD9F9CFCC2321F080E0CAD94D
:101E8000C150FACFEDD181E03ED2ECD18FEFC2D973
:101E9000C82FE6D1C073C9F380E035D260E787E090
:101EA000FCD184FDE1D14ED2809185038F5F809378
:101EB0008503DF91CF911F910F9108958091890B38
:101EC0000E94A10521E0892B09F420E020938D0BCD
:101ED00080918A0B0E94A10521E0892B09F420E062
:101EE00020938E0B80918B0B0E94A10521E0892B02
:101EF00009F420E020938F0B80918C0B0E94A105A8
:101F000021E0892B09F420E02093900B0895CF93D2
:101F100080915704909158042091590430915A04AB
:101F20008217930719F061E00E94F7058091590428
:101F300090915A042091570430915804281739077A
:101F400019F061E00E94F705CFB7F89480917B0308
:101F5000811127C0E9EAF2E08491EFEEF2E094917A
:101F6000E82FF0E0EE0FFF1FEA5DFD4FA591B49161
:101F7000EC91E92321F461E085E30E94C90561E069
:101F800085E30E94F7058CB580618CBD8CB58064BB
:101F90008CBD61E084E30E94F70561E083E30E9469
:101FA000F70580917B038F5F80937B03CFBF80E039
:101FB000AAD181E03BD165E070E080E090E00E9432
:101FC00024076CE080E069D16FE584E066D182E0AF
:101FD00090E066D2882319F081E080935D0486E06A
:101FE0004DD180E090E05CD23DD180E513D983E70C
:101FF00011D936D160E08DE150D160E08CE14DD156
:1020000010925F0460E787E048D16CE485E045D139
:1020100029D182EEFFD824D127D185D180E02ED1DD
:10202000682F6E7F80E039D180E090E039D260E0A7
:1020300085E033D14091650450E06CE172E080E6C8
:1020400094E00E942320ECE4F3E084914091650445
:102050006CE172E035D1E6E4F3E0849160915E04D6
:102060001CD182E00BD1E2E5F3E0E49161E070E0A5
:1020700001C0660FEA95EAF7682B82E00ED1409125
:10208000650466E172E08AE01BD14091650466E177
:1020900072E080E115D160915E0481E1FED0CF91C4
:1020A00051C1CF93DF93EC0160E088810E94C905A4
:1020B00060E08A810E94C90560E070E08C81DF9158
:1020C000CF910C9433060F931F93CF93DF93EC01C2
:1020D0008B0161E088810E94C90560E08A810E94CD
:1020E000C905B8018C81DF91CF911F910F910C949C
:1020F00033060F931F93CF93DF93EC018B0160E0C6
:1021000088810E94C90561E08A810E94C905B801E1
:102110008C81DF91CF911F910F910C943306CF9258
:10212000DF92EF92FF920F931F93CF93DF936C0197
:102130007A018B01C0E0D0E0CE15DF0581F0D80137
:102140006D918D01D601ED91FC910190F081E02D12
:10215000C6011995892B11F02196EECF7E01C7019A
:10216000DF91CF911F910F91FF90EF90DF90CF9073
:10217000089542E050E066EC72E086E893E0CFCF4D
:102180000E941F200F931F93CF93DF93EC01888150
:102190009981009729F02A813B812617370788F417
:1021A0008B016F5F7F4F0E943F1F009761F0998303
:1021B00088831B830A832C813D81232B11F4FC012E
:1021C000108281E001C080E0DF91CF911F910F91DB
:1021D0000895EF92FF920F931F93CF93DF936115B2
:1021E000710511F480E01BC041155105B9F07B0168
:1021F000EC018C819D818A01080F191FB801CE0165
:10220000C1DF882379F3288139818C819D81B701D1
:10221000820F931F0E942C201D830C8381E0DF918D
:10222000CF911F910F91FF90EF900895CF93DF937F
:102230009CB59F7D9CBD9CB5937F9CBD9CB59C7FB0
:102240009CBD9DB591609DBDC7E5D4E0682F8A8196
:102250000E94C9058C899D89DF91CF910C94190743
:1022600081E0E4CF80E0E2CFCF93FCDF81EE0E94FB
:102270000A09C82FF5DF8C2FCF910895CF93C82F6F
:10228000F1DF8C2F8F710E940A098FEF0E940A09DB
:10229000C82FE6DF8C2FCF910895CF93DF93C82FFF
:1022A000D62FE0DF8C2F8F7180620E940A09C82F21
:1022B0008D2F0E940A09D4DF8C2FDF91CF910895D2
:1022C000EF92FF920F931F93CF93DF93182F7B0111
:1022D000C42FC8DF812F8F7180620E940A09D82F16
:1022E0008701CC2339F0F80181918F010E940A09FE
:1022F000C150F7CFB5DF8D2FDF91CF911F910F9197
:10230000FF90EF9008952091570430915804409128
:10231000590450915A042417350721F0682F822F51
:102320000C94C905089580E0A9DF81FD0AC0682FDB
:10233000626080E0B2DF65E070E080E090E00C94E5
:1023400024070895F0DF80E099DF682F616080E066
:10235000A4DF60E787E0A1DF81E0D5DF8091600442
:10236000882339F04091650460E674E08AE0A8DFD4
:1023700010C082E083DFE2E5F3E0E49121E030E0A9
:1023800001C0220FEA95EAF72095622F682382E0C8
:1023900084DF8DE173DF81FD67CF0895CF93DF93F5
:1023A000FC01448155816081718186E893E0B7DE4C
:1023B000EC01DFDE8C0F9D1FDF91CF910895CF934D
:1023C000DF931F921F92CDB7DEB720E229831A82D6
:1023D00041E050E0BE016F5F7F4FFBDE0F900F903A
:1023E000DF91CF910895EF92FF920F931F93CF93B8
:1023F000DF93CDB7DEB728970FB6F894DEBF0FBED8
:10240000CDBF7C01CB014AE08E010F5F1F4FB801A9
:10241000F9D6F80101900020E9F73197AF01401B90
:10242000510BB801C701D5DE28960FB6F894DEBF70
:102430000FBECDBFDF91CF911F910F91FF90EF9015
:102440000895EF92FF920F931F93CF93DF93CDB731
:10245000DEB764970FB6F894DEBF0FBECDBF7C0128
:10246000CB01BA018E010F5F1F4F22E044E0ABD6D3
:10247000FC0101900020E9F73197AF01481B590B8F
:10248000BC01C701A6DE64960FB6F894DEBF0FBE8E
:10249000CDBFDF91CF911F910F91FF90EF900895E5
:1024A0000F931F93CF938C0186E0E8DEC82FC77D82
:1024B0000230110531F4C0628BE990E0A0E0B0E099
:1024C0000DC00130110529F085E590E0A0E0B0E0F5
:1024D00005C0C86081E490E0A0E0B0E080936704AC
:1024E00090936804A0936904B0936A046C2F86E00B
:1024F000D4DE86E0C3DE91E0C81390E0892FCF914F
:102500001F910F910895CF93DF93009771F0FC0115
:1025100001900020E9F73197AF01481B590BBC012E
:1025200086E893E0FCDDEC0102C0C0E0D0E021DEF3
:102530008C0F9D1FDF91CF91089583E09FDE9FEF69
:10254000980F81E0933008F080E00895EF92FF92B9
:102550000F931F93CF93DF9300D01F92CDB7DEB7B9
:102560007C01862F4AE08E010F5F1F4FB80190E07B
:1025700049D6F80101900020E9F73197AF01401BDF
:10258000510BB801C70125DE0F900F900F900F90EF
:10259000DF91CF911F910F91FF90EF9008956115FA
:1025A000710549F0FB0101900020E9F73197AF0177
:1025B000461B570B0ECE80E00895EF92FF920F93CB
:1025C0001F93CF93DF93EC017B018A01BA01DADD1F
:1025D0002881398181110DC02115310519F0C901FA
:1025E0000E94B61E198218821D821C821B821A82CA
:1025F00006C01D830C83B701C9010E942C20CE01A7
:10260000DF91CF911F910F91FF90EF900895FC0102
:1026100011821082138212821582148240E050E0EF
:1026200068EC72E0CACF789484B5826084BD84B5CA
:10263000816084BD85B5826085BD85B5816085BDBD
:1026400080916E00816080936E0010928100809175
:1026500081008260809381008091810081608093FD
:102660008100809180008160809380008091B10022
:1026700084608093B1008091B00081608093B0004D
:10268000809191008260809391008091910081609F
:102690008093910080919000816080939000809160
:1026A000A10082608093A1008091A100816080934D
:1026B000A1008091A00081608093A0008091210101
:1026C00082608093210180912101816080932101AA
:1026D0008091200181608093200180917A00846044
:1026E00080937A0080917A00826080937A00809152
:1026F0007A00816080937A0080917A00806880936C
:102700007A001092C10061E082E20E94F70561E068
:1027100081E20E94F70561E080E20E94F70561E036
:1027200080E30E94F70561E081E30E94F70562E023
:1027300083E00E94F70562E082E00E94F70562E014
:102740008091890B0E94F70562E080918A0B0E94BC
:10275000F70562E080918B0B0E94F70562E08091A3
:102760008C0B0E94F705E0919603F091970382E0AD
:102770008083E0919203F09193031082E09194039F
:10278000F09195038FEC808310929E03E0919A0361
:10279000F0919B0386E08083E0919803F091990388
:1027A000808180618083E0919803F091990380811A
:1027B00088608083E0919803F0919903808180681C
:1027C0008083E0919803F091990380818F7D8083CD
:1027D00084E392E098DE9BDB80E492E094DE64E6A2
:1027E00070E080E090E00E94240785E69AE09093F4
:1027F00003028093020280916A008C6080936A00D9
:10280000ED9A86E09AE09093010280930002809115
:102810006A00836080936A00EC9A21E534E044EF1B
:1028200051E060E070E08FEB9AE00E94110929EE20
:1028300034E044EF51E060E070E085EF99E00E9401
:1028400011092CE633E044EF51E060E070E08BE2E8
:1028500099E00E9411092FEF39E044EF51E060E068
:1028600070E081E698E00E94110928EF39E044EF1A
:1028700051E060E070E087E997E00E9411092EE5E1
:102880003FE048EE53E060E070E08DEC96E00E949F
:10289000110920E63DE046E950E060E070E083E0A9
:1028A00096E00E94110924EC3AE046E950E060E02D
:1028B00070E089E395E00E9411092AEF3EE048EEBE
:1028C00053E060E070E08FE694E00E941109C1E0FF
:1028D0009EE6492E512C612C712C0E945C078B01C5
:1028E0009C016093EB021093EC022093ED02309375
:1028F000EE021092EF021092F0021092F10210928A
:10290000F2028DEC96E00E945C0981E698E00E945C
:102910005C0987E997E00E945C090FDE882329F0B3
:1029200080915D03882309F438C307DE682F6C2784
:1029300082E20E94C90560915C0380E30E94C905A0
:1029400060915B0381E30E94C90580915A0388234B
:1029500011F061E001C060E082E20E94C90587E1F8
:102960008DDC80FF1DC322C07BDC60E787E095DC47
:102970008091EA0290E09093F6028093F5028E191E
:102980009F09019790935803809357038091E90220
:10299000982F91709093590381FB992790F9909308
:1029A0005C0382FB882780F980935B038091E002BF
:1029B00081110FC08091DF02882359F08091E102DC
:1029C000811107C08091E202811103C0C0935A03B4
:1029D00002C010925A032090EB023090EC02D0918A
:1029E000ED028090EE029090EF02B091F002F09133
:1029F000F102E091F20291014D2F582D692D7B2FAC
:102A00008F2F9E2FA0904703B0904803C09049039A
:102A1000D0904A03E0904B03F0904C0300914D039B
:102A200010914E030E94091EAAE00E94121E09F096
:102A300030F480915903882309F459C13FC0209292
:102A4000470330924803D093490380924A039092FF
:102A50004B03B0934C03F0934D03E0934E0387E395
:102A60000E94FA068C0188E30E94FA06D801A81B8E
:102A7000B90B20E533EC0E94031E2FEF33E040E05A
:102A800050E05AD7CA01B90144D6E7E4F3E0DF01C8
:102A900018970D911D912D913C9132932293129391
:102AA000029322E0E73FF20791F76093F7027093F9
:102AB000F8028093F9029093FA02BBCF60E081E3C1
:102AC0000E94C9058091EA02882309F40DC1809112
:102AD0005A03811109C1D091E002DF3618F58D2F1C
:102AE00090E0A0E0B0E09C01AD0121503109410926
:102AF0005109A1EBBFEF48D724E530E040E050E0BA
:102B00001BD7CA01B901605B7F4F8F4F9F4F01D622
:102B10006093DB027093DC028093DD029093DE020F
:102B2000C093DA0281E98D0F823248F41092DB0201
:102B30001092DC021092DD021092DE0229C0D1391F
:102B400038F12D2F30E02B5A3109C901330FAA0B70
:102B5000BB0B9C01AD012150310941095109AFE482
:102B6000B0E006D724E530E040E050E0E5D6CA0109
:102B7000B9016F5F7F4F8F4F9F4FCBD56093DB02C3
:102B80007093DC028093DD029093DE021092DA02F1
:102B9000D091E602DF36A8F42D2F30E0A4E6B0E0B5
:102BA00019D72FE630E040E050E0C6D6CA01B9019F
:102BB000B0D560935303709354038093550390935F
:102BC000560381E98D0F8232A8F480E090E0A8ECF2
:102BD000B2E48093530390935403A0935503B093AE
:102BE000560380934F0390935003A0935103B093E7
:102BF000520321C0D139F8F08D2F90E0A0E0B0E071
:102C00009C01AD012159310941095109ACE9BFEFDE
:102C1000BBD6A301920190D6CA01B9016C597F4F6E
:102C20008F4F9F4F76D560934F03709350038093DF
:102C3000510390935203C090DB02D090DC02E090ED
:102C4000DD02F090DE022091530330915403409155
:102C5000550350915603C701B601BAD520E030E0C4
:102C600048EC52E42BD74B015C016093D602709381
:102C7000D7028093D8029093D90220914F033091CC
:102C800050034091510350915203C701B601A0D5A2
:102C900020E030E048EC52E411D76B017C016093F6
:102CA000D2027093D3028093D4029093D502809184
:102CB000DA0281110DC0C501B40168D78BE494E03C
:102CC00018DAC701B60162D781E594E012DA0CC0C8
:102CD000C501B4015BD78BE494E0F5D9C701B60117
:102CE00055D781E594E0EFD985EF99E03EC161E0E9
:102CF00081E30E94C9058091EA02882309F42FC16B
:102D000080915A0381112BC1D091E002DF3608F582
:102D10008D2F90E0A0E0B0E09C01AD012150310981
:102D200041095109A1EBBFEF2FD6A301920104D6AF
:102D3000CA01B901605B7F4F8F4F9F4FEAD4609308
:102D4000DB027093DC028093DD029093DE02C0937D
:102D5000DA0281E98D0F823248F41092DB02109280
:102D6000DC021092DD021092DE0227C0D13928F178
:102D70002D2F30E021593109C901330FAA0BBB0BAC
:102D80009C01AD012150310941095109AFE4B0E086
:102D9000EFD5A3019201D0D5CA01B9016F5F7F4F72
:102DA0008F4F9F4FB6D46093DB027093DC02809309
:102DB000DD029093DE021092DA02D091E102DF365A
:102DC00008F52D2F30E0A4E6B0E004D62FE630E081
:102DD00040E050E0B1D5CA01B9019BD460935303E0
:102DE00070935403809355039093560380E090E0D2
:102DF000A8ECB2E480934F0390935003A093510347
:102E0000B093520381E98D0F8232A8F480E090E004
:102E1000A8ECB2E48093530390935403A09355031A
:102E2000B093560380934F0390935003A0935103A4
:102E3000B093520327C0D13928F12D2F30E021590A
:102E4000310946EF4203B001439F700D11246C59C4
:102E50007F4F072E000C880B990B5BD460934F03B8
:102E600070935003809351039093520380E090E05D
:102E7000A8ECB2E48093530390935403A0935503BA
:102E8000B0935603C090DB02D090DC02E090DD02EC
:102E9000F090DE022091530330915403409155038A
:102EA00050915603C701B60193D420E030E048ECBE
:102EB00052E404D66093D6027093D7028093D8026E
:102EC0009093D90220914F033091500340915103C8
:102ED00050915203C701B6017BD420E030E048ECAA
:102EE00052E4ECD56093D2027093D3028093D40263
:102EF0009093D5028091DA02811119C06091CE02BF
:102F00007091CF028091D0029091D1023FD68BE494
:102F100094E0EFD86091CA027091CB028091CC020C
:102F20009091CD0233D681E594E0E3D818C060914A
:102F3000CE027091CF028091D0029091D10226D61C
:102F40008BE494E0C0D86091CA027091CB0280916A
:102F5000CC029091CD021AD681E594E0B4D88BE2F0
:102F600099E00E945C0989E395E00E945C098091E8
:102F7000570390915803039724F480915A038823B0
:102F800031F08BE494E08DD881E594E08AD8D5DAED
:102F900080935D030E94B802A0CC0E94870FC5CC2D
:102FA000E090F502F090F602F092F402E092F30263
:102FB000D0915E04DC3010F18CE0D82E80915F045B
:102FC000811102C0DD1901C0D0E04CD981E60E9418
:102FD0000A090FED12E0DA942FEFD21639F08FEFD5
:102FE0000E940A09F80181938F01F5CFDD2309F4CE
:102FF000BBCC8FEF0E940A09D150F8CFDD2EDECF77
:10300000CF93DF93D82FC92F0E945C07ED2FFC2FA1
:10301000AF0148535F4F24E1DF01322F1D923A95F3
:10302000E9F760837183828393837496E417F507CD
:1030300099F711821082DF91CF910895CF93DF939A
:10304000E6E8F3E01382128288EE93E0A0E0B0E0BD
:1030500084839583A683B78386E292E091838083FD
:1030600085EC90E09587848784EC90E0978786874D
:1030700080EC90E0918B808B81EC90E0938B828B45
:1030800082EC90E0958B848B86EC90E0978B868B1E
:10309000118E128E138E148EE9E8FBE08CE1808392
:1030A0008DE181838EE182838FE183838FEB9AE0D0
:1030B000A7DF85EF99E0A4DF8BE299E0A1DF81E64D
:1030C00098E09EDF87E997E09BDF8DEC96E098DF44
:1030D00083E096E095DF89E395E092DF8FE694E068
:1030E0008FDFE7E5F4E087E090E09183808388E07C
:1030F00090E093838283168280E28783108685E046
:10310000868785E090E0A0E0B0E0848B958BA68B6D
:10311000B78B1186C1E5D4E089E290E0998388837A
:1031200088E290E09B838A838DE290E09D838C838C
:1031300061E089E20E94F70561E08A810E94F7055B
:1031400061E08C810E94F705CBE4D4E08BE290E053
:10315000998388838AE290E09B838A838CE290E063
:103160009D838C8361E08BE20E94F70561E08A8198
:103170000E94F70561E08C810E94F705E3E2F4E02C
:103180008AE999E9A9E9BFE3808F918FA28FB38F74
:103190008AE999E9A9E9BEE3848F958FA68FB78F55
:1031A00080E090E0A8ECB2E480A391A3A2A3B3A333
:1031B00080E090E0AFE2B3E484A395A3A6A3B7A315
:1031C000DF91CF910895EF920F931F93CF93DF93E9
:1031D000E80147FD02C034E001C034E1042E000CD8
:1031E000550B57FF03C0519541955109E32E022F0E
:1031F000242FAE012AD0CE01DF91CF911F910F91E4
:10320000EF900895BB274A3031F4992322F4BDE2B0
:10321000909581959F4F01C0BB27FB015527AA2799
:10322000880F991FAA1FA41710F0A41B8395505153
:10323000B9F7A05DAA3308F0A95DA193009779F7CB
:10324000B111B1931192CB014EC28F929F92AF9266
:10325000BF92CF92DF92EF92FF920F931F93CF9383
:10326000DF93CDB7DEB729970FB6F894DEBF0FBE58
:10327000CDBF6A01122FB02E2BE3201720F0FF24C0
:10328000F394F00E02C02CE3F22E0F2D27E0AE01D6
:103290004F5F5F4F50D1BC014981842F89708130CD
:1032A00031F0E1FC06C0E0FE06C090E205C09DE200
:1032B00003C09BE201C090E05E2D507143FF3CC013
:1032C000911102C083E001C084E0811718F4212F1E
:1032D000281B01C020E051110BC0F601822F30E203
:1032E000882319F031938150FBCFC20ED11C20E00E
:1032F000992329F0D6019C93F60131966F01C601FE
:103300000396E2FE0AC03EE4D6013C9341E41196E6
:103310004C93119712963C9306C03EE6F60130831B
:1033200041E641833283FC01322F40E2332309F42A
:1033300042C041933150FACF42FF44C0911102C0C4
:1033400083E001C084E0811718F4212F281B01C0FD
:1033500020E051110BC0F601822F30E2882319F0D2
:1033600031938150FBCFC20ED11C20E0992329F06C
:10337000D6019C93F60131966F01C6010396E2FED9
:103380000BC039E4D6013C933EE411963C9311976F
:1033900036E412963C9307C039E6F60130833EE6E8
:1033A000318336E63283FC01322F40E2332319F0B9
:1033B00041933150FBCFFC01E20FF11D10828EEFE3
:1033C0009FEFA6C021E030E0911102C020E030E084
:1033D000161617061CF4FB01319602C0E1E0F0E07E
:1033E0002E0F3F1FBB2021F0EB2DF0E0319602C0E5
:1033F000E0E0F0E02E0F3F1FE12FF0E02E173F0737
:103400001CF4121B212F01C020E08E2D887159F46D
:10341000F601822F30E2882319F031938150FBCFDF
:10342000C20ED11C20E0992329F0D6019C93F6010D
:1034300031966F0151110BC0F601822F90E3882362
:1034400019F091938150FBCFC20ED11C20E00F2DBB
:10345000060F9A81342F307144FF03C0913309F471
:103460000150101624F4093018F008E001C001E002
:10347000AB0177FF02C040E050E0FB01E41BF50B1D
:10348000A1E0B0E0AC0FBD1FEA0FFB1F8EE2A82E3B
:103490004B01801A91080B2D10E01195019511092F
:1034A0004F3FBFEF5B0721F4D601AC9211966D013F
:1034B000641775072CF08416950614F4818101C0F9
:1034C00080E3415051093196D60111967D01401794
:1034D000510724F0D6018C936701E2CF641775077A
:1034E00039F4963320F4953319F4311101C081E396
:1034F000F6018083F701822F90E2882319F09193DF
:103500008150FBCFF701E20FF11D108280E090E0C7
:1035100029960FB6F894DEBF0FBECDBFDF91CF91D5
:103520001F910F91FF90EF90DF90CF90BF90AF90E1
:103530009F908F900895283008F027E03327DA0114
:10354000990F311D87FD916000966105710539F471
:1035500032602E5F3D9330E32A95E1F708959F3F57
:1035600030F080387105610509F03C5F3C5F3D93A8
:10357000913008F08068911DDF93CF931F930F93D4
:10358000FF92EF92192F987F9695E92F9695969531
:10359000E90FFF27EA57FE4F99273327EE24FF2430
:1035A000A701E70105900894079428F4360FE71E59
:1035B000F81E491F511D660F771F881F991F06941B
:1035C000A1F70590079428F4E70EF81E491F561F2F
:1035D000C11D770F881F991F661F0694A1F70590DC
:1035E000079428F4F80E491F561FC71FD11D880FD6
:1035F000991F661F771F0694A1F70590079420F482
:10360000490F561FC71FD81F990F661F771F881FA6
:103610000694A9F784911095177041F0D695C79537
:1036200057954795F794E7941A95C1F7ECE2F1E0C6
:1036300068941590159135916591959105907FE26B
:103640007395E118F10A430B560BC90BD009C0F76B
:10365000E10CF11E431F561FC91FD01D7EF47033AD
:1036600011F48A95E6CFE894015030F0080F0AF47F
:103670000027021708F4202F2395022F7A3328F011
:1036800079E37D932A95E9F710C07D932A9589F611
:10369000069497956795379517951794E118F10A51
:1036A000430B560BC90BD00998F023957E91739567
:1036B0007A3308F070E37C932013B8F77E91706141
:1036C0007D9330F0839571E37D9370E32A95E1F764
:1036D0001124EF90FF900F911F91CF91DF919927C7
:1036E00087FD90950895DC01FC01672F7191772388
:1036F000E1F7329704C07C916D9370836291AE17AD
:10370000BF07C8F3089540D008F481E00895E89415
:1037100009C097FB3EF490958095709561957F4F19
:103720008F4F9F4F9923A9F0F92F96E9BB279395C7
:10373000F695879577956795B795F111F8CFFAF4D7
:10374000BB0F11F460FF1BC06F5F7F4F8F4F9F4F08
:1037500016C0882311F096E911C0772321F09EE866
:10376000872F762F05C0662371F096E8862F70E0CC
:1037700060E02AF09A95660F771F881FDAF7880FA6
:103780009695879597F90895990F0008550FAA0BFC
:10379000E0E8FEEF16161706E807F907C0F0121664
:1037A0001306E407F50798F0621B730B840B950B67
:1037B00039F40A2661F0232B242B252B21F40895BC
:1037C0000A2609F4A140A6958FEF811D811D089559
:1037D0000BD078C069D028F06ED018F0952309F08E
:1037E0005AC05FC01124A2C07ED0A0F3959FD1F330
:1037F000950F50E0551F629FF001729FBB27F00D9F
:10380000B11D639FAA27F00DB11DAA1F649F6627F3
:10381000B00DA11D661F829F2227B00DA11D621F42
:10382000739FB00DA11D621F839FA00D611D221FFC
:10383000749F3327A00D611D231F849F600D211DE0
:10384000822F762F6A2F11249F5750408AF0E1F083
:1038500088234AF0EE0FFF1FBB1F661F771F881FCC
:1038600091505040A9F79E3F510570F014C05EC0C2
:103870005F3FECF3983EDCF3869577956795B795B7
:10388000F795E7959F5FC1F7FE2B880F911D9695E1
:10389000879597F9089597F99F6780E870E060E051
:1038A00008959FEF80EC089500240A9416161706D9
:1038B00018060906089500240A9412161306140621
:1038C00005060895092E0394000C11F4882352F084
:1038D000BB0F40F4BF2B11F460FF04C06F5F7F4F3C
:1038E0008F4F9F4F089557FD9058440F551F59F023
:1038F0005F3F71F04795880F97FB991F61F09F3FDD
:1039000079F087950895121613061406551FF2CF05
:103910004695F1DF08C0161617061806991FF1CF55
:1039200086957105610508940895E894BB2766277C
:103930007727CB0197F90895052E97FB16F400948D
:103940000FD057FD05D024D007FC02D046F408C0A4
:1039500050954095309521953F4F4F4F5F4F0895BB
:1039600090958095709561957F4F8F4F9F4F0895EB
:1039700031D0A59F900DB49F900DA49F800D911DF7
:1039800011240895B7FFF4CFF3DF821B930B089542
:10399000A1E21A2EAA1BBB1BFD010DC0AA1FBB1F53
:1039A000EE1FFF1FA217B307E407F50720F0A21BC5
:1039B000B30BE40BF50B661F771F881F991F1A9432
:1039C00069F760957095809590959B01AC01BD015C
:1039D000CF010895A29FB001B39FC001A39F700DB6
:1039E000811D1124911DB29F700D811D1124911D07
:1039F00008955058BB27AA270ED064CF55DF30F06A
:103A00005ADF20F031F49F3F11F41EF44ACF0EF438
:103A1000E095E7FB40CFE92F66DF80F3BA17620736
:103A200073078407950718F071F49EF57ECF0EF4A6
:103A3000E0950B2EBA2FA02D0B01B90190010C01BE
:103A4000CA01A0011124FF27591B99F0593F50F4D6
:103A5000503E68F11A16F040A22F232F342F44272E
:103A6000585FF3CF469537952795A795F040539526
:103A7000C9F77EF41F16BA0B620B730B840BBAF0F6
:103A80009150A1F0FF0FBB1F661F771F881FC2F761
:103A90000EC0BA0F621F731F841F48F48795779575
:103AA0006795B795F7959E3F08F0B3CF9395880F2C
:103AB00008F09927EE0F9795879508950CD002CFBF
:103AC000FADE40F0F1DE30F021F45F3F19F0E3CE92
:103AD00051112CCFE6CE07DF98F39923C9F3552374
:103AE000B1F3951B550BBB27AA27621773078407F1
:103AF00038F09F5F5F4F220F331F441FAA1FA9F3A7
:103B000033D00E2E3AF0E0E830D091505040E69598
:103B1000001CCAF729D0FE2F27D0660F771F881FF9
:103B2000BB1F261737074807AB07B0E809F0BB0BE8
:103B3000802DBF01FF2793585F4F2AF09E3F51050C
:103B400068F0A9CEF3CE5F3FECF3983EDCF38695A8
:103B500077956795B795F7959F5FC9F7880F911D82
:103B60009695879597F90895E1E0660F771F881F6E
:103B7000BB1F621773078407BA0720F0621B730B21
:103B8000840BBA0BEE1F88F7E095089504D0689473
:103B9000B111CCCE0895AFDE88F09F5790F0B92FC9
:103BA0009927B751A0F0D1F0660F771F881F991F92
:103BB0001AF0BA95C9F712C0B13081F0B6DEB1E0A3
:103BC0000895B3CE672F782F8827B85F39F0B93FB3
:103BD000CCF3869577956795B395D9F73EF4909594
:103BE0008095709561957F4F8F4F9F4F0895CCDDE5
:103BF00008F48FEF0895EE0FFF1F881F8BBF07900B
:103C0000F691E02D1994E6DEB7FF0895821B930B21
:103C100008952A193B094C095D096E097F09800B3B
:103C2000910B08950024A7FD00942A173005400544
:103C30005005600570058005900508950F931F934A
:103C4000CF93DF938230910510F482E090E0E09111
:103C5000930BF091940B20E030E0A0E0B0E03097BF
:103C600019F1408151810281138148175907C8F029
:103C70008417950769F4109731F012960C931297F8
:103C800013961C9327C00093930B1093940B22C0A0
:103C90002115310519F04217530718F49A01BD0197
:103CA000EF01DF01F801DBCF21153105F9F0281B09
:103CB000390B2430310580F48A819B8161157105AF
:103CC00021F0FB019383828304C09093940B809333
:103CD000930BFE01329644C0FE01E20FF31F819365
:103CE000919322503109398328833AC02091910B56
:103CF0003091920B232B41F4209112023091130248
:103D00003093920B2093910B20911002309111026D
:103D10002115310541F42DB73EB740911402509161
:103D20001502241B350BE091910BF091920BE217D9
:103D3000F307A0F42E1B3F0B2817390778F0AC01CE
:103D40004E5F5F4F2417350748F04E0F5F1F5093AB
:103D5000920B4093910B8193919302C0E0E0F0E0CD
:103D6000CF01DF91CF911F910F910895CF93DF93F2
:103D7000009709F481C0FC01329713821282A0914E
:103D8000930BB091940B109781F420813181820FB5
:103D9000931F2091910B3091920B2817390751F501
:103DA000F093920BE093910B67C0ED0120E030E0BF
:103DB000CE17DF0740F44A815B819E014115510512
:103DC000F1F0EA01F5CFD383C28340815181840FA2
:103DD000951FC817D90759F488819981840F951FB9
:103DE0000296918380838A819B81938382832115AC
:103DF000310529F4F093940BE093930B3DC0E90156
:103E0000FB83EA8349915991C40FD51FEC17FD0735
:103E100061F480819181840F951F0296E901998355
:103E20008883828193819B838A83E0E0F0E012960D
:103E30008D919C911397009719F0FD01DC01F7CF4C
:103E40008D919C9111979D012E5F3F4F820F931F83
:103E50002091910B3091920B2817390769F4309714
:103E600029F41092940B1092930B02C013821282C9
:103E7000B093920BA093910BDF91CF9108956F9225
:103E80007F928F929F92AF92BF92CF92DF92EF92EA
:103E9000FF920F931F93CF93DF93009781F4CB0191
:103EA000DF91CF911F910F91FF90EF90DF90CF9016
:103EB000BF90AF909F908F907F906F90BFCEFC018E
:103EC000E60FF71F9C0122503109E217F30708F4AF
:103ED000A5C0EC01D9010D911C9111970617170788
:103EE000A8F00530110508F497C0C801049786179B
:103EF000970708F491C002501109061B170B019394
:103F000011936D937C93CF0131DF86C05B01A01AC2
:103F1000B10A4C01800E911EA091930BB091940BAD
:103F2000612C712CE12CF12C109709F446C08D9175
:103F30009C911197A815B905B1F56C0142E0C40E2A
:103F4000D11CCA14DB0478F14C018A189B08640167
:103F500042E0C40ED11C1296BC9012971396AC91FD
:103F6000B5E0CB16D10440F0B282A3839182808267
:103F7000D9016D937C9309C00E5F1F4F800F911F75
:103F8000F90191838083EB2DFA2FE114F10431F0D4
:103F9000D7011396FC93EE9312973EC0F093940BC7
:103FA000E093930B39C06816790608F43C017D0153
:103FB00012960D90BC91A02DB7CF8091910B90914E
:103FC000920B88169906E1F466167706C8F480917C
:103FD000100290911102009741F48DB79EB7409165
:103FE000140250911502841B950BE817F907B0F4E1
:103FF000F093920BE093910BF901718360830CC0F5
:10400000CB011CDE7C01009749F0A801BE011BD04A
:10401000CE01ACDEC70104C0CE0102C080E090E05A
:10402000DF91CF911F910F91FF90EF90DF90CF9094
:10403000BF90AF909F908F907F906F90089581E098
:1040400090E0F89410C0FB01DC0102C001900D92D9
:1040500041505040D8F70895FB01DC0101900D92CA
:0A4060000020E1F70895F894FFCF67
:10406A006B036B036B036B036B036B036B036B03D6
:10407A000000950B8000314E6F646532314E6F64DB
:10408A006531000000004B028F10E3019702140211
:10409A00F20106025374617274696E672E2E2E0045
:1040AA00536574757020636F6D706C657465640018
:1040BA00445A203D20000976656C6F203D205B0044
:1040CA002C20005D096572726F72203D205B005DD5
:1040DA000949203D5B005D0964203D205B005D09C4
:1040EA0050574D203D205B005D004C5F593A00203F
:1040FA00525F583A00204657440020425744002055
:10410A00535F473A0020535F4C3A0020535F523ABC
:10411A000020535F4C5F4D3A0020455F4C3A002027
:0A412A0050574D5F4C000D0A0000D5
:020000023000CC
:10E000000D9489F10D94B2F10D94B2F10D94B2F129
:10E010000D94B2F10D94B2F10D94B2F10D94B2F1F0
:10E020000D94B2F10D94B2F10D94B2F10D94B2F1E0
:10E030000D94B2F10D94B2F10D94B2F10D94B2F1D0
:10E040000D94B2F10D94B2F10D94B2F10D94B2F1C0
:10E050000D94B2F10D94B2F10D94B2F10D94B2F1B0
:10E060000D94B2F10D94B2F10D94B2F10D94B2F1A0
:10E070000D94B2F10D94B2F10D94B2F10D94B2F190
:10E080000D94B2F10D94B2F10D94B2F10D94B2F180
:10E090000D94B2F10D94B2F10D94B2F10D94B2F170
:10E0A0000D94B2F10D94B2F10D94B2F10D94B2F160
:10E0B0000D94B2F10D94B2F10D94B2F10D94B2F150
:10E0C0000D94B2F10D94B2F10D94B2F10D94B2F140
:10E0D0000D94B2F10D94B2F10D94B2F10D94B2F130
:10E0E0000D94B2F141546D656761323536300041AF
:10E0F000726475696E6F206578706C6F72657220DE
:10E1000073746B3530305632206279204D4C530099
:10E11000426F6F746C6F616465723E004875683F52
:10E1200000436F6D70696C6564206F6E203D200048
:10E130004350552054797065202020203D20005FF9
:10E140005F4156525F415243485F5F3D2000415658
:10E1500052204C696243205665723D20004743437C
:10E160002056657273696F6E203D20004350552024
:10E1700049442020202020203D20004C6F7720663D
:10E18000757365202020203D20004869676820665F
:10E190007573652020203D200045787420667573D6
:10E1A00065202020203D20004C6F636B2066757336
:10E1B000652020203D20004D617220203720323024
:10E1C000313300312E362E3800342E332E350056A2
:10E1D00023202020414444522020206F7020636F70
:10E1E00064652020202020696E73747275637469E1
:10E1F0006F6E2061646472202020496E74657272B3
:10E20000757074006E6F20766563746F7200726A49
:10E210006D702020006A6D70200057686174207056
:10E220006F72743A00506F7274206E6F7420737541
:10E2300070706F72746564004D7573742062652030
:10E2400061206C6574746572002000577269747483
:10E25000696E672045450052656164696E672045B7
:10E26000450045452065727220636E743D00504F35
:10E27000525400303D5A65726F2061646472003FF1
:10E280003D43505520737461747300403D454550C3
:10E29000524F4D207465737400423D426C696E6B41
:10E2A000204C454400453D44756D70204545505215
:10E2B0004F4D00463D44756D7020464C415348001B
:10E2C000483D48656C70004C3D4C69737420492F83
:10E2D0004F20506F72747300513D51756974005234
:10E2E0003D44756D702052414D00563D73686F7707
:10E2F00020696E7465727275707420566563746FF0
:10E30000727300593D506F727420626C696E6B00BD
:10E310002A0011241FBECFEFD1E2DEBFCDBF01E046
:10E320000CBF12E0A0E0B2E0EEE1FDEF03E00BBFB6
:10E3300002C007900D92A030B107D9F712E0A0E01B
:10E34000B2E001C01D92AE30B107E1F70F9460F367
:10E350000D948DFE01E20EBF0FEF0DBF11241FBE05
:10E360000D9460F30D9400F020E030E040ED57E0B4
:10E3700005C0FA013197F1F72F5F3F4F2817390792
:10E38000C0F308959C01260F311DC901A0E0B0E043
:10E390002F5F3F4FABBFFC018791882361F08093D3
:10E3A000C6008091C00086FFFCCF8091C0008064D1
:10E3B0008093C000EACF08958DE08093C6008091DD
:10E3C000C00086FFFCCF8091C00080648093C000B5
:10E3D0008AE08093C6008091C00086FFFCCF8091C8
:10E3E000C00080648093C00008950F94C2F10F9420
:10E3F000DCF10895FC019081992359F09093C600B7
:10E400008091C00086FFFCCF8091C0008064809323
:10E41000C0003196992379F70895282F982F929567
:10E420009F70892F805D8A3308F0895F8093C600D2
:10E430008091C00086FFFCCF8091C00080648093F3
:10E44000C000822F8F70982F905D9A3308F0995FEB
:10E450009093C6008091C00086FFFCCF8091C000E1
:10E4600080648093C00008959C01FB01853691056E
:10E470001CF46330710594F0C90164E670E00F94F8
:10E480002EFE605D7F4F6093C6008091C00086FFC6
:10E49000FCCF8091C00080648093C0002B30310598
:10E4A00014F43297B4F0C90164E670E00F942EFEC4
:10E4B0006AE070E00F942EFE605D7F4F6093C600AF
:10E4C0008091C00086FFFCCF8091C0008064809363
:10E4D000C000C9016AE070E00F942EFEC0968093E0
:10E4E000C6008091C00086FFFCCF8091C000806490
:10E4F0008093C00008951F93182F8EE692EE60E07F
:10E500000F94C2F11093C6008091C00086FFFCCF2B
:10E510008091C00080648093C0000F94DCF11F9153
:10E5200008952F923F924F925F926F927F928F92B7
:10E530009F92AF92BF92CF92DF92EF92FF920F9392
:10E540001F93DF93CF93CDB7DEB762970FB6F894E2
:10E55000DEBF0FBECDBF382E622ECA01DB015C01CB
:10E560006D01772420E2222E2E010894411C511CBB
:10E570008BC081E0A81680E0B80681E0C80680E084
:10E58000D80628F0C601AA27BB270F940DF2BB2797
:10E59000AD2D9C2D8B2D0F940DF28A2D0F940DF225
:10E5A0002092C6008091C00086FFFCCF8091C00001
:10E5B00080648093C0009DE29093C6008091C0006B
:10E5C00086FFFCCF8091C00080648093C0002092C1
:10E5D000C6008091C00086FFFCCF8091C00080649F
:10E5E0008093C00019828601750188249924A1E0D6
:10E5F0003A1651F03A1620F0B2E03B1661F409C029
:10E600000BBFF701779007C0C7010F9477FE782EF4
:10E6100002C0F7017080872D0F940DF22092C60082
:10E620008091C00086FFFCCF8091C0008064809301
:10E63000C000872D8052F401EF70F0708F3520F408
:10E64000E40DF51D708204C0E40DF51D8EE280839B
:10E650000894E11CF11C011D111D0894811C911CE2
:10E6600090E18916910409F0C2CF80E190E0A0E02A
:10E67000B0E0A80EB91ECA1EDB1E198AC2010F9493
:10E68000FAF10F94DCF16A94662009F072CF629679
:10E690000FB6F894DEBF0FBECDBFCF91DF911F91B3
:10E6A0000F91FF90EF90DF90CF90BF90AF909F9031
:10E6B0008F907F906F905F904F903F902F90089534
:10E6C0002F923F924F925F926F927F928F929F9282
:10E6D000AF92BF92CF92DF92EF92FF920F931F9370
:10E6E000DF93CF93CDB7DEB7CD53D1400FB6F894BB
:10E6F000DEBF0FBECDBF01E20EBF0FEF0DBF94B75F
:10E70000F894A89514BE80916000886180936000A1
:10E7100010926000789493FF05C0E0910002F091A0
:10E7200001021995279A2F9A8091C00082608093E8
:10E73000C00080E18093C40088E18093C1000000A4
:10E74000EE24FF24870144E0A42EB12CCC24DD2448
:10E7500024C0C5010197F1F70894E11CF11C011DCB
:10E76000111D21E2E2162EE4F20620E0020720E06D
:10E77000120718F031E0C32ED12CC801B70127ECE5
:10E780003BE140E050E00F9441FE611571058105C9
:10E79000910519F485B1805885B98091C00087FD35
:10E7A00003C0C114D104A9F2A6014F5F5F4FC25E3E
:10E7B000DE4F59834883CE51D140C25EDE4F8881FF
:10E7C0009981CE51D140019711F00D9410FEC05D9A
:10E7D000DE4F19821882C053D14060E0C15DDE4F28
:10E7E0001882CF52D14088249924C35DDE4F19820C
:10E7F0001882CD52D140C05EDE4F188219821A8233
:10E800001B82C052D140CE5CDE4F188219821A8220
:10E810001B82C253D140EE24FF2487010BBFF701B6
:10E8200007911691C45CDE4F19830883CC53D14005
:10E830000D940BFEC25EDE4F28813981CE51D1404E
:10E840002130310509F52091C600C25EDE4F1982E4
:10E850001882CE51D14022C02F5F3F4F4F4F5F4FA4
:10E86000213082E138078AE7480780E0580780F0C6
:10E87000C45CDE4FE881F981CC53D140EF5FFF4F9C
:10E8800019F0EE27FF27099420E030E040E050E047
:10E890008091C00087FFE0CF2091C600C35DDE4FAE
:10E8A00048815981CD52D1404F5F5F4FC35DDE4FEC
:10E8B00059834883CD52D140213209F063C64A3092
:10E8C000510508F05FC60894811C911C53E0851621
:10E8D000910409F059C600E010E018C081E280936D
:10E8E000C6008091C00086FFFCCF8091C00080648C
:10E8F0008093C0002F5F3F4F2931310579F70F9486
:10E90000DCF10F5F1F4F0530110519F020E030E0FA
:10E91000E5CF10920A0210920B0210920C02109294
:10E920000D02109206021092070210920802109235
:10E930000902109202021092030210920402109235
:10E9400005028FEE90EE60E00F94F5F180E191EE1C
:10E9500060E00F94C2F18091C00087FFFCCF9091DE
:10E96000C600903608F09F759032B8F09093C600BC
:10E970008091C00086FFFCCF8091C00080648093AE
:10E98000C000A0E2A093C6008091C00086FFFCCF2B
:10E990008091C00080648093C000983409F4D7C18E
:10E9A0009934B8F4923409F459C1933458F490333B
:10E9B00019F1903308F4E3C59F33A1F1903409F0C5
:10E9C000DEC5BDC0953409F470C1963409F0D7C5D1
:10E9D00098C1923509F42BC2933538F49C3409F46C
:10E9E000F5C1913509F0CBC518C2963509F445C279
:10E9F000993509F0C4C567C483E792EE62E00F94CD
:10EA0000F5F110920602109207021092080210927D
:10EA1000090210920A0210920B0210920C0210923C
:10EA20000D0213C18FE792EE62E00F94F5F18FEEC5
:10EA300090EE60E00F94F5F181E291EE60E00F94CA
:10EA4000C2F187EB91EE60E00F94F5F180E391EE77
:10EA500060E00F94C2F184EE90EE60E00F94F5F167
:10EA60008FE391EE60E00F94C2F186E090E061E008
:10EA700070E00F9434F20F94DCF18DE591EE60E0DC
:10EA80000F94C2F189EC91EE60E00F94F5F18EE401
:10EA900091EE60E00F94C2F183EC91EE60E00F9490
:10EAA000F5F18CE691EE60E00F94C2F18EE10F94E7
:10EAB0000DF288E90F940DF281E00F940DF20F949E
:10EAC000DCF18BE791EE60E00F94C2F119E0E0E039
:10EAD000F0E010935700E4918E2F0F940DF20F94F5
:10EAE000DCF18AE891EE60E00F94C2F1E3E0F0E03F
:10EAF00010935700E4918E2F0F940DF20F94DCF1D8
:10EB000089E991EE60E00F94C2F1E2E0F0E0109349
:10EB10005700E4918E2F0F940DF20F94DCF188EAE8
:10EB200091EE60E00F94C2F1E1E0F0E01093570045
:10EB30001491812F0F940DF20F94DCF107CF8BE825
:10EB400092EE62E00F94F5F18BE492EE60E00F94A8
:10EB5000F5F10F94DCF100E010E019C0C8016F2D51
:10EB60000F947FFEFF2031F489E492EE60E00F9471
:10EB7000C2F10BC0F092C6008091C00086FFFCCFAE
:10EB80008091C00080648093C0000F5F1F4FC80158
:10EB900081519F41A0E0B0E0ABBFFC01F790BAE229
:10EBA000FB1621F0E2E000301E07C1F60F94DCF105
:10EBB0000F94DCF187E592EE60E00F94F5F10F948D
:10EBC000DCF1CC24DD2400E010E01EC0C8010F946D
:10EBD00077FEF82E882331F489E492EE60E00F94FA
:10EBE000C2F10BC08093C6008091C00086FFFCCFAD
:10EBF0008091C00080648093C000FE1419F00894D6
:10EC0000C11CD11C0F5F1F4FC80181519F41A0E063
:10EC1000B0E0ABBFFC01E790FAE2EF1621F022E092
:10EC20000030120799F60F94DCF10F94DCF182E6C4
:10EC300092EE60E00F94C2F1C60161E070E00F94C3
:10EC400034F20F94DCF10F94DCF110920202109276
:10EC50000302109204021092050278CE89E992EE26
:10EC600062E00F94F5F1279A2F9A16C02F9880E052
:10EC700090E0E0EDF7E03197F1F7019684369105E9
:10EC8000C1F72F9A80E090E0E0EDF7E03197F1F7DF
:10EC9000019684369105C1F78091C00087FFE6CFC9
:10ECA0008091C00087FFFCCF64C485EA92EE62E0E9
:10ECB0000F94F5F140910202509103026091040219
:10ECC0007091050281E020E10F9491F2809102029F
:10ECD00090910302A0910402B091050280509F4FD1
:10ECE000AF4FBF4F8093020290930302A0930402A0
:10ECF000B093050280509041A040B04008F426CE69
:10ED0000A4CF83EB92EE62E00F94F5F140910602FE
:10ED100050910702609108027091090280E020E1A1
:10ED20000F9491F28091060290910702A09108023F
:10ED3000B091090280509F4FAF4FBF4F80930602A2
:10ED400090930702A0930802B0930902FFCD80ECD4
:10ED500092EE62E00F94F5F183E792EE60E00F949B
:10ED6000F5F18FE792EE60E00F94F5F18BE892EE0B
:10ED700060E00F94F5F189E992EE60E00F94F5F10F
:10ED800085EA92EE60E00F94F5F183EB92EE60E09D
:10ED90000F94F5F180EC92EE60E00F94F5F187ECC2
:10EDA00092EE60E00F94F5F188ED92EE60E00F9442
:10EDB000F5F18FED92EE60E00F94F5F18AEE92EEB0
:10EDC00060E00F94F5F183E093EEBDCD87EC92EE19
:10EDD00062E00F94F5F181E40F947BF282E40F94EA
:10EDE0007BF283E40F947BF284E40F947BF285E45E
:10EDF0000F947BF286E40F947BF287E40F947BF20E
:10EE000088E40F947BF28AE40F947BF28BE40F94F6
:10EE10007BF28CE40F947BF299CD88ED92EE62E068
:10EE20000F94F5F1772473948824992409C48FED05
:10EE300092EE62E00F94F5F140910A0250910B02BC
:10EE400060910C0270910D0282E020E10F9491F22A
:10EE500080910A0290910B02A0910C02B0910D02D8
:10EE600080509F4FAF4FBF4F80930A0290930B0289
:10EE7000A0930C02B0930D0269CD8AEE92EE62E08F
:10EE80000F94F5F184EE90EE60E00F94F5F18FECC5
:10EE900091EE60E00F94F5F1662477244301CC5D98
:10EEA000DE4F19821882C452D140D401C301B695F5
:10EEB000A79597958795CA5DDE4F88839983AA8326
:10EEC000BB83C652D140CC5DDE4FA881B981C4520C
:10EED000D1401196CC5DDE4FB983A883C452D14096
:10EEE000CD0162E070E00F9434F2B0E2B093C6005E
:10EEF0008091C00086FFFCCF8091C0008064809329
:10EF0000C000EDE2E093C6008091C00086FFFCCF18
:10EF10008091C00080648093C000F0E2F093C6004E
:10EF20008091C00086FFFCCF8091C00080648093F8
:10EF3000C000CA5DDE4FE880F9800A811B81C6529D
:10EF4000D140BB27A12F902F8F2D0F940DF2CA5DBA
:10EF5000DE4F8881C652D1400F940DF2B0E2FB2EF5
:10EF6000F092C6008091C00086FFFCCF8091C00067
:10EF700080648093C0000DE30093C6008091C000C0
:10EF800086FFFCCF8091C00080648093C00010E2B7
:10EF90001093C6008091C00086FFFCCF8091C00016
:10EFA00080648093C0008BBEF3012791C65DDE4F65
:10EFB0002883CA52D140A22EBB24CC24DD2408943D
:10EFC000611C711C811C911C8BBEF3018791282E42
:10EFD0003324442455240894611C711C811C911C09
:10EFE0008BBEF3013791C55DDE4F3883CB52D140E4
:10EFF0000894611C711C811C911C8BBEF30147910C
:10F00000C45DDE4F4883CC52D140ADEFEA2EAFEF66
:10F01000FA2EAFEF0A2FAFEF1A2F6E0C7F1C801E57
:10F02000911E142D032DF22CEE24EA0CFB1C0C1D5A
:10F030001D1D0F940DF220E22093C6008091C000A8
:10F0400086FFFCCF8091C00080648093C000C65DC5
:10F05000DE4F8881CA52D1400F940DF230E23093D6
:10F06000C6008091C00086FFFCCF8091C000806404
:10F070008093C000C45DDE4F8881CC52D1400F9494
:10F080000DF240E24093C6008091C00086FFFCCFA5
:10F090008091C00080648093C000C55DDE4F888190
:10F0A000CB52D1400F940DF250E25093C6008091A4
:10F0B000C00086FFFCCF8091C00080648093C000B8
:10F0C0008FEFE8168FEFF80680E0080780E018075A
:10F0D00031F484E092EE60E00F94C2F1DFC0D80119
:10F0E000C7018070907CA070B0708050904CA040A0
:10F0F000B040D1F52FEF3FE340E050E0E222F322B1
:10F1000004231523CA5DDE4FA880B980CA80DB8046
:10F11000C652D140AE0CBF1CC01ED11EAA0CBB1CD7
:10F12000CC1CDD1C8EE092EE60E00F94C2F1BB2798
:10F13000A12F902F8F2D0F940DF28E2D0F940DF285
:10F1400030E23093C6008091C00086FFFCCF8091F2
:10F15000C00080648093C0004EE34093C60080915D
:10F16000C00086FFFCCF87C08EE09EEFA0E0B0E03D
:10F17000E822F9220A231B239CE0E91694E9F90608
:10F1800090E0090790E0190709F088C0C45DDE4FE0
:10F19000A881CC52D140EA2EFF2400E010E0102FCD
:10F1A0000F2DFE2CEE24C55DDE4FB881CB52D14031
:10F1B000EB0EF11C011D111DD601C501817090706F
:10F1C000A070B070DC0199278827E80EF91E0A1F8D
:10F1D0001B1F20EF30E040E050E0A222B322C42207
:10F1E000D52241E1AA0CBB1CCC1CDD1C4A95D1F7F1
:10F1F000EA0CFB1C0C1D1D1D81E090E0A0E0B0E0BE
:10F20000282239224A225B2235E1220C331C441C7D
:10F21000551C3A95D1F7E20CF31C041D151D57013E
:10F220006801AA0CBB1CCC1CDD1C85E192EE60E0E1
:10F230000F94C2F1C801AA27BB270F940DF2BB2778
:10F24000A12F902F8F2D0F940DF28E2D0F940DF274
:10F2500090E29093C6008091C00086FFFCCF809121
:10F26000C00080648093C000AEE3A093C60080918C
:10F27000C00086FFFCCF8091C00080648093C000F6
:10F28000C601AA27BB270F940DF2BB27AD2D9C2DDD
:10F290008B2D0F940DF28A2D0F940DF20F94DCF14B
:10F2A000CC5DDE4FE881F981C452D140F99709F471
:10F2B0004DCBF4E0EF2EF12C012D112D6E0C7F1CA7
:10F2C000801E911EF2CD83E093EE62E00F94F5F183
:10F2D0008AE192EE60E00F94C2F18091C00087FF56
:10F2E000FCCF1091C6001F751093C6008091C0001E
:10F2F00086FFFCCF8091C00080648093C0000F9493
:10F30000DCF1812F81548A3108F036C1163409F4BA
:10F3100095C0173490F4133409F44EC0143430F40B
:10F320001134F1F0123409F01DC130C0143409F465
:10F3300059C0153409F016C16BC01A3409F4C4C0A1
:10F340001B3438F4173409F48FC0183409F00AC19B
:10F35000A1C01B3409F4D2C01C3409F003C1E8C0B9
:10F360008FEF81B90DC082B1809582B980E090E0C5
:10F37000E0EDF7E03197F1F70196883C9105C1F790
:10F380008091C00087FFEFCF12B8EFC08FEF84B934
:10F390000DC085B1809585B980E090E0E0EDF7E0A3
:10F3A0003197F1F70196883C9105C1F78091C00033
:10F3B00087FFEFCF15B8D9C08FEF87B90DC088B1DF
:10F3C000809588B980E090E0E0EDF7E03197F1F7C3
:10F3D0000196883C9105C1F78091C00087FFEFCF6F
:10F3E00018B8C3C08FEF8AB90DC08BB180958BB9A7
:10F3F00080E090E0E0EDF7E03197F1F70196883C8E
:10F400009105C1F78091C00087FFEFCF1BB8ADC059
:10F410008FEF8DB90DC08EB180958EB980E090E0F0
:10F42000E0EDF7E03197F1F70196883C9105C1F7DF
:10F430008091C00087FFEFCF1EB897C08FEF80BBD1
:10F440000DC081B3809581BB80E090E0E0EDF7E0F6
:10F450003197F1F70196883C9105C1F78091C00082
:10F4600087FFEFCF11BA81C08FEF83BB0DC084B38C
:10F47000809584BB80E090E0E0EDF7E03197F1F714
:10F480000196883C9105C1F78091C00087FFEFCFBE
:10F4900014BA6BC08FEF809301010FC080910201FD
:10F4A00080958093020180E090E0E0EDF7E03197F5
:10F4B000F1F70196883C9105C1F78091C00087FF64
:10F4C000EDCF1092020151C08FEF809304010FC065
:10F4D0008091050180958093050180E090E0E0ED4A
:10F4E000F7E03197F1F70196883C9105C1F78091DB
:10F4F000C00087FFEDCF1092050137C08FEF8093DA
:10F5000007010FC08091080180958093080180E079
:10F5100090E0E0EDF7E03197F1F70196883C910536
:10F52000C1F78091C00087FFEDCF109208011DC088
:10F530008FEF80930A010FC080910B01809580931B
:10F540000B0180E090E0E0EDF7E03197F1F70196F4
:10F55000883C9105C1F78091C00087FFEDCF1092E4
:10F560000B0103C085E292EEEEC98091C00087FFD7
:10F57000FCCF8091C600EAC988E392EEE4C98CE131
:10F5800091EEE1C988249924933011F1943028F444
:10F59000913089F09230B8F408C0953061F195301F
:10F5A000F0F0963009F048C043C02B3109F042C951
:10F5B00091E06BE13FC96227C15DDE4F2883CF52E6
:10F5C000D14092E037C9B22FA0E0622793E032C960
:10F5D000822F90E0A82BB92B622794E02BC92E3004
:10F5E00009F039C3622795E0C05DDE4F19821882A9
:10F5F000C053D1401FC9E1E0F0E0EC0FFD1FC05D3A
:10F60000DE4F08811981C053D140E00FF11F2083E4
:10F610000F5F1F4FC05DDE4F19830883C053D14079
:10F6200062270A171B0709F005C9D80196E002C92D
:10F63000261709F010C303C0973009F0FBC87724E0
:10F640009981933109F412C19431C8F4963009F4C8
:10F65000D8C0973050F4923009F406C1933009F4C1
:10F660006DC0913009F059C253C0913109F477C08F
:10F67000923108F0BBC0903109F04FC2F5C098310B
:10F6800009F487C0993150F4953109F4EFC09531F0
:10F6900008F4C6C1963109F040C2C2C19A3109F4DA
:10F6A0006CC09A3108F491C09B3109F45BC09D3164
:10F6B00009F033C29D81903359F48F81882311F46E
:10F6C0009EE11CC0813011F091E018C098E916C08D
:10F6D000892F807591F0903539F4E0E0F0E089E011
:10F6E0008093570094910AC0983539F4E3E0F0E034
:10F6F00089E080935700949101C090E01A821B82A8
:10F700008D818C831D829E831F8227E030E009C299
:10F710001A8288E08B8381E48C8386E58D8382E581
:10F720008E8389E48F8383E5888780E589878FE5E9
:10F730008A8782E38B872BE030E0F3C18A818139AD
:10F7400041F0823941F0803911F48FE005C080E04A
:10F7500003C082E001C08AE01A828B8344C0772410
:10F76000739482C08D81882311F48EE12CC0813086
:10F7700011F081E028C088E926C01A82E1E0F0E0BB
:10F7800089E08093570084918B831C8224E030E0D1
:10F79000C8C18B81803589F48C81883039F4E2E0EE
:10F7A000F0E089E08093570084910DC0E0E0F0E044
:10F7B00089E080935700849106C0E3E0F0E089E09F
:10F7C0008093570084911A82DFCF8D81836C99E0FA
:10F7D000E1E0F0E0082E90935700E89507B600FCB2
:10F7E000FDCF1A821B8223E030E09BC180EC8A832C
:10F7F000CE5CDE4F188219821A821B82C253D1401E
:10F800008EC18A8190E0A0E0B0E0582F44273327D2
:10F8100022278B8190E0A0E0B0E0DC0199278827C7
:10F82000282B392B4A2B5B2B8D8190E0A0E0B0E098
:10F83000282B392B4A2B5B2B8C8190E0A0E0B0E089
:10F84000BA2FA92F982F8827282B392B4A2B5B2BCF
:10F85000220F331F441F551FC05EDE4F288339839C
:10F860004A835B83C052D1401A8259C13A81C95C34
:10F87000DE4F3883C753D140CA5CDE4F1882C6536F
:10F88000D1408B81C82EDD24CA5CDE4F488159816E
:10F89000C653D140C42AD52A933109F082C0CE5C28
:10F8A000DE4F88819981AA81BB81C253D1408050AB
:10F8B000904CA340B04030F583E0CE5CDE4FE88052
:10F8C000F9800A811B81C253D140F70100935B008C
:10F8D00080935700E89507B600FCFDCFCE5CDE4F65
:10F8E000088119812A813B81C253D14000501F4FAA
:10F8F0002F4F3F4FCE5CDE4F088319832A833B8313
:10F90000C253D140C05EDE4F488159816A817B81FC
:10F91000C052D140DE011B9631E08C9111962C91A2
:10F9200011971296C75CDE4F2883C953D140C85C3B
:10F93000DE4F1882C853D14090E0C85CDE4FE881AA
:10F94000F981C853D1408E2B9F2B0C01FA01609393
:10F950005B0030935700E89511244E5F5F4F6F4F67
:10F960007F4F0EEFE02E0FEFF02ECE0CDF1CC114F8
:10F97000D10499F685E0C05EDE4F088119812A81A5
:10F980003B81C052D140F80120935B008093570027
:10F99000E89507B600FCFDCF81E180935700E8951C
