:100000000BC100000C94BC0E0C94910E0C94660E67
:100010000C943B0E0C94100E0C94E50D0C94BA0D40
:100020000C948F0D2AC1000028C1000026C10000D9
:1000300024C100000C94E70E20C100001EC1000086
:100040001CC100001AC1000018C1000016C1000048
:1000500014C1000012C1000010C100000C94450D35
:100060000CC100000C940F0D0C94E50C06C10000AF
:1000700004C1000002C1000000C10000FEC0000079
:10008000FCC00000FAC00000F8C00000F6C000008C
:10009000F4C00000F2C00000F0C00000EEC000009C
:1000A000ECC00000EAC00000E8C00000E6C00000AC
:1000B000E4C00000E2C00000E0C00000DEC00000BC
:1000C000DCC00000DAC00000D8C00000D6C00000CC
:1000D000D4C00000D2C00000D0C00000CEC00000DC
:1000E000CCC000001112131415160A0B0C0D0E0FC4
:1000F00000000A0B02090C0D0E08070304010000A2
:1001000000000000000000000000000000000000EF
:1001100000000000000000000000000012111000AC
:1001200000000000000000000000000000000000CF
:10013000000000000000000102030405000021008F
:10014000240027002A002D003000330001010000A8
:10015000040107010A0100002000230026002900F5
:100160002C002F00320000010000030106010901EC
:1001700000002200250028002B002E003100340052
:1001800002010000050108010B0105050505070531
:1001900008080808020202020A0A08080404040403
:1001A000010101010101010103030303030303032F
:1001B000040707070C0C0C0C0C0C0C0C02020202BE
:1001C00006060606060606060B0B0B0B0B0B0B0BA7
:1001D0000102102020080810204010204080020159
:1001E000020108040201010204081020408080403E
:1001F000201008040201800402018040201008043D
:1002000002010804020101020408102040800102DA
:10021000040810204080100F11241FBECFEFD1E240
:10022000DEBFCDBF00E00CBF12E0A0E0B2E0ECEF1B
:10023000FAE300E00BBF02C007900D92A03AB107AD
:10024000D9F724E0A0EAB2E001C01D92AE33B207B4
:10025000E1F711E0CCE0D1E000E006C02197010910
:10026000802FFE010E944E1BCB30D10780E0080793
:10027000A9F70E9402100C947C1DC2CEAF92BF92CF
:10028000CF92DF92EF92FF920F931F93CF93DF9362
:100290006C017B018B01040F151FEB015E01AE1891
:1002A000BF08C017D10759F06991D601ED91FC91B3
:1002B0000190F081E02DC6011995892B79F7C501D0
:1002C000DF91CF911F910F91FF90EF90DF90CF9032
:1002D000BF90AF9008958230910538F0880F991F34
:1002E000880F991F05970197F1F708957F928F92D4
:1002F0009F92AF92BF92CF92DF92EF92FF920F93B5
:100300001F93CF93DF9370902703809028039090E2
:100310002903D0912A03C0912B03B0912C03F091B3
:100320002D03E0912E03272D382D492D5D2F6C2FA5
:100330007B2F8F2F9E2FA090B502B090B602C09059
:10034000B702D090B802E090B902F090BA020091E2
:10035000BB021091BC020E94561BA2E00E945F1BD0
:10036000B1F0A8F07092B5028092B6029092B702F6
:10037000D093B802C093B902B093BA02F093BB0213
:10038000E093BC028091CF028F5F8093CF02DF9118
:10039000CF911F910F91FF90EF90DF90CF90BF9082
:1003A000AF909F908F907F9008957F928F929F92B1
:1003B000AF92BF92CF92DF92EF92FF920F931F9373
:1003C000CF93DF93709027038090280390902903A8
:1003D000D0912A03C0912B03B0912C03F0912D03EF
:1003E000E0912E03272D382D492D5D2F6C2F7B2F6B
:1003F0008F2F9E2FA090BD02B090BE02C090BF0272
:10040000D090C002E090C102F090C2020091C302FD
:100410001091C4020E94561BA2E00E945F1BB1F023
:10042000A8F07092BD028092BE029092BF02D0935B
:10043000C002C093C102B093C202F093C302E09322
:10044000C4028091D0028F5F8093D002DF91CF9160
:100450001F910F91FF90EF90DF90CF90BF90AF90E2
:100460009F908F907F900895FC01538D448D252F90
:1004700030E0842F90E0821B930B541710F0CF963E
:10048000089501970895FC01918D828D981761F070
:10049000A28DAE0FBF2FB11D5D968C91928D9F5F87
:1004A0009F73928F90E008958FEF9FEF0895FC0166
:1004B000918D828D981731F0828DE80FF11D858D19
:1004C00090E008958FEF9FEF0895FC01918D228DAC
:1004D000892F90E0805C9F4F821B91098F73992731
:1004E00008958FE293E0F1DF21E0892B09F420E009
:1004F000822F0895FC01A48DA80FB92FB11DA35A16
:10050000BF4F2C91848D90E001968F739927848F33
:10051000A689B7892C93A089B1898C918370806456
:100520008C93938D848D981306C00288F389E02DF7
:1005300080818F7D80830895EF92FF920F931F93A8
:10054000CF93DF93EC0181E0888F9B8D8C8D981386
:100550001AC0E889F989808185FF15C09FB7F89492
:10056000EE89FF896083E889F989808183708064DE
:1005700080839FBF81E090E0DF91CF911F910F9129
:10058000FF90EF900895F62E0B8D10E00F5F1F4F38
:100590000F731127E02E8C8D8E110BC00FB607FC48
:1005A000FACFE889F989808185FFF5CFCE01A2DFF6
:1005B000F2CFEB8DEC0FFD2FF11DE35AFF4FF082D0
:1005C0009FB7F8940B8FEA89FB8980818062D0CF36
:1005D000CF93DF93EC01888D8823B1F0AA89BB8982
:1005E000E889F9898C9185FD03C0808186FD0CC066
:1005F0000FB607FCF7CF8C9185FFF2CF808185FF86
:10060000EDCFCE0177DFEACFDF91CF91089580E083
:1006100090E0892B21F065DF81110E94000080E0CD
:1006200090E0892B49F080E090E0892B29F00E942E
:10063000000081110E94000080E090E0892B49F0C9
:1006400080E090E0892B29F00E94000081110E9437
:10065000000080E090E0892B49F080E090E0892B59
:1006600029F00E94000081110C940000089581502F
:10067000823108F05AC0E82FF0E08827ED5BFC4F8C
:100680008F4F0C944E1B6303670355035B035F039B
:1006900095036A03700374037A037E03820388035D
:1006A0008C039503900396039A03809180008F77C3
:1006B000809380000895809180008F7DF9CF809194
:1006C0008000877FF5CF84B58F7784BD089584B58A
:1006D0008F7DFBCF8091B0008F778093B00008951D
:1006E0008091B0008F7DF9CF809190008F778093BB
:1006F00090000895809190008F7DF9CF80919000B7
:10070000877FF5CF8091A0008F778093A000089518
:100710008091A0008F7DF9CF8091A000877FF5CFD9
:10072000809120018F77809320010895809120018E
:100730008F7DF9CF80912001877FF5CFCF93DF9315
:10074000282F30E0F901E051FF4F8491F901E05387
:10075000FE4FD491F901E657FE4FC491CC2399F096
:10076000811185DFEC2FF0E0EE0FFF1FEA5AFE4FFC
:10077000A591B491EC91ED2381E090E009F480E043
:10078000DF91CF91089580E090E0FACF1F93CF934F
:10079000DF93282F30E0F901E051FF4F8491F901F8
:1007A000E053FE4FD491F901E657FE4FC491CC239C
:1007B000A1F0162F81115BDFEC2FF0E0EE0FFF1F91
:1007C000E059FE4FA591B4918FB7F894EC911111B7
:1007D00008C0D095DE23DC938FBFDF91CF911F91AE
:1007E0000895DE2BF8CFCF93DF939CB59F7D9CBD02
:1007F0009CB5937F9CBD9CB59C7F9CBD9DB5916035
:100800009DBDC0E0D4E0682F8A81C0DF8C899D89BE
:10081000DF91CF9160CD81E0E6CF80E0E4CF209101
:100820000004309101044091020450910304241704
:10083000350719F0682F822FA9CF0895CF93DF9342
:1008400090E0FC01E053FE4F249186579E4FFC013F
:1008500084918823D1F090E0880F991FFC01E45C1B
:10086000FE4FA591B491FC01E059FE4FC591D49182
:10087000623071F49FB7F8943C91822F8095832366
:100880008C93E8812E2B28839FBFDF91CF91089511
:100890008FB7F894EC912E2B2C938FBFF6CF1F932C
:1008A000CF93DF93182FEB0161E0C8DF209731F47D
:1008B00060E0812FDF91CF911F9168CFCF3FD105AD
:1008C00011F461E0F6CFE12FF0E0E051FF4FE49149
:1008D000E150E23108F0B3C0F0E08827ED58FB4F5B
:1008E0008F4F0C944E1B85048D0492049C04A60427
:1008F0001F05B004B804C004CA04D404DE04ED0427
:10090000F7041F0501050B05150584B5806884BD36
:10091000C7BDDF91CF911F91089584B5806284BDDA
:10092000C8BDF7CF80918000806880938000D0930D
:100930008900C0938800EDCF809180008062809311
:100940008000D0938B00C0938A00E3CF8091800019
:10095000886080938000D0938D00C0938C00D9CFA5
:100960008091B00080688093B000C093B300D1CF75
:100970008091B00080628093B000C093B400C9CF72
:1009800080919000806880939000D0939900C093EC
:100990009800BFCF80919000806280939000D093A8
:1009A0009B00C0939A00B5CF80919000886080939F
:1009B0009000D0939D00C0939C00ABCF8091A0008D
:1009C00080688093A0008091A0008F7B8093A0001E
:1009D000D093A900C093A8009CCF8091A000806212
:1009E0008093A000D093AB00C093AA0092CF8091D7
:1009F000A00088608093A000D093AD00C093AC00AD
:100A000088CF80912001806880932001D0932901B4
:100A1000C09328017ECF80912001806280932001C5
:100A2000D0932B01C0932A0174CF8091200188605C
:100A300080932001D0932D01C0932C016ACFC03840
:100A4000D1050CF03ECF34CF3FB7F8948091C70268
:100A50009091C802A091C902B091CA0226B5A89B84
:100A600005C02F3F19F00196A11DB11D3FBFBA2F40
:100A7000A92F982F8827BC01CD01620F711D811D00
:100A8000911D42E0660F771F881F991F4A95D1F785
:100A900008958F929F92AF92BF92CF92DF92EF9282
:100AA000FF92D2DF4B015C0185E0C82ED12CE12CF6
:100AB000F12CCADF681979098A099B09683E7340DD
:100AC00081059105B0F321E0C21AD108E108F108CF
:100AD00088EE880E83E0981EA11CB11CC114D104BD
:100AE000E104F10431F7FF90EF90DF90CF90BF90D9
:100AF000AF909F908F90089508958EBD00000DB423
:100B000007FEFDCF8EB50895CF9387DE81EEF5DF2A
:100B1000C82F81DE8C2FCF910895CF93C82F7DDE13
:100B20008C2FEBDF8FEFE9DFC82F75DE8C2FCF9195
:100B30000895CF93DF93C82FD62F6FDE8C2F8F7140
:100B40008062DBDFC82F8D2FD8DF65DE8C2FDF9131
:100B5000CF91089580E0E1DF81FD05C0682F6260DC
:100B600080E0E7DF96CF08950F931F93CF938C011A
:100B700086E0D3DFC82FC77D85E590E0A0E0B0E038
:100B80000230110529F4C0628BE990E0A0E0B0E0EA
:100B90008093100490931104A0931204B093130453
:100BA0006C2F86E0C6DF86E0B8DF91E0C81390E0E6
:100BB000892FCF911F910F910895EF92FF920F937C
:100BC0001F93CF93DF93C82F7B01142F26DE8C2F2A
:100BD0008F71806292DF082FE701115018F0899120
:100BE0008CDFFBCF18DE802FDF91CF911F910F910B
:100BF000FF90EF900895AEDF80E08FDF682F616097
:100C000080E097DF60E787E094DF81E008DE809195
:100C10000904882359F040910E0469E074E08AE0E9
:100C2000CCDF8DE17ADF81FF12C06ECF82E075DF0D
:100C3000E6E3F1E0E49121E030E001C0220FEA9523
:100C4000EAF72095622F682382E073DFEACF0895E8
:100C5000CF93DF93EC0160E0888198DD60E08A81CA
:100C600095DD70E060E08C81DF91CF9118CEFF922E
:100C70000F931F93CF93DF93EC018B01F42E60E071
:100C8000888184DD61E08A8181DDB801F11002C0D4
:100C900070E060E08C81DF91CF911F910F91FF9008
:100CA000FECD42E050E064E672E08FE293E0E6CAF7
:100CB000CF93DF93FC0101900020E9F73197AF015A
:100CC000481B590BBC018FE293E0D8DAEC01E9DF55
:100CD0008C0F9D1FDF91CF9108950F931F93CF939A
:100CE000DF93EC018B0161E0888150DD60E08A8157
:100CF0004DDDB8018C81DF91CF911F910F91CFCD48
:100D00004F925F926F927F928F929F92AF92BF921B
:100D1000CF92DF92EF92FF920F931F93CF93DF93C7
:100D200000D01F921F92CDB7DEB790910B0399238D
:100D300071F02091FC022D83211109C0823009F449
:100D40003FC2D8F4813009F43BC11092FF020F90EA
:100D50000F900F900F900F90DF91CF911F910F91F7
:100D6000FF90EF90DF90CF90BF90AF909F908F90CB
:100D70007F906F905F904F900895833009F455C332
:100D8000843019F78093FF026091DC0269836D3330
:100D900008F441C06091070370E090E080E00E9499
:100DA000CB186093F8027093F9028093FA02909343
:100DB000FB026093F3027093F4028093F502909328
:100DC000F602E0903604F090370481E0F826E11056
:100DD000F12C6091EA027091EB028091EC0290910B
:100DE000ED020E940A1B4F2D84EF93E040DFF0904C
:100DF000370481E0F826E110F12C6091E602709151
:100E0000E7028091E8029091E9020E940A1B4F2DAF
:100E10008AEF93E02CDF89818551883208F042C047
:100E200060910703669570E090E080E00E94CD1825
:100E30006093F8027093F9028093FA029093FB0298
:100E40006093F3027093F4028093F5029093F6029C
:100E5000E0903604F090370481E0F826E110F12CA0
:100E60006091EA027091EB028091EC029091ED02A8
:100E70000E940A1B4F2D84EF93E0F9DEF0903704B7
:100E800081E0F826E110F12C6091E6027091E70212
:100E90008091E8029091E9020E940A1B4F2D8AEF8F
:100EA00093E0E5DE8091DB02853108F422C479818C
:100EB000753108F04CCF809127038093A402809174
:100EC00028038093A502809129038093A602809134
:100ED0002A038093A70280912B038093A80280911C
:100EE0002C038093A90280912D038093AA02809104
:100EF0002E038093AB0260910703669570E090E04B
:100F000080E00E94CD186093F8027093F9028093FC
:100F1000FA029093FB026093F3027093F4028093C1
:100F2000F5029093F6026091EA027091EB028091D3
:100F3000EC029091ED020E940A1B69837A838B83F5
:100F40009C836091E6027091E7028091E8029091A3
:100F5000E9020E940A1B2B012091270330912803EC
:100F60004091290350912A0360912B0370912C0327
:100F700080912D0390912E03A090A402B090A50221
:100F8000C090A602D090A702E090A802F090A9021B
:100F90000091AA021091AB020E94561B28383341DF
:100FA00041055105610571058105910509F008F4B8
:100FB000A5C369817A8184EF93E08FDEB2019AC084
:100FC0008093FF02609101036983683538F0683AC5
:100FD00008F04CC084EF93E03BDE28C06091DD0256
:100FE0007091DE028091DF029091E0020E940A1B64
:100FF0009B01AC017981872F90E0B0E0A0E0BC01BB
:10100000CD0167557109810991090E943F1B29EAA9
:101010003FEF4FEF5FEF0E94E019CA01B9010E9454
:10102000CD180E940A1B84EF93E057DE6091030302
:1010300069836835D0F1683A08F074C08AEF93E0AC
:101040000F900F900F900F900F90DF91CF911F9105
:101050000F91FF90EF90DF90CF90BF90AF909F9057
:101060008F907F906F905F904F90F2CD6091DD02F6
:101070007091DE028091DF029091E002E0913604EF
:10108000E983E1110AC020913704211107C021E052
:1010900029832091DC022B3008F419820E940A1B5C
:1010A000498184EF93E0E3DDC1CF6091DD0270916F
:1010B000DE028091DF029091E0020E940A1B9B01F8
:1010C000AC017981872F90E0B0E0A0E0BC01CD01B8
:1010D00067557109810991090E943F1B29EA3FEF79
:1010E0004FEF5FEF0E94E019CA01B9010E94CD18CD
:1010F0000E940A1B8AEF93E00F900F900F900F90C1
:101100000F90DF91CF911F910F91FF90EF90DF90A3
:10111000CF90BF90AF909F908F907F906F905F9097
:101120004F90DBCD6091DD027091DE028091DF0295
:101130009091E0020E940A1B9B01AC01E9818E2F75
:1011400090E0B0E0A0E0BC01CD01685A71098109CE
:1011500091090E943F1B27E530E040E050E00E94EB
:10116000E019CA01B9010E94CD18209136042983E3
:1011700021110AC020913704211107C0E1E0E98361
:101180002091DC022B3008F419820E940A1B49814D
:101190008AEF93E00F900F900F900F900F90DF91D8
:1011A000CF911F910F91FF90EF90DF90CF90BF9064
:1011B000AF909F908F907F906F905F904F9057CDA2
:1011C0008093FF02209101032983283560F0283A9B
:1011D00008F03FC084EF93E03BDD8AEF93E038DD19
:1011E0001092B40228C06091DD027091DE028091FD
:1011F000DF029091E0020E940A1B9B01AC01698111
:10120000862F90E0B0E0A0E0BC01CD0167557109E8
:10121000810991090E943F1B29EA3FEF4FEF5FEFE1
:101220000E94E019CA01B9010E94CD186B017C012E
:1012300081E08093B40220910203283580F1283A9E
:1012400008F059C0812C912C48ECA42E42E4B42E15
:1012500041C06091DD027091DE028091DF029091C9
:10126000E0020E940A1B9B01AC017981872F90E06C
:10127000B0E0A0E0BC01CD01685A71098109910973
:101280000E943F1B27E530E040E050E00E94E0195B
:10129000CA01B9010E94CD186B017C01A1CF30E0D9
:1012A00050E040E02755310941095109ADE9BFEF50
:1012B0000E94081A29EA3FEF4FEF5FEF0E94E01902
:1012C000CA01B9016C597F4F8F4F9F4F0E94CD18B3
:1012D0004B015C0120E030E0A901C501B4010E948E
:1012E0003B1B18160CF065C0412C512C38EC632EBA
:1012F00032E4732E21C030E050E040E0285A31093A
:1013000041095109ADE9BFEF0E94081A27E530E015
:1013100040E050E00E94E019CA01B9016C597F4FCA
:101320008F4F9F4F0E94CD182B013C01812C912C97
:1013300058ECA52E52E4B52E20E030E048EC52E403
:10134000C501B4010E94A21A9B01AC01C701B601FC
:101350000E942C194B015C0120E030E0A901C3017F
:10136000B2010E943B1B1816A4F520E030E048ECC7
:1013700052E4C301B2010E94A21A2B013C018091E8
:10138000B4028983C501B4010E940A1B4B01A30169
:101390009201C701B6010E942C190E940A1B6B0121
:1013A00099819923F1F0B40184EF93E096DCB601C2
:1013B000A1CEC501B401905820E030E048EC52E4E1
:1013C0000E94A21A412C512C28EC622E22E4722E8B
:1013D000BBCFC301B201905820E030E048EC52E4AA
:1013E000CACFE0913604E983E11109C08091370446
:1013F000811105C041E08091DC028B3008F440E0AF
:10140000B40184EF93E033DC298121110AC080917B
:101410003704811107C061E069838091DC028B3061
:1014200008F419824981B601B3CE8093FF0270910E
:10143000010379837835C0F56091DD027091DE0299
:101440008091DF029091E0020E940A1B6B017C01F7
:101450008981282F30E050E040E0215031094109D6
:10146000510961E070E080E090E06C197D098E091F
:101470009F090E943F1B27E530E040E050E00E94BA
:10148000E019CA01B9016C0D7D1D8E1D9F1D0E94C2
:10149000CD186093EE027093EF028093F002909368
:1014A000F10281E08093B40289818855803508F08B
:1014B000B8C01092EE021092EF021092F002109259
:1014C000F102709102037983783520F5272F30E0FF
:1014D000A4E6B0E00E942E1A28E530E040E050E09B
:1014E0000E94E019CA01B9010E94CD186093B002B0
:1014F0007093B1028093B2029093B30280E090E0C7
:10150000A8ECB2E48093AC029093AD02A093AE023B
:10151000B093AF0289818855803508F0BFC080E064
:1015200090E0A8ECB2E48093B0029093B102A09353
:10153000B202B093B3028093AC029093AD02A09339
:10154000AE02B093AF02C090EE02D090EF02E090F6
:10155000F002F090F1022091B0023091B10240917E
:10156000B2025091B302C701B6010E942C1920E0CB
:1015700030E048EC52E40E94A21A6093F8027093A3
:10158000F9028093FA029093FB022091AC02309111
:10159000AD024091AE025091AF02C701B6010E9468
:1015A0002C1920E030E048EC52E40E94A21A60932B
:1015B000F3027093F4028093F5029093F602709117
:1015C000B40279836091EA027091EB028091EC029F
:1015D0009091ED020E940A1B4B016091E60270910E
:1015E000E7028091E8029091E9020E940A1B6B01D8
:1015F00089818111D8CE909136049D834091370422
:1016000081E04827911140E0B40184EF93E02FDBA3
:10161000ED81E11107CF2091370481E0282729834C
:1016200001CF9981983A08F44CCF6091DD02709116
:10163000DE028091DF029091E0020E940A1B9B0172
:10164000AC0121503109410951096981685A770B70
:10165000CB01092E000CAA0BBB0BBC01CD016150C4
:101660007109810991090E943F1B27E530E040E0A4
:1016700050E00E94E019CA01B9016F5F7F4F8F4FA0
:101680009F4F0E94CD186093EE027093EF028093FB
:10169000F0029093F1021092B40213CF8981883A3C
:1016A00008F451CF682F6159770B9B0146EF420335
:1016B000B001439F700D11246C597F4F072E000C11
:1016C000880B990B0E94CD186093AC027093AD0209
:1016D0008093AE029093AF0280E090E0A8ECB2E479
:1016E0008093B0029093B102A093B202B093B30280
:1016F0002ACF8981853108F4FECB29CB809136042D
:10170000811105C02091370481E028272D834D8168
:1017100069817A8184EF93E0AADA50CC0F931F930A
:10172000CF93DF93EC0188819981009759F02A814A
:101730003B812617370730F081E0DF91CF911F9171
:101740000F9108958B016F5F7F4F0E94901C00974F
:1017500059F0998388831B830A832C813D81232B35
:1017600059F7FC011082E8CF80E0E7CFEF92FF92BB
:101770000F931F93CF93DF9341155105A9F07B0180
:10178000EC010C811D81040F151FB801C7DF8823F0
:1017900061F0288139818C819D81B701820F931F6F
:1017A0000E94751D1D830C8381E0DF91CF911F91F5
:1017B0000F91FF90EF900895CF93DF931F921F92A8
:1017C000CDB7DEB720E229831A8241E050E0BE01A6
:1017D0006F5F7F4FCBDF0F900F90DF91CF91089518
:1017E000EF92FF920F931F93CF93DF9300D01F923E
:1017F000CDB7DEB77C01862F4AE08E010F5F1F4F09
:10180000B80190E00E949418F80101900020E9F7D7
:101810003197AF01401B510BB801C701A7DF0F90F3
:101820000F900F900F90DF91CF911F910F91FF902C
:10183000EF900895CF93809100049091010420913E
:101840000204309103048217930719F061E00E94AB
:101850001E048091020490910304209100043091B1
:1018600001042817390719F061E00E941E04CFB760
:10187000F8948091C502811127C0EFEBF1E08491CB
:10188000E5E0F2E09491E82FF0E0EE0FFF1FE45C5A
:10189000FE4FA591B491EC91E92321F461E085E339
:1018A0000E94C60361E085E30E941E048CB580613E
:1018B0008CBD8CB580648CBD61E084E30E941E0405
:1018C00061E083E30E941E048091C5028F5F8093D4
:1018D000C502CFBF80E00E940F0481E00E94F303A5
:1018E000D8D86CE080E025D96FE584E022D982E089
:1018F00090E03AD9882319F081E08093060486E0CD
:101900000CD990E080E030D90E940D0480E5F5D834
:1019100083E7F3D80E940B0460E08DE10AD960E010
:101920008CE107D91092080460E787E002D96CE4E3
:1019300085E0FFD80E940D0482EEDFD80E940B04E0
:10194000E3D808D980E0E9D8682F6E7F80E0F1D82D
:1019500090E080E009D960E085E0EBD840910E048A
:1019600050E06CE472E089E094E00E946C1DEAEEC5
:10197000F0E0849140910E046CE472E01ED9E4EE34
:10198000F0E0849160910704D4D882E0C6D8E6E301
:10199000F1E0E49161E070E001C0660FEA95EAF7DA
:1019A000682B82E0C6D840910E0466E472E08AE0BB
:1019B00004D940910E0466E472E080E1FED86091A3
:1019C000070481E1B6D8CF9116C91F920F920FB6C6
:1019D0000F9211240BB60F922F933F934F935F9367
:1019E0006F937F938F939F93AF93BF93EF93FF93E7
:1019F0008FE293E00E947A02FF91EF91BF91AF9145
:101A00009F918F917F916F915F914F913F912F9116
:101A10000F900BBE0F900FBE0F901F9018951F9246
:101A20000F920FB60F9211240BB60F922F938F9334
:101A30009F93EF93FF93E0913F03F09140038081E8
:101A4000E0914503F091460382FD1DC09081809195
:101A500048038F5F8F7320914903821741F0E09113
:101A60004803F0E0E15DFC4F958F80934803FF91C0
:101A7000EF919F918F912F910F900BBE0F900FBE02
:101A80000F901F9018958081F2CF1F920F920FB682
:101A90000F9211242F933F938F939F93AF93BF93F4
:101AA0008091CB029091CC02A091CD02B091CE0258
:101AB0003091C60223E0230F2D3758F50196A11D62
:101AC000B11D2093C6028093CB029093CC02A093C9
:101AD000CD02B093CE028091C7029091C802A0912E
:101AE000C902B091CA020196A11DB11D8093C7021F
:101AF0009093C802A093C902B093CA02BF91AF915C
:101B00009F918F913F912F910F900FBE0F901F903B
:101B1000189526E8230F0296A11DB11DD2CF1F9262
:101B20000F920FB60F9211240BB60F922F933F9383
:101B30004F935F936F937F938F939F93AF93BF93D5
:101B4000EF93FF93E0910E02F0910F021995FF9130
:101B5000EF91BF91AF919F918F917F916F915F9125
:101B60004F913F912F910F900BBE0F900FBE0F9092
:101B70001F9018951F920F920FB60F9211240BB65B
:101B80000F922F933F934F935F936F937F938F9316
:101B90009F93AF93BF93EF93FF93E0910C02F0916B
:101BA0000D021995FF91EF91BF91AF919F918F9188
:101BB0007F916F915F914F913F912F910F900BBE4D
:101BC0000F900FBE0F901F9018951F920F920FB697
:101BD0000F9211240BB60F922F933F934F935F9365
:101BE0006F937F938F939F93AF93BF93EF93FF93E5
:101BF000E0910202F09103021995FF91EF91BF91DC
:101C0000AF919F918F917F916F915F914F913F9194
:101C10002F910F900BBE0F900FBE0F901F90189535
:101C20001F920F920FB60F9211240BB60F922F93A3
:101C30003F934F935F936F937F938F939F93AF9354
:101C4000BF93EF93FF93E0910002F0910102199589
:101C5000FF91EF91BF91AF919F918F917F916F9184
:101C60005F914F913F912F910F900BBE0F900FBE40
:101C70000F901F9018951F920F920FB60F9211247C
:101C80000BB60F922F933F934F935F936F937F9376
:101C90008F939F93AF93BF93EF93FF93E0910A02CB
:101CA000F0910B021995FF91EF91BF91AF919F9128
:101CB0008F917F916F915F914F913F912F910F90F5
:101CC0000BBE0F900FBE0F901F9018951F920F9292
:101CD0000FB60F9211240BB60F922F933F934F9391
:101CE0005F936F937F938F939F93AF93BF93EF9384
:101CF000FF93E0910802F09109021995FF91EF918D
:101D0000BF91AF919F918F917F916F915F914F9113
:101D10003F912F910F900BBE0F900FBE0F901F9011
:101D200018951F920F920FB60F9211240BB60F92B7
:101D30002F933F934F935F936F937F938F939F93D3
:101D4000AF93BF93EF93FF93E0910602F0910702E8
:101D50001995FF91EF91BF91AF919F918F917F91D5
:101D60006F915F914F913F912F910F900BBE0F900C
:101D70000FBE0F901F9018951F920F920FB60F92E3
:101D800011240BB60F922F933F934F935F936F9352
:101D90007F938F939F93AF93BF93EF93FF93E091C4
:101DA0000402F09105021995FF91EF91BF91AF9157
:101DB0009F918F917F916F915F914F913F912F9163
:101DC0000F900BBE0F900FBE0F901F9018951F9293
:101DD0000F920FB60F9211240BB60F922F933F93D1
:101DE0004F935F936F937F938F939F93AF93BF9323
:101DF000EF93FF93F0E0E0E01995FF91EF91BF9131
:101E0000AF919F918F917F916F915F914F913F9192
:101E10002F910F900BBE0F900FBE0F901F90189533
:101E2000CF93DF93EFE2F3E01382128288EE93E028
:101E3000A0E0B0E084839583A683B78386E592E033
:101E40009183808385EC90E09587848784EC90E093
:101E50009787868780EC90E0918B808B81EC90E077
:101E6000938B828B82EC90E0958B848B86EC90E058
:101E7000978B868B118E128E138E148EE2E3F4E014
:101E800081E1808380E1818312821382EAE2F4E0BF
:101E90008AE180838BE181838CE182838DE183837E
:101EA000EEEDF1E0E491A8E1B4E01496EC93149720
:101EB000EFEDF1E0E4911596EC93159788E991E048
:101EC000FC012491E22FF0E0EE0FFF1FE059FE4FDE
:101ED0002591349117963C932E931697E9E9F1E0FA
:101EE000E491F0E0EE0FFF1FEA5AFE4F2591349186
:101EF00019963C932E931897FC018491E82FF0E0FB
:101F0000EE0FFF1FE45CFE4F859194911B969C930E
:101F10008E931A9781EC9CE21D969C938E931C974E
:101F2000E0E0F4E087E090E09183808388E090E057
:101F300093838283168280E28783108685E086877A
:101F400085E090E0A0E0B0E0848B958BA68BB78B0A
:101F50001186CAEFD3E089E290E09983888388E212
:101F600090E09B838A838DE290E09D838C8361E087
:101F700089E20E941E0461E08A810E941E0461E0E1
:101F80008C810E941E04C4EFD3E08BE290E0998321
:101F900088838AE290E09B838A838CE290E09D8331
:101FA0008C8361E08BE20E941E0461E08A810E94C2
:101FB0001E0461E08C810E941E04ECECF3E086E6D6
:101FC00096E6A6EABFE3808F918FA28FB38F8DEC48
:101FD0009CECACECBEE3848F958FA68FB78F80E02E
:101FE00090E0A8ECB2E480A391A3A2A3B3A380E005
:101FF00090E0AFE2B3E484A395A3A6A3B7A3DF91D7
:10200000CF910895CF93DF93CDB7DEB7A4970FB6E6
:10201000F894DEBF0FBECDBF789484B5826084BDD6
:1020200084B5816084BD85B5826085BD85B58160DC
:1020300085BD80916E00816080936E00109281005A
:102040008091810082608093810080918100816015
:1020500080938100809180008160809380008091D6
:10206000B10084608093B1008091B0008160809362
:10207000B0008091910082608093910080919100E6
:1020800081608093910080919000816080939000A6
:102090008091A10082608093A1008091A100816065
:1020A0008093A1008091A00081608093A000809126
:1020B00021018260809321018091210181608093C0
:1020C00021018091200181608093200180917A001C
:1020D000846080937A0080917A00826080937A0095
:1020E00080917A00816080937A0080917A00806884
:1020F00080937A001092C10061E082E20E941E0487
:1021000061E081E20E941E0461E080E20E941E0400
:1021100061E080E30E941E0461E081E30E941E04EE
:1021200062E083E00E941E0462E082E00E941E04DE
:1021300062E080912A040E941E0462E080912B04D8
:102140000E941E0462E080912C040E941E0462E042
:1021500080912D040E941E0462E0809132040E944E
:102160001E0462E0809133040E941E0486E791E021
:10217000909303028093020280916A008C608093A6
:102180006A00ED9A85ED91E0909301028093000240
:1021900080916A00836080936A00EC9AE0913F032B
:1021A000F091400382E08083E0913B03F0913C0397
:1021B0001082E0913D03F0913E038FEC80831092FA
:1021C0004703E0914303F091440386E08083E0916C
:1021D0004103F0914203808180618083E09141035B
:1021E000F0914203808188608083E0914103F09107
:1021F0004203808180688083E0914103F091420333
:1022000080818F7D808387E692E00E94580612DBF2
:1022100083E792E00E9458069E012F5F3F4F3C8B60
:102220002B8B8FB7F8944091CB025091CC026091E8
:10223000CD027091CE028FBF1A012B01409327036C
:10224000309228036093290350922A0310922B03A3
:1022500010922C0310922D0310922E039A01AB01C1
:1022600060E070E080E090E0A0901F03B090200359
:10227000C0902103D0902203E0902303F090240328
:1022800000912503109126030E94561B283E3340DF
:10229000410551056105710581059105B9F0B0F061
:1022A00020921F0330922003409221035092220378
:1022B00010922303109224031092250310922603F8
:1022C00080911E03B1E08B2780931E039101A20130
:1022D00060E070E080E090E0A0901603B0901703FB
:1022E000C0901803D0901903E0901A03F0901B03DC
:1022F00000911C0310911D030E94561B2A3F3105BB
:1023000041055105610571058105910509F008F444
:1023100084C0209216033092170340921803509203
:10232000190310921A0310921B0310921C031092AF
:102330001D031E861D86188A1F861A8A198A6CE15B
:1023400070E0CE010D96EAD92D853E85811139C206
:102350002115310519F0C9010E94071C1E861D8632
:102360001A8A198A188A1F8660910003CE010D9679
:1023700037DACE010D9620DA60910103CE010D9679
:102380002FDACE010D9618DA60910203CE010D9678
:1023900027DACE010D9610DA60910303CE010D9677
:1023A0001FDACE010D9608DA60910B03CE010D966F
:1023B00017DACE010D9600DA60910803CE010D9672
:1023C0000FDACE010D96F8D98091E1024AE0BE0104
:1023D0006F5F7F4F90E0A8D6EB89FC8901900020C9
:1023E000E9F73197AF012B893C89421B530BBE01A2
:1023F0006F5F7F4FCE010D96B9D949895A896D8596
:102400007E858FE293E00E943E010E9451068D85F9
:102410009E85009711F00E94071C90902703209042
:1024200028033090290340902A0350902B0360909A
:102430002C0370902D0380902E03292D322D432DD7
:10244000542D652D762D872D982DA0900E03B090DC
:102450000F03C0901003D0901103E0901203F0908E
:10246000130300911403109115030E94561B590188
:102470006A017B018C01283E33404105510561050D
:1024800071058105910509F008F4A5C161E082E2BA
:102490000E94C6039501A601B701C801283B3B4035
:1024A00041055105610571058105910511F008F09F
:1024B00097C1292D322D432D542D652D762D872D35
:1024C000982DA0903802B0903902C0903A02D09076
:1024D0003B02E0903C02F0903D0200913E021091E0
:1024E0003F020E94561B283E3340410551056105BD
:1024F000710581059105C9F1C0F1909238022092D1
:10250000390230923A0240923B0250923C02609271
:102510003D0270923E0280923F0280912A040E9406
:102520009E0321E0892B09F420E020932E04809162
:102530002B040E949E0321E0892B09F420E02093C4
:102540002F0480912C040E949E0321E0892B09F422
:1025500020E02093300480912D040E949E0321E00E
:10256000892B09F420E020933104292D322D432DAD
:10257000542D652D762D872D982DA0903002B0908A
:102580003102C0903202D0903302E0903402F090D9
:10259000350200913602109137020E94561B243FEB
:1025A0003140410551056105710581059105B9F07D
:1025B000B0F090923002209231023092320240927A
:1025C0003302509234026092350270923602809249
:1025D00037028091CF028093F7021092CF02292D0B
:1025E000322D432D542D652D762D872D982DA090BD
:1025F0002802B0902902C0902A02D0902B02E090CD
:102600002C02F0902D0200912E0210912F020E94B8
:10261000561B243F31404105510561057105810577
:102620009105B9F0B0F090922802209229023092E0
:102630002A0240922B0250922C0260922D0270923C
:102640002E0280922F028091D0028093F20210928B
:10265000D002292D322D432D542D652D762D872D19
:10266000982DA0902002B0902102C0902202D0901C
:102670002302E0902402F09025020091260210919E
:1026800027020E94561B243F314041055105610538
:1026900071058105910509F008F4DCC090922002D3
:1026A0002092210230922202409223025092240270
:1026B0006092250270922602809227028091F70292
:1026C0008093D1028091F2028093D2028091DC0249
:1026D0008093D3028091FF028093D402E0910E0395
:1026E000B0900F03C0901003D0901103E09012033C
:1026F000F09013030091140310911503292D322D2E
:10270000432D542D652D762D872D982DAE2ECED7A9
:102710002E3F310541055105610571058105910582
:1027200011F008F06FC0892D8E1B8093D50280E0D8
:102730000E940F0480911004909111040E946B017B
:102740008DE10E948D0581FF08C080911004909159
:1027500011040E946B010E94840580E00E948D0597
:10276000682F6E7F80E00E94990582E00E948D05AF
:10277000E6E3F1E0949161E070E001C0660F9A95A4
:10278000EAF7682B82E00E94990510910704012F57
:102790001B3008F00AE080910804101B811110E042
:1027A0000E940D0480EA0E947D0521EDE22E22E0C8
:1027B000F22E015048F1D7018D917D010E947D05D7
:1027C000F8CF8CE190E09A8B898B63E872E0C901C5
:1027D0000E94751DC9CD60E082E20E94C60369CEE9
:1027E00029D890920E0320920F033092100340924A
:1027F000110350921203609213037092140380929B
:10280000150357CE8FEF91CF115020F080E00E943A
:102810007D05FACF0E940B0481E00E940F040E9404
:102820000D048FEF0E947D05182F0E940B0410737A
:10283000B1F380E00E940F0460E787E00E949905F1
:1028400084FD0E9484050E94FB058091DA028F5F5F
:102850008093DA02292D322D432D542D652D762DAE
:10286000872D982DA0901802B0901902C0901A02DE
:10287000D0901B02E0901C02F0901D0200911E02FD
:1028800010911F0213D7ABE41AD709F008F465C002
:10289000909218022092190230921A0240921B0262
:1028A00050921C0260921D0270921E0280921F02C2
:1028B000E0912204F0912304808190911C04892BE3
:1028C0008083E0911E04F0911F04908180911C048C
:1028D0008095892380838BE090E00197F1F7E09168
:1028E0001E04F0911F04808190911C04892B808329
:1028F00083E290E00197F1F7E0911E04F0911F044C
:10290000908180911C04809589238083E09122042A
:10291000F0912304908180911C0480958923808309
:10292000E0912004F0912104808190911D0489237D
:1029300009F47EC090E080E0BC0190E080E029E3F3
:1029400030E040E050E068D5C901892B31F080913A
:10295000DC028093DB022093DC02809132040E942F
:102960009E0321E0892B09F020E02093360480911A
:1029700033040E949E0321E0892B09F020E020937C
:10298000370460910D0380E30E94C60360910C033D
:1029900081E30E94C60360911E0380E20E94C60389
:1029A00087E10E948D0580FDFBC090920E0320926E
:1029B0000F03309210034092110350921203609261
:1029C000130370921403809215038CE0FE0131967C
:1029D000A0E0B3E001900D928A95E1F70091E40246
:1029E0001091E5021093E3020093E2028091070444
:1029F000E82E8C3010F09CE0E92E90910804F82E1F
:102A0000FE189111F12C0E940D0481E60E947D05B3
:102A100080E0C82E83E0D82EEA94FFEFEF1609F489
:102A200079C08FEF0E947D05D6018D936D01F4CFA3
:102A30000E942405AB01BC018091240490912504DF
:102A4000B0E0A0E08855994EAF4FBF4F840F951F5F
:102A5000A61FB71F8093260490932704A0932804F1
:102A6000B0932904E0912004F09121048081909199
:102A70001D04892381F40E942405009126041091ED
:102A800027042091280430912904061717072807E6
:102A9000390740F74FCF0E9424052091240430913C
:102AA0002504620F731F811D911D6093260470938E
:102AB00027048093280490932904E0912004F09146
:102AC0002104808190911D04892381F00E942405B6
:102AD00000912604109127042091280430912904A4
:102AE000061717072807390740F724CF0E94240547
:102AF0002091240430912504A901455051092091C9
:102B0000260430912704FA01E21BF30BCF01860F54
:102B1000971F12CFFA94BFEFFB1621F08FEF0E94A0
:102B20007D05F8CF0E940B0460E787E00E949905BD
:102B300080910B0390E09093E5028093E402801B68
:102B4000910B01979093FE028093FD0280910A03FE
:102B5000982F91709093E10281FB992790F99093BF
:102B60000D0382FB882780F980930C0320910703D3
:102B7000C22ED12CF12CE12C30E0A4E6B0E06ED4D2
:102B80006B3E7441810591051CF1C701B60105D367
:102B90006093DD027093DE028093DF029093E00287
:102BA0008091010381111DC0809100038823C9F029
:102BB0008091020390910303892B99F4F1E0F09343
:102BC000FC028091080381110FC00E94800614C08E
:102BD0001092DD021092DE021092DF021092E002EB
:102BE000DFCF1092FC02EDCF813079F3823069F3B0
:102BF000833059F3843049F38091FF02835082304F
:102C000008F07DC2292D322D432D542D652D762DB2
:102C1000872D982DA0901002B0901102C090120242
:102C2000D0901302E0901402F09015020091160269
:102C3000109117023BD52639310541055105610533
:102C400071058105910509F008F459C290921002AE
:102C500020921102309212024092130250921402FA
:102C60006092150270921602809217026091F8022B
:102C70007091F9028091FA029091FB02CBD42091DD
:102C8000F70230E01B01221A330A3092CD03209262
:102C9000CC036091F3027091F4028091F50290915F
:102CA000F602B8D42091F20230E08B01021B130B24
:102CB0001093D1030093D003B101032C000C880BB7
:102CC000990B6BD22B013C01E091CE03F091CF0325
:102CD000FE8BED8BBF01FF0F880B990B5ED2A3011A
:102CE0009201CCD320E030E040E05FE3B5D220E0B9
:102CF00030E046E153E4B0D220E030E04AE754E46B
:102D000021D42091D4033091D5034091D603509122
:102D1000D703B4D36093D4037093D5038093D603C1
:102D20009093D703B801012E000C880B990B35D274
:102D30006D8F7E8F8F8F98A32091D2033091D30314
:102D40003A8F298FB901330F880B990B26D22D8D1D
:102D50003E8D4F8D58A192D320E030E040E05FE3FC
:102D60007BD220E030E046E153E476D220E030E050
:102D70004AE754E4E7D32091D8033091D903409136
:102D8000DA035091DB037AD36093D8037093D903AD
:102D90008093DA039093DB03C090EE02D090EF02B1
:102DA000E090F002F090F10220E030E0A901C701CC
:102DB000B60161D41816D4F420E030E040E85FE3B7
:102DC000C701B601E4D187FF1AC01092D403109254
:102DD000D5031092D6031092D7031092D803109205
:102DE000D9031092DA031092DB0309C020E030E02F
:102DF00040E85FEBC701B6013ED4181634F3C0902B
:102E0000F003D090F103E090F203F090F303A701F8
:102E100096016091D4037091D5038091D60390916F
:102E2000D70329D4181644F4C092D403D092D50302
:102E3000E092D603F092D70346015701B7FAB09457
:102E4000B7F8B094A50194016091D4037091D503B3
:102E50008091D6039091D7039AD187FF08C08092C2
:102E6000D4039092D503A092D603B092D7032091B9
:102E7000D8033091D9034091DA035091DB03C701A5
:102E8000B60185D187FF08C0C092D803D092D9037C
:102E9000E092DA03F092DB032091D8033091D9035A
:102EA0004091DA035091DB03C501B401E4D3181655
:102EB00044F48092D8039092D903A092DA03B0929E
:102EC000DB03B1018D899E89681B790B072E000CED
:102ED000880B990B62D14B015C018092DC039092CC
:102EE000DD03A092DE03B092DF03B801A98DBA8D95
:102EF0006A1B7B0B072E000C880B990B4ED16D8B38
:102F00007E8B8F8B988F6093E0037093E1038093A7
:102F1000E2039093E3038091E4039091E503A09191
:102F2000E603B091E703898F9A8FAB8FBC8F209116
:102F3000E8033091E9034091EA035091EB0360E02C
:102F400070E080E89FE3FED26B017C018091EC038E
:102F50009091ED03A091EE03B091EF0389A39AA3A2
:102F6000ABA3BCA32091D4033091D5034091D603E9
:102F70005091D703C701B6016FD1A30192017ED250
:102F80002B013C0129A13AA14BA15CA1C501B401CF
:102F900063D120E030E046E153E4D4D29B01AC01A0
:102FA000C301B2016BD24B015C012AE939E949E95D
:102FB0005FE3698D7A8D8B8D9C8D4ED19B01AC0129
:102FC000C501B40149D14B015C018092EA029092A3
:102FD000EB02A092EC02B092ED022091D803309166
:102FE000D9034091DA035091DB03C701B60134D114
:102FF0002D8D3E8D4F8D58A141D26B017C0129A1B1
:103000003AA14BA15CA16D897E898F89988D24D1CD
:1030100020E030E046E153E495D29B01AC01C701CA
:10302000B6012CD2298D3A8D4B8D5C8D15D16B015B
:103030007C01C092E602D092E702E092E802F092B0
:10304000E90220E030E04FE753E4C501B40113D3B7
:10305000181664F480E090E0AFE7B3E48093EA02EE
:103060009093EB02A093EC02B093ED0220E030E0ED
:10307000A9016091EA027091EB028091EC029091BB
:10308000ED0285D087FF08C01092EA021092EB0291
:103090001092EC021092ED0220E030E04FE753E492
:1030A000C701B601E8D2181664F480E090E0AFE7FB
:1030B000B3E48093E6029093E702A093E802B09312
:1030C000E90220E030E0A9016091E6027091E70298
:1030D0008091E8029091E9025AD087FF08C01092CF
:1030E000E6021092E7021092E8021092E902309292
:1030F000CF032092CE031093D3030093D203809189
:10310000FD029091FE02039724F48091FC02882333
:1031100041F084EF93E00E9428068AEF93E00E943A
:1031200028060E9407037DC8BB274A3031F4992343
:1031300022F4BDE2909581959F4F01C0BB27FB0112
:103140005527AA27880F991FAA1FA41710F0A41BA0
:1031500083955051B9F7A05DAA3308F0A95DA193FA
:10316000009779F7B111B1931192CB0100C0DC0146
:10317000FC01672F71917723E1F7329704C07C91AE
:103180006D9370836291AE17BF07C8F3089540D066
:1031900008F481E00895E89409C097FB3EF4909507
:1031A0008095709561957F4F8F4F9F4F9923A9F020
:1031B000F92F96E9BB279395F695879577956795AF
:1031C000B795F111F8CFFAF4BB0F11F460FF1BC0F3
:1031D0006F5F7F4F8F4F9F4F16C0882311F096E986
:1031E00011C0772321F09EE8872F762F05C0662334
:1031F00071F096E8862F70E060E02AF09A95660FED
:10320000771F881FDAF7880F9695879597F90895A5
:10321000990F0008550FAA0BE0E8FEEF16161706E7
:10322000E807F907C0F012161306E407F50798F04F
:10323000621B730B840B950B39F40A2661F0232B68
:10324000242B252B21F408950A2609F4A140A695E4
:103250008FEF811D811D08950BD078C069D028F0B3
:103260006ED018F0952309F05AC05FC01124A2C097
:103270007ED0A0F3959FD1F3950F50E0551F629F2C
:10328000F001729FBB27F00DB11D639FAA27F00DBF
:10329000B11DAA1F649F6627B00DA11D661F829FE6
:1032A0002227B00DA11D621F739FB00DA11D621FCB
:1032B000839FA00D611D221F749F3327A00D611DE8
:1032C000231F849F600D211D822F762F6A2F1124CA
:1032D0009F5750408AF0E1F088234AF0EE0FFF1F1D
:1032E000BB1F661F771F881F91505040A9F79E3F54
:1032F000510570F014C05EC05F3FECF3983EDCF304
:10330000869577956795B795F795E7959F5FC1F790
:10331000FE2B880F911D9695879597F9089597F93B
:103320009F6780E870E060E008959FEF80EC08956B
:1033300000240A9416161706180609060895002494
:103340000A9412161306140605060895092E03940E
:10335000000C11F4882352F0BB0F40F4BF2B11F482
:1033600060FF04C06F5F7F4F8F4F9F4F089557FDE1
:103370009058440F551F59F05F3F71F04795880FE3
:1033800097FB991F61F09F3F79F08795089512167A
:1033900013061406551FF2CF4695F1DF08C0161626
:1033A00017061806991FF1CF8695710561050894D7
:1033B0000895E894BB2766277727CB0197F90895EE
:1033C000052E97FB16F400940FD057FD05D024D09E
:1033D00007FC02D046F408C05095409530952195E1
:1033E0003F4F4F4F5F4F0895909580957095619531
:1033F0007F4F8F4F9F4F089531D0A59F900DB49F61
:10340000900DA49F800D911D11240895B7FFF4CF56
:10341000F3DF821B930B0895A1E21A2EAA1BBB1B9C
:10342000FD010DC0AA1FBB1FEE1FFF1FA217B30790
:10343000E407F50720F0A21BB30BE40BF50B661FA6
:10344000771F881F991F1A9469F76095709580956A
:1034500090959B01AC01BD01CF010895A29FB001E1
:10346000B39FC001A39F700D811D1124911DB29FB8
:10347000700D811D1124911D08955058BB27AA2756
:103480000ED064CF55DF30F05ADF20F031F49F3F8B
:1034900011F41EF44ACF0EF4E095E7FB40CFE92F7C
:1034A00066DF80F3BA17620773078407950718F081
:1034B00071F49EF57ECF0EF4E0950B2EBA2FA02D61
:1034C0000B01B90190010C01CA01A0011124FF27D1
:1034D000591B99F0593F50F4503E68F11A16F040CC
:1034E000A22F232F342F4427585FF3CF46953795CB
:1034F0002795A795F0405395C9F77EF41F16BA0B90
:10350000620B730B840BBAF09150A1F0FF0FBB1F3D
:10351000661F771F881FC2F70EC0BA0F621F731F86
:10352000841F48F4879577956795B795F7959E3FE3
:1035300008F0B3CF9395880F08F09927EE0F979571
:10354000879508950CD002CFFADE40F0F1DE30F01E
:1035500021F45F3F19F0E3CE51112CCFE6CE07DF07
:1035600098F39923C9F35523B1F3951B550BBB274A
:10357000AA2762177307840738F09F5F5F4F220FF7
:10358000331F441FAA1FA9F333D00E2E3AF0E0E8F0
:1035900030D091505040E695001CCAF729D0FE2F3C
:1035A00027D0660F771F881FBB1F261737074807CE
:1035B000AB07B0E809F0BB0B802DBF01FF27935884
:1035C0005F4F2AF09E3F510568F0A9CEF3CE5F3FD2
:1035D000ECF3983EDCF3869577956795B795F7956C
:1035E0009F5FC9F7880F911D9695879597F9089564
:1035F000E1E0660F771F881FBB1F62177307840700
:10360000BA0720F0621B730B840BBA0BEE1F88F70E
:10361000E095089504D06894B111CCCE0895AFDE42
:1036200088F09F5790F0B92F9927B751A0F0D1F0AB
:10363000660F771F881F991F1AF0BA95C9F712C035
:10364000B13081F0B6DEB1E00895B3CE672F782FA8
:103650008827B85F39F0B93FCCF3869577956795A1
:10366000B395D9F73EF490958095709561957F4F0D
:103670008F4F9F4F0895CCDD08F48FEF0895DB0145
:103680008F939F93B9DEBF91AF91A29F800D911D43
:10369000A39F900DB29F900D11240895EE0FFF1F70
:1036A000881F8BBF0790F691E02D19942A193B09CA
:1036B0004C095D096E097F09800B910B0895002468
:1036C000A7FD00942A1730054005500560057005D8
:1036D0008005900508950F931F93CF93DF93823059
:1036E000910510F482E090E0E0913C04F0913D04FB
:1036F00030E020E0B0E0A0E0309799F421153105EA
:1037000009F44AC0281B390B24303105D8F58A81C9
:103710009B816115710589F1FB0193838283FE0111
:1037200011C0408151810281138148175907E0F08F
:103730004817590799F4109761F012960C93129755
:1037400013961C933296CF01DF91CF911F910F9169
:10375000089500933C0410933D04F4CF21153105E6
:1037600051F04217530738F0A901DB019A01BD015E
:10377000DF01F801C1CFEF01F9CF90933D048093B1
:103780003C04CDCFFE01E20FF31F819391932250B1
:10379000310939832883D7CF20913A0430913B04F3
:1037A000232B41F4209142023091430230933B0499
:1037B00020933A04209140023091410221153105B5
:1037C00041F42DB73EB74091440250914502241B6D
:1037D000350BE0913A04F0913B04E217F307A0F4B3
:1037E0002E1B3F0B2817390778F0AC014E5F5F4F57
:1037F0002417350748F04E0F5F1F50933B0440934A
:103800003A04819391939FCFF0E0E0E09CCFCF9377
:10381000DF930097E9F0FC01329713821282A091A6
:103820003C04B0913D04ED0130E020E01097A1F49C
:1038300020813181820F931F20913A0430913B0403
:103840002817390709F061C0F0933B04E0933A046C
:10385000DF91CF910895EA01CE17DF07E8F54A819D
:103860005B819E0141155105B1F7E901FB83EA83B4
:1038700049915991C40FD51FEC17FD0761F4808160
:1038800091810296840F951FE90199838883828133
:1038900093819B838A83F0E0E0E012968D919C9166
:1038A00013970097B9F52D913C911197CD01029690
:1038B000820F931F20913A0430913B042817390757
:1038C00039F6309751F510923D0410923C04B093B4
:1038D0003B04A0933A04BCCFD383C283408151817F
:1038E000840F951FC817D90761F44E5F5F4F888119
:1038F0009981480F591F518340838A819B8193830B
:1039000082832115310509F0B0CFF0933D04E09397
:103910003C049ECFFD01DC01C0CF13821282D7CFC1
:103920004F925F926F927F928F929F92AF92BF92CF
:10393000CF92DF92EF92FF920F931F93CF93DF937B
:103940008C01009791F4CB01DF91CF911F910F91E2
:10395000FF90EF90DF90CF90BF90AF909F908F90AF
:103960007F906F905F904F90B6CEFC01E60FF71FEF
:103970009C0122503109E217F30708F4AAC0D901CB
:10398000CD91DC911197C617D70718F1C530D10535
:1039900070F0CE0104978617970748F0C61BD70B27
:1039A0002297C193D1936D937C93CF0130DFC801EF
:1039B000DF91CF911F910F91FF90EF90DF90CF900B
:1039C000BF90AF909F908F907F906F905F904F903F
:1039D00008955B01AC1ABD0A4C018C0E9D1EA0918E
:1039E0003C04B0913D04512C412CF12CE12C10975A
:1039F00031F580913A0490913B048815990509F0BE
:103A00005CC04616570608F058C08091400290915D
:103A10004102009741F48DB79EB740914402509106
:103A20004502841B950BE817F90708F052C0F09384
:103A30003B04E0933A04F90171836083B8CF8D9120
:103A40009C91119712966C90129713967C901397F5
:103A5000A815B90559F56C0142E0C40ED11CCA1471
:103A6000DB0420F1AC014A195B09DA0112961597C3
:103A700080F06282738251834083D9016D937C937D
:103A8000E114F10471F0D7011396FC93EE931297B1
:103A90008ECF22968C0F9D1FF90191838083F301B5
:103AA000EFCFF0933D04E0933C0481CF48165906D4
:103AB00008F42C017D01D3019ACFCB010CDE7C01EF
:103AC000009739F0AE01B80107D0C801A0DE870128
:103AD0006ECF10E000E06BCFFB01DC0102C0019073
:103AE0000D9241505040D8F70895FB01DC01019040
:0C3AF0000D920020E1F70895F894FFCF3C
:103AFC007C057C057C057C057C057C057C057C05B2
:103B0C002B00000000000000250000000000000059
:103B1C000C0000000000000043000000000000004A
:103B2C003D00000000000000170000000000000035
:103B3C0000003E048000314E6F646532314E6F647C
:103B4C006531000000009C023E013402E80265026F
:103B5C00430257020D0A005374617274696E672E2A
:103B6C002E2E00536574757020636F6D706C6574C8
:103B7C006564005B584C20594C20585220595220F7
:103B8C004D5347204354524C2053535D203D20004D
:00000001FF
